:100000000C940E020C9436020C9436020C943602B8
:100010000C9436020C9436020C9436020C94360280
:100020000C9436020C9436020C949A220C9468219B
:100030000C9436020C9436020C9436020C94360260
:100040000C9436020C9436020C9436020C94360250
:100050000C9436020C9436020C9436020C949618CA
:100060000C9436020C94E21B0C94141C0C94360273
:100070000C9436020C9436020C9436020C94360220
:100080000C9436020C9436020C9436020C94360210
:100090000C9436020C9436020C9436020C94360200
:1000A0000C9436020C9436020C943602E019E319D3
:1000B000D219D619DC19041A041A041AE719EB1913
:1000C000EF19F519F919041AFF1972756E2D62727C
:1000D000696467650A000A000A00302E302E302E4F
:1000E00030003132372E302E302E3100005EBCE22F
:1000F000613FDD83C29C7E20A3FD1F419DC3217F04
:10010000FCA2401E5F01E3BD3E6082DC237D9FC1F7
:10011000421CFEA0E1BF5D0380DE3C62BEE0025CEB
:10012000DF81633D7C22C09E1D43A1FF4618FAA4D7
:1001300027799BC584DA3866E5BB5907DB856739C3
:10014000BAE406581947A5FB7826C49A653BD987B7
:10015000045AB8E6A7F91B45C6987A24F8A6441AAB
:1001600099C7257B3A6486D85B05E7B98CD2306E97
:10017000EDB3510F4E10F2AC2F7193CD114FADF383
:10018000702ECC92D38D6F31B2EC0E50AFF1134D77
:10019000CE90722C6D33D18F0C52B0EE326C8ED06B
:1001A000530DEFB1F0AE4C1291CF2D73CA94762857
:1001B000ABF517490856B4EA6937D58B5709EBB543
:1001C00036688AD495CB2977F4AA4816E9B7550B37
:1001D00088D6346A2B7597C94A14F6A8742AC8962B
:1001E000154BA9F7B6E80A54D7896B3507060504FD
:1001F0000100080A0B0C0D090000000200090F00A5
:1002000000030401000C00000000000000000000DA
:10021000000000000000040802011040804010208F
:1002200040804080080204018040201002011080BC
:1002300010204040040404040403040502020202E6
:10024000040302020202060606060606040402026F
:100250000204000000002300260029002C002F00CB
:1002600000000000250028002B002E0031000000B7
:100270000000240027002A002D00300000C18081EA
:10028000C11201000202000040412341800001012F
:1002900002000112010002000000404123418000E1
:1002A000010102000141726475696E6F204C4C437C
:1002B0000041726475696E6F2059756E0004030900
:1002C00004080B00020202010009040000010202FE
:1002D0000000052400100105240101010424020688
:1002E00005240600010705810310004009040100F0
:1002F000020A000000070502024000000705830211
:1003000040000000000000000000002A2B28000030
:1003100000000000000000000000000000000000DD
:100320000000002C9EB4A0A1A2A434A6A7A5AE36BE
:100330002D3738271E1F20212223242526B333B62C
:100340002EB7B89F8485868788898A8B8C8D8E8FFF
:10035000909192939495969798999A9B9C9D2F3102
:1003600030A3AD350405060708090A0B0C0D0E0F66
:10037000101112131415161718191A1B1C1DAFB1E2
:10038000B0B50009040200010300000009210101C9
:1003900000012265000705840340000105010902F0
:1003A000A1010901A1008501050919012903150011
:1003B00025019503750181029501750581030501EC
:1003C0000930093109381581257F750895038106A3
:1003D000C0C005010906A1018502050719E029E74A
:1003E00015002501750195088102950175088103A5
:1003F0009506750815002565050719002965810012
:10040000C000C9050F0AAE0BB60BBD0B75107A11F3
:10041000441CCD1CBC250F271606B20B11241FBE91
:10042000CFEFDAE0DEBFCDBF15E0A0E0B1E0EEE750
:10043000F8E502C005900D92A03CB107D9F728E07D
:10044000A0ECB5E001C01D92AB3FB207E1F714E0AC
:10045000C8E1D4E004C02297FE010E947329C23093
:10046000D107C9F70E94DD1C0C94322C0C940000BB
:100470006BE171E080E597E00E945B1D64E471E050
:1004800080E597E00E945B1D61E671E080E597E002
:100490000E945B1D6AE771E080E597E00E945B1DAA
:1004A00062EA71E080E597E00E945B1D6DEB71E010
:1004B00080E597E00E945B1D62EE71E080E597E0C9
:1004C0000E945B1D65E072E080E597E00E945B1D85
:1004D00065E372E080E597E00E945B1D6EE472E0E8
:1004E00080E597E00E945B1D67E373E080E597E09D
:1004F0000C945B1D66E672E080E597E00E945B1D50
:1005000082E10E9497194AE050E0BC0180E597E043
:100510000E942D1E66E373E080E597E00C945B1D5E
:100520008F929F92AF92BF92CF92DF92EF92FF9203
:100530000F931F9382E497E00E9451166093B306D5
:100540007093B4068093B5069093B60660E082E49B
:1005500097E00E94DD156093B7067093B80680930C
:10056000B9069093BA0661E082E497E00E94DD1537
:100570006B017C016093BB067093BC068093BD0643
:100580009093BE068090B3069090B406A090B506F6
:10059000B090B606A5019401C501B4010E943729A7
:1005A000811116C06091B7067091B8068091B906A6
:1005B0009091BA069B01AC010E943729811108C0B5
:1005C000A7019601C701B6010E943729882319F0B7
:1005D00061E772E062C095018401B701A60182E47F
:1005E00097E00E9442146093BF067093C006809308
:1005F000C1069093C2066DE972E080E597E00E9423
:100600005B1D4091B3065091B4066091B5067091A0
:10061000B60622E030E080E597E00E94341F62EBEE
:1006200072E080E597E00E945B1D4091B706509113
:10063000B8066091B9067091BA0622E030E080E514
:1006400097E00E94341F6DEB72E080E597E00E9416
:100650005B1D4091BB065091BC066091BD06709138
:10066000BE0622E030E080E597E00E94341F68EC8F
:1006700072E080E597E00E945B1D4091BF065091BB
:10068000C0066091C1067091C20622E030E080E5AC
:1006900097E00E94341F67E373E080E597E01F91C5
:1006A0000F91FF90EF90DF90CF90BF90AF909F9011
:1006B0008F900C945B1DCF92DF92EF92FF928FE1AF
:1006C00097E00E94941362EE72E080E597E00E944A
:1006D0005B1D1092B2061092B1062091B1063091C6
:1006E000B20680911D0790911E07281739070CF05C
:1006F00093C069ED72E080E597E00E945B1D609118
:10070000B1067091B2066F5F7F4F4AE050E080E51E
:1007100097E00E942D1E6FED72E080E597E00E9449
:100720005B1D64EE72E080E597E00E945B1D6091C6
:10073000B1067091B20693E0660F771F9A95E1F7C4
:100740006353794F40E150E080E597E00E942D1E11
:1007500061EF72E080E597E00E945B1D65EF72E05B
:1007600080E597E00E945B1D6091B1067091B20632
:10077000FB01ED53F94F80818823E9F083E0660F98
:10078000771F8A95E1F76353794F8FE197E00E94D5
:1007900025146B017C016093B3067093B4068093BB
:1007A000B5069093B60620E030E048EC52EC0E948B
:1007B000812787FF07C06FEF72E080E597E00E9416
:1007C0005B1D08C022E030E0B701A60180E597E09C
:1007D0000E94341F67E373E080E597E00E945B1D91
:1007E00080911D0790911E0701972091B1063091CD
:1007F000B2062817390731F064E073E080E597E02E
:100800000E945B1D8091B1069091B2060196909373
:10081000B2068093B10661CF67E373E080E597E0AD
:10082000FF90EF90DF90CF900C945B1D67E073E03A
:1008300080E597E00E945B1D6FE776E080E597E03A
:100840000E945B1D6AE972E080E597E00C945B1DF5
:1008500065E173E080E597E00E945B1DE091400751
:10086000F09141070994FF920F931F93CF93DF9369
:1008700000D000D000D0CDB7DEB78C01F62E63E1FA
:1008800073E08BE196E00E94B12BB8018BE196E01A
:100890000E949D2B63E173E08BE196E00E949D2B0B
:1008A00069E373E0CE0101960E947C23BE016F5F75
:1008B0007F4F80EC95E00E945F0DCE0101960E9473
:1008C0000E23FF2019F060E473E002C065E673E0D8
:1008D000CE0101960E947C23BE016F5F7F4F80ECAA
:1008E00095E00E944F0CCE0101960E940E236BE111
:1008F00076E0CE0101960E947C23BE016F5F7F4FA0
:1009000080EC95E00E944F0CCE0101960E940E23D0
:1009100080EC95E00E94180D80EC95E00E94C50CDB
:100920008111FACFFF2029F163E873E080E597E0B9
:100930000E945B1DB80180E597E00E945B1D66E99F
:1009400073E080E597E00E945B1D80EC95E00E94DB
:100950001A0C1816190654F480EC95E00E94240C29
:10096000682F80E597E00E945D1DEFCF6AE972E095
:1009700014C080EC95E00E941A0C18161906CCF3EE
:1009800063E873E080E597E00E945B1DB80180E5B5
:1009900097E00E945B1D65E373E080E597E00E94AD
:1009A0005B1D26960FB6F894DEBF0FBECDBFDF915C
:1009B000CF911F910F91FF90089561ED73E080E555
:1009C00097E00E94781D6DED73E080E597E00E944E
:1009D000781D80E597E00C94641D1F93CF93DF93FF
:1009E0008FE197E00E94951190E090931E0780930D
:1009F0001D071092B2061092B10611E0C091B10627
:100A0000D091B20680911D0790911E07C817D90793
:100A1000DCF56CEF73E08FE796E00E94B12BBE012E
:100A200023E0660F771F2A95E1F76353794F4C2F28
:100A30008FE197E00E94A7112091B1063091B20694
:100A4000F901ED53F94F811114C010824AE065E1BC
:100A500076E0C90101960E94C32BBC018FE796E0A6
:100A60000E949D2B65E073E08FE796E00E949D2B2E
:100A700001C010838091B1069091B20601969093C7
:100A8000B2068093B106BACFDF91CF911F9108953E
:100A9000CF93DF9300D000D000D0CDB7DEB7BC013C
:100AA000CE0101960E947C23BE016F5F7F4F80ECD8
:100AB00095E00E94C30DCE0101960E940E2380ECAA
:100AC00095E00E94C50C8111FACF80EC95E00E9460
:100AD0001A0C1816190674F480EC95E00E94240C88
:100AE00080931A068A3089F3682F80E597E00E9488
:100AF0005D1DEBCF26960FB6F894DEBF0FBECDBFBF
:100B0000DF91CF91089560E174E080E597E00E9465
:100B10005B1D8FE194E00E94480565E373E080E58A
:100B200097E00C945B1D69E374E080E597E00E9418
:100B30005B1D0E947A0265E474E080E597E00E9404
:100B40005B1D0E9490026FE474E080E597E00E94D4
:100B50005B1D0E945B0362E674E080E597E00E9403
:100B60005B1D0E94830567E373E080E597E00C94CA
:100B70005B1D63E774E080E597E00E945B1D8EE7F4
:100B800094E00E94480565E373E080E597E00C94EB
:100B90005B1D0F9300E020E040E060E08DEA97E00D
:100BA0000E94C11C43EB57E063EB75E183EA97E0D9
:100BB0000E941F1163EB77E080E597E00E94B30F7E
:100BC00026E046E16AE082E497E00E94291462E0B0
:100BD00082E397E00E94CF1762E377E08FE197E02E
:100BE0000E9486111092C3051092C20588EE93E010
:100BF000A0E0B0E08093C4059093C505A093C6051E
:100C0000B093C70586E495E09093C1058093C00535
:100C100083EB97E09093CD058093CC051092D2059D
:100C20001092D3051092D4050F91089580EC95E0B1
:100C30000E94580D80E597E00C94CA0F61E08DE0AA
:100C40000E94051A60E08DE00E943E1A26E040E90D
:100C500050ED63E070E08091BC079091BD070E9469
:100C6000801B83EB97E00E94080982E497E00E94D2
:100C700030148FE197E00E94B2120E94ED041092AE
:100C8000AA0783EA97E00E94801061E08DE00C944F
:100C90003E1ACF93DF93CDB7DEB7C355D1090FB658
:100CA000F894DEBF0FBECDBF63EA77E0CE010196B8
:100CB0000E942D11BE016F5F7F4F80E597E00E947B
:100CC000D00FCE0101960E94CA0F80916007882341
:100CD00009F48AC060E577E0CE0101960E94641FA6
:100CE000CE0101960E949F240E94DD0466EA74E012
:100CF000CE0101960E948024882319F00E94900260
:100D00006BC06BEA74E0CE0101960E9480248823B8
:100D100019F00E945B0360C061EB74E0CE010196A4
:100D20000E948024882319F00E947A0255C067EB44
:100D300074E0CE0101960E948024882319F00E945D
:100D400016044AC06BEB74E0CE0101960E94802429
:100D5000882319F00E9428043FC061EC74E0CE01A2
:100D600001960E948024882319F00E94830534C0D4
:100D700066EC74E0CE0101960E948024882319F06D
:100D80000E94930529C06BEC74E0CE0101960E948D
:100D90008024882321F060E083ED94E00BC066EEB0
:100DA00074E0CE0101960E948024882331F061E036
:100DB0008EEE94E00E9433040FC062E075E0CE0135
:100DC00001960E948024882329F080E195E00E940A
:100DD000B90502C00E94380280E597E00E94850EA6
:100DE000CE0101960E940E2361E08DE00E943E1A22
:100DF00062E370E080E090E00E940F19CD5ADF4F6F
:100E00000FB6F894DEBF0FBECDBFDF91CF9108952E
:100E1000FC01238134812627022E2295207F202564
:100E2000032E322F22952F70022626953227232754
:100E3000220F220F220F2025FC01348323830895E3
:100E4000CF93DF93EC018D819E81DC01ED91FC91CC
:100E50006C810190F081E02D09958D819E81DC01EE
:100E6000ED91FC910190F081E02D6B81DF91CF91AC
:100E700009948F929F92AF92BF92CF92DF92EF929E
:100E8000FF92CF93DF93EC016B010E94E0184B01BE
:100E90005C01E12CF12C8D819E81DC01ED91FC91B6
:100EA0000680F781E02D099597FF0DC00E94E0189C
:100EB000681979098A099B096C157D058E059F05BE
:100EC00050F38FEF9FEFDF91CF91FF90EF90DF9086
:100ED000CF90BF90AF909F908F900895CF93DF9366
:100EE000EC018D819E81DC01ED91FC910480F58106
:100EF000E02D09951816190654F48D819E81DC01A8
:100F0000ED91FC910680F781E02D0995EACFDF9104
:100F1000CF9108952F923F924F925F926F927F925E
:100F20008F929F92AF92BF92CF92DF92EF92FF92F9
:100F30000F931F93CF93DF93CDB7DEB72D970FB6E7
:100F4000F894DEBF0FBECDBF3C011B013C832B8359
:100F5000BF82AE825801AC0CBD1CA40EB51EBD8272
:100F60004B2C512CCA01860F971F99878887D9016E
:100F7000A00FB11FBB87AA87F601EE0DFF1DFD87ED
:100F8000EC87D30118968C91581608F026C1EFEF24
:100F9000FFEFD3011496FC93EE93139715968D9162
:100FA0009C911697DC01ED91FC910190F081E02D70
:100FB0006FEF09956FEFC3010E940807F301858168
:100FC0009681DC01ED91FC910190F081E02DD3013F
:100FD0006C910995F3016081C3010E940807D30158
:100FE00015968D919C911697DC01ED91FC910190E5
:100FF000F081E02D6D810995642DC3010E940807E1
:10100000F30185819681DC01ED91FC910190F081E5
:10101000E02D6A2D09956A2DC3010E940807610120
:1010200088859985C816D906A1F0F3018581968136
:101030008601DC01ED91FC910190F081E02DD6015B
:101040006D916D010995F8016081C3010E94080747
:10105000E7CFCB80DC808A859B85C816D906B1F0A6
:10106000D30115968D919C9116978601DC01ED9127
:10107000FC910190F081E02DD6016D916D010995F3
:10108000F8016081C3010E940807E5CF87018C85C4
:101090009D8508171907B1F0D30115968D919C9184
:1010A00016976801DC01ED91FC910190F081E02D33
:1010B000D8016D918D010995F6016081C3010E94EF
:1010C0000807E5CFC3010E94200764E670E0C30172
:1010D0000E9439078F3F910509F074C0EFEFFFEFD1
:1010E000D3011496FC93EE9313976FEFC3010E9404
:1010F000080765E070E0C3010E943907D3016C91D5
:10110000262F30E08217930709F05CC0C3010E94CC
:1011100008076AE070E0C3010E9439078C0197FD5F
:1011200051C0682FC3010E9408076AE070E0C30144
:101130000E9439076C0197FD45C0682FC3010E94CA
:1011400008070A83198209811A810C0D1D1DC12C03
:10115000D12C65E070E0C301C016D106A1F0C8141F
:10116000D90489F00E94390797FD09C0EE81FF81FB
:10117000EC0DFD1D8083682FC3010E940807BFEF9F
:10118000CB1ADB0AE6CF0E9439076C0197FD1AC023
:1011900065E070E0C3010E94390797FD13C0DC2CA5
:1011A000CC24C80ED91EF301838194818C159D0532
:1011B00049F480818F5F8083C8018016910678F49E
:1011C000C4010DC0539464E670E080E090E00E949A
:1011D0000F19C3010E946E07D4CE8FEF9FEF2D969B
:1011E0000FB6F894DEBF0FBECDBFDF91CF911F9138
:1011F0000F91FF90EF90DF90CF90BF90AF909F90B6
:101200008F907F906F905F904F903F902F900895B8
:101210003F924F925F926F927F928F929F92AF9286
:10122000BF92CF92DF92EF92FF920F931F93CF93D3
:10123000DF93CDB7DEB72E970FB6F894DEBF0FBEA3
:10124000CDBF3C01DC0117968C9117978111CFC05F
:1012500081E017968C93C3010E946E0768EE73E0DD
:1012600080E090E00E940F19F30185819681DC01F6
:10127000ED91FC910480F581E02D09951816190671
:1012800054F355E0552E4424439462E3362EE1E1B5
:10129000F1E0DE011696852D01900D928A95E1F719
:1012A000F3014086812C912CA12CB12CC12CD12C86
:1012B000E12CF12C00E010E020E030E045E050E0CF
:1012C000BE016A5F7F4FC3010E948A0763E0D301BA
:1012D00015968D919C9116970E945D1D6AEF70E0A6
:1012E00080E090E00E940F1968ED70E0F3018581C5
:1012F00096810E94361D6AEF70E080E090E00E94C7
:101300000F1966ED70E0D30115968D919C9116979B
:101310000E94361D64EF71E080E090E00E940F199A
:101320006AEC70E0F301858196810E94361D64EFBE
:1013300071E080E090E00E940F19C3010E946E07E7
:10134000E6E1F1E0DE011196852D01900D928A957E
:10135000E1F7D30118963C9244E0842E912CFE01D3
:101360003B965F0120E030E045E050E0BE016F5F5A
:101370007F4FC3010E948A078F3FFFEF9F0739F419
:1013800068EE73E080E090E00E940F1980CF2B851B
:101390002111FFCF049711F52C8530E0205331093E
:1013A00044E6429FC001439F900D11242D8530E0FB
:1013B000205331096AE0629FA001639F500D112400
:1013C000840F951F2E8530E020533109820F931F23
:1013D000D30112969C938E93119705C084E690E0FA
:1013E000F3019283818382E3D30118968C932E9626
:1013F0000FB6F894DEBF0FBECDBFDF91CF911F9126
:101400000F91FF90EF90DF90CF90BF90AF909F90A3
:101410008F907F906F905F904F903F9008951092C3
:10142000B3078EEE97E09093B9078093B8071092B8
:10143000BA071092BB079093BD078093BC0708952D
:101440008F929F92AF92BF92CF92DF92EF92FF92D4
:101450000F931F9348015901C12CD12CE12CF12C81
:1014600000E010E020E030E00E948A071F910F9119
:10147000FF90EF90DF90CF90BF90AF909F908F90B4
:1014800008950F931F9300E010E020E030E00E94E9
:10149000200A1F910F910895CF93DF9300D0CDB70D
:1014A000DEB7DC0152968C915297882389F080E553
:1014B00089836A8342E050E0BE016F5F7F4F1C96D4
:1014C0008D919C911D970E94410A81E090E01FC080
:1014D0005596ED91FC91569753968C91539791E0C8
:1014E000980F53969C935397E80FF11D6083539682
:1014F0009C91539754968C915497981308C0ED91F2
:10150000FC9111970284F385E02DCD0109950F9090
:101510000F90DF91CF910895AF92BF92CF92DF925B
:10152000EF92FF920F931F93CF93DF9300D0CDB72D
:10153000DEB75C017A01DC0152968C91811104C006
:101540008B01E60EF71E41C06A01BFEFCB1ADB0A22
:10155000C60169837A830E94F21C8C01FC0180E53C
:101560008193A70169817A81CF010E94942BA60102
:10157000B801F501848595850E94410A0115110580
:1015800019F0C8010E94F61CC70122C0D50155966A
:10159000ED91FC91569753968C91539791E0980F4B
:1015A00053969C93D8019D918D01E80FF11D908376
:1015B000F50193898489981308C00190F081E02D8A
:1015C0000284F385E02DC50109950E151F05F1F67E
:1015D0000F900F90DF91CF911F910F91FF90EF909F
:1015E000DF90CF90BF90AF900895CF93DF93EC0141
:1015F0008A8981110AC04B8950E06D897E898C856A
:101600009D850E94410A81E08B8BDF91CF910895E7
:10161000FC011382128248EE53E060E070E04483E4
:1016200055836683778388E295E09183808383EB9B
:1016300097E09587848716861786118A108A81E03D
:10164000828B0895CF93DF93EC018A89811108C0C2
:101650008D899E89009711F00E94F61C81E08A8B8B
:10166000DF91CF910895EF92FF920F931F93CF9345
:10167000DF9300D0CDB7DEB77C01FC0186858111F8
:1016800014C0178680E7898380E28A8320893189A4
:1016900000E210E042E050E0BE016F5F7F4F8485C2
:1016A00095850E94200AF70186870F900F90DF91A1
:1016B000CF911F910F91FF90EF900895CF93DF93FB
:1016C000EC010E94330B8E8590E0DF91CF9108955D
:1016D000CF93DF93EC010E94330B8E85882369F052
:1016E00081508E87E889F9898F8591E0980F9F87CF
:1016F000E80FF11D808190E002C08FEF9FEFDF9136
:10170000CF910895CF93DF93EC010E94330B8E8528
:10171000882341F08F85E889F989E80FF11D8081E0
:1017200090E002C08FEF9FEFDF91CF910895CF93AC
:10173000DF93EC010E94220B88899989009721F0A0
:101740000E94F61C198A188ADF91CF91089528E229
:1017500035E0FC01318320830C94970B8EEB97E0EE
:101760000C94080B8EEB97E00C94A70B83EB97E09F
:101770009093D6078093D507089583EB97E09093D5
:10178000D8078093D707089508950F931F93CF9399
:10179000DF9300D01F92CDB7DEB729E42983FC0187
:1017A00026852A836B8300E010E020E030E043E0F0
:1017B00050E0BE016F5F7F4F848595850E94200AAF
:1017C00081E090E00F900F900F90DF91CF911F91EB
:1017D0000F910895EF92FF920F931F93CF93DF9392
:1017E00000D01F92CDB7DEB77C01FC018389811147
:1017F00017C0148A8FE4898386858A8380E48B836B
:1018000097012B5E3F4F00E410E043E050E0BE0143
:101810006F5F7F4F848595850E94200AF701838B37
:101820000F900F900F90DF91CF911F910F91FF902C
:10183000EF900895CF93DF93EC010E94EA0B8B8920
:1018400090E0DF91CF910895CF93DF93EC010E9458
:10185000EA0B8B89882359F081508B8B8C8991E01E
:10186000980F9C8BC80FD11D8D8990E002C08FEF1F
:101870009FEFDF91CF910895CF93DF93EC010E940A
:10188000EA0B8B89882331F08C89C80FD11D8D8993
:1018900090E002C08FEF9FEFDF91CF9108950F93FB
:1018A0001F93CF93DF93EC018B0164E375E088898C
:1018B00099890E943024B80188899989DF91CF9154
:1018C0001F910F910C9429246F927F928F929F9277
:1018D000AF92BF92CF92DF92EF92FF920F931F933E
:1018E000CF93DF9300D01F92CDB7DEB73C0182E5E6
:1018F0008B83D3015096ED91FC9151970481158112
:101900002081318182E0882E912CFE0131965F0189
:10191000C12CD12CE12CF12C41E050E0BE016D5FD7
:101920007F4F1C968D919C911D970E948A078A81FA
:1019300090E0D3011F969C938E931E9750960D9125
:101940001C9151970115110531F0C8010E940E2319
:10195000C8010E94F41CF301118A108A8981811147
:1019600002C081E0828B0F900F900F90DF91CF919A
:101970001F910F91FF90EF90DF90CF90BF90AF90AD
:101980009F908F907F906F9008950F931F93CF93A8
:10199000DF9300D01F92CDB7DEB722E72983FC0189
:1019A00026852A8301E010E09E012D5F3F4F42E033
:1019B00050E0BE016F5F7F4F848595850E94200AAD
:1019C00081E09B81913009F080E00F900F900F90A3
:1019D000DF91CF911F910F9108950F931F93CF9394
:1019E000DF9300D000D0CDB7DEB727E52B83FC0115
:1019F00026852C8302E010E09E012F5F3F4F42E0DE
:101A000050E0BE016D5F7F4F848595850E94200A5E
:101A1000898190E0982F88272A81820F911D0F904D
:101A20000F900F900F90DF91CF911F910F9108951C
:101A3000CF93DF93EC010E94640CCE010E94C50C91
:101A4000882339F064E670E080E090E00E940F198E
:101A5000F4CFCE01DF91CF910C94ED0CEF92FF9279
:101A60000F931F93CF93DF9300D0CDB7DEB77C01E8
:101A7000FC018289882389F087E7898386858A83A8
:101A800000E010E020E030E042E050E0BE016F5F97
:101A90007F4F848595850E94200AF701128A0F9056
:101AA0000F90DF91CF911F910F91FF90EF900895CC
:101AB00026E435E0FC01318320830C942E0DEF9257
:101AC000FF920F931F93CF93DF9300D0CDB7DEB774
:101AD0007C0169837A830E942E0D86E090E00E944B
:101AE000F01C8C0169817A810E94CA23F701118B55
:101AF000008B0F900F90DF91CF911F910F91FF906E
:101B0000EF900895EF92FF920F931F93CF93DF937F
:101B100000D000D000D0CDB7DEB78C017B0166E3EA
:101B200075E0CE0101960E947C23BE016F5F7F4F5E
:101B3000C8010E945F0DCE0101960E940E236FE343
:101B400075E0CE0101960E947C23BE016F5F7F4F3E
:101B5000C8010E944F0CCE0101960E940E23B701CE
:101B6000C8010E944F0CC8010E94640C26960FB653
:101B7000F894DEBF0FBECDBFDF91CF911F910F91C3
:101B8000FF90EF900895CF93DF93EC010E94820DB8
:101B9000CE010E94C50C882339F064E670E080E035
:101BA00090E00E940F19F4CFCE01DF91CF910C94F9
:101BB000ED0CFC01808908950895EF92FF920F9338
:101BC0001F93CF93DF93CDB7DEB728970FB6F89466
:101BD000DEBF0FBECDBF7C018B0166E073E0CE019E
:101BE00001964F8358870E947C2362E170E0CE010A
:101BF00001960E943F23D80112966C91CE01019666
:101C00000E9453246EE2CE0101960E944024F80106
:101C10006381CE0101960E9453246EE2CE010196AB
:101C20000E944024D80114966C91CE0101960E9426
:101C300053246EE2CE0101960E944024F801658192
:101C4000CE0101960E945324D701ED91FC91698148
:101C50007A810684F785E02D4F815885C701099563
:101C60008C01CE0101960E940E23C80128960FB662
:101C7000F894DEBF0FBECDBFDF91CF911F910F91C2
:101C8000FF90EF9008956F927F928F929F92AF9204
:101C9000BF92CF92DF92EF92FF920F931F93CF9359
:101CA000DF9300D0CDB7DEB7FC019B013A018089FC
:101CB0008823C1F08CE6898386858A83812C912CC8
:101CC000A12CB12CC12CD12CE12CF12C8A0142E0A9
:101CD00050E0BE016F5F7F4F848595850E948A0723
:101CE000C30102C080E090E00F900F90DF91CF9190
:101CF0001F910F91FF90EF90DF90CF90BF90AF902A
:101D00009F908F907F906F900895EF92FF920F9326
:101D10001F93CF93DF9300D0CDB7DEB77C01FC01DA
:101D20008089882389F08AE6898386858A8300E012
:101D300010E020E030E042E050E0BE016F5F7F4FF6
:101D4000848595850E94200AF701108A0F900F90D4
:101D5000DF91CF911F910F91FF90EF9008950F9316
:101D60001F93CF93DF9300D01F92CDB7DEB7FC0156
:101D700080898823B1F08CE4898386858A8301E099
:101D800010E09E012D5F3F4F42E050E0BE016F5FCB
:101D90007F4F848595850E94200A81E09B81913048
:101DA00009F080E00F900F900F90DF91CF911F917D
:101DB0000F9108956F927F928F929F92AF92BF92F0
:101DC000CF92DF92EF92FF920F931F93CF93DF9307
:101DD000CDB7DEB727970FB6F894DEBF0FBECDBFE5
:101DE0003C019B0183E489835A834B83DB010D9083
:101DF0000020E9F78D0101501109061B170B8824FB
:101E00008394912CFE0137965F01C12CD12CE12CDB
:101E1000F12C43E050E0BE016F5F7F4FD3011C9671
:101E20008D919C911D970E948A07892BE1F12F814A
:101E3000822F90E0F3019787868783E68C832D833A
:101E400001E010E09E012A5F3F4F42E050E0BE01FA
:101E50006C5F7F4FD3011C968D919C911D970E94C2
:101E6000200A8E81882339F061E070E080E090E004
:101E70000E940F19E5CF81E0F301808B0190F08182
:101E8000E02D0488F589E02DC301099581110EC06C
:101E9000D301ED91FC910288F389E02DC3010995EE
:101EA000F3011786168680E090E002C081E090E0A2
:101EB00027960FB6F894DEBF0FBECDBFDF91CF914E
:101EC0001F910F91FF90EF90DF90CF90BF90AF9058
:101ED0009F908F907F906F9008950F931F93CF9353
:101EE000DF9300D01F92CDB7DEB7FC018089882335
:101EF000A9F08CE6898386858A836B8300E010E0F5
:101F000020E030E043E050E0BE016F5F7F4F84850A
:101F100095850E94200A81E090E002C080E090E078
:101F20000F900F900F90DF91CF911F910F91089517
:101F30000F931F93FC011382128208EE13E020E03E
:101F400030E0048315832683378386E595E091830B
:101F50008083558744877787668781E0808B118AE5
:101F60001F910F910895FC01CB011382128248EE5C
:101F700053E060E070E0448355836683778326E511
:101F800035E0318320839587848717861686108AEB
:101F9000118A089526E535E0FC01318320830895F8
:101FA000FB012089FC01208BFB0126853785FC0184
:101FB000378726870895EF92FF920F931F93CF9351
:101FC000DF9300D01F92CDB7DEB77C01FC01818981
:101FD000811117C0128A8BE4898386858A8380E405
:101FE0008B8397012D5E3F4F00E410E043E050E00B
:101FF000BE016F5F7F4F848595850E94200AF7019F
:10200000818B0F900F900F90DF91CF911F910F91C7
:10201000FF90EF900895CF93DF93EC010E94DB0FC8
:10202000898990E0DF91CF910895CF93DF93EC0100
:102030000E94DB0F8989882359F08150898B8A8916
:1020400091E0980F9A8BC80FD11D8B8990E002C048
:102050008FEF9FEFDF91CF910895CF92DF92EF92B4
:10206000FF920F931F93CF93DF93EC016A018B01D3
:10207000E12CF12C89898823A9F08FEFE81AF80A5E
:102080008A8991E0980F9A8BFE01E80FF11D8389F0
:10209000F80181938F0189898150898BEC14FD04AB
:1020A00048F306C0CE010E94DB0F89898111E5CF7C
:1020B000C701DF91CF911F910F91FF90EF90DF90BB
:1020C000CF900895CF93DF93EC010E94DB0F8989B5
:1020D000882331F08A89C80FD11D8B8990E002C016
:1020E0008FEF9FEFDF91CF9108950F9300E020E0F5
:1020F00040E060E089ED97E00E94C11C0F910895D7
:102100006F927F928F929F92AF92BF92CF92DF9207
:10211000EF92FF920F931F93CF93DF93CDB7DEB76C
:102120002A970FB6F894DEBF0FBECDBF3C018EE4F8
:102130008F83F301848195819887898762EE70E0AF
:10214000CE0101960E94F423F3018781811106C01C
:102150006AED70E0CE0101960E94D3230D811E81AD
:1021600029813A8188248394912CCE010A965C01BE
:10217000C12CD12CE12CF12C43E050E0BE01695F71
:102180007F4FF301808591850E948A0781E09A85BF
:10219000913009F080E0F3018683CE0101960E9420
:1021A0000E232A960FB6F894DEBF0FBECDBFDF9187
:1021B000CF911F910F91FF90EF90DF90CF90BF9044
:1021C000AF909F908F907F906F9008958F929F9285
:1021D000AF92BF92CF92DF92EF92FF920F931F9335
:1021E000CF93DF9300D0CDB7DEB722E629836A8391
:1021F000812C912CA12CB12CC12CD12CE12CF12CB7
:1022000000E010E020E030E042E050E0BE016F5F0F
:102210007F4FFC01808591850E948A0781E090E0D4
:102220000F900F90DF91CF911F910F91FF90EF9042
:10223000DF90CF90BF90AF909F908F900895FC015A
:102240001382128282E795E0918380837583648391
:10225000168217825187408708956F927F928F92DE
:102260009F92AF92BF92CF92DF92EF92FF920F9325
:102270001F93CF93DF9300D0CDB7DEB73C01FB01B6
:102280008BE68A8388248394912CCE0101965C018D
:10229000C12CD12CE12CF12C00E010E020E030E04A
:1022A00041E050E0BE016E5F7F4F808591850E94C6
:1022B0008A07892B31F463EB77E0C3010E94B30FE7
:1022C00007C0698170E043EB57E0C3010E94980F9B
:1022D000C3010F900F90DF91CF911F910F91FF904D
:1022E000EF90DF90CF90BF90AF909F908F907F90B6
:1022F0006F9008950F9300E020E040E060E08FEDE4
:1023000097E00E94C11C0F9108950895FC0185E893
:1023100091E1928B818B768365831482108289E0B0
:10232000818381E0828383830895FC018481089501
:10233000CF93DF93EB0167E0CE010E948A1891E012
:102340002F81821390E0892FDF91CF910895EF9232
:10235000FF920F931F93CF93DF93EC018B01E42E39
:102360008D819E810E94BD17F12CB8018D819E81C7
:102370000E94F217882359F0FE1006C0B801CE0162
:102380000E949811811104C0F394EF1470F780E05B
:10239000DF91CF911F910F91FF90EF900895EF92F1
:1023A000FF920F931F93CF93DF9300D0CDB7DEB78B
:1023B0007C018A01FC018581968169837A830E9470
:1023C000961669817A81F701858196810E9491171D
:1023D00040E06EEBF701858196810E943317F7018B
:1023E000858196810E947517F8018083F7018581A8
:1023F00096810E947517F8018183F7018581968186
:102400000E947517F8018283F701858196810E94E9
:102410007517F8018383F701858196810E947517EE
:10242000F8018483F701858196810E947517F80170
:102430008583F701858196810E947517F80186834F
:10244000F701858196810E947517F8018783F7014E
:10245000858196810E947517F8018087F701858133
:1024600096810F900F90DF91CF911F910F91FF9068
:10247000EF900C949616CF93DF93EA010E94CF1150
:1024800068E0CE010E948A1891E02885821390E0CE
:10249000892FDF91CF910895EF92FF921F93CF93F1
:1024A000DF9300D0CDB7DEB77C01FC01858196813A
:1024B00069837A830E94961669817A81F701858102
:1024C00096810E94911740E064EBF7018581968127
:1024D0000E943317F701858196810E940817182FF3
:1024E000F701858196810E94961681E0111180E0A6
:1024F0000F900F90DF91CF911F91FF90EF90089573
:10250000CF93DF93CDB7DEB729970FB6F894DEBF30
:102510000FBECDBFFB0120812031D1F0AE014F5F56
:102520005F4F0E943B12882379F08D818F3351F0E9
:1025300020F48F3149F489E00CC08F3539F08F37A2
:1025400039F002C08AE005C080E003C08BE001C022
:102550008CE029960FB6F894DEBF0FBECDBFDF9199
:10256000CF910895EF92FF920F931F93CF93DF9334
:10257000CDB7DEB761970FB6F894DEBF0FBECDBF03
:102580008C01FC01858196810E94BD17F80114829F
:10259000FF24F394BE01665F7F4FF8018581968129
:1025A0000E94F2178823C9F1BE01665F7F4FC80100
:1025B0000E949811882371F3F8018081811108C06D
:1025C000BE01665F7F4FC8010E944C12811122C07C
:1025D000AE014F5F5F4FBE01665F7F4FC8010E9433
:1025E000CF11F801E180BE01665F7F4FC8010E94F4
:1025F00080128E1518F4F801818106C0BE01665F55
:102600007F4FC8010E948012F801818384818F5F0F
:102610008483C0CFF801F082DBCF61960FB6F894C7
:10262000DEBF0FBECDBFDF91CF911F910F91FF9005
:10263000EF900895CF93DF93CDB7DEB729970FB60C
:10264000F894DEBF0FBECDBFAE014F5F5F4F0E945B
:10265000CF1181E09981911101C080E029960FB6D8
:10266000F894DEBF0FBECDBFDF91CF9108958F925A
:102670009F92AF92BF92CF92DF92EF92FF920F9311
:102680001F93CF93DF93EC018A016950633048F4C4
:10269000E62FF0E0EE0FFF1FE858FA4F808191819E
:1026A00002C08EEE92E04C01AA2497FCA094BA2CB2
:1026B00001151105E1F08B818823C9F08881811112
:1026C00016C00E94E0186B017C01C80CD91CEA1CE2
:1026D000FB1CB801CE010E941A13811118C00E9480
:1026E000E0186C157D058E059F0588F4F2CFC501B5
:1026F000B401DF91CF911F910F91FF90EF90DF9088
:10270000CF90BF90AF909F908F900C940F19DF9156
:10271000CF911F910F91FF90EF90DF90CF90BF90DE
:10272000AF909F908F900895CF93DF93EC018D81B0
:102730009E810E9496168D819E810E94B9174881C4
:1027400064E48D819E810E9433178A81882341F041
:1027500040E050E06981CE01DF91CF910C943713B6
:10276000DF91CF910895FA01208148E0249F9001E4
:102770001124818190E0982F8827990F990F990F44
:10278000282B392BDB018C918031C1F4678170E0FB
:102790008681AB01481B5109CA019695982F88275D
:1027A000979587950E943B2960517109207F53E0DE
:1027B000220F331F5A95E1F7260F371FC9010895DD
:1027C000EF92FF920F931F93CF93DF93CDB7DEB7B6
:1027D00029970FB6F894DEBF0FBECDBF8C017B01E9
:1027E000AE014F5F5F4F0E943B12882341F0AE0164
:1027F0004F5F5F4FB701C8010E94B31302C080E86A
:1028000094EE29960FB6F894DEBF0FBECDBFDF91D0
:10281000CF911F910F91FF90EF900895813824EE92
:10282000920774F0BC01882777FD8095982F0E944D
:10283000202820E030E040E05CE30E94D4280895A6
:1028400060E070E08EEF92EC08950E94E0130C942B
:102850000E14FC0166834783208781E085870895F5
:10286000CF93DF93EC0160E08E810E94051A61E056
:102870008E810E943E1A19861A861B861C86DF915D
:10288000CF9108954F925F926F927F928F929F9215
:10289000AF92BF92CF92DF92EF92FF920F931F936E
:1028A000CF93DF93CDB7DEB728970FB6F894DEBF8E
:1028B0000FBECDBF6A017B01480159019A01AB01EE
:1028C000C701B6010E94D4282B013C01A501940147
:1028D000C501B4010E94D4286D837E838F839887BD
:1028E00021E133E243E050E4C701B6010E94D4285D
:1028F00029E134E849E252E40E941C2769837A8383
:102900008B839C8326E13BE442E251E4C501B401A0
:102910000E94D4289B01AC0169817A818B819C81C2
:102920000E941D2769837A838B839C8328E436E287
:1029300046E65EEBC701B6010E94D428A5019401CA
:102940000E94D4289B01AC0169817A818B819C8192
:102950000E941D2769837A838B839C8320EE3FE04E
:1029600040EE5BEBC301B2010E94D4289B01AC0195
:1029700069817A818B819C810E941D2769837A837A
:102980008B839C8328EF37E840E65DEB6D817E8189
:102990008F8198850E94D4289B01AC0169817A813E
:1029A0008B819C810E941D2769837A838B839C8302
:1029B0002CEA3DE041EA5AE3C301B2010E94D42867
:1029C000A50194010E94D4289B01AC0169817A8100
:1029D0008B819C810E941D274B015C0128EC3FE804
:1029E0004FE55AE3C701B6010E94D4282D813E81EC
:1029F0004F8158850E94D4289B01AC01C501B401C8
:102A00000E941D276B017C0121EF3BE845E056EB5E
:102A1000C301B2010E94D4282D813E814F81588587
:102A20000E94D4289B01AC01C701B6010E941D275A
:102A300028960FB6F894DEBF0FBECDBFDF91CF91C1
:102A40001F910F91FF90EF90DF90CF90BF90AF90CC
:102A50009F908F907F906F905F904F900895DF923E
:102A6000EF92FF920F931F93CF93DF93EC010E949D
:102A7000E01809851A852B853C8560177107820748
:102A8000930720F419861A861B861C862D85211132
:102A900011C009851A852B853C85DC01CB01801B83
:102AA000910BA20BB30B803D9740A105B10510F42B
:102AB00081E07BC01D860E94E01869877A878B873A
:102AC0009C871C821B821A821982188261E08E8187
:102AD0000E943E1A6AEF70E080E090E00E940F19B9
:102AE00061E08E810E94051A60E08E810E943E1A8C
:102AF00064E170E080E090E00E940F19F89461E0DA
:102B00008E810E943E1A88E290E00E94371960E0B0
:102B10008E810E94051AF12CD12C81E0E12C082F26
:102B200010E08E810E94741A8017910741F4E3949B
:102B300081E090E00E9437198FEFE812F2CF8E818A
:102B40000E94741A9FEFE916C9F023E02F1590F444
:102B5000F0FC10C09D2D969596959695FE01E90F77
:102B6000F11D9081990F908328852E1510F49160A6
:102B70009083D394F39495E5F912D0CF789427E21B
:102B80002D1590F42C8130E04881898190E0840FEC
:102B9000911D4A81840F911D4B81840F911D9927AE
:102BA0002817390709F484CF80E0DF91CF911F9176
:102BB0000F91FF90EF90DF900895CF92DF92EF9208
:102BC000FF920F931F93CF93DF93EC01162F0E9478
:102BD0002F15882309F450C08F818B3031F008F411
:102BE0004BC08551823078F047C06A8170E080E048
:102BF00090E00E941E28112309F443C020E030E039
:102C000040E151E42AC00A81602F6F7770E080E0D4
:102C100090E00E94202820E030E040E853E40E9449
:102C2000D4286B017C016B8170E080E090E00E9411
:102C300020289B01AC01C701B6010E941D2720E09E
:102C400030E040E251E40E94852707FD90581123AF
:102C5000D9F020E030E040E151E40E94D42820E0A7
:102C600030E040EA50E40E94852720E030E040E078
:102C700052E40E941D2708C020E030E040EC5FE7EE
:102C800005C09B01AC0102C09B01AC01B901CA01A6
:102C9000DF91CF911F910F91FF90EF90DF90CF9038
:102CA0000895CF92DF92EF92FF92CF93DF93EC01E2
:102CB0000E942F15882379F18F818B3029F158F1EB
:102CC0008551823040F5688170E080E090E00E949C
:102CD0001E2820E030E040E853E40E94D4286B0135
:102CE0007C01698170E080E090E00E9420289B01D7
:102CF000AC01C701B6010E941D2720E030E040E290
:102D000051E40E9485270BC0688170E080E090E06C
:102D10000E941E2804C060E070E080EC9FE7DF9115
:102D2000CF91FF90EF90DF90CF900895FF920F9397
:102D30001F93CF93DF93FC010081C181D281F8946E
:102D40008981F02EF0948F21898378941DE71150AA
:102D500029F182E090E00E94371988818023B9F33D
:102D6000F8948A818F218A838981802B8983789442
:102D700080EE91E00E943719F89489818F21898330
:102D800086E490E00E9437198881802311E009F0E1
:102D900010E078948AE991E00E943719812FDF9141
:102DA000CF911F910F91FF9008951F93CF93DF93C1
:102DB000FC011081C181D281912F909560FF12C0DA
:102DC000F8948A8189238A838981812B89838AE087
:102DD00090E00E9437198A81812B8A83789487E357
:102DE00090E011C0F8948A8189238A838981812B9C
:102DF000898381E490E00E9437198A81812B8A833C
:102E0000789485E090E0DF91CF911F910C94371971
:102E10000F931F93CF93DF93FC011081C181D28167
:102E2000F8948981812B89838A81012F00958023E1
:102E30008A8383E090E00E94371989818023898307
:102E40008AE090E00E943719C881789485E390E089
:102E50000E9437191C2381E009F480E0DF91CF91B3
:102E60001F910F910895CF92DF92EF92FF920F93EF
:102E70001F93CF93DF931F92CDB7DEB76C01E62E81
:102E800008E010E0FF24F39461E09F2D9E2109F4F7
:102E900060E0C60149830E94D516FF0C015011095C
:102EA00049810115110581F7411115C0F894D6012A
:102EB0001196ED91FC91129791818C9180958923C7
:102EC00081831196ED91FC91129792818C9180955E
:102ED0008923828378940F90DF91CF911F910F9176
:102EE000FF90EF90DF90CF900895EF92FF920F93B5
:102EF0001F93CF93DF938C01C8E0D0E0F12CEE2438
:102F0000E394C8010E9408178111FE28EE0C219756
:102F1000C1F78F2DDF91CF911F910F91FF90EF900F
:102F20000895CF92DF92FF920F931F93CF93DF9379
:102F30001F92CDB7DEB78C01F62E40E065E57983B0
:102F40000E943317CF2C7981D72E88E0F82EF60116
:102F500061916F0140E0C8010E943317FA94B9F7FC
:102F60000F90DF91CF911F910F91FF90DF90CF9045
:102F7000089540E06CEC0C943317FC011386158621
:102F8000148627E030E0DF01A20FB31F13961C92D6
:102F90002115310519F021503109F5CF08951F93FE
:102FA000CF93DF93EC01162F60E0812F0E94051A6A
:102FB000612F70E0FB01EA5EFD4FE491E883FB01C5
:102FC000EC5CFD4FE491F0E0EE0FFF1FEE5AFD4F79
:102FD000859194919A838983CE01DF91CF911F913E
:102FE0000C94BD17AF92BF92CF92DF92EF92FF92F7
:102FF0000F931F93CF93DF931F92CDB7DEB75C0182
:10300000E62ED72EFC01858581115DC0C5010E9489
:103010009616811105C0F5011386158614866EC0BB
:1030200040E060EFC5010E94331701E0F12CC12C94
:1030300011E0C5010E940817682FC50169830E942D
:1030400008176981613019F48130B9F433C02F2D2C
:1030500030E068131BC0F5018385181730F4E20FC8
:10306000F31F8381802349F402C0181731F060E018
:10307000193058F4F501148708C0F501EF0DF11D62
:103080008381802B838361E009C0C12EF501E20FAB
:10309000F31F8381902F909589238383C5010E941C
:1030A000D5161F5F000F11F4F39401E0F7E0FF1550
:1030B00008F0BFCF113438F0F501C386C11018C035
:1030C00081E0858715C0F50113861586148680E09A
:1030D000EE2DFD2D20E030E0D501A20FB31F139699
:1030E0009C9191932F5F3F4F28303105A9F706C07F
:1030F000F5018381882339F381E0EACF0F90DF91D6
:10310000CF911F910F91FF90EF90DF90CF90BF90E4
:10311000AF900895DC0180E0615038F0ED91E82730
:10312000F0E0E451FF4F8491F7CF08951F920F9282
:103130000FB60F9211242F933F938F939F93AF93CA
:10314000BF938091E6079091E707A091E807B091BF
:10315000E9073091E50723E0230F2D3720F401968E
:10316000A11DB11D05C026E8230F0296A11DB11DAA
:103170002093E5078093E6079093E707A093E8077D
:10318000B093E9078091EA079091EB07A091EC07D3
:10319000B091ED070196A11DB11D8093EA079093B0
:1031A000EB07A093EC07B093ED07BF91AF919F9110
:1031B0008F913F912F910F900FBE0F901F901895F8
:1031C0002FB7F8946091E6077091E7078091E807C0
:1031D0009091E9072FBF08953FB7F8948091EA07CF
:1031E0009091EB07A091EC07B091ED0726B5A89B55
:1031F00005C02F3F19F00196A11DB11D3FBF6627E5
:10320000782F892F9A2F620F711D811D911D42E029
:10321000660F771F881F991F4A95D1F70895CF929F
:10322000DF92EF92FF92CF93DF936B017C010E94BC
:10323000EC18EB01C114D104E104F10489F00E94FF
:10324000FE240E94EC186C1B7D0B683E734090F3CB
:1032500081E0C81AD108E108F108C851DC4FEACF73
:10326000DF91CF91FF90EF90DF90CF90089501977D
:1032700039F0880F991F880F991F02970197F1F76E
:103280000895789484B5826084BD84B5816084BDDE
:1032900085B5826085BD85B5816085BDEEE6F0E0CF
:1032A000808181608083E1E8F0E01082808182602B
:1032B0008083808181608083E0E8F0E080818160AC
:1032C0008083E1E9F0E08081826080838081816099
:1032D0008083E0E9F0E0808181608083E1ECF0E0D0
:1032E000808184608083808182608083808181602E
:1032F0008083E3ECF0E0808181608083E0ECF0E0AB
:10330000808182608083E2ECF0E080818160808354
:10331000EAE7F0E08081846080838081826080833E
:10332000808181608083808180688083089582317C
:1033300008F08251E82FF0E0E451FE4FE4918091D3
:103340007B00E3FB222720F930E095E0220F331FBA
:103350009A95E1F78F7D822B80937B00E7708091B7
:10336000060120E4829FC0011124E82BE0937C0039
:1033700080917A00806480937A0080917A0086FD43
:10338000FCCF809178002091790090E0922B0895F5
:1033900090E0FC013197EF30F105B0F5EA5AFF4FAC
:1033A0000C947129809180008F7703C080918000F8
:1033B0008F7D80938000089580918000877FF9CF72
:1033C00084B58F7702C084B58F7D84BD08958091C8
:1033D00090008F7707C0809190008F7D03C080910F
:1033E0009000877F8093900008958091C0008F7730
:1033F00003C08091C0008F7D8093C00008958091AC
:10340000C200877F8093C2000895CF93DF9390E03E
:10341000FC01EA5EFD4F2491FC01EC5CFD4F8491C0
:10342000882349F190E0880F991FFC01E259FD4F74
:10343000A591B491805A9D4FFC01C591D4919FB73D
:10344000611108C0F8948C91209582238C93888117
:1034500082230AC0623051F4F8948C91322F309557
:1034600083238C938881822B888304C0F8948C9169
:10347000822B8C939FBFDF91CF9108950F931F9361
:10348000CF93DF931F92CDB7DEB7282F30E0F9013D
:10349000E850FE4F8491F901EA5EFD4F1491F90165
:1034A000EC5CFD4F04910023C9F0882321F069836F
:1034B0000E94C8196981E02FF0E0EE0FFF1FE05A6B
:1034C000FD4FA591B4919FB7F8948C91611103C001
:1034D0001095812301C0812B8C939FBF0F90DF91AA
:1034E000CF911F910F910895CF93DF93282F30E054
:1034F000F901E850FE4F8491F901EA5EFD4FD49145
:10350000F901EC5CFD4FC491CC2391F081110E9434
:10351000C819EC2FF0E0EE0FFF1FEE5AFD4FA591FA
:10352000B4912C912D2381E090E021F480E002C041
:1035300080E090E0DF91CF910895FC01818D228D94
:1035400090E0805C9F4F821B91098F7399270895AB
:10355000FC01918D828D981731F0828DE80FF11D5D
:10356000858D90E008958FEF9FEF0895FC01918D78
:10357000828D981761F0828DDF01A80FB11D5D96D5
:103580008C91928D9F5F9F73928F90E008958FEF43
:103590009FEF08958AE39CE1892B49F080E090E059
:1035A000892B29F00E943A1C81110C940000089587
:1035B000FC01848DDF01A80FB11DA35ABF4F2C91D0
:1035C000848D90E001968F739927848FA689B7899F
:1035D0002C93A089B1898C9180648C93938D848D78
:1035E000981306C00288F389E02D80818F7D808347
:1035F0000895CF93DF93EC01888D8823C9F0EA8981
:10360000FB89808185FD05C0A889B9898C9186FDDB
:103610000FC00FB607FCF5CF808185FFF2CFA889D8
:10362000B9898C9185FFEDCFCE010E94D81AE7CFE2
:10363000DF91CF910895CF92DF92FF920F931F9366
:10364000CF93DF931F92CDB7DEB76C01DC015B96A1
:103650009C915B975C968C915C97981307C05096F1
:10366000ED91FC915197808185FD32C0F601038D6B
:1036700010E00F5F1F4F0F731127F02EF601848D9E
:10368000F81211C00FB607FCF9CFD6015096ED9194
:10369000FC915197808185FFF1CFC60169830E941B
:1036A000D81A6981EBCF838DE80FF11DE35AFF4FE4
:1036B0006083D6015B960C935B975296ED91FC91DB
:1036C000539780818062808381E058968C930DC0EF
:1036D000D6015696ED91FC91579760835096ED91E7
:1036E000FC91519780818064808381E090E00F900D
:1036F000DF91CF911F910F91FF90DF90CF900895B0
:10370000BF92CF92DF92EF92FF92CF93DF93EC01C3
:103710006A017B01B22EE889F98982E08083411534
:1037200081EE580761057105A1F060E079E08DE355
:1037300090E0A70196010E944F29215031094109CB
:1037400051095695479537952795211580E13807FA
:1037500098F0E889F989108260E874E88EE190E0D9
:10376000A70196010E944F292150310941095109B1
:103770005695479537952795EC85FD853083EE85E1
:10378000FF852083188EEC89FD89B082EA89FB8948
:10379000808180618083EA89FB8980818860808361
:1037A000EA89FB89808180688083EA89FB8980813E
:1037B0008F7D8083DF91CF91FF90EF90DF90CF904E
:1037C000BF9008951F920F920FB60F9211242F935E
:1037D0008F939F93EF93FF93E091FE07F091FF0784
:1037E0008081E0910408F091050882FD12C090816B
:1037F000809107088F5F8F7320910808821751F01E
:10380000E0910708F0E0E251F84F958F80930708A8
:1038100001C08081FF91EF919F918F912F910F9027
:103820000FBE0F901F9018951F920F920FB60F9218
:1038300011242F933F934F935F936F937F938F93B5
:103840009F93AF93BF93EF93FF938EEE97E00E9409
:10385000D81AFF91EF91BF91AF919F918F917F9176
:103860006F915F914F913F912F910F900FBE0F90ED
:103870001F9018958EEE97E00E949D1A21E0892BEB
:1038800009F420E0822F08951092F1071092F007BA
:1038900088EE93E0A0E0B0E08093F2079093F30706
:1038A000A093F407B093F50782E895E09093EF07B3
:1038B0008093EE078DEC90E09093FB078093FA07DE
:1038C0008CEC90E09093FD078093FC0788EC90E0EF
:1038D0009093FF078093FE0789EC90E09093010896
:1038E000809300088AEC90E090930308809302088C
:1038F0008EEC90E0909305088093040810920708DE
:10390000109208081092090810920A080895AF92C0
:10391000BF92CF92DF92EF92FF920F931F93CF93BC
:10392000DF936C017B01C0E0D0E000E010E0F60125
:10393000EC0FFD1F4AE050E06281C7010E94421E69
:103940005C016EE2C7010E945D1D8A0D9B1D080F80
:10395000191F2196C330D10551F74AE050E0F60116
:103960006581C7010E94421E800F911FDF91CF9198
:103970001F910F91FF90EF90DF90CF90BF90AF908D
:1039800008950F93FC0182E995E09183808362831F
:103990004383248305830F91089582E995E09093F2
:1039A0008C0880938B0810928D0810928E081092CC
:1039B0008F0810929008089508950E9441190E945E
:1039C000DC1C81E998E00E94F0220E941E06CAECED
:1039D000DAE10E9449062097E1F30E94CA1AF9CF62
:1039E0000C948B290C948B290C94232A0C94232A55
:1039F000CF92DF92EF92FF920F931F93CF93DF93BB
:103A00006C017A01EB01E60EF71E00E010E0CE1526
:103A1000DF0561F06991D601ED91FC910190F08193
:103A2000E02DC6010995080F191FF1CFC801DF91DC
:103A3000CF911F910F91FF90EF90DF90CF9008955D
:103A40006115710581F0DB010D900020E9F7AD01F2
:103A500041505109461B570BDC01ED91FC9102804E
:103A6000F381E02D099480E090E00895EF92FF92B9
:103A70000F931F93CF93DF938C01FB01C0E0D0E045
:103A800064917F018FEFE81AF80A662361F0D8018C
:103A9000ED91FC910190F081E02DC8010995C80FCE
:103AA000D91FF701EDCFCE01DF91CF911F910F917B
:103AB000FF90EF9008950C94201DDC01ED91FC9196
:103AC0000190F081E02D09940F931F93CF93DF9322
:103AD000EC016DE00E945D1D8C016AE0CE010E9448
:103AE0005D1D800F911FDF91CF911F910F91089560
:103AF0000F931F93CF93DF93EC010E94201D8C0145
:103B0000CE010E94641D800F911FDF91CF911F9104
:103B10000F9108958F929F92AF92BF92CF92DF92B2
:103B2000EF92FF920F931F93CF93DF93CDB7DEB742
:103B3000A1970FB6F894DEBF0FBECDBF7C01C42E97
:103B4000E52FCB01D22E19A221E02D1510F02AE08D
:103B5000D22E8E010F5D1F4F8D2C912CA12CB12CDC
:103B60006C2D7E2FA50194010E944F298C2DD29E91
:103B700080191124015011098A3014F4805D01C0AC
:103B8000895CF8018083211531054105510521F03B
:103B9000C22EE32FCA01E4CFB801C7010E94201D45
:103BA000A1960FB6F894DEBF0FBECDBFDF91CF91C7
:103BB0001F910F91FF90EF90DF90CF90BF90AF904B
:103BC0009F908F900895CF92DF92EF92FF920F9384
:103BD0001F93CF93DF93EC016A017B01211531051F
:103BE00079F4E881F9810190F081E02D642FDF9173
:103BF000CF911F910F91FF90EF90DF90CF9009949C
:103C00002A303105E9F477FF1AC06DE20E945D1D8C
:103C10008C0144275527BA014C195D096E097F09AB
:103C20002AE0CE010E948A1D800F911FDF91CF9163
:103C30001F910F91FF90EF90DF90CF9008952AE0B1
:103C4000B701A601CE01DF91CF911F910F91FF9097
:103C5000EF90DF90CF900C948A1D9A01AB016627FC
:103C600057FD6095762F0C94E31D2115310541F425
:103C7000DC01ED91FC910190F081E02D642F09941D
:103C80000C948A1D9A01462F50E060E070E00C947D
:103C9000351E4F925F926F927F928F929F92AF925A
:103CA000BF92CF92DF92EF92FF920F931F93CF9329
:103CB000DF93EC016A017B01B22E9A01AB01C701CF
:103CC000B6010E943729882319F064E975E027C0FE
:103CD00026013701E89477F82FEF3FEF4FE75FE7D2
:103CE000C301B2010E94372981110DC02FEF3FEFB0
:103CF0004FE75FE7C301B2010E94812718161CF449
:103D000068E975E00CC02FEF3FEF4FE75FE4C701B4
:103D1000B6010E94D0281816ACF46CE975E0CE010B
:103D2000DF91CF911F910F91FF90EF90DF90CF9097
:103D3000BF90AF909F908F907F906F905F904F90CB
:103D40000C94201D2FEF3FEF4FE75FECC701B6014A
:103D50000E94812787FDE1CF20E030E0A901C70163
:103D6000B6010E94812787FF0AC06DE2CE010E9442
:103D70005D1D8C01F7FAF094F7F8F09402C000E0B2
:103D800010E0A12C60E070E080E09FE3AB1441F014
:103D900020E030E040E251E40E948527A394F6CF72
:103DA0009B01AC01C701B6010E941D276B017C017C
:103DB0000E94F2272B013C010E941E289B01AC01AE
:103DC000C701B6010E941C276B017C012AE0B301E8
:103DD000A201CE010E948A1D080F191FBB2039F0D5
:103DE00060EA75E0CE010E94201D080F191F7B2C90
:103DF000772041F120E030E040E251E4C701B60114
:103E00000E94D4286B017C010E94ED274B01AA245B
:103E100097FCA094BA2C2AE030E0B501A401CE01B1
:103E20000E94E31D080F191FC501B4010E9420283C
:103E30009B01AC01C701B6010E941C276B017C01EC
:103E40007A94D6CFC801DF91CF911F910F91FF9047
:103E5000EF90DF90CF90BF90AF909F908F907F902A
:103E60006F905F904F9008950C94491E0F931F938D
:103E7000CF93DF93EC010E94E018688779878A87E7
:103E80009B87E881F9810680F781E02DCE010995B5
:103E900097FF15C00E94E018088519852A853B8583
:103EA000601B710B820B930B0C811D812E813F8156
:103EB000601771078207930720F38FEF9FEFDF9161
:103EC000CF911F910F9108950F931F93CF93DF937D
:103ED000EC018B0166E073E00E947C23C8010E9424
:103EE000361F97FD05C0682FCE010E944024F6CFF3
:103EF000CE01DF91CF911F910F91089540919508C8
:103F000050919608209193083091940842175307D6
:103F1000B4F49091E8009570E1F39091E80092FD7F
:103F200019C08093F10080919508909196080196B0
:103F30008F739927892B19F48EEF8093E800809175
:103F4000950890919608019690939608809395080D
:103F500081E0089580E00895FF920F931F93CF931F
:103F6000DF938C0188E10E947E1F83E00E947E1F08
:103F7000C0E0D0E0F801EC0FFD1F84910E947E1F8D
:103F8000F82E80E00E947E1F8F2121F02196CB30F9
:103F9000D10581F7DF91CF911F910F91FF90089587
:103FA000615030F02091F100FC0120830196F8CFA0
:103FB000289884E68093980808952FB7FC01208301
:103FC000F89467706093E9000895CF93DF931F9290
:103FD000CDB7DEB7682FCE0101960E94DD1F80911C
:103FE000F20099819FBF0F90DF91CF910895FF92CA
:103FF0000F931F93CF93DF9300D0CDB7DEB7F62E8C
:104000008A0190919708992311F057FF03C08FEF11
:104010009FEF2BC0682FCE0101967A830E94DD1F8F
:104020008091F20090E0A8017A81801791070CF44A
:10403000AC01EF2DF72FF40E84E6FE1639F0289828
:10404000809398089091F1009193F7CF4115510515
:1040500021F08091F200882321F089818FBFCA016D
:1040600004C08BE68093E800F8CF0F900F90DF91AB
:10407000CF911F910F91FF900895CF93DF931F92DF
:10408000CDB7DEB741E050E0BE016F5F7F4F0E94C9
:10409000F71F019719F4898190E002C08FEF9FEF1D
:1040A0000F90DF91CF910895CF93DF931F92CDB7FB
:1040B000DEB7682FCE0101960E94DD1F9091E800C7
:1040C000892F807295FF04C09091F20080E4891BD3
:1040D00099819FBF0F90DF91CF9108956F927F924A
:1040E0008F929F92AF92BF92CF92DF92EF92FF9208
:1040F0000F931F93CF93DF931F92CDB7DEB7782E28
:104100007B01C42EB52E80919708882369F0042F77
:10411000152F8AEFD82E872D8072982E9AE3A92E1C
:10412000872D8074882E11C08FEF9FEF57C0872D89
:104130000E945420682E81110CC0DA94A9F361E02A
:1041400070E080E090E00E940F190115110579F7E9
:104150003BC0282F30E0021713070CF4602E672DA8
:10416000CE0101960E94DD1F8091E80085FF29C0E5
:10417000262D30E0021B130B992039F06A948FEF43
:104180006816B1F01092F100F9CFF701862D77FE95
:1041900007C0815058F094919093F1003196F9CF77
:1041A000815020F091919093F100FACFE20EF31E2E
:1041B0008091E80085FF0FC00115110511F48110F1
:1041C0000AC089818FBFC1CF5D9884E6809399082A
:1041D0008C2D9B2D03C0A092E800F3CF0F90DF91B0
:1041E000CF911F910F91FF90EF90DF90CF90BF90F4
:1041F000AF909F908F907F906F9008951092E900FC
:1042000010929608109295089093940880939308C2
:104210000895CF92DF92FF920F931F93CF93DF9376
:1042200000D0CDB7DEB7F82E8A016B01011511055C
:10423000B1F0F601F7FE02C0849101C0808149838C
:104240005A830E947E1F01501109FFEFCF1ADF0A27
:1042500049815A818111EACF8FEF9FEF01C0CA01D6
:104260000F900F90DF91CF911F910F91FF90DF90F2
:10427000CF9008951F93CF93DF931F92CDB7DEB7F2
:10428000162F2091E80022FFFCCF612F79830E9436
:10429000D01F8BEF8093E800812F7981972F0F90AB
:1042A000DF91CF911F910895CF93DF931F92CDB7E8
:1042B000DEB71982CE0101960E945C25CE010196DF
:1042C0000E94F725898190E00F90DF91CF910895AA
:1042D0001F920F920FB60F921124EF92FF920F933D
:1042E0001F932F933F934F935F936F937F938F937E
:1042F0009F93AF93BF93EF93FF93CF93DF93CDB78C
:10430000DEB76297DEBFCDBF1092E9008091E80072
:1043100083FFE9C068E0CE010A960E94D01F82EFB9
:104320008093E8009A8597FF05C08091E80080FFA0
:10433000FCCF03C08EEF8093E800892F807609F0D0
:10434000B7C08B85811105C01092F1001092F10069
:10435000C3C0282F2D7F213009F4BEC0853049F419
:104360008091E80080FFFCCF8C8580688093E3001B
:10437000B3C0863009F074C02D85E888F9882230F2
:1043800071F580E090E02A8B0E94FE200E9454216B
:1043900099E08E010F5F1F4FF801392F11923A9566
:1043A000E9F799832A892A8391E09E8390E8988788
:1043B0009AEF99872091950830919608275F3F4F93
:1043C0003C832B838D83C7010E94FE2049E050E08F
:1043D000B80180E00E9409210E9454217DC0C701DC
:1043E0002A8B0E94FE202A89223241F482E290E048
:1043F0000E940226892B09F06FC072C0213069F437
:1044000088899989089711F42093920880919208DD
:10441000811116C063E972E018C0233009F060C052
:104420008C85882381F0823019F481EB92E005C0FD
:10443000813009F055C085EA92E00E94AC1F4AC065
:1044400061E872E002C06DEB72E06115710509F47C
:1044500047C0FB01449150E080E80E9409213CC024
:10446000873009F43DC0883021F481E08093F10069
:1044700033C0893089F5937099F5EDE7F2E081E07A
:1044800021E096E38093E9002093EB003491309390
:10449000EC009093ED008F5F3196853099F78EE7B1
:1044A0008093EA001092EA008C858093970814C0EC
:1044B000888999890E94FE208E85811105C0CE01D0
:1044C0000A960E94672506C0823051F4CE010A96F2
:1044D0000E942A26882321F08EEF8093E80003C0F3
:1044E00081E28093EB0062960FB6F894DEBF0FBEB8
:1044F000CDBFDF91CF91FF91EF91BF91AF919F9190
:104500008F917F916F915F914F913F912F911F916B
:104510000F91FF90EF900F900FBE0F901F90189586
:104520008093E9008091F200882319F08AE3809358
:10453000E80008951F920F920FB60F9211242F9347
:104540003F934F935F936F937F938F939F93AF931B
:10455000BF93EF93FF938091E1001092E10083FFFE
:104560000FC01092E90091E09093EB001092EC00E4
:1045700092E39093ED001092970898E09093F000EA
:1045800082FF1DC083E00E949022809199088823B9
:1045900039F080919908815080939908882369F0B7
:1045A00080919808882359F08091980881508093D1
:1045B0009808811104C0289A02C05D9AF1CFFF913A
:1045C000EF91BF91AF919F918F917F916F915F918B
:1045D0004F913F912F910F900FBE0F901F90189504
:1045E0001092970881E08093D70080EA8093D800EA
:1045F00082E189BD09B400FEFDCF61E070E080E09A
:1046000090E00E940F1980E98093D8008CE080939D
:10461000E2001092E000559A209A0895FC018081F2
:1046200091810C94232ACF93DF93EC0188819981A7
:10463000009711F00E94232A198218821D821C8281
:104640001B821A82DF91CF9108950F931F93CF930E
:10465000DF93EC018B016F5F7F4F888199810E940E
:10466000B22A009731F0998388831B830A8381E003
:1046700001C080E0DF91CF911F910F910895CF93FA
:10468000DF93EC0188819981892B29F08A819B81B4
:104690008617970760F4CE010E942523882341F0F6
:1046A0008C819D81892B19F4E881F981108281E048
:1046B000DF91CF910895EF92FF920F931F93CF93C5
:1046C000DF93EC017B018A01BA010E943F23811133
:1046D00004C0CE010E94132307C01D830C83B701C1
:1046E000888199810E94B12BCE01DF91CF911F91DA
:1046F0000F91FF90EF900895FC01118210821382B8
:104700001282158214826115710559F0FB01019026
:104710000020E9F7AF0141505109461B570B0C949B
:104720005B230895EF92FF920F931F93CF93DF9334
:10473000EC017B018A01BA010E943F23811104C070
:10474000CE010E94132307C01D830C83B70188810B
:1047500099810E94842BCE01DF91CF911F910F91FF
:10476000FF90EF900895CF93DF93EC01FB01861744
:10477000970761F0608171816115710529F04481AD
:1047800055810E945B2302C00E941323CE01DF915A
:10479000CF910895FC01118210821382128215823A
:1047A00014820C94B3230F931F93CF93DF9300D005
:1047B000CDB7DEB78C016115710561F0CB0169835E
:1047C0007A830E948B2BAC0169817A81C8010E9497
:1047D000922302C00E941323C8010F900F90DF9113
:1047E000CF911F910F910895FC01118210821382C5
:1047F0001282158214820C94D323EF92FF920F93AE
:104800001F93CF93DF93EC017B010C811D81611518
:10481000710511F480E016C04115510591F0040FA7
:10482000151FB8010E943F238823A1F328813981F5
:104830008C819D81B701820F931F0E94B12B1D8334
:104840000C8381E0DF91CF911F910F91FF90EF904A
:104850000895FB0144815581608171810C94FD2391
:104860006115710559F0FB0101900020E9F7AF01D6
:1048700041505109461B570B0C94FD2380E00895CD
:10488000CF93DF9300D0CDB7DEB769831A8241E0C2
:1048900050E0BE016F5F7F4F0E94FD230F900F908D
:1048A000DF91CF910895EF92FF920F931F93CF93D3
:1048B000DF9300D000D0CDB7DEB77C01862F4AE071
:1048C00050E08E010F5F1F4FB80190E00E94B82B9F
:1048D000F80101900020E9F7AF0141505109401B58
:1048E000510BB801C7010E94FD230F900F900F904C
:1048F0000F90DF91CF911F910F91FF90EF9008954E
:10490000FC0124813581232B31F421E061157105EF
:10491000A1F0FB0108C0FC01808191816115710546
:1049200031F421E0FC018081882339F005C00E9428
:10493000A82B21E0892B09F020E0822F0895AF9267
:10494000BF92CF92DF92EF92FF920F931F93CF937C
:10495000DF937C01DC01CD90DC901197C114D10470
:1049600009F441C01496CD91DC9115972097D9F1A7
:1049700056018501BFEFAB1ABB0AF8018081992768
:1049800087FD90950E947C2B892B99F72197CC0D60
:10499000DD1D8881992787FD90950E947C2B892BAE
:1049A00091F4AE014F5F5F4F401B510BD70115963D
:1049B0005C934E931497C016D10650F4B801C6010B
:1049C0000E94942B05C0C017D10758F32197E1CF5F
:1049D000D701ED91FC91119714968D919C911597AB
:1049E000E80FF91F1082DF91CF911F910F91FF9077
:1049F000EF90DF90CF90BF90AF9008950895CF9340
:104A0000DF931F92CDB7DEB76983DC01ED91FC9196
:104A10000280F381E02D41E050E0BE016F5F7F4FE7
:104A200009950F90DF91CF910895CF93DF93EC011B
:104A30008C859D8597FF05C082E00E943D209D8763
:104A40008C878C859D85DF91CF91089583E00C94B0
:104A50009022FC018485958597FD06C082E00E9426
:104A6000E51F90E00196089582E00E94E51F90E026
:104A70000895FC018485958597FD05C02FEF3FEFD4
:104A800035872487089582E00C943D20CF93DF93EF
:104A9000EC0180910E01882331F083E00E946E20AA
:104AA0001816190634F081E090E09B838A8380E039
:104AB00090E0DF91CF910895FC0120812E5F20834B
:104AC00042E450E061EC72E080E80C940921FC01C2
:104AD00081819081913A59F4813209F03CC047E0DC
:104AE00050E067E071E080E00E94092143C091320C
:104AF00091F5803239F467E070E087E091E00E9440
:104B00003A2106C0823209F035C0828180930E01BD
:104B10008091070190910801A0910901B0910A01CB
:104B2000803B9440A105B105C1F480910E0180FD48
:104B300014C087E797E790930108809300082BE063
:104B400088E190E00FB6F894A895809360000FBEBE
:104B5000209360000FC080E0089588E10FB6F894BC
:104B600080936000109260000FBEA895109201081B
:104B70001092000881E0089510929D0810929C0800
:104B800088EE93E0A0E0B0E080939E0890939F08A9
:104B9000A093A008B093A10886EA95E090939B08A3
:104BA00080939A088FEF9FEF9093A7088093A608B1
:104BB0000895FF920F931F93CF93DF93EC01F62E8E
:104BC000E881F9810480F581E02D09958C01E88167
:104BD000F9810680F781E02D6F2DCE010995C8017E
:104BE0009927DF91CF911F910F91FF900895FC01BC
:104BF00020812F5F208349E150E063E873E080E883
:104C00000C94092145E650E06CE973E080E80C94CF
:104C10000921EF92FF920F931F93CF93DF931F927F
:104C2000CDB7DEB789838B017A0141E050E0BE0148
:104C30006F5F7F4F84E00E946E20A701B80184E47B
:104C40000E946E200F90DF91CF911F910F91FF90E6
:104C5000EF900895FC0191818081813A31F481E0E7
:104C6000913091F0933089F411C0813271F49B300E
:104C700021F482818093100105C09A3031F4828141
:104C800080930F0181E00895089580E0089548E041
:104C900050E082E00C940926CF93DF93DC01683862
:104CA00018F0E8E7E60F25C0E62FF0E067FF11C037
:104CB000E058F10981E090E001C0880FEA95EAF739
:104CC00014969C911497982B14969C931497E0E05B
:104CD00010C0ED5FFC4FE491EE2309F440C0E7FF04
:104CE00008C014968C911497826014968C93149734
:104CF000EF7716968C9116978E1741F117968C9137
:104D000017978E1719F118968C9118978E17F1F046
:104D100019968C9119978E17C9F01A968C911A973B
:104D20008E17A1F01B968C911B978E1779F080E05F
:104D300090E0ED01C80FD91F2E81211102C0EE8332
:104D400005C0019686309105A1F709C0BD016C5FD1
:104D50007F4FCD010E94472681E090E008C081E0AE
:104D600090E013969C938E93129780E090E0DF91F1
:104D7000CF910895683818F0E8E7E60F25C0E62FD0
:104D8000F0E067FF12C0E058F10921E030E001C017
:104D9000220FEA95EAF72095DC0114963C911497CE
:104DA000322314963C93E0E00FC0ED5FFC4FE4919A
:104DB000EE2329F1E7FF08C0DC0114962C9114972B
:104DC0002D7F14962C93EF7720E030E0EE2351F006
:104DD000DC01A20FB31F16964C9116974E1302C01A
:104DE00016961C922F5F3F4F2630310579F7BC0194
:104DF0006C5F7F4F0E94472681E090E0089580E03D
:104E000090E00895FC0116821782108611861286A2
:104E100013861482BC016C5F7F4F0C94472610925E
:104E2000F6081092ED081092EC0886EB95E090934E
:104E3000EB088093EA0808955058BB27AA270ED0A4
:104E400075C166D130F06BD120F031F49F3F11F481
:104E50001EF45BC10EF4E095E7FB51C1E92F77D159
:104E600080F3BA17620773078407950718F071F487
:104E70009EF58FC10EF4E0950B2EBA2FA02D0B01DD
:104E8000B90190010C01CA01A0011124FF27591B8F
:104E900099F0593F50F4503E68F11A16F040A22F95
:104EA000232F342F4427585FF3CF46953795279506
:104EB000A795F0405395C9F77EF41F16BA0B620B05
:104EC000730B840BBAF09150A1F0FF0FBB1F661F4C
:104ED000771F881FC2F70EC0BA0F621F731F841F8F
:104EE00048F4879577956795B795F7959E3F08F0B5
:104EF000B3CF9395880F08F09927EE0F9795879574
:104F00000895D9D008F481E008950CD00FC107D1DD
:104F100040F0FED030F021F45F3F19F0F0C05111A5
:104F200039C1F3C014D198F39923C9F35523B1F3D0
:104F3000951B550BBB27AA2762177307840738F008
:104F40009F5F5F4F220F331F441FAA1FA9F333D067
:104F50000E2E3AF0E0E830D091505040E695001C1B
:104F6000CAF729D0FE2F27D0660F771F881FBB1FD7
:104F7000261737074807AB07B0E809F0BB0B802DB1
:104F8000BF01FF2793585F4F2AF09E3F510568F0FD
:104F9000B6C000C15F3FECF3983EDCF38695779591
:104FA0006795B795F7959F5FC9F7880F911D9695FF
:104FB000879597F90895E1E0660F771F881FBB1F5B
:104FC000621773078407BA0720F0621B730B840B08
:104FD000BA0BEE1F88F7E095089504D06894B111DC
:104FE000D9C00895BCD088F09F5790F0B92F992769
:104FF000B751A0F0D1F0660F771F881F991F1AF0E4
:10500000BA95C9F712C0B13081F0C3D0B1E00895AC
:10501000C0C0672F782F8827B85F39F0B93FCCF32D
:10502000869577956795B395D9F73EF490958095D9
:10503000709561957F4F8F4F9F4F0895E89409C0F9
:1050400097FB3EF490958095709561957F4F8F4FBB
:105050009F4F9923A9F0F92F96E9BB279395F695D1
:10506000879577956795B795F111F8CFFAF4BB0F4F
:1050700011F460FF1BC06F5F7F4F8F4F9F4F16C0B3
:10508000882311F096E911C0772321F09EE8872F3D
:10509000762F05C0662371F096E8862F70E060E0F9
:1050A0002AF09A95660F771F881FDAF7880F969572
:1050B000879597F90895990F0008550FAA0BE0E816
:1050C000FEEF16161706E807F907C0F012161306CA
:1050D000E407F50798F0621B730B840B950B39F40A
:1050E0000A2661F0232B242B252B21F408950A2670
:1050F00009F4A140A6958FEF811D811D089597F9B0
:105100009F6780E870E060E008959FEF80EC08956D
:1051100000240A9416161706180609060895002496
:105120000A9412161306140605060895092E039410
:10513000000C11F4882352F0BB0F40F4BF2B11F484
:1051400060FF04C06F5F7F4F8F4F9F4F089557FDE3
:105150009058440F551F59F05F3F71F04795880FE5
:1051600097FB991F61F09F3F79F08795089512167C
:1051700013061406551FF2CF4695F1DF08C0161628
:1051800017061806991FF1CF8695710561050894D9
:105190000895E894BB2766277727CB0197F90895F0
:1051A0008ADF08F48FEF08950BD0C0CFB1DF28F06D
:1051B000B6DF18F0952309F0A2CFA7CF1124EACFCC
:1051C000C6DFA0F3959FD1F3950F50E0551F629F66
:1051D000F001729FBB27F00DB11D639FAA27F00D50
:1051E000B11DAA1F649F6627B00DA11D661F829F77
:1051F0002227B00DA11D621F739FB00DA11D621F5C
:10520000839FA00D611D221F749F3327A00D611D78
:10521000231F849F600D211D822F762F6A2F11245A
:105220009F5750408AF0E1F088234AF0EE0FFF1FAD
:10523000BB1F661F771F881F91505040A9F79E3FE4
:10524000510570F05CCFA6CF5F3FECF3983EDCF3E6
:10525000869577956795B795F795E7959F5FC1F721
:10526000FE2B880F911D9695879597F9089523DF5A
:10527000880B990B089597FB072E16F4009407D01E
:1052800077FD09D00E94772907FC05D03EF4909560
:1052900081959F4F0895709561957F4F0895A1E284
:1052A0001A2EAA1BBB1BFD010DC0AA1FBB1FEE1FA0
:1052B000FF1FA217B307E407F50720F0A21BB30BEB
:1052C000E40BF50B661F771F881F991F1A9469F767
:1052D00060957095809590959B01AC01BD01CF01C3
:1052E0000895EE0FFF1F0590F491E02D0994AA1B7D
:1052F000BB1B51E107C0AA1FBB1FA617B70710F0C1
:10530000A61BB70B881F991F5A95A9F780959095F2
:10531000BC01CD010895CF93DF938230910510F445
:1053200082E090E0E091F908F091FA0820E030E0A6
:10533000A0E0B0E0309739F140815181481759071A
:10534000B8F04817590771F482819381109729F0BA
:1053500013969C938E9312972CC09093FA08809387
:10536000F90827C02115310531F04217530718F00D
:10537000A901DB0101C0EF019A01BD01DF0102803B
:10538000F381E02DD7CF21153105F9F0281B390B1A
:105390002430310580F48A819B816115710521F0EB
:1053A000FB019383828304C09093FA088093F908E9
:1053B000FE01329644C0FE01E20FF31F81939193E8
:1053C00022503109398328833AC02091F70830915F
:1053D000F808232B41F4209102013091030130930E
:1053E000F8082093F7082091000130910101211560
:1053F000310541F42DB73EB74091040150910501AC
:10540000241B350BE091F708F091F808E217F30739
:10541000A0F42E1B3F0B2817390778F0AC014E5F24
:105420005F4F2417350748F04E0F5F1F5093F80861
:105430004093F7088193919302C0E0E0F0E0CF0140
:10544000DF91CF910895CF93DF93009709F487C040
:10545000FC01329713821282C091F908D091FA08A8
:10546000209781F420813181280F391F8091F7081E
:105470009091F8088217930779F5F093F808E09374
:10548000F7086DC0DE0120E030E0AE17BF0750F432
:1054900012964D915C9113979D014115510509F1AB
:1054A000DA01F3CFB383A28340815181840F951F2A
:1054B0008A179B0771F48D919C911197840F951F0A
:1054C00002969183808312968D919C91139793837A
:1054D00082832115310529F4F093FA08E093F90845
:1054E0003EC0D9011396FC93EE9312974D915D91B6
:1054F000A40FB51FEA17FB0779F480819181840F0F
:10550000951F0296D90111969C938E938281938167
:1055100013969C938E931297E0E0F0E08A819B8132
:10552000009719F0FE01EC01F9CFCE010296288117
:105530003981820F931F2091F7083091F8082817BE
:10554000390769F4309729F41092FA081092F90893
:1055500002C013821282D093F808C093F708DF913B
:10556000CF910895A0E0B0E0E8EBFAE20C94FF2BB5
:10557000EC01CB01209719F40E948B29B8C0FE01E1
:10558000E60FF71F9E0122503109E217F30708F4D6
:10559000ACC0D9010D911C91119706171707B8F0EF
:1055A0000530110508F49FC0A80144505109461761
:1055B000570708F498C002501109061B170B0193F6
:1055C00011936D937C93CF010E94232A8CC05B01C1
:1055D000A01AB10A4E01800E911EA091F908B09157
:1055E000FA08612C712C60E070E0109709F449C052
:1055F000A815B905C9F5ED90FC901197670142E037
:10560000C40ED11CCA14DB0478F147018A189B0828
:10561000640142E0C40ED11C1296BC9012971396FE
:10562000AC91B5E0CB16D10440F0B282A383918255
:105630008082D9018D939C9309C00E5F1F4F0E0D80
:105640001F1DF90111830083EB2DFA2F61157105E0
:1056500031F0DB011396FC93EE93129744C0F09364
:10566000FA08E093F9083FC06D917C911197661696
:10567000770608F43B01BD0112960D90BC91A02D58
:10568000B4CF6091F7087091F80868157905E9F4CE
:1056900068167906D0F4409100015091010141153E
:1056A000510541F44DB75EB7609104017091050159
:1056B000461B570BE417F507C0F4F093F808E09386
:1056C000F708F901918380830EC00E948B297C0129
:1056D000009759F0A801BE010E94942BCE010E94B0
:1056E000232AC70104C0CE0102C080E090E0CDB7FC
:1056F000DEB7EEE00C941B2C91116AC0803219F0D9
:1057000089508550D0F70895FB01DC0105900D927A
:105710000020E1F70895FC0105900020E9F780954D
:1057200090958E0F9F1F0895FB01DC0102C0019030
:105730000D9241505040D8F70895FB01DC010D90C7
:105740000020E9F7119701900D920020E1F70895EC
:10575000FB01DC018D91019080190110D9F3990BA7
:105760000895FB01DC0101900D920020E1F70895FE
:105770004532510520F4423010F00C94C32BFB014C
:105780001082CB010895BB274A3031F4992322F4CB
:10579000BDE2909581959F4F0C94CF2BBB27FB01C9
:1057A0005527AA27880F991FAA1FA41710F0A41B1A
:1057B00083955051B9F7A05DAA3308F0A95DA19374
:1057C000009779F7B111B1931192CB010C94EB2BA7
:1057D000992788270895DC01FC01672F71917723B1
:1057E000E1F7329704C07C916D9370836291AE179C
:1057F000BF07C8F308952F923F924F925F926F9226
:105800007F928F929F92AF92BF92CF92DF92EF9250
:10581000FF920F931F93CF93DF93CDB7DEB7CA1BD1
:10582000DB0B0FB6F894DEBF0FBECDBF09942A88FC
:10583000398848885F846E847D848C849B84AA84A4
:10584000B984C884DF80EE80FD800C811B81AA8131
:10585000B981CE0FD11D0FB6F894DEBF0FBECDBFFC
:10586000ED01089514E0C8E1D4E004C0FE010E94F7
:0E58700073292296CC31D107C9F7F894FFCFE7
:10587E000000FB0880000100E100000000000001B4
:10588E0001585858585858583130307B2274656D2D
:10589E0070223A224C6973742074656D7065726162
:1058AE007475726520616E642068756D69646974C3
:1058BE0079222C002274656D7073223A224C697322
:1058CE00742074656D706572617475726573222CC7
:1058DE0000226C69676874223A224D656173757295
:1058EE0065206C69676874222C00226461746522DD
:1058FE003A2253686F772063757272656E742064F6
:10590E00657669636520646174652074696D6522CE
:10591E002C002264617461223A2253686F772073DF
:10592E00656E736F722064617461222C00226D614A
:10593E006B6570686F6E6563616C6C223A226D6187
:10594E006B6520612070686F6E652063616C6C22E0
:10595E002C002273656E6473736D223A2253656E4A
:10596E0064206D65737361676520746F2070686F56
:10597E006E65222C002273656E646D736D223A2261
:10598E0053656E64206D65737361676520746F2057
:10599E0070686F6E652077697468207069637475BE
:1059AE007265222C0022657272223A2253686F773A
:1059BE00206C617374206572726F72222C002272D9
:1059CE0065736574223A2252657365742041726460
:1059DE0075696E6F22007B20226C69676874223AAB
:1059EE00007B226572726F72223A224661696C6583
:1059FE006420746F20726561642066726F6D20443E
:105A0E0048542073656E736F7221227D007B2022B5
:105A1E0048756D696469747950657263656E742238
:105A2E003A002C202254656D7043223A002C20221D
:105A3E0054656D7046223A00202C20224865617410
:105A4E00496E64657846223A002254656D700022D4
:105A5E003A207B002241646472657373223A2022DD
:105A6E000022202C002254656D7043223A20002D16
:105A7E00393939002C20007B20226572726F722218
:105A8E00203A2022007B2022726573657474696E41
:105A9E006741726475696E6F22203A2022436F6DE2
:105AAE006D6974656422207D00707974686F6E0074
:105ABE002F6D6E742F736461312F61726475696E10
:105ACE006F2F73656E642D6D6D732D7765627069C2
