:100000000C940E020C9436020C9436020C943602B8
:100010000C9436020C9436020C9436020C94360280
:100020000C9436020C9436020C94FD220C94CB21D5
:100030000C9436020C9436020C9436020C94360260
:100040000C9436020C9436020C9436020C94360250
:100050000C9436020C9436020C9436020C94F91867
:100060000C9436020C94451C0C94771C0C943602AC
:100070000C9436020C9436020C9436020C94360220
:100080000C9436020C9436020C9436020C94360210
:100090000C9436020C9436020C9436020C94360200
:1000A0000C9436020C9436020C943602431A461A0B
:1000B000351A391A3F1A671A671A671A4A1A4E1AF6
:1000C000521A581A5C1A671A621A72756E2D627289
:1000D000696467650A000A000A00302E302E302E4F
:1000E00030003132372E302E302E3100005EBCE22F
:1000F000613FDD83C29C7E20A3FD1F419DC3217F04
:10010000FCA2401E5F01E3BD3E6082DC237D9FC1F7
:10011000421CFEA0E1BF5D0380DE3C62BEE0025CEB
:10012000DF81633D7C22C09E1D43A1FF4618FAA4D7
:1001300027799BC584DA3866E5BB5907DB856739C3
:10014000BAE406581947A5FB7826C49A653BD987B7
:10015000045AB8E6A7F91B45C6987A24F8A6441AAB
:1001600099C7257B3A6486D85B05E7B98CD2306E97
:10017000EDB3510F4E10F2AC2F7193CD114FADF383
:10018000702ECC92D38D6F31B2EC0E50AFF1134D77
:10019000CE90722C6D33D18F0C52B0EE326C8ED06B
:1001A000530DEFB1F0AE4C1291CF2D73CA94762857
:1001B000ABF517490856B4EA6937D58B5709EBB543
:1001C00036688AD495CB2977F4AA4816E9B7550B37
:1001D00088D6346A2B7597C94A14F6A8742AC8962B
:1001E000154BA9F7B6E80A54D7896B3507060504FD
:1001F0000100080A0B0C0D090000000200090F00A5
:1002000000030401000C00000000000000000000DA
:10021000000000000000040802011040804010208F
:1002200040804080080204018040201002011080BC
:1002300010204040040404040403040502020202E6
:10024000040302020202060606060606040402026F
:100250000204000000002300260029002C002F00CB
:1002600000000000250028002B002E0031000000B7
:100270000000240027002A002D00300000C18081EA
:10028000C11201000202000040412341800001012F
:1002900002000112010002000000404123418000E1
:1002A000010102000141726475696E6F204C4C437C
:1002B0000041726475696E6F2059756E0004030900
:1002C00004080B00020202010009040000010202FE
:1002D0000000052400100105240101010424020688
:1002E00005240600010705810310004009040100F0
:1002F000020A000000070502024000000705830211
:1003000040000000000000000000002A2B28000030
:1003100000000000000000000000000000000000DD
:100320000000002C9EB4A0A1A2A434A6A7A5AE36BE
:100330002D3738271E1F20212223242526B333B62C
:100340002EB7B89F8485868788898A8B8C8D8E8FFF
:10035000909192939495969798999A9B9C9D2F3102
:1003600030A3AD350405060708090A0B0C0D0E0F66
:10037000101112131415161718191A1B1C1DAFB1E2
:10038000B0B50009040200010300000009210101C9
:1003900000012265000705840340000105010902F0
:1003A000A1010901A1008501050919012903150011
:1003B00025019503750181029501750581030501EC
:1003C0000930093109381581257F750895038106A3
:1003D000C0C005010906A1018502050719E029E74A
:1003E00015002501750195088102950175088103A5
:1003F0009506750815002565050719002965810012
:10040000C000AC05720A110C190C200CD810DD11BB
:10041000A71C301D3F269227F905150C11241FBE7D
:10042000CFEFDAE0DEBFCDBF15E0A0E0B1E0E8EB52
:10043000F9E502C005900D92A238B107D9F729E07D
:10044000A2E8B5E001C01D92A132B207E1F714E0C5
:10045000C8E1D4E004C02297FE010E94F629C23010
:10046000D107C9F70E94401D0C94CF2C0C940000BA
:100470001F93CF93DF9385E497E00E94F81190E0FB
:1004800090934407809343071092D8061092D706A2
:1004900011E0C091D706D091D80680914307909182
:1004A0004407C817D907DCF56BE171E085EA96E0EF
:1004B0000E94342CBE0183E0660F771F8A95E1F716
:1004C0006D50794F4C2F85E497E00E940A122091DD
:1004D000D7063091D806F901E751F94F811114C0C0
:1004E00010824AE067ED75E0C90101960E94602C18
:1004F000BC0185EA96E00E94202C63ED73E085EA5A
:1005000096E00E94202C01C010838091D706909124
:10051000D80601969093D8068093D706BACFDF917C
:10052000CF911F9108950F931F93CF93DF9300D026
:1005300000D000D0CDB7DEB78C0164ED73E08DED57
:1005400095E00E94342C6FE271E08DED95E00E9401
:10055000202CB8018DED95E00E94202C6AEA74E011
:100560008DED95E00E94202C6DE471E0CE010196A6
:100570000E94DF23BE016F5F7F4F82E895E00E94FB
:10058000C20DCE0101960E9471236DED75E0CE0182
:1005900001960E94DF23BE016F5F7F4F82E895E0E6
:1005A0000E94B20CCE0101960E94712366E571E0B3
:1005B000CE0101960E94DF23BE016F5F7F4F82E86C
:1005C00095E00E94B20CCE0101960E94712382E850
:1005D00095E00E947B0D82E895E00E947D0C181644
:1005E000190664F482E895E00E94870C4AE050E026
:1005F000BC0186E797E00E94901EEDCF26960FB6CD
:10060000F894DEBF0FBECDBFDF91CF911F910F9148
:100610000895FF920F931F93CF93DF9300D000D0E4
:1006200000D0CDB7DEB78C01F62E662321F08DEA1F
:1006300091E00E94930261EE73E08DED95E00E94DF
:10064000342CB8018DED95E00E94202C61EE73E012
:100650008DED95E00E94202C61E671E0CE010196BF
:100660000E94DF23BE016F5F7F4F82E895E00E940A
:10067000C20DCE0101960E94712368E671E0CE01A1
:1006800001960E94DF23BE016F5F7F4F82E895E0F5
:100690000E94B20CCE0101960E9471236DED75E0AF
:1006A000CE0101960E94DF23BE016F5F7F4F82E87B
:1006B00095E00E94B20CCE0101960E947123FF20AA
:1006C00089F066E871E0CE0101960E94DF23BE0149
:1006D0006F5F7F4F82E895E00E94B20CCE010196D9
:1006E0000E94712382E895E00E947B0D82E895E0EC
:1006F0000E947D0C1816190664F482E895E00E94A9
:10070000870C4AE050E0BC0186E797E00E94901E0B
:10071000EDCF26960FB6F894DEBF0FBECDBFDF91AA
:10072000CF911F910F91FF90089566EB71E086E7DE
:1007300097E00E94DB1D62EC71E086E797E00E9483
:10074000DB1D86E797E00C94C71D0E94950361EEC0
:1007500071E086E797E00E94BE1D6AE072E086E7DE
:1007600097E00E94BE1D67E272E086E797E00E9474
:10077000BE1D60E472E086E797E00E94BE1D68E659
:1007800072E086E797E00E94BE1D68E972E086E7A6
:1007900097E00E94BE1D60EB72E086E797E00E9442
:1007A000BE1D63ED72E086E797E00E94BE1D63E028
:1007B00073E086E797E00E94BE1D6CE173E086E778
:1007C00097E00E94BE1D65E074E086E797E00C9418
:1007D000BE1D0E94950364E373E086E797E00E94E4
:1007E000BE1D82E10E94FA194AE050E0BC0186E792
:1007F00097E00E94901E64E074E086E797E00C9416
:10080000BE1D8F929F92AF92BF92CF92DF92EF92D6
:10081000FF920F931F930E94950388E697E00E9432
:10082000B4166093D9067093DA068093DB06909332
:10083000DC0660E088E697E00E9440166093DD06E3
:100840007093DE068093DF069093E00661E088E611
:1008500097E00E9440166B017C016093E106709363
:10086000E2068093E3069093E4068090D906909088
:10087000DA06A090DB06B090DC06A5019401C50164
:10088000B4010E94BA29811116C06091DD067091F1
:10089000DE068091DF069091E0069B01AC010E948C
:1008A000BA29811108C0A7019601C701B6010E94AB
:1008B000BA29882319F06FE373E062C095018401BF
:1008C000B701A60188E697E00E94A5146093E506AB
:1008D0007093E6068093E7069093E8066BE673E074
:1008E00086E797E00E94BE1D4091D9065091DA0636
:1008F0006091DB067091DC0622E030E086E797E04D
:100900000E94971F60E873E086E797E00E94BE1D93
:100910004091DD065091DE066091DF067091E006A1
:1009200022E030E086E797E00E94971F6BE873E0D3
:1009300086E797E00E94BE1D4091E1065091E206D5
:100940006091E3067091E40622E030E086E797E0EC
:100950000E94971F66E973E086E797E00E94BE1D3C
:100960004091E5065091E6066091E7067091E80631
:1009700022E030E086E797E00E94971F65E074E090
:1009800086E797E01F910F91FF90EF90DF90CF9057
:10099000BF90AF909F908F900C94BE1DCF92DF922E
:1009A000EF92FF920E94950385E497E00E94F7136F
:1009B00060EB73E086E797E00E94BE1D1092D806B8
:1009C0001092D7062091D7063091D8068091430720
:1009D00090914407281739070CF093C067EA73E039
:1009E00086E797E00E94BE1D6091D7067091D806F9
:1009F0006F5F7F4F4AE050E086E797E00E94901ECD
:100A00006DEA73E086E797E00E94BE1D62EB73E03B
:100A100086E797E00E94BE1D6091D7067091D806C8
:100A200023E0660F771F2A95E1F76D50794F40E17B
:100A300050E086E797E00E94901E6FEB73E086E738
:100A400097E00E94BE1D63EC73E086E797E00E948A
:100A5000BE1D6091D7067091D806FB01E751F94F92
:100A600080818823E9F093E0660F771F9A95E1F77C
:100A70006D50794F85E497E00E9488146B017C01EA
:100A80006093D9067093DA068093DB069093DC06B8
:100A900020E030E048EC52EC0E94042887FF07C0B9
:100AA0006DEC73E086E797E00E94BE1D08C022E06F
:100AB00030E0B701A60186E797E00E94971F65E046
:100AC00074E086E797E00E94BE1D809143079091F5
:100AD000440701972091D7063091D8062817390787
:100AE00031F062ED73E086E797E00E94BE1D8091D1
:100AF000D7069091D80601969093D8068093D70692
:100B000061CF65E074E086E797E0FF90EF90DF90BB
:100B1000CF900C94BE1D0E94950365ED73E086E7AF
:100B200097E00E94BE1D65EA76E086E797E00E94A6
:100B3000BE1D68E673E086E797E00C94BE1D0E9438
:100B4000950363EE73E086E797E00E94BE1DE09197
:100B50006607F091670709940F9300E020E040E0FA
:100B600060E083ED97E00E94241D49ED57E063EBC0
:100B700075E189EC97E00E94821169ED77E086E7E4
:100B800097E00E94161026E046E16AE088E697E0CA
:100B90000E948C1462E088E597E00E94321868E5B4
:100BA00077E085E497E00E94E911109285051092A4
:100BB000840588EE93E0A0E0B0E0809386059093F2
:100BC0008705A0938805B093890588E095E0909308
:100BD00083058093820589ED97E090938F0580933C
:100BE0008E051092940510929505109296050F911E
:100BF000089582E895E00E94BB0D86E797E00C948B
:100C00002D1061E08DE00E94681A60E08DE00E9486
:100C1000A11A26E040E950ED63E070E08091E20720
:100C20009091E3070E94E31B89ED97E00E946B0916
:100C300088E697E00E94931485E497E00E941513DC
:100C40000E94380281E08093D00789EC97E00E94EF
:100C5000E31061E08DE00C94A11ACF93DF9300D0F4
:100C600000D000D0CDB7DEB7BC01CE0101960E9406
:100C7000DF23BE016F5F7F4F82E895E00E94260E62
:100C8000CE0101960E94712382E895E00E94280D12
:100C90008111FACF82E895E00E947D0C18161906A2
:100CA00074F482E895E00E94870C8093DC058A301A
:100CB00089F3682F86E797E00E94C01DEBCF86E797
:100CC00097E00E943F0E26960FB6F894DEBF0FBE47
:100CD000CDBFDF91CF9108950E94950367E074E046
:100CE00086E797E00E94BE1D84E294E00E942D06F4
:100CF00063E074E086E797E00C94BE1D0E949503C4
:100D000065E474E086E797E00E94BE1D84E594E008
:100D10000E942D0663E074E086E797E00C94BE1D08
:100D20000F931F93CF93DF93CDB7DEB7C955D1098A
:100D30000FB6F894DEBF0FBECDBF69EC77E0CE01F1
:100D400001960E949011BE016F5F7F4F86E797E08A
:100D50000E943310CE0101960E942D1080918607CB
:100D6000882309F4A2C066E777E0CE018C5A9F4F32
:100D70000E94C71FCE018C5A9F4F0E9422256EE60B
:100D800074E0CE018C5A9F4F0E94E324882319F00F
:100D90000E94010481C063E774E0CE018C5A9F4F2A
:100DA0000E94E324882319F00E94CE0475C069E7ED
:100DB00074E0CE018C5A9F4F0E94E324882319F0DF
:100DC0000E94E90369C06FE774E0CE018C5A9F4F1F
:100DD0000E94E324882319F00E948B055DC063E81C
:100DE00074E0CE018C5A9F4F0E94E324882319F0AF
:100DF0000E949F0551C069E874E0CE018C5A9F4F54
:100E00000E94E324882319F00E947E0645C06EE804
:100E100074E0CE018C5A9F4F0E94E324882319F07E
:100E20000E946C0639C069E974E0CE0101960E9407
:100E3000DF23BE016F5F7F4FCE018C5A9F4F0E9410
:100E40001E258C01CE0101960E94712310161106F9
:100E50002CF483EA94E00E9493021EC06FEA74E0CF
:100E6000CE018C5A9F4F0E94E324882321F060E03A
:100E700087EB94E00CC06AEC74E0CE018C5A9F4F73
:100E80000E94E324882331F061E082ED94E00E9427
:100E9000090302C00E94A50386E797E00E94E80EBE
:100EA000CE018C5A9F4F0E94712361E08DE00E9419
:100EB000A11A62E370E080E090E00E947219C75AC4
:100EC000DF4F0FB6F894DEBF0FBECDBFDF91CF91DD
:100ED0001F910F910895FC01238134812627022E52
:100EE0002295207F2025032E322F22952F70022657
:100EF000269532272327220F220F220F2025FC01BF
:100F0000348323830895CF93DF93EC018D819E81F9
:100F1000DC01ED91FC916C810190F081E02D09954F
:100F20008D819E81DC01ED91FC910190F081E02D9D
:100F30006B81DF91CF9109948F929F92AF92BF9274
:100F4000CF92DF92EF92FF92CF93DF93EC016B0190
:100F50000E9443194B015C01E12CF12C8D819E8193
:100F6000DC01ED91FC910680F781E02D099597FF5A
:100F70000DC00E944319681979098A099B096C15EB
:100F80007D058E059F0550F38FEF9FEFDF91CF9189
:100F9000FF90EF90DF90CF90BF90AF909F908F9099
:100FA0000895CF93DF93EC018D819E81DC01ED915B
:100FB000FC910480F581E02D09951816190654F46A
:100FC0008D819E81DC01ED91FC910680F781E02D01
:100FD0000995EACFDF91CF9108952F923F924F92DA
:100FE0005F926F927F928F929F92AF92BF92CF92B9
:100FF000DF92EF92FF920F931F93CF93DF93CDB7C2
:10100000DEB72D970FB6F894DEBF0FBECDBF3C0103
:101010001B013C832B83BF82AE825801AC0CBD1CEC
:10102000A40EB51EBD824B2C512CCA01860F971FF2
:1010300099878887D901A00FB11FBB87AA87F601BE
:10104000EE0DFF1DFD87EC87D30118968C91581685
:1010500008F026C1EFEFFFEFD3011496FC93EE9357
:10106000139715968D919C911697DC01ED91FC914B
:101070000190F081E02D6FEF09956FEFC3010E94A1
:101080006B07F30185819681DC01ED91FC91019064
:10109000F081E02DD3016C910995F3016081C301CA
:1010A0000E946B07D30115968D919C911697DC01D8
:1010B000ED91FC910190F081E02D6D810995642DF9
:1010C000C3010E946B07F30185819681DC01ED91DC
:1010D000FC910190F081E02D6A2D09956A2DC301E4
:1010E0000E946B07610188859985C816D906A1F011
:1010F000F301858196818601DC01ED91FC910190DF
:10110000F081E02DD6016D916D010995F8016081A6
:10111000C3010E946B07E7CFCB80DC808A859B856B
:10112000C816D906B1F0D30115968D919C911697EA
:101130008601DC01ED91FC910190F081E02DD6015A
:101140006D916D010995F8016081C3010E946B07E3
:10115000E5CF87018C859D8508171907B1F0D3016C
:1011600015968D919C9116976801DC01ED91FC918B
:101170000190F081E02DD8016D918D010995F60166
:101180006081C3010E946B07E5CFC3010E94830702
:1011900064E670E0C3010E949C078F3F910509F04F
:1011A00074C0EFEFFFEFD3011496FC93EE93139707
:1011B0006FEFC3010E946B0765E070E0C3010E94FE
:1011C0009C07D3016C91262F30E08217930709F01A
:1011D0005CC0C3010E946B076AE070E0C3010E941B
:1011E0009C078C0197FD51C0682FC3010E946B07BB
:1011F0006AE070E0C3010E949C076C0197FD45C046
:10120000682FC3010E946B070A83198209811A8122
:101210000C0D1D1DC12CD12C65E070E0C301C01662
:10122000D106A1F0C814D90489F00E949C0797FD4B
:1012300009C0EE81FF81EC0DFD1D8083682FC30185
:101240000E946B07BFEFCB1ADB0AE6CF0E949C0718
:101250006C0197FD1AC065E070E0C3010E949C0715
:1012600097FD13C0DC2CCC24C80ED91EF30183815A
:1012700094818C159D0549F480818F5F8083C8011E
:101280008016910678F4C4010DC0539464E670E0B2
:1012900080E090E00E947219C3010E94D107D4CE71
:1012A0008FEF9FEF2D960FB6F894DEBF0FBECDBF28
:1012B000DF91CF911F910F91FF90EF90DF90CF9032
:1012C000BF90AF909F908F907F906F905F904F9066
:1012D0003F902F9008953F924F925F926F927F922E
:1012E0008F929F92AF92BF92CF92DF92EF92FF9236
:1012F0000F931F93CF93DF93CDB7DEB72E970FB623
:10130000F894DEBF0FBECDBF3C01DC0117968C9177
:1013100017978111CFC081E017968C93C3010E946B
:10132000D10768EE73E080E090E00E947219F3014B
:1013300085819681DC01ED91FC910480F581E02DA1
:1013400009951816190654F355E0552E4424439474
:1013500062E3362EE1E1F1E0DE011696852D019083
:101360000D928A95E1F7F3014086812C912CA12CF6
:10137000B12CC12CD12CE12CF12C00E010E020E0AC
:1013800030E045E050E0BE016A5F7F4FC3010E943C
:10139000ED0763E0D30115968D919C9116970E94FD
:1013A000C01D6AEF70E080E090E00E94721968ED65
:1013B00070E0F301858196810E94991D6AEF70E0CB
:1013C00080E090E00E94721966ED70E0D3011596FE
:1013D0008D919C9116970E94991D64EF71E080E0B9
:1013E00090E00E9472196AEC70E0F30185819681A9
:1013F0000E94991D64EF71E080E090E00E947219F4
:10140000C3010E94D107E6E1F1E0DE011196852DCE
:1014100001900D928A95E1F7D30118963C9244E031
:10142000842E912CFE013B965F0120E030E045E0E8
:1014300050E0BE016F5F7F4FC3010E94ED078F3FF9
:10144000FFEF9F0739F468EE73E080E090E00E94C0
:10145000721980CF2B852111FFCF049711F52C85B0
:1014600030E02053310944E6429FC001439F900D74
:1014700011242D8530E0205331096AE0629FA001DC
:10148000639F500D1124840F951F2E8530E020534B
:101490003109820F931FD30112969C938E9311975B
:1014A00005C084E690E0F3019283818382E3D30157
:1014B00018968C932E960FB6F894DEBF0FBECDBF54
:1014C000DF91CF911F910F91FF90EF90DF90CF9020
:1014D000BF90AF909F908F907F906F905F904F9054
:1014E0003F9008951092D90784E198E09093DF0728
:1014F0008093DE071092E0071092E1079093E307D4
:101500008093E20708958F929F92AF92BF92CF92FD
:10151000DF92EF92FF920F931F9348015901C12C64
:10152000D12CE12CF12C00E010E020E030E00E9412
:10153000ED071F910F91FF90EF90DF90CF90BF903C
:10154000AF909F908F9008950F931F9300E010E04D
:1015500020E030E00E94830A1F910F910895CF93FD
:10156000DF9300D0CDB7DEB7DC0152968C91529755
:10157000882389F080E589836A8342E050E0BE01D8
:101580006F5F7F4F1C968D919C911D970E94A40ABE
:1015900081E090E01FC05596ED91FC9156975396CF
:1015A0008C91539791E0980F53969C935397E80F23
:1015B000F11D608353969C91539754968C91549748
:1015C000981308C0ED91FC9111970284F385E02DEA
:1015D000CD0109950F900F90DF91CF910895AF92B3
:1015E000BF92CF92DF92EF92FF920F931F93CF9310
:1015F000DF9300D0CDB7DEB75C017A01DC015296F3
:101600008C91811104C08B01E60EF71E41C06A0166
:10161000BFEFCB1ADB0AC60169837A830E94551D8E
:101620008C01FC0180E58193A70169817A81CF015A
:101630000E94172CA601B801F501848595850E94AA
:10164000A40A0115110519F0C8010E94591DC7010E
:1016500022C0D5015596ED91FC91569753968C91E9
:10166000539791E0980F53969C93D8019D918D01CB
:10167000E80FF11D9083F50193898489981308C0C0
:101680000190F081E02D0284F385E02DC5010995DC
:101690000E151F05F1F60F900F90DF91CF911F915E
:1016A0000F91FF90EF90DF90CF90BF90AF90089593
:1016B000CF93DF93EC018A8981110AC04B8950E0F6
:1016C0006D897E898C859D850E94A40A81E08B8B23
:1016D000DF91CF910895FC011382128248EE53E00E
:1016E00060E070E044835583668377838AEE94E0FC
:1016F0009183808389ED97E0958784871686178686
:10170000118A108A81E0828B0895CF93DF93EC01D8
:101710008A89811108C08D899E89009711F00E94E5
:10172000591D81E08A8BDF91CF910895EF92FF924E
:101730000F931F93CF93DF9300D0CDB7DEB77C011B
:10174000FC018685811114C0178680E7898380E2B9
:101750008A832089318900E210E042E050E0BE0136
:101760006F5F7F4F848595850E94830AF701868786
:101770000F900F90DF91CF911F910F91FF90EF90FD
:101780000895CF93DF93EC010E94960B8E8590E035
:10179000DF91CF910895CF93DF93EC010E94960BD8
:1017A0008E85882369F081508E87E889F9898F8535
:1017B00091E0980F9F87E80FF11D808190E002C0B3
:1017C0008FEF9FEFDF91CF910895CF93DF93EC01DF
:1017D0000E94960B8E85882341F08F85E889F989D0
:1017E000E80FF11D808190E002C08FEF9FEFDF9145
:1017F000CF910895CF93DF93EC010E94850B8889E8
:101800009989009721F00E94591D198A188ADF9141
:10181000CF9108952AEE34E0FC01318320830C94AB
:10182000FA0B84EE97E00C946B0B84EE97E00C942B
:101830000A0C89ED97E09093FC078093FB070895CD
:1018400089ED97E09093FE078093FD070895089532
:101850000F931F93CF93DF9300D01F92CDB7DEB7C6
:1018600029E42983FC0126852A836B8300E010E0AC
:1018700020E030E043E050E0BE016F5F7F4F8485A1
:1018800095850E94830A81E090E00F900F900F9061
:10189000DF91CF911F910F910895EF92FF920F93D7
:1018A0001F93CF93DF9300D01F92CDB7DEB77C019B
:1018B000FC018389811117C0148A8FE4898386858E
:1018C0008A8380E48B8397012B5E3F4F00E410E016
:1018D00043E050E0BE016F5F7F4F848595850E9495
:1018E000830AF701838B0F900F900F90DF91CF91B8
:1018F0001F910F91FF90EF900895CF93DF93EC012C
:101900000E944D0C8B8990E0DF91CF910895CF9389
:10191000DF93EC010E944D0C8B89882359F0815094
:101920008B8B8C8991E0980F9C8BC80FD11D8D8972
:1019300090E002C08FEF9FEFDF91CF910895CF939A
:10194000DF93EC010E944D0C8B89882331F08C8948
:10195000C80FD11D8D8990E002C08FEF9FEFDF91FE
:10196000CF9108950F931F93CF93DF93EC018B01D9
:1019700066EF74E0888999890E949324B801888968
:101980009989DF91CF911F910F910C948C246F92C4
:101990007F928F929F92AF92BF92CF92DF92EF92FF
:1019A000FF920F931F93CF93DF9300D01F92CDB779
:1019B000DEB73C0182E58B83D3015096ED91FC911B
:1019C0005197048115812081318182E0882E912CEC
:1019D000FE0131965F01C12CD12CE12CF12C41E0AC
:1019E00050E0BE016D5F7F4F1C968D919C911D97BD
:1019F0000E94ED078A8190E0D3011F969C938E93FD
:101A00001E9750960D911C9151970115110531F0BB
:101A1000C8010E947123C8010E94571DF301118A59
:101A2000108A8981811102C081E0828B0F900F9012
:101A30000F90DF91CF911F910F91FF90EF90DF906A
:101A4000CF90BF90AF909F908F907F906F900895B0
:101A50000F931F93CF93DF9300D01F92CDB7DEB7C4
:101A600022E72983FC0126852A8301E010E09E01FC
:101A70002D5F3F4F42E050E0BE016F5F7F4F848596
:101A800095850E94830A81E09B81913009F080E076
:101A90000F900F900F90DF91CF911F910F910895AC
:101AA0000F931F93CF93DF9300D000D0CDB7DEB755
:101AB00027E52B83FC0126852C8302E010E09E01A4
:101AC0002F5F3F4F42E050E0BE016D5F7F4F848546
:101AD00095850E94830A898190E0982F88272A8122
:101AE000820F911D0F900F900F900F90DF91CF916B
:101AF0001F910F910895CF93DF93EC010E94C70CC3
:101B0000CE010E94280D882339F064E670E080E061
:101B100090E00E947219F4CFCE01DF91CF910C9426
:101B2000500DEF92FF920F931F93CF93DF9300D04E
:101B3000CDB7DEB77C01FC018289882389F087E775
:101B4000898386858A8300E010E020E030E042E06F
:101B500050E0BE016F5F7F4F848595850E94830AA8
:101B6000F701128A0F900F90DF91CF911F910F9183
:101B7000FF90EF90089528E035E0FC013183208349
:101B80000C94910DEF92FF920F931F93CF93DF93DD
:101B900000D0CDB7DEB77C0169837A830E94910DB6
:101BA00086E090E00E94531D8C0169817A810E9439
:101BB0002D24F701118B008B0F900F90DF91CF91A7
:101BC0001F910F91FF90EF900895EF92FF920F9366
:101BD0001F93CF93DF9300D000D000D0CDB7DEB7F6
:101BE0008C017B0168EF74E0CE0101960E94DF2337
:101BF000BE016F5F7F4FC8010E94C20DCE010196EA
:101C00000E94712361E075E0CE0101960E94DF23FE
:101C1000BE016F5F7F4FC8010E94B20CCE010196DA
:101C20000E947123B701C8010E94B20CC8010E9432
:101C3000C70C26960FB6F894DEBF0FBECDBFDF915E
:101C4000CF911F910F91FF90EF900895CF93DF9365
:101C5000EC010E94E50DCE010E94280D882339F089
:101C600064E670E080E090E00E947219F4CFCE014B
:101C7000DF91CF910C94500DFC0180890895089557
:101C8000EF92FF920F931F93CF93DF93CDB7DEB701
:101C900028970FB6F894DEBF0FBECDBF7C018B0135
:101CA00064ED73E0CE0101964F8358870E94DF23D5
:101CB00062E170E0CE0101960E94A223D801129643
:101CC0006C91CE0101960E94B6246EE2CE0101967F
:101CD0000E94A324F8016381CE0101960E94B624DC
:101CE0006EE2CE0101960E94A324D80114966C9155
:101CF000CE0101960E94B6246EE2CE0101960E94AA
:101D0000A324F8016581CE0101960E94B624D70173
:101D1000ED91FC9169817A810684F785E02D4F81F0
:101D20005885C70109958C01CE0101960E94712347
:101D3000C80128960FB6F894DEBF0FBECDBFDF9165
:101D4000CF911F910F91FF90EF9008956F927F9226
:101D50008F929F92AF92BF92CF92DF92EF92FF92BB
:101D60000F931F93CF93DF9300D0CDB7DEB7FC0165
:101D70009B013A0180898823C1F08CE6898386859E
:101D80008A83812C912CA12CB12CC12CD12CE12C3B
:101D9000F12C8A0142E050E0BE016F5F7F4F8485E5
:101DA00095850E94ED07C30102C080E090E00F908E
:101DB0000F90DF91CF911F910F91FF90EF90DF90E7
:101DC000CF90BF90AF909F908F907F906F9008952D
:101DD000EF92FF920F931F93CF93DF9300D0CDB775
:101DE000DEB77C01FC018089882389F08AE689833B
:101DF00086858A8300E010E020E030E042E050E099
:101E0000BE016F5F7F4F848595850E94830AF7012D
:101E1000108A0F900F90DF91CF911F910F91FF903B
:101E2000EF9008950F931F93CF93DF9300D01F92ED
:101E3000CDB7DEB7FC0180898823B1F08CE48983BB
:101E400086858A8301E010E09E012D5F3F4F42E0CE
:101E500050E0BE016F5F7F4F848595850E94830AA5
:101E600081E09B81913009F080E00F900F900F90FE
:101E7000DF91CF911F910F9108956F927F928F9272
:101E80009F92AF92BF92CF92DF92EF92FF920F9309
:101E90001F93CF93DF93CDB7DEB727970FB6F89494
:101EA000DEBF0FBECDBF3C019B0183E489835A8313
:101EB0004B83DB010D900020E9F78D0101501109E2
:101EC000061B170B88248394912CFE0137965F0123
:101ED000C12CD12CE12CF12C43E050E0BE016F5F0E
:101EE0007F4FD3011C968D919C911D970E94ED0709
:101EF000892BE1F12F81822F90E0F301978786876C
:101F000083E68C832D8301E010E09E012A5F3F4F22
:101F100042E050E0BE016C5F7F4FD3011C968D9173
:101F20009C911D970E94830A8E81882339F061E07D
:101F300070E080E090E00E947219E5CF81E0F3014B
:101F4000808B0190F081E02D0488F589E02DC3019C
:101F5000099581110EC0D301ED91FC910288F3899E
:101F6000E02DC3010995F3011786168680E090E005
:101F700002C081E090E027960FB6F894DEBF0FBE56
:101F8000CDBFDF91CF911F910F91FF90EF90DF9028
:101F9000CF90BF90AF909F908F907F906F9008955B
:101FA0000F931F93CF93DF9300D01F92CDB7DEB76F
:101FB000FC0180898823A9F08CE6898386858A8341
:101FC0006B8300E010E020E030E043E050E0BE0131
:101FD0006F5F7F4F848595850E94830A81E090E042
:101FE00002C080E090E00F900F900F90DF91CF91B2
:101FF0001F910F9108950F931F93FC01138212827A
:1020000008EE13E020E030E0048315832683378355
:1020100088E195E091838083558744877787668739
:1020200081E0808B118A1F910F910895FC01CB01F3
:102030001382128248EE53E060E070E044835583DF
:102040006683778328E135E0318320839587848711
:1020500017861686108A118A089528E135E0FC015A
:10206000318320830895FB012089FC01208BFB0133
:1020700026853785FC01378726870895EF92FF92E2
:102080000F931F93CF93DF9300D01F92CDB7DEB78E
:102090007C01FC018189811117C0128A8BE489833C
:1020A00086858A8380E48B8397012D5E3F4F00E411
:1020B00010E043E050E0BE016F5F7F4F848595855F
:1020C0000E94830AF701818B0F900F900F90DF9190
:1020D000CF911F910F91FF90EF900895CF93DF93D1
:1020E000EC010E943E10898990E0DF91CF91089524
:1020F000CF93DF93EC010E943E108989882359F029
:102100008150898B8A8991E0980F9A8BC80FD11DD5
:102110008B8990E002C08FEF9FEFDF91CF91089500
:10212000CF92DF92EF92FF920F931F93CF93DF93A3
:10213000EC016A018B01E12CF12C89898823A9F03B
:102140008FEFE81AF80A8A8991E0980F9A8BFE01BE
:10215000E80FF11D8389F80181938F0189898150EE
:10216000898BEC14FD0448F306C0CE010E943E109A
:1021700089898111E5CFC701DF91CF911F910F911F
:10218000FF90EF90DF90CF900895CF93DF93EC0115
:102190000E943E108989882331F08A89C80FD11D99
:1021A0008B8990E002C08FEF9FEFDF91CF91089570
:1021B0000F9300E020E040E060E08FEF97E00E94A6
:1021C000241D0F9108956F927F928F929F92AF92EC
:1021D000BF92CF92DF92EF92FF920F931F93CF9314
:1021E000DF93CDB7DEB72A970FB6F894DEBF0FBEE8
:1021F000CDBF3C018EE48F83F30184819581988764
:10220000898762EE70E0CE0101960E945724F301A7
:102210008781811106C06AED70E0CE0101960E94AF
:1022200036240D811E8129813A8188248394912C42
:10223000CE010A965C01C12CD12CE12CF12C43E09B
:1022400050E0BE01695F7F4FF301808591850E9458
:10225000ED0781E09A85913009F080E0F3018683F3
:10226000CE0101960E9471232A960FB6F894DEBF24
:102270000FBECDBFDF91CF911F910F91FF90EF90D7
:10228000DF90CF90BF90AF909F908F907F906F9096
:1022900008958F929F92AF92BF92CF92DF92EF926A
:1022A000FF920F931F93CF93DF9300D0CDB7DEB78C
:1022B00022E629836A83812C912CA12CB12CC12C7C
:1022C000D12CE12CF12C00E010E020E030E042E0E5
:1022D00050E0BE016F5F7F4FFC01808591850E94B9
:1022E000ED0781E090E00F900F90DF91CF911F916B
:1022F0000F91FF90EF90DF90CF90BF90AF909F90A5
:102300008F900895FC011382128284E395E09183FB
:10231000808375836483168217825187408708956E
:102320006F927F928F929F92AF92BF92CF92DF92E5
:10233000EF92FF920F931F93CF93DF9300D0CDB70F
:10234000DEB73C01FB018BE68A8388248394912CC1
:10235000CE0101965C01C12CD12CE12CF12C00E0C6
:1023600010E020E030E041E050E0BE016E5F7F4FC2
:10237000808591850E94ED07892B31F469ED77E026
:10238000C3010E94161007C0698170E049ED57E053
:10239000C3010E94FB0FC3010F900F90DF91CF91FB
:1023A0001F910F91FF90EF90DF90CF90BF90AF9073
:1023B0009F908F907F906F9008950F9300E020E0A2
:1023C00040E060E085E098E00E94241D0F910895B0
:1023D0000895FC0188EE91E1928B818B7683658371
:1023E0001482108289E0818381E08283838308954F
:1023F000FC0184810895CF93DF93EB0167E0CE0168
:102400000E94ED1891E02F81821390E0892FDF91D7
:10241000CF910895EF92FF920F931F93CF93DF9385
:10242000EC018B01E42E8D819E810E942018F12CFD
:10243000B8018D819E810E945518882359F0FE10A5
:1024400006C0B801CE010E94FB11811104C0F394B3
:10245000EF1470F780E0DF91CF911F910F91FF9003
:10246000EF900895EF92FF920F931F93CF93DF9316
:1024700000D0CDB7DEB77C018A01FC018581968151
:1024800069837A830E94F91669817A81F7018581CF
:1024900096810E94F41740E06EEBF70185819681EA
:1024A0000E949617F701858196810E94D817F8013E
:1024B0008083F701858196810E94D817F801818376
:1024C000F701858196810E94D817F8018283F70170
:1024D000858196810E94D817F8018383F701858151
:1024E00096810E94D817F8018483F701858196812F
:1024F0000E94D817F8018583F701858196810E9493
:10250000D817F8018683F701858196810E94D81734
:10251000F8018783F701858196810E94D817F80119
:102520008087F701858196810F900F90DF91CF9181
:102530001F910F91FF90EF900C94F916CF93DF93BA
:10254000EA010E94321268E0CE010E94ED1891E08B
:102550002885821390E0892FDF91CF910895EF9223
:10256000FF921F93CF93DF9300D0CDB7DEB77C01EE
:10257000FC018581968169837A830E94F9166981BD
:102580007A81F701858196810E94F41740E064EB1F
:10259000F701858196810E949617F70185819681C2
:1025A0000E946B17182FF701858196810E94F916FA
:1025B00081E0111180E00F900F90DF91CF911F917A
:1025C000FF90EF900895CF93DF93CDB7DEB72997B3
:1025D0000FB6F894DEBF0FBECDBFFB0120812031C6
:1025E000D1F0AE014F5F5F4F0E949E12882379F0B9
:1025F0008D818F3351F020F48F3149F489E00CC084
:102600008F3539F08F3739F002C08AE005C080E09D
:1026100003C08BE001C08CE029960FB6F894DEBFB2
:102620000FBECDBFDF91CF910895EF92FF920F9330
:102630001F93CF93DF93CDB7DEB761970FB6F894B2
:10264000DEBF0FBECDBF8C01FC01858196810E944B
:102650002018F8011482FF24F394BE01665F7F4FB7
:10266000F801858196810E9455188823C9F1BE0121
:10267000665F7F4FC8010E94FB11882371F3F80148
:102680008081811108C0BE01665F7F4FC8010E9432
:10269000AF12811122C0AE014F5F5F4FBE01665F76
:1026A0007F4FC8010E943212F801E180BE01665FCF
:1026B0007F4FC8010E94E3128E1518F4F801818142
:1026C00006C0BE01665F7F4FC8010E94E312F80199
:1026D000818384818F5F8483C0CFF801F082DBCF58
:1026E00061960FB6F894DEBF0FBECDBFDF91CF91DC
:1026F0001F910F91FF90EF900895CF93DF93CDB787
:10270000DEB729970FB6F894DEBF0FBECDBFAE017E
:102710004F5F5F4F0E94321281E09981911101C099
:1027200080E029960FB6F894DEBF0FBECDBFDF91D3
:10273000CF9108958F929F92AF92BF92CF92DF92E6
:10274000EF92FF920F931F93CF93DF93EC018A01D7
:102750006950633048F4E62FF0E0EE0FFF1FE65CAF
:10276000FA4F8081918102C08EEE92E04C01AA2442
:1027700097FCA094BA2C01151105E1F08B818823F8
:10278000C9F08881811116C00E9443196B017C0138
:10279000C80CD91CEA1CFB1CB801CE010E947D1399
:1027A000811118C00E9443196C157D058E059F0587
:1027B00088F4F2CFC501B401DF91CF911F910F9141
:1027C000FF90EF90DF90CF90BF90AF909F908F9051
:1027D0000C947219DF91CF911F910F91FF90EF90A0
:1027E000DF90CF90BF90AF909F908F900895CF9340
:1027F000DF93EC018D819E810E94F9168D819E816F
:102800000E941C18488164E48D819E810E94961765
:102810008A81882341F040E050E06981CE01DF9158
:10282000CF910C949A13DF91CF910895FA012081F2
:1028300048E0249F90011124818190E0982F8827FF
:10284000990F990F990F282B392BDB018C9180312F
:10285000C1F4678170E08681AB01481B5109CA0150
:102860009695982F8827979587950E94BE29605145
:102870007109207F53E0220F331F5A95E1F7260F8D
:10288000371FC9010895EF92FF920F931F93CF93C3
:10289000DF93CDB7DEB729970FB6F894DEBF0FBE32
:1028A000CDBF8C017B01AE014F5F5F4F0E949E1236
:1028B000882341F0AE014F5F5F4FB701C8010E940E
:1028C000161402C080E894EE29960FB6F894DEBF85
:1028D0000FBECDBFDF91CF911F910F91FF90EF9071
:1028E0000895813824EE920774F0BC01882777FDA3
:1028F0008095982F0E94A32820E030E040E05CE320
:102900000E945729089560E070E08EEF92EC0895E0
:102910000E9443140C947114FC0166834783208742
:1029200081E085870895CF93DF93EC0160E08E818D
:102930000E94681A61E08E810E94A11A19861A8687
:102940001B861C86DF91CF9108954F925F926F9204
:102950007F928F929F92AF92BF92CF92DF92EF922F
:10296000FF920F931F93CF93DF93CDB7DEB72897D6
:102970000FB6F894DEBF0FBECDBF6A017B014801E0
:1029800059019A01AB01C701B6010E9457292B01D9
:102990003C01A5019401C501B4010E9457296D8332
:1029A0007E838F83988721E133E243E050E4C701BF
:1029B000B6010E94572929E134E849E252E40E9415
:1029C0009F2769837A838B839C8326E13BE442E2E1
:1029D00051E4C501B4010E9457299B01AC016981F2
:1029E0007A818B819C810E94A02769837A838B8363
:1029F0009C8328E436E246E65EEBC701B6010E94FE
:102A00005729A50194010E9457299B01AC016981B6
:102A10007A818B819C810E94A02769837A838B8332
:102A20009C8320EE3FE040EE5BEBC301B2010E94CD
:102A300057299B01AC0169817A818B819C810E941D
:102A4000A02769837A838B839C8328EF37E840E64D
:102A50005DEB6D817E818F8198850E9457299B0156
:102A6000AC0169817A818B819C810E94A027698356
:102A70007A838B839C832CEA3DE041EA5AE3C301CD
:102A8000B2010E945729A50194010E9457299B0178
:102A9000AC0169817A818B819C810E94A0274B01C6
:102AA0005C0128EC3FE84FE55AE3C701B6010E94FC
:102AB00057292D813E814F8158850E9457299B01BE
:102AC000AC01C501B4010E94A0276B017C0121EF7C
:102AD0003BE845E056EBC301B2010E9457292D8126
:102AE0003E814F8158850E9457299B01AC01C70147
:102AF000B6010E94A02728960FB6F894DEBF0FBE3D
:102B0000CDBFDF91CF911F910F91FF90EF90DF909C
:102B1000CF90BF90AF909F908F907F906F905F907D
:102B20004F900895DF92EF92FF920F931F93CF93F0
:102B3000DF93EC010E94431909851A852B853C859A
:102B4000601771078207930720F419861A861B867F
:102B50001C862D85211111C009851A852B853C8580
:102B6000DC01CB01801B910BA20BB30B803D974086
:102B7000A105B10510F481E07BC01D860E944319B8
:102B800069877A878B879C871C821B821A821982AD
:102B9000188261E08E810E94A11A6AEF70E080E0E5
:102BA00090E00E94721961E08E810E94681A60E0D4
:102BB0008E810E94A11A64E170E080E090E00E94A2
:102BC0007219F89461E08E810E94A11A88E290E067
:102BD0000E949A1960E08E810E94681AF12CD12C13
:102BE00081E0E12C082F10E08E810E94D71A801717
:102BF000910741F4E39481E090E00E949A198FEFED
:102C0000E812F2CF8E810E94D71A9FEFE916C9F021
:102C100023E02F1590F4F0FC10C09D2D969596950D
:102C20009695FE01E90FF11D9081990F90832885FB
:102C30002E1510F491609083D394F39495E5F912D6
:102C4000D0CF789427E22D1590F42C8130E0488184
:102C5000898190E0840F911D4A81840F911D4B81E1
:102C6000840F911D99272817390709F484CF80E034
:102C7000DF91CF911F910F91FF90EF90DF9008951A
:102C8000CF92DF92EF92FF920F931F93CF93DF9338
:102C9000EC01162F0E949215882309F450C08F81F1
:102CA0008B3031F008F44BC08551823078F047C04A
:102CB0006A8170E080E090E00E94A128112309F46D
:102CC00043C020E030E040E151E42AC00A81602F97
:102CD0006F7770E080E090E00E94A32820E030E071
:102CE00040E853E40E9457296B017C016B8170E03E
:102CF00080E090E00E94A3289B01AC01C701B601CF
:102D00000E94A02720E030E040E251E40E94082821
:102D100007FD90581123D9F020E030E040E151E464
:102D20000E94572920E030E040EA50E40E94082841
:102D300020E030E040E052E40E94A02708C020E0FC
:102D400030E040EC5FE705C09B01AC0102C09B0195
:102D5000AC01B901CA01DF91CF911F910F91FF9092
:102D6000EF90DF90CF900895CF92DF92EF92FF9295
:102D7000CF93DF93EC010E949215882379F18F8124
:102D80008B3029F158F18551823040F5688170E02F
:102D900080E090E00E94A12820E030E040E853E489
:102DA0000E9457296B017C01698170E080E090E00E
:102DB0000E94A3289B01AC01C701B6010E94A02775
:102DC00020E030E040E251E40E9408280BC0688116
:102DD00070E080E090E00E94A12804C060E070E014
:102DE00080EC9FE7DF91CF91FF90EF90DF90CF9045
:102DF0000895FF920F931F93CF93DF93FC010081FF
:102E0000C181D281F8948981F02EF0948F21898339
:102E100078941DE7115029F182E090E00E949A1900
:102E200088818023B9F3F8948A818F218A838981EC
:102E3000802B8983789480EE91E00E949A19F8940F
:102E400089818F21898386E490E00E949A19888184
:102E5000802311E009F010E078948AE991E00E9463
:102E60009A19812FDF91CF911F910F91FF900895B3
:102E70001F93CF93DF93FC011081C181D281912FE9
:102E8000909560FF12C0F8948A8189238A83898192
:102E9000812B89838AE090E00E949A198A81812B94
:102EA0008A83789487E390E011C0F8948A8189231B
:102EB0008A838981812B898381E490E00E949A1919
:102EC0008A81812B8A83789485E090E0DF91CF918D
:102ED0001F910C949A190F931F93CF93DF93FC01CA
:102EE0001081C181D281F8948981812B89838A8163
:102EF000012F009580238A8383E090E00E949A1935
:102F00008981802389838AE090E00E949A19C88190
:102F1000789485E390E00E949A191C2381E009F4DB
:102F200080E0DF91CF911F910F910895CF92DF92B2
:102F3000EF92FF920F931F93CF93DF931F92CDB722
:102F4000DEB76C01E62E08E010E0FF24F39461E0A8
:102F50009F2D9E2109F460E0C60149830E94381725
:102F6000FF0C0150110949810115110581F741112B
:102F700015C0F894D6011196ED91FC9112979181AC
:102F80008C918095892381831196ED91FC91129704
:102F900092818C9180958923828378940F90DF9120
:102FA000CF911F910F91FF90EF90DF90CF900895F8
:102FB000EF92FF920F931F93CF93DF938C01C8E0A2
:102FC000D0E0F12CEE24E394C8010E946B1781112C
:102FD000FE28EE0C2197C1F78F2DDF91CF911F9125
:102FE0000F91FF90EF900895CF92DF92FF920F9391
:102FF0001F93CF93DF931F92CDB7DEB78C01F62ED0
:1030000040E065E579830E949617CF2C7981D72E11
:1030100088E0F82EF60161916F0140E0C8010E943E
:103020009617FA94B9F70F90DF91CF911F910F91F6
:10303000FF90DF90CF90089540E06CEC0C949617D1
:10304000FC0113861586148627E030E0DF01A20F0D
:10305000B31F13961C922115310519F02150310927
:10306000F5CF08951F93CF93DF93EC01162F60E007
:10307000812F0E94681A612F70E0FB01EA5EFD4F0C
:10308000E491E883FB01EC5CFD4FE491F0E0EE0F8E
:10309000FF1FEE5AFD4F859194919A838983CE014B
:1030A000DF91CF911F910C942018AF92BF92CF92D5
:1030B000DF92EF92FF920F931F93CF93DF931F92B4
:1030C000CDB7DEB75C01E62ED72EFC0185858111D8
:1030D0005DC0C5010E94F916811105C0F501138676
:1030E000158614866EC040E060EFC5010E949617F9
:1030F00001E0F12CC12C11E0C5010E946B17682F73
:10310000C50169830E946B176981613019F48130B0
:10311000B9F433C02F2D30E068131BC0F50183854F
:10312000181730F4E20FF31F8381802349F402C0A3
:10313000181731F060E0193058F4F501148708C011
:10314000F501EF0DF11D8381802B838361E009C0C0
:10315000C12EF501E20FF31F8381902F90958923F3
:103160008383C5010E9438171F5F000F11F4F39489
:1031700001E0F7E0FF1508F0BFCF113438F0F5019A
:10318000C386C11018C081E0858715C0F50113867C
:103190001586148680E0EE2DFD2D20E030E0D5016F
:1031A000A20FB31F13969C9191932F5F3F4F28302E
:1031B0003105A9F706C0F5018381882339F381E041
:1031C000EACF0F90DF91CF911F910F91FF90EF9079
:1031D000DF90CF90BF90AF900895DC0180E0615008
:1031E00038F0ED91E827F0E0E451FF4F8491F7CFFC
:1031F00008951F920F920FB60F9211242F933F93B1
:103200008F939F93AF93BF9380910C0890910D087B
:10321000A0910E08B0910F0830910B0823E0230F06
:103220002D3720F40196A11DB11D05C026E8230FFE
:103230000296A11DB11D20930B0880930C0890935A
:103240000D08A0930E08B0930F088091100890917C
:103250001108A0911208B09113080196A11DB11D8B
:103260008093100890931108A0931208B09313084C
:10327000BF91AF919F918F913F912F910F900FBE72
:103280000F901F9018952FB7F89460910C087091CB
:103290000D0880910E0890910F082FBF08953FB739
:1032A000F8948091100890911108A0911208B091A3
:1032B000130826B5A89B05C02F3F19F00196A11D44
:1032C000B11D3FBF6627782F892F9A2F620F711D7E
:1032D000811D911D42E0660F771F881F991F4A9537
:1032E000D1F70895CF92DF92EF92FF92CF93DF93C1
:1032F0006B017C010E944F19EB01C114D104E10460
:10330000F10489F00E9481250E944F196C1B7D0BEE
:10331000683E734090F381E0C81AD108E108F108D3
:10332000C851DC4FEACFDF91CF91FF90EF90DF9053
:10333000CF900895019739F0880F991F880F991F32
:1033400002970197F1F70895789484B5826084BD5F
:1033500084B5816084BD85B5826085BD85B5816099
:1033600085BDEEE6F0E0808181608083E1E8F0E0F9
:103370001082808182608083808181608083E0E828
:10338000F0E0808181608083E1E9F0E0808182600B
:103390008083808181608083E0E9F0E080818160CA
:1033A0008083E1ECF0E080818460808380818260B2
:1033B0008083808181608083E3ECF0E080818160A4
:1033C0008083E0ECF0E0808182608083E2ECF0E0DA
:1033D000808181608083EAE7F0E08081846080837F
:1033E0008081826080838081816080838081806829
:1033F00080830895823108F08251E82FF0E0E45193
:10340000FE4FE49180917B00E3FB222720F930E01E
:1034100095E0220F331F9A95E1F78F7D822B8093E1
:103420007B00E7708091060120E4829FC001112497
:10343000E82BE0937C0080917A00806480937A008E
:1034400080917A0086FDFCCF8091780020917900F0
:1034500090E0922B089590E0FC013197EF30F10558
:10346000B0F5EA5AFF4F0C94F429809180008F77D1
:1034700003C0809180008F7D8093800008958091AB
:103480008000877FF9CF84B58F7702C084B58F7DA8
:1034900084BD0895809190008F7707C0809190003F
:1034A0008F7D03C080919000877F80939000089566
:1034B0008091C0008F7703C08091C0008F7D809382
:1034C000C00008958091C200877F8093C200089554
:1034D000CF93DF9390E0FC01EA5EFD4F2491FC0165
:1034E000EC5CFD4F8491882349F190E0880F991F8F
:1034F000FC01E259FD4FA591B491805A9D4FFC010A
:10350000C591D4919FB7611108C0F8948C91209512
:1035100082238C93888182230AC0623051F4F8940C
:103520008C91322F309583238C938881822B8883D2
:1035300004C0F8948C91822B8C939FBFDF91CF9124
:1035400008950F931F93CF93DF931F92CDB7DEB7EC
:10355000282F30E0F901E850FE4F8491F901EA5E2E
:10356000FD4F1491F901EC5CFD4F04910023C9F06B
:10357000882321F069830E942B1A6981E02FF0E0F3
:10358000EE0FFF1FE05AFD4FA591B4919FB7F8943D
:103590008C91611103C01095812301C0812B8C9304
:1035A0009FBF0F90DF91CF911F910F910895CF93FF
:1035B000DF93282F30E0F901E850FE4F8491F901A4
:1035C000EA5EFD4FD491F901EC5CFD4FC491CC2330
:1035D00091F081110E942B1AEC2FF0E0EE0FFF1FEB
:1035E000EE5AFD4FA591B4912C912D2381E090E0EE
:1035F00021F480E002C080E090E0DF91CF91089557
:10360000FC01818D228D90E0805C9F4F821B91098F
:103610008F7399270895FC01918D828D981731F051
:10362000828DE80FF11D858D90E008958FEF9FEF5B
:103630000895FC01918D828D981761F0828DDF01D4
:10364000A80FB11D5D968C91928D9F5F9F73928F95
:1036500090E008958FEF9FEF08958DE99CE1892B0D
:1036600049F080E090E0892B29F00E949D1C811197
:103670000C9400000895FC01848DDF01A80FB11D9A
:10368000A35ABF4F2C91848D90E001968F73992798
:10369000848FA689B7892C93A089B1898C91806485
:1036A0008C93938D848D981306C00288F389E02D46
:1036B00080818F7D80830895CF93DF93EC01888D87
:1036C0008823C9F0EA89FB89808185FD05C0A88926
:1036D000B9898C9186FD0FC00FB607FCF5CF8081AC
:1036E00085FFF2CFA889B9898C9185FFEDCFCE01F6
:1036F0000E943B1BE7CFDF91CF910895CF92DF92DD
:10370000FF920F931F93CF93DF931F92CDB7DEB736
:103710006C01DC015B969C915B975C968C915C974D
:10372000981307C05096ED91FC915197808185FDCB
:1037300032C0F601038D10E00F5F1F4F0F7311278A
:10374000F02EF601848DF81211C00FB607FCF9CFE8
:10375000D6015096ED91FC915197808185FFF1CF74
:10376000C60169830E943B1B6981EBCF838DE80F03
:10377000F11DE35AFF4F6083D6015B960C935B9774
:103780005296ED91FC91539780818062808381E015
:1037900058968C930DC0D6015696ED91FC91579793
:1037A00060835096ED91FC91519780818064808375
:1037B00081E090E00F90DF91CF911F910F91FF90EA
:1037C000DF90CF900895BF92CF92DF92EF92FF9259
:1037D000CF93DF93EC016A017B01B22EE889F9896E
:1037E00082E08083411581EE580761057105A1F0E3
:1037F00060E079E08DE390E0A70196010E94D22974
:10380000215031094109510956954795379527951A
:10381000211580E1380798F0E889F989108260E87D
:1038200074E88EE190E0A70196010E94D229215010
:103830003109410951095695479537952795EC85EA
:10384000FD853083EE85FF852083188EEC89FD8908
:10385000B082EA89FB89808180618083EA89FB8963
:10386000808188608083EA89FB8980818068808389
:10387000EA89FB8980818F7D8083DF91CF91FF90E2
:10388000EF90DF90CF90BF9008951F920F920FB6E8
:103890000F9211242F938F939F93EF93FF93E091B7
:1038A0002408F09125088081E0912A08F0912B08E6
:1038B00082FD12C0908180912D088F5F8F732091BF
:1038C0002E08821751F0E0912D08F0E0EC5EF74FE2
:1038D000958F80932D0801C08081FF91EF919F917A
:1038E0008F912F910F900FBE0F901F9018951F92E0
:1038F0000F920FB60F9211242F933F934F935F9324
:103900006F937F938F939F93AF93BF93EF93FF93A7
:1039100084E198E00E943B1BFF91EF91BF91AF9132
:103920009F918F917F916F915F914F913F912F91D7
:103930000F900FBE0F901F90189584E198E00E94A1
:10394000001B21E0892B09F420E0822F08951092BA
:1039500017081092160888EE93E0A0E0B0E080937C
:10396000180890931908A0931A08B0931B0884E4D0
:1039700095E090931508809314088DEC90E0909357
:103980002108809320088CEC90E09093230880938A
:10399000220888EC90E0909325088093240889EC15
:1039A00090E090932708809326088AEC90E090930B
:1039B0002908809328088EEC90E090932B08809340
:1039C0002A0810922D0810922E0810922F0810929B
:1039D00030080895AF92BF92CF92DF92EF92FF929C
:1039E0000F931F93CF93DF936C017B01C0E0D0E076
:1039F00000E010E0F601EC0FFD1F4AE050E06281AC
:103A0000C7010E94A51E5C016EE2C7010E94C01D95
:103A10008A0D9B1D080F191F2196C330D10551F740
:103A20004AE050E0F6016581C7010E94A51E800FA3
:103A3000911FDF91CF911F910F91FF90EF90DF9039
:103A4000CF90BF90AF9008950F93FC0184E595E06F
:103A50009183808362834383248305830F91089538
:103A600084E595E09093B2088093B1081092B30872
:103A70001092B4081092B5081092B60808950895EF
:103A80000E94A4190E943F1D87EB98E00E945323D7
:103A90000E940106CDE2DBE10E9490062097E1F34F
:103AA0000E942D1BF9CF0C940E2A0C940E2A0C9414
:103AB000A62A0C94A62ACF92DF92EF92FF920F9340
:103AC0001F93CF93DF936C017A01EB01E60EF71E93
:103AD00000E010E0CE15DF0561F06991D601ED91AF
:103AE000FC910190F081E02DC6010995080F191F86
:103AF000F1CFC801DF91CF911F910F91FF90EF900F
:103B0000DF90CF9008956115710581F0DB010D9074
:103B10000020E9F7AD0141505109461B570BDC016C
:103B2000ED91FC910280F381E02D099480E090E01A
:103B30000895EF92FF920F931F93CF93DF938C0121
:103B4000FB01C0E0D0E064917F018FEFE81AF80A32
:103B5000662361F0D801ED91FC910190F081E02D98
:103B6000C8010995C80FD91FF701EDCFCE01DF912C
:103B7000CF911F910F91FF90EF9008950C94831DAA
:103B8000DC01ED91FC910190F081E02D09940F93FF
:103B90001F93CF93DF93EC016DE00E94C01D8C0159
:103BA0006AE0CE010E94C01D800F911FDF91CF916E
:103BB0001F910F9108950F931F93CF93DF93EC0103
:103BC0000E94831D8C01CE010E94C71D800F911F92
:103BD000DF91CF911F910F9108958F929F92AF9295
:103BE000BF92CF92DF92EF92FF920F931F93CF93EA
:103BF000DF93CDB7DEB7A1970FB6F894DEBF0FBE47
:103C0000CDBF7C01C42EE52FCB01D22E19A221E01D
:103C10002D1510F02AE0D22E8E010F5D1F4F8D2C36
:103C2000912CA12CB12C6C2D7E2FA50194010E940A
:103C3000D2298C2DD29E80191124015011098A306D
:103C400014F4805D01C0895CF80180832115310581
:103C50004105510521F0C22EE32FCA01E4CFB8017E
:103C6000C7010E94831DA1960FB6F894DEBF0FBE58
:103C7000CDBFDF91CF911F910F91FF90EF90DF901B
:103C8000CF90BF90AF909F908F900895CF92DF928A
:103C9000EF92FF920F931F93CF93DF93EC016A0192
:103CA0007B012115310579F4E881F9810190F081DA
:103CB000E02D642FDF91CF911F910F91FF90EF9036
:103CC000DF90CF9009942A303105E9F477FF1AC0CC
:103CD0006DE20E94C01D8C0144275527BA014C1982
:103CE0005D096E097F092AE0CE010E94ED1D800F5B
:103CF000911FDF91CF911F910F91FF90EF90DF9077
:103D0000CF9008952AE0B701A601CE01DF91CF91AF
:103D10001F910F91FF90EF90DF90CF900C94ED1DCD
:103D20009A01AB01662757FD6095762F0C94461ECD
:103D30002115310541F4DC01ED91FC910190F081F8
:103D4000E02D642F09940C94ED1D9A01462F50E04C
:103D500060E070E00C94981E4F925F926F927F9299
:103D60008F929F92AF92BF92CF92DF92EF92FF928B
:103D70000F931F93CF93DF93EC016A017B01B22E67
:103D80009A01AB01C701B6010E94BA29882319F034
:103D900066E575E027C026013701E89477F82FEF34
:103DA0003FEF4FE75FE7C301B2010E94BA298111DB
:103DB0000DC02FEF3FEF4FE75FE7C301B2010E9455
:103DC000042818161CF46AE575E00CC02FEF3FEFCD
:103DD0004FE75FE4C701B6010E9453291816ACF4FF
:103DE0006EE575E0CE01DF91CF911F910F91FF90AD
:103DF000EF90DF90CF90BF90AF909F908F907F908B
:103E00006F905F904F900C94831D2FEF3FEF4FE723
:103E10005FECC701B6010E94042887FDE1CF20E0D6
:103E200030E0A901C701B6010E94042887FF0AC03B
:103E30006DE2CE010E94C01D8C01F7FAF094F7F8F4
:103E4000F09402C000E010E0A12C60E070E080E09F
:103E50009FE3AB1441F020E030E040E251E40E94E7
:103E60000828A394F6CF9B01AC01C701B6010E94BC
:103E7000A0276B017C010E9475282B013C010E9448
:103E8000A1289B01AC01C701B6010E949F276B01CD
:103E90007C012AE0B301A201CE010E94ED1D080FB2
:103EA000191FBB2039F062E675E0CE010E94831D28
:103EB000080F191F7B2C772041F120E030E040E211
:103EC00051E4C701B6010E9457296B017C010E9491
:103ED00070284B01AA2497FCA094BA2C2AE030E069
:103EE000B501A401CE010E94461E080F191FC5018D
:103EF000B4010E94A3289B01AC01C701B6010E9436
:103F00009F276B017C017A94D6CFC801DF91CF91B6
:103F10001F910F91FF90EF90DF90CF90BF90AF90E7
:103F20009F908F907F906F905F904F9008950C942A
:103F3000AC1E0F931F93CF93DF93EC010E944319A4
:103F4000688779878A879B87E881F9810680F7816E
:103F5000E02DCE01099597FF15C00E9443190885F1
:103F600019852A853B85601B710B820B930B0C8195
:103F70001D812E813F81601771078207930720F30F
:103F80008FEF9FEFDF91CF911F910F9108950F93C6
:103F90001F93CF93DF93EC018B0164ED73E00E94DC
:103FA000DF23C8010E94991F97FD05C0682FCE012D
:103FB0000E94A324F6CFCE01DF91CF911F910F91E4
:103FC00008954091BB085091BC082091B9083091E8
:103FD000BA0842175307B4F49091E8009570E1F3E2
:103FE0009091E80092FD19C08093F1008091BB0888
:103FF0009091BC0801968F739927892B19F48EEF45
:104000008093E8008091BB089091BC080196909342
:10401000BC088093BB0881E0089580E00895FF927A
:104020000F931F93CF93DF938C0188E10E94E11FD0
:1040300083E00E94E11FC0E0D0E0F801EC0FFD1F1B
:1040400084910E94E11FF82E80E00E94E11F8F21E1
:1040500021F02196CB30D10581F7DF91CF911F91CF
:104060000F91FF900895615030F02091F100FC0114
:1040700020830196F8CF289884E68093BE0808959F
:104080002FB7FC012083F89467706093E9000895CE
:10409000CF93DF931F92CDB7DEB7682FCE01019685
:1040A0000E9440208091F20099819FBF0F90DF9184
:1040B000CF910895FF920F931F93CF93DF9300D07A
:1040C000CDB7DEB7F62E8A019091BD08992311F085
:1040D00057FF03C08FEF9FEF2BC0682FCE010196D3
:1040E0007A830E9440208091F20090E0A8017A81BA
:1040F000801791070CF4AC01EF2DF72FF40E84E636
:10410000FE1639F028988093BE089091F1009193A3
:10411000F7CF4115510521F08091F200882321F05D
:1041200089818FBFCA0104C08BE68093E800F8CF75
:104130000F900F90DF91CF911F910F91FF900895F5
:10414000CF93DF931F92CDB7DEB741E050E0BE01C1
:104150006F5F7F4F0E945A20019719F4898190E088
:1041600002C08FEF9FEF0F90DF91CF910895CF9313
:10417000DF931F92CDB7DEB7682FCE0101960E9464
:1041800040209091E800892F807295FF04C09091A3
:10419000F20080E4891B99819FBF0F90DF91CF913E
:1041A00008956F927F928F929F92AF92BF92CF921B
:1041B000DF92EF92FF920F931F93CF93DF931F92A3
:1041C000CDB7DEB7782E7B01C42EB52E8091BD0809
:1041D000882369F0042F152F8AEFD82E872D80723F
:1041E000982E9AE3A92E872D8074882E11C08FEF08
:1041F0009FEF57C0872D0E94B720682E81110CC0F9
:10420000DA94A9F361E070E080E090E00E94721916
:104210000115110579F73BC0282F30E0021713076D
:104220000CF4602E672DCE0101960E9440208091F3
:10423000E80085FF29C0262D30E0021B130B9920D2
:1042400039F06A948FEF6816B1F01092F100F9CF4F
:10425000F701862D77FE07C0815058F09491909316
:10426000F1003196F9CF815020F091919093F100B7
:10427000FACFE20EF31E8091E80085FF0FC0011512
:10428000110511F481100AC089818FBFC1CF5D98DB
:1042900084E68093BF088C2D9B2D03C0A092E8007C
:1042A000F3CF0F90DF91CF911F910F91FF90EF907F
:1042B000DF90CF90BF90AF909F908F907F906F9046
:1042C00008951092E9001092BC081092BB089093D8
:1042D000BA088093B9080895CF92DF92FF920F93A6
:1042E0001F93CF93DF9300D0CDB7DEB7F82E8A01AE
:1042F0006B0101151105B1F0F601F7FE02C08491C2
:1043000001C0808149835A830E94E11F0150110935
:10431000FFEFCF1ADF0A49815A818111EACF8FEF6F
:104320009FEF01C0CA010F900F90DF91CF911F91B5
:104330000F91FF90DF90CF9008951F93CF93DF935D
:104340001F92CDB7DEB7162F2091E80022FFFCCFD9
:10435000612F79830E9433208BEF8093E800812FB7
:104360007981972F0F90DF91CF911F910895CF936F
:10437000DF931F92CDB7DEB71982CE0101960E945E
:10438000DF25CE0101960E947A26898190E00F9068
:10439000DF91CF9108951F920F920FB60F921124C3
:1043A000EF92FF920F931F932F933F934F935F933F
:1043B0006F937F938F939F93AF93BF93EF93FF93ED
:1043C000CF93DF93CDB7DEB76297DEBFCDBF10923C
:1043D000E9008091E80083FFE9C068E0CE010A9619
:1043E0000E94332082EF8093E8009A8597FF05C0F2
:1043F0008091E80080FFFCCF03C08EEF8093E8003F
:10440000892F807609F0B7C08B85811105C0109285
:10441000F1001092F100C3C0282F2D7F213009F444
:10442000BEC0853049F48091E80080FFFCCF8C85C8
:1044300080688093E300B3C0863009F074C02D8596
:10444000E888F988223071F580E090E02A8B0E949C
:1044500061210E94B72199E08E010F5F1F4FF80183
:10446000392F11923A95E9F799832A892A8391E0A5
:104470009E8390E898879AEF99872091BB083091A6
:10448000BC08275F3F4F3C832B838D83C7010E946D
:10449000612149E050E0B80180E00E946C210E9457
:1044A000B7217DC0C7012A8B0E9461212A8922324F
:1044B00041F482E290E00E948526892B09F06FC0CA
:1044C00072C0213069F488899989089711F4209382
:1044D000B8088091B808811116C063E972E018C06D
:1044E000233009F060C08C85882381F0823019F474
:1044F00081EB92E005C0813009F055C085EA92E079
:104500000E940F204AC061E872E002C06DEB72E0C9
:104510006115710509F447C0FB01449150E080E842
:104520000E946C213CC0873009F43DC0883021F4E2
:1045300081E08093F10033C0893089F5937099F55B
:10454000EDE7F2E081E021E096E38093E90020933B
:10455000EB0034913093EC009093ED008F5F319637
:10456000853099F78EE78093EA001092EA008C85F7
:104570008093BD0814C0888999890E9461218E8525
:10458000811105C0CE010A960E94EA2506C082303C
:1045900051F4CE010A960E94AD26882321F08EEFB9
:1045A0008093E80003C081E28093EB0062960FB62F
:1045B000F894DEBF0FBECDBFDF91CF91FF91EF9199
:1045C000BF91AF919F918F917F916F915F914F912B
:1045D0003F912F911F910F91FF90EF900F900FBE81
:1045E0000F901F9018958093E9008091F200882326
:1045F00019F08AE38093E80008951F920F920FB696
:104600000F9211242F933F934F935F936F937F9358
:104610008F939F93AF93BF93EF93FF938091E100AC
:104620001092E10083FF0FC01092E90091E0909397
:10463000EB001092EC0092E39093ED001092BD0815
:1046400098E09093F00082FF1DC083E00E94F32267
:104650008091BF08882339F08091BF0881508093F2
:10466000BF08882369F08091BE08882359F08091A3
:10467000BE0881508093BE08811104C0289A02C0F0
:104680005D9AF1CFFF91EF91BF91AF919F918F9183
:104690007F916F915F914F913F912F910F900FBE3E
:1046A0000F901F9018951092BD0881E08093D7005D
:1046B00080EA8093D80082E189BD09B400FEFDCF75
:1046C00061E070E080E090E00E94721980E98093E0
:1046D000D8008CE08093E2001092E000559A209A76
:1046E0000895FC01808191810C94A62ACF93DF93D9
:1046F000EC0188819981009711F00E94A62A198205
:1047000018821D821C821B821A82DF91CF9108952C
:104710000F931F93CF93DF93EC018B016F5F7F4F5C
:10472000888199810E94352B009731F09983888385
:104730001B830A8381E001C080E0DF91CF911F914C
:104740000F910895CF93DF93EC0188819981892B94
:1047500029F08A819B818617970760F4CE010E9419
:104760008823882341F08C819D81892B19F4E8816D
:10477000F981108281E0DF91CF910895EF92FF924D
:104780000F931F93CF93DF93EC017B018A01BA0152
:104790000E94A223811104C0CE010E94762307C08B
:1047A0001D830C83B701888199810E94342CCE012E
:1047B000DF91CF911F910F91FF90EF900895FC0131
:1047C0001182108213821282158214826115710582
:1047D00059F0FB0101900020E9F7AF014150510968
:1047E000461B570B0C94BE230895EF92FF920F9334
:1047F0001F93CF93DF93EC017B018A01BA010E94E2
:10480000A223811104C0CE010E94762307C01D831C
:104810000C83B701888199810E94072CCE01DF911A
:10482000CF911F910F91FF90EF900895CF93DF9359
:10483000EC01FB018617970761F0608171816115BA
:10484000710529F0448155810E94BE2302C00E9457
:104850007623CE01DF91CF910895FC011182108261
:1048600013821282158214820C9416240F931F93C4
:10487000CF93DF9300D0CDB7DEB78C016115710502
:1048800061F0CB0169837A830E940E2CAC016981AF
:104890007A81C8010E94F52302C00E947623C801D4
:1048A0000F900F90DF91CF911F910F910895FC0110
:1048B0001182108213821282158214820C94362483
:1048C000EF92FF920F931F93CF93DF93EC017B0145
:1048D0000C811D816115710511F480E016C0411530
:1048E000510591F0040F151FB8010E94A2238823DF
:1048F000A1F3288139818C819D81B701820F931F9B
:104900000E94342C1D830C8381E0DF91CF911F9195
:104910000F91FF90EF900895FB01448155816081D4
:1049200071810C9460246115710559F0FB010190AF
:104930000020E9F7AF0141505109461B570B0C9479
:10494000602480E00895CF93DF9300D0CDB7DEB729
:1049500069831A8241E050E0BE016F5F7F4F0E9481
:1049600060240F900F90DF91CF910895EF92FF9206
:104970000F931F93CF93DF9300D000D0CDB7DEB756
:104980007C01862F4AE050E08E010F5F1F4FB80177
:1049900090E00E94552CF80101900020E9F7AF014A
:1049A00041505109401B510BB801C7010E946024BE
:1049B0000F900F900F900F90DF91CF911F910F915B
:1049C000FF90EF900895FC0124813581232B31F471
:1049D00021E061157105A1F0FB0108C0FC01808197
:1049E00091816115710531F421E0FC0180818823FA
:1049F00039F005C00E942B2C21E0892B09F020E022
:104A0000822F0895CF93DF93FC018481958148170D
:104A1000590778F4C081D181FB0160817181CE0199
:104A2000840F951F0E943B2C009719F08C1B9D0B47
:104A300002C08FEF9FEFDF91CF91089540E050E0EB
:104A40000C940225AF92BF92CF92DF92EF92FF9229
:104A50000F931F93CF93DF937C01DC01CD90DC900B
:104A60001197C114D10409F441C01496CD91DC9181
:104A700015972097D9F156018501BFEFAB1ABB0AF4
:104A8000F8018081992787FD90950E94FF2B892B43
:104A900099F72197CC0DDD1D8881992787FD909589
:104AA0000E94FF2B892B91F4AE014F5F5F4F401B9B
:104AB000510BD70115965C934E931497C016D106EF
:104AC00050F4B801C6010E94172C05C0C017D107C9
:104AD00058F32197E1CFD701ED91FC9111971496EE
:104AE0008D919C911597E80FF91F1082DF91CF915E
:104AF0001F910F91FF90EF90DF90CF90BF90AF90FC
:104B000008950895CF93DF931F92CDB7DEB76983E1
:104B1000DC01ED91FC910280F381E02D41E050E059
:104B2000BE016F5F7F4F09950F90DF91CF91089580
:104B3000CF93DF93EC018C859D8597FF05C082E0C4
:104B40000E94A0209D878C878C859D85DF91CF91C9
:104B5000089583E00C94F322FC018485958597FDEC
:104B600006C082E00E94482090E00196089582E00D
:104B70000E94482090E00895FC018485958597FD6A
:104B800005C02FEF3FEF35872487089582E00C940E
:104B9000A020CF93DF93EC0180910E01882331F0A8
:104BA00083E00E94D1201816190634F081E090E0CD
:104BB0009B838A8380E090E0DF91CF910895FC0190
:104BC00020812E5F208342E450E061EC72E080E8B7
:104BD0000C946C21FC0181819081913A59F48132CD
:104BE00009F03CC047E050E067E071E080E00E94DF
:104BF0006C2143C0913291F5803239F467E070E066
:104C000087E091E00E949D2106C0823209F035C004
:104C1000828180930E018091070190910801A091FB
:104C20000901B0910A01803B9440A105B105C1F48E
:104C300080910E0180FD14C087E797E790930108EB
:104C4000809300082BE088E190E00FB6F894A895D7
:104C5000809360000FBE209360000FC080E0089535
:104C600088E10FB6F89480936000109260000FBE48
:104C7000A895109201081092000881E00895109202
:104C8000C3081092C20888EE93E0A0E0B0E08093E1
:104C9000C4089093C508A093C608B093C70888E6D7
:104CA00095E09093C1088093C0088FEF9FEF909399
:104CB000CD088093CC080895FF920F931F93CF9354
:104CC000DF93EC01F62EE881F9810480F581E02D77
:104CD00009958C01E881F9810680F781E02D6F2D1F
:104CE000CE010995C8019927DF91CF911F910F91AE
:104CF000FF900895FC0120812F5F208349E150E05F
:104D000063E873E080E80C946C2145E650E06CE9C0
:104D100073E080E80C946C21EF92FF920F931F9345
:104D2000CF93DF931F92CDB7DEB789838B017A01D2
:104D300041E050E0BE016F5F7F4F84E00E94D120D0
:104D4000A701B80184E40E94D1200F90DF91CF9198
:104D50001F910F91FF90EF900895FC019181808148
:104D6000813A31F481E0913091F0933089F411C0AF
:104D7000813271F49B3021F482818093100105C04F
:104D80009A3031F4828180930F0181E00895089573
:104D900080E0089548E050E082E00C948C26CF93A8
:104DA000DF93DC01683818F0E8E7E60F25C0E62F4E
:104DB000F0E067FF11C0E058F10981E090E001C028
:104DC000880FEA95EAF714969C911497982B1496FD
:104DD0009C931497E0E010C0ED5FFC4FE491EE234C
:104DE00009F440C0E7FF08C014968C9114978260C4
:104DF00014968C931497EF7716968C9116978E17BE
:104E000041F117968C9117978E1719F118968C917E
:104E100018978E17F1F019968C9119978E17C9F083
:104E20001A968C911A978E17A1F01B968C911B974E
:104E30008E1779F080E090E0ED01C80FD91F2E8128
:104E4000211102C0EE8305C0019686309105A1F7BD
:104E500009C0BD016C5F7F4FCD010E94CA2681E071
:104E600090E008C081E090E013969C938E93129797
:104E700080E090E0DF91CF910895683818F0E8E77E
:104E8000E60F25C0E62FF0E067FF12C0E058F109F9
:104E900021E030E001C0220FEA95EAF72095DC011D
:104EA00014963C911497322314963C93E0E00FC083
:104EB000ED5FFC4FE491EE2329F1E7FF08C0DC0130
:104EC00014962C9114972D7F14962C93EF7720E055
:104ED00030E0EE2351F0DC01A20FB31F16964C9187
:104EE00016974E1302C016961C922F5F3F4F263026
:104EF000310579F7BC016C5F7F4F0E94CA2681E0C3
:104F000090E0089580E090E00895FC0116821782F9
:104F100010861186128613861482BC016C5F7F4F47
:104F20000C94CA2610921C091092130910921209AF
:104F300088E795E0909311098093100908955058DF
:104F4000BB27AA270ED075C166D130F06BD120F0F7
:104F500031F49F3F11F41EF45BC10EF4E095E7FBC2
:104F600051C1E92F77D180F3BA176207730784071D
:104F7000950718F071F49EF58FC10EF4E0950B2E95
:104F8000BA2FA02D0B01B90190010C01CA01A0019B
:104F90001124FF27591B99F0593F50F4503E68F1F6
:104FA0001A16F040A22F232F342F4427585FF3CF37
:104FB000469537952795A795F0405395C9F77EF408
:104FC0001F16BA0B620B730B840BBAF09150A1F051
:104FD000FF0FBB1F661F771F881FC2F70EC0BA0FD7
:104FE000621F731F841F48F4879577956795B7955F
:104FF000F7959E3F08F0B3CF9395880F08F0992757
:10500000EE0F979587950895D9D008F481E008951B
:105010000CD00FC107D140F0FED030F021F45F3F3B
:1050200019F0F0C0511139C1F3C014D198F399238C
:10503000C9F35523B1F3951B550BBB27AA2762175C
:105040007307840738F09F5F5F4F220F331F441FA1
:10505000AA1FA9F333D00E2E3AF0E0E830D09150D9
:105060005040E695001CCAF729D0FE2F27D0660FC6
:10507000771F881FBB1F261737074807AB07B0E805
:1050800009F0BB0B802DBF01FF2793585F4F2AF01B
:105090009E3F510568F0B6C000C15F3FECF3983EFB
:1050A000DCF3869577956795B795F7959F5FC9F778
:1050B000880F911D9695879597F90895E1E0660F01
:1050C000771F881FBB1F621773078407BA0720F07A
:1050D000621B730B840BBA0BEE1F88F7E0950895E3
:1050E00004D06894B111D9C00895BCD088F09F57FE
:1050F00090F0B92F9927B751A0F0D1F0660F771F24
:10510000881F991F1AF0BA95C9F712C0B13081F003
:10511000C3D0B1E00895C0C0672F782F8827B85F4B
:1051200039F0B93FCCF3869577956795B395D9F764
:105130003EF490958095709561957F4F8F4F9F4F6E
:105140000895E89409C097FB3EF49095809570957A
:1051500061957F4F8F4F9F4F9923A9F0F92F96E9C3
:10516000BB279395F695879577956795B795F11138
:10517000F8CFFAF4BB0F11F460FF1BC06F5F7F4FD5
:105180008F4F9F4F16C0882311F096E911C07723E7
:1051900021F09EE8872F762F05C0662371F096E8F0
:1051A000862F70E060E02AF09A95660F771F881FBF
:1051B000DAF7880F9695879597F90895990F000863
:1051C000550FAA0BE0E8FEEF16161706E807F907D9
:1051D000C0F012161306E407F50798F0621B730B74
:1051E000840B950B39F40A2661F0232B242B252BF5
:1051F00021F408950A2609F4A140A6958FEF811D98
:10520000811D089597F99F6780E870E060E0089538
:105210009FEF80EC089500240A94161617061806CE
:105220000906089500240A941216130614060506AA
:105230000895092E0394000C11F4882352F0BB0F3B
:1052400040F4BF2B11F460FF04C06F5F7F4F8F4F9E
:105250009F4F089557FD9058440F551F59F05F3FD9
:1052600071F04795880F97FB991F61F09F3F79F088
:1052700087950895121613061406551FF2CF46950A
:10528000F1DF08C0161617061806991FF1CF86958C
:105290007105610508940895E894BB276627772770
:1052A000CB0197F908958ADF08F48FEF08950BD0AA
:1052B000C0CFB1DF28F0B6DF18F0952309F0A2CFF8
:1052C000A7CF1124EACFC6DFA0F3959FD1F3950FA6
:1052D00050E0551F629FF001729FBB27F00DB11D7A
:1052E000639FAA27F00DB11DAA1F649F6627B00D0A
:1052F000A11D661F829F2227B00DA11D621F739FF3
:10530000B00DA11D621F839FA00D611D221F749F00
:105310003327A00D611D231F849F600D211D822F47
:10532000762F6A2F11249F5750408AF0E1F088238E
:105330004AF0EE0FFF1FBB1F661F771F881F91509B
:105340005040A9F79E3F510570F05CCFA6CF5F3F5C
:10535000ECF3983EDCF3869577956795B795F795CE
:10536000E7959F5FC1F7FE2B880F911D9695879556
:1053700097F9089523DF880B990B089597FB072E63
:1053800016F4009407D077FD09D00E94FA2907FC93
:1053900005D03EF4909581959F4F08957095619545
:1053A0007F4F0895A1E21A2EAA1BBB1BFD010DC061
:1053B000AA1FBB1FEE1FFF1FA217B307E407F507C5
:1053C00020F0A21BB30BE40BF50B661F771F881FA1
:1053D000991F1A9469F760957095809590959B0137
:1053E000AC01BD01CF010895EE0FFF1F0590F491B0
:1053F000E02D0994AA1BBB1B51E107C0AA1FBB1FCC
:10540000A617B70710F0A61BB70B881F991F5A9550
:10541000A9F780959095BC01CD010895CF93DF93B6
:105420008230910510F482E090E0E0911F09F09144
:10543000200920E030E0A0E0B0E0309739F1408171
:10544000518148175907B8F04817590771F48281FC
:105450009381109729F013969C938E9312972CC0EA
:105460009093200980931F0927C02115310531F041
:105470004217530718F0A901DB0101C0EF019A019F
:10548000BD01DF010280F381E02DD7CF2115310569
:10549000F9F0281B390B2430310580F48A819B8177
:1054A0006115710521F0FB019383828304C0909301
:1054B000200980931F09FE01329644C0FE01E20FCD
:1054C000F31F8193919322503109398328833AC085
:1054D00020911D0930911E09232B41F420910201D6
:1054E0003091030130931E0920931D092091000182
:1054F000309101012115310541F42DB73EB740919E
:10550000040150910501241B350BE0911D09F09118
:105510001E09E217F307A0F42E1B3F0B28173907CB
:1055200078F0AC014E5F5F4F2417350748F04E0FFF
:105530005F1F50931E0940931D098193919302C0F0
:10554000E0E0F0E0CF01DF91CF910895CF93DF93BA
:10555000009709F487C0FC01329713821282C09130
:105560001F09D0912009209781F420813181280FD3
:10557000391F80911D0990911E098217930779F5B3
:10558000F0931E09E0931D096DC0DE0120E030E0BC
:10559000AE17BF0750F412964D915C9113979D0181
:1055A0004115510509F1DA01F3CFB383A28340819C
:1055B0005181840F951F8A179B0771F48D919C91DF
:1055C0001197840F951F02969183808312968D9177
:1055D0009C911397938382832115310529F4F093CD
:1055E0002009E0931F093EC0D9011396FC93EE9366
:1055F00012974D915D91A40FB51FEA17FB0779F43F
:1056000080819181840F951F0296D90111969C93F8
:105610008E938281938113969C938E931297E0E0F0
:10562000F0E08A819B81009719F0FE01EC01F9CF2F
:10563000CE01029628813981820F931F20911D0986
:1056400030911E092817390769F4309729F4109210
:10565000200910921F0902C013821282D0931E09E2
:10566000C0931D09DF91CF910895A0E0B0E0EBE376
:10567000FBE20C949C2CEC01CB01209719F40E94C6
:105680000E2AB8C0FE01E60FF71F9E012250310915
:10569000E217F30708F4ACC0D9010D911C911197E2
:1056A00006171707B8F00530110508F49FC0A801C8
:1056B000445051094617570708F498C00250110981
:1056C000061B170B019311936D937C93CF010E94DE
:1056D000A62A8CC05B01A01AB10A4E01800E911E51
:1056E000A0911F09B0912009612C712C60E070E03D
:1056F000109709F449C0A815B905C9F5ED90FC90BB
:105700001197670142E0C40ED11CCA14DB0478F182
:1057100047018A189B08640142E0C40ED11C12960E
:10572000BC9012971396AC91B5E0CB16D10440F023
:10573000B282A38391828082D9018D939C9309C008
:105740000E5F1F4F0E0D1F1DF90111830083EB2DFE
:10575000FA2F6115710531F0DB011396FC93EE937E
:10576000129744C0F0932009E0931F093FC06D9148
:105770007C9111976616770608F43B01BD011296DD
:105780000D90BC91A02DB4CF60911D0970911E09A0
:1057900068157905E9F468167906D0F4409100019E
:1057A000509101014115510541F44DB75EB760912B
:1057B000040170910501461B570BE417F507C0F46F
:1057C000F0931E09E0931D09F901918380830EC0B7
:1057D0000E940E2A7C01009759F0A801BE010E9488
:1057E000172CCE010E94A62AC70104C0CE0102C018
:1057F00080E090E0CDB7DEB7EEE00C94B82C9111CC
:1058000084C0803219F089508550D0F70895FB018B
:10581000DC0105900D920020E1F70895FC01059050
:105820000020E9F7809590958E0F9F1F0895FB014A
:10583000DC0102C001900D9241505040D8F708950C
:10584000FB01DC010D900020E9F7119701900D920A
:105850000020E1F70895FB01DC018D910190801992
:105860000110D9F3990B0895FB01DC0101900D9211
:105870000020E1F70895FB0151915523A9F0BF01E4
:10588000DC014D9145174111E1F759F4CD0101902B
:10589000002049F04D9140154111C9F3FB01411120
:1058A000EFCF81E090E0019708954532510520F453
:1058B000423010F00C94602CFB011082CB01089553
:1058C000BB274A3031F4992322F4BDE290958195AB
:1058D0009F4F0C946C2CBB27FB015527AA27880FE0
:1058E000991FAA1FA41710F0A41B83955051B9F754
:1058F000A05DAA3308F0A95DA193009779F7B111D3
:10590000B1931192CB010C94882C99278827089584
:10591000DC01FC01672F71917723E1F7329704C016
:105920007C916D9370836291AE17BF07C8F30895A1
:105930002F923F924F925F926F927F928F929F929F
:10594000AF92BF92CF92DF92EF92FF920F931F938D
:10595000CF93DF93CDB7DEB7CA1BDB0B0FB6F8943E
:10596000DEBF0FBECDBF09942A88398848885F847E
:105970006E847D848C849B84AA84B984C884DF80EF
:10598000EE80FD800C811B81AA81B981CE0FD11DD3
:105990000FB6F894DEBF0FBECDBFED01089514E041
:1059A000C8E1D4E004C0FE010E94F6292296CC3161
:0859B000D107C9F7F894FFCFFD
:1059B8000000210980000100E10000000000000152
:1059C8000158585858585858313030445331384293
:1059D8003230206E6F7420666F756E643A20002F27
:1059E8006D6E742F736461312F61726475696E6FA7
:1059F8002F7777772F696D616765732F00667377E7
:105A0800656263616D002D72203634307834383029
:105A180000707974686F6E002F6D6E742F736461F7
:105A2800312F61726475696E6F2F73656E642D73A3
:105A38006D732E707900687474703A2F2F6D6974C5
:105A48006963762E6475636B646E732E6F72673A42
:105A580038322F73642F696D616765732F74656DB4
:105A6800702E6A7067005374617475733A2032300F
:105A78003000436F6E74656E742D747970653A20CA
:105A88006170706C69636174696F6E2F6A736F6E91
:105A9800007B2274656D70223A224C6973742074FD
:105AA800656D706572617475726520616E642068D9
:105AB800756D6964697479222C002274656D707340
:105AC800223A224C6973742074656D706572617432
