:100000000C940E020C9436020C9436020C943602B8
:100010000C9436020C9436020C9436020C94360280
:100020000C9436020C9436020C948E210C945C20B5
:100030000C9436020C9436020C9436020C94360260
:100040000C9436020C9436020C9436020C94360250
:100050000C9436020C9436020C9436020C948A17D7
:100060000C9436020C94D61A0C94081B0C9436028D
:100070000C9436020C9436020C9436020C94360220
:100080000C9436020C9436020C9436020C94360210
:100090000C9436020C9436020C9436020C94360200
:1000A0000C9436020C9436020C943602D418D718ED
:1000B000C618CA18D018F818F818F818DB18DF187E
:1000C000E318E918ED18F818F31872756E2D6272BE
:1000D000696467650A000A000A00302E302E302E4F
:1000E00030003132372E302E302E3100005EBCE22F
:1000F000613FDD83C29C7E20A3FD1F419DC3217F04
:10010000FCA2401E5F01E3BD3E6082DC237D9FC1F7
:10011000421CFEA0E1BF5D0380DE3C62BEE0025CEB
:10012000DF81633D7C22C09E1D43A1FF4618FAA4D7
:1001300027799BC584DA3866E5BB5907DB856739C3
:10014000BAE406581947A5FB7826C49A653BD987B7
:10015000045AB8E6A7F91B45C6987A24F8A6441AAB
:1001600099C7257B3A6486D85B05E7B98CD2306E97
:10017000EDB3510F4E10F2AC2F7193CD114FADF383
:10018000702ECC92D38D6F31B2EC0E50AFF1134D77
:10019000CE90722C6D33D18F0C52B0EE326C8ED06B
:1001A000530DEFB1F0AE4C1291CF2D73CA94762857
:1001B000ABF517490856B4EA6937D58B5709EBB543
:1001C00036688AD495CB2977F4AA4816E9B7550B37
:1001D00088D6346A2B7597C94A14F6A8742AC8962B
:1001E000154BA9F7B6E80A54D7896B3507060504FD
:1001F0000100080A0B0C0D090000000200090F00A5
:1002000000030401000C00000000000000000000DA
:10021000000000000000040802011040804010208F
:1002200040804080080204018040201002011080BC
:1002300010204040040404040403040502020202E6
:10024000040302020202060606060606040402026F
:100250000204000000002300260029002C002F00CB
:1002600000000000250028002B002E0031000000B7
:100270000000240027002A002D00300000C18081EA
:10028000C11201000202000040412341800001012F
:1002900002000112010002000000404123418000E1
:1002A000010102000141726475696E6F204C4C437C
:1002B0000041726475696E6F2059756E0004030900
:1002C00004080B00020202010009040000010202FE
:1002D0000000052400100105240101010424020688
:1002E00005240600010705810310004009040100F0
:1002F000020A000000070502024000000705830211
:1003000040000000000000000000002A2B28000030
:1003100000000000000000000000000000000000DD
:100320000000002C9EB4A0A1A2A434A6A7A5AE36BE
:100330002D3738271E1F20212223242526B333B62C
:100340002EB7B89F8485868788898A8B8C8D8E8FFF
:10035000909192939495969798999A9B9C9D2F3102
:1003600030A3AD350405060708090A0B0C0D0E0F66
:10037000101112131415161718191A1B1C1DAFB1E2
:10038000B0B50009040200010300000009210101C9
:1003900000012265000705840340000105010902F0
:1003A000A1010901A1008501050919012903150011
:1003B00025019503750181029501750581030501EC
:1003C0000930093109381581257F750895038106A3
:1003D000C0C005010906A1018502050719E029E74A
:1003E00015002501750195088102950175088103A5
:1003F0009506750815002565050719002965810012
:10040000C00098041909B80AC00AC70A690F6E101B
:10041000381BC11BB0240326E504BC0A11241FBEEF
:10042000CFEFDAE0DEBFCDBF14E0A0E0B1E0E6E65A
:10043000F6E502C005900D92A434B107D9F727E084
:10044000A4E4B4E001C01D92AB31B207E1F714E0BF
:10045000C8E1D4E004C02297FE010E946728C230A0
:10046000D107C9F70E94D11B0C94262B0C940000D5
:100470001F93CF93DF938FE395E00E94891090E064
:1004800090933E0580933D051092D2041092D104C2
:1004900011E0C091D104D091D20480913D0590919A
:1004A0003E05C817D907DCF56BE171E08FE994E0F0
:1004B0000E94A52ABE0183E0660F771F8A95E1F7A7
:1004C00063517B4F4C2F8FE395E00E949B1020914E
:1004D000D1043091D204F901ED51FB4F811114C0C8
:1004E00010824AE069E974E0C90101960E94B72AC6
:1004F000BC018FE994E00E94912A61EE72E08FE9DD
:1005000094E00E94912A01C010838091D1049091BF
:10051000D20401969093D2048093D104BACFDF9194
:10052000CF911F9108956FE271E080E795E00E94FE
:100530006C1C6BE371E080E795E00E946C1C80E727
:1005400095E00C94581C0E9493026AE571E080E7E4
:1005500095E00E944F1C63E871E080E795E00E94FF
:100560004F1C60EA71E080E795E00E944F1C69EB48
:1005700071E080E795E00E944F1C61EE71E080E73A
:1005800095E00E944F1C61E172E080E795E00E94D7
:100590004F1C6AE272E080E795E00E944F1C63E125
:1005A00073E080E795E00C944F1C0E94930262E494
:1005B00072E080E795E00E944F1C82E10E948B1858
:1005C0004AE050E0BC0180E795E00E94211D62E115
:1005D00073E080E795E00C944F1C8F929F92AF924E
:1005E000BF92CF92DF92EF92FF920F931F930E94E0
:1005F000930282E695E00E9445156093D3047093C0
:10060000D4048093D5049093D60460E082E695E00C
:100610000E94D1146093D7047093D8048093D904B6
:100620009093DA0461E082E695E00E94D1146B01B8
:100630007C016093DB047093DC048093DD04909371
:10064000DE048090D3049090D404A090D504B090A0
:10065000D604A5019401C501B4010E942B28811183
:1006600016C06091D7047091D8048091D9049091FC
:10067000DA049B01AC010E942B28811108C0A7015C
:100680009601C701B6010E942B28882319F06DE45A
:1006900072E062C095018401B701A60182E695E08F
:1006A0000E9436136093DF047093E0048093E104AA
:1006B0009093E20469E772E080E795E00E944F1CA6
:1006C0004091D3045091D4046091D5047091D60424
:1006D00022E030E080E795E00E94281E6EE872E09C
:1006E00080E795E00E944F1C4091D7045091D804B8
:1006F0006091D9047091DA0422E030E080E795E05F
:100700000E94281E69E972E080E795E00E944F1C74
:100710004091DB045091DC046091DD047091DE04B3
:1007200022E030E080E795E00E94281E64EA72E053
:1007300080E795E00E944F1C4091DF045091E00457
:100740006091E1047091E20422E030E080E795E0FE
:100750000E94281E63E173E080E795E01F910F91EE
:10076000FF90EF90DF90CF90BF90AF909F908F90D1
:100770000C944F1CCF92DF92EF92FF920E94930253
:100780008FE395E00E9488126EEB72E080E795E0BF
:100790000E944F1C1092D2041092D1042091D104D7
:1007A0003091D20480913D0590913E05281739077C
:1007B0000CF093C065EB72E080E795E00E944F1C5F
:1007C0006091D1047091D2046F5F7F4F4AE050E096
:1007D00080E795E00E94211D6BEB72E080E795E0D9
:1007E0000E944F1C60EC72E080E795E00E944F1C75
:1007F0006091D1047091D20423E0660F771F2A958F
:10080000E1F763517B4F40E150E080E795E00E94C3
:10081000211D6DEC72E080E795E00E944F1C61EDB8
:1008200072E080E795E00E944F1C6091D1047091C6
:10083000D204FB01ED51FB4F80818823E9F093E066
:10084000660F771F9A95E1F763517B4F8FE395E031
:100850000E9419136B017C016093D3047093D4043C
:100860008093D5049093D60420E030E048EC52EC1D
:100870000E94752687FF07C06BED72E080E795E068
:100880000E944F1C08C022E030E0B701A60180E7BB
:1008900095E00E94281E63E173E080E795E00E94E6
:1008A0004F1C80913D0590913E0501972091D10408
:1008B0003091D2042817390731F060EE72E080E7FA
:1008C00095E00E944F1C8091D1049091D204019632
:1008D0009093D2048093D10461CF63E173E080E709
:1008E00095E0FF90EF90DF90CF900C944F1C0E940A
:1008F000930263EE72E080E795E00E944F1C6FE97F
:1009000074E080E795E00E944F1C66E772E080E7A4
:1009100095E00C944F1C0E94930261EF72E080E717
:1009200095E00E944F1CE0916005F09161050994EB
:100930000F9300E020E040E060E08DEC95E00E9445
:10094000B51B43ED55E063EB75E183EC95E00E9448
:10095000131063ED75E080E795E00E94A70E26E096
:1009600046E16AE082E695E00E941D1362E082E5BE
:1009700095E00E94C31662E575E08FE395E00E9462
:100980007A10109247041092460488EE93E0A0E09B
:10099000B0E08093480490934904A0934A04B09334
:1009A0004B0489EC93E0909345048093440483EDD9
:1009B00095E0909351048093500410925604109245
:1009C0005704109258040F91089584E494E00E9413
:1009D0004C0C80E795E00C94BE0E61E08DE00E9427
:1009E000F91860E08DE00E94321926E040E950EDF0
:1009F00063E070E08091DC059091DD050E94741A3F
:100A000083ED95E00E94120882E695E00E9424138F
:100A10008FE395E00E94A6110E94380281E0809346
:100A2000CA0583EC95E00E94740F61E08DE00C94A0
:100A30003219CF93DF9300D000D000D0CDB7DEB70E
:100A4000BC01CE0101960E947022BE016F5F7F4FF4
:100A500084E494E00E94B70CCE0101960E94022229
:100A600084E494E00E94CF0B8111FACF84E494E0F7
:100A70000E94240B1816190674F484E494E00E9472
:100A80002E0B80939E048A3089F3682F80E795E0CF
:100A90000E94511CEBCF80E795E00E94D00C269677
:100AA0000FB6F894DEBF0FBECDBFDF91CF91089592
:100AB0000E94930265E173E080E795E00E944F1C7D
:100AC00082E393E00E94190561E173E080E795E01D
:100AD0000C944F1C0E94930263E573E080E795E05D
:100AE0000E944F1C82E693E00E94190561E173E0C9
:100AF00080E795E00C944F1CCF93DF93CDB7DEB722
:100B0000C355D1090FB6F894DEBF0FBECDBF63EC5D
:100B100075E0CE0101960E942110BE016F5F7F4FEC
:100B200080E795E00E94C40ECE0101960E94BE0EA1
:100B300080918005882309F461C060E775E0CE01EB
:100B400001960E94581ECE0101960E9493236CE7E5
:100B500073E0CE0101960E947423882319F00E944D
:100B6000ED0244C061E873E0CE0101960E94742357
:100B7000882319F00E94BA0339C067E873E0CE01F8
:100B800001960E947423882319F00E94D5022EC07A
:100B90006DE873E0CE0101960E947423882319F05A
:100BA0000E94770423C061E973E0CE0101960E94A0
:100BB0007423882319F00E948B0418C067E973E03E
:100BC000CE0101960E947423882319F00E946A05C1
:100BD0000DC06CE973E0CE0101960E947423882356
:100BE00019F00E94580502C00E94A30280E795E018
:100BF0000E94790DCE0101960E94022261E08DE0F3
:100C00000E94321962E370E080E090E00E940318D5
:100C1000CD5ADF4F0FB6F894DEBF0FBECDBFDF91C8
:100C2000CF910895FC01238134812627022E22953D
:100C3000207F2025032E322F22952F700226269505
:100C400032272327220F220F220F2025FC01348375
:100C500023830895CF93DF93EC018D819E81DC0186
:100C6000ED91FC916C810190F081E02D09958D81D1
:100C70009E81DC01ED91FC910190F081E02D6B8172
:100C8000DF91CF9109948F929F92AF92BF92CF92B2
:100C9000DF92EF92FF92CF93DF93EC016B010E9402
:100CA000D4174B015C01E12CF12C8D819E81DC017C
:100CB000ED91FC910680F781E02D099597FF0DC01D
:100CC0000E94D417681979098A099B096C157D055A
:100CD0008E059F0550F38FEF9FEFDF91CF91FF902F
:100CE000EF90DF90CF90BF90AF909F908F9008953E
:100CF000CF93DF93EC018D819E81DC01ED91FC911E
:100D00000480F581E02D09951816190654F48D819B
:100D10009E81DC01ED91FC910680F781E02D099523
:100D2000EACFDF91CF9108952F923F924F925F9239
:100D30006F927F928F929F92AF92BF92CF92DF92EB
:100D4000EF92FF920F931F93CF93DF93CDB7DEB750
:100D50002D970FB6F894DEBF0FBECDBF3C011B012F
:100D60003C832B83BF82AE825801AC0CBD1CA40E09
:100D7000B51EBD824B2C512CCA01860F971F998737
:100D80008887D901A00FB11FBB87AA87F601EE0D96
:100D9000FF1DFD87EC87D30118968C91581608F03B
:100DA00026C1EFEFFFEFD3011496FC93EE93139758
:100DB00015968D919C911697DC01ED91FC91019017
:100DC000F081E02D6FEF09956FEFC3010E941206CD
:100DD000F30185819681DC01ED91FC910190F08118
:100DE000E02DD3016C910995F3016081C3010E944C
:100DF0001206D30115968D919C911697DC01ED9109
:100E0000FC910190F081E02D6D810995642DC30165
:100E10000E941206F30185819681DC01ED91FC911F
:100E20000190F081E02D6A2D09956A2DC3010E9481
:100E30001206610188859985C816D906A1F0F301CB
:100E4000858196818601DC01ED91FC910190F08114
:100E5000E02DD6016D916D010995F8016081C30106
:100E60000E941206E7CFCB80DC808A859B85C8165E
:100E7000D906B1F0D30115968D919C9116978601F4
:100E8000DC01ED91FC910190F081E02DD6016D9196
:100E90006D010995F8016081C3010E941206E5CF3A
:100EA00087018C859D8508171907B1F0D301159628
:100EB0008D919C9116976801DC01ED91FC91019058
:100EC000F081E02DD8016D918D010995F6016081C9
:100ED000C3010E941206E5CFC3010E942A0664E600
:100EE00070E0C3010E9443068F3F910509F074C072
:100EF000EFEFFFEFD3011496FC93EE9313976FEF90
:100F0000C3010E94120665E070E0C3010E9443061F
:100F1000D3016C91262F30E08217930709F05CC053
:100F2000C3010E9412066AE070E0C3010E944306FA
:100F30008C0197FD51C0682FC3010E9412066AE020
:100F400070E0C3010E9443066C0197FD45C0682F05
:100F5000C3010E9412060A83198209811A810C0DAD
:100F60001D1DC12CD12C65E070E0C301C016D10657
:100F7000A1F0C814D90489F00E94430697FD09C066
:100F8000EE81FF81EC0DFD1D8083682FC3010E945F
:100F90001206BFEFCB1ADB0AE6CF0E9443066C01B4
:100FA00097FD1AC065E070E0C3010E94430697FDFB
:100FB00013C0DC2CCC24C80ED91EF301838194818C
:100FC0008C159D0549F480818F5F8083C801801650
:100FD000910678F4C4010DC0539464E670E080E09B
:100FE00090E00E940318C3010E947806D4CE8FEFD0
:100FF0009FEF2D960FB6F894DEBF0FBECDBFDF91E9
:10100000CF911F910F91FF90EF90DF90CF90BF9005
:10101000AF909F908F907F906F905F904F903F9098
:101020002F9008953F924F925F926F927F928F928E
:101030009F92AF92BF92CF92DF92EF92FF920F9367
:101040001F93CF93DF93CDB7DEB72E970FB6F894EB
:10105000DEBF0FBECDBF3C01DC0117968C91179708
:101060008111CFC081E017968C93C3010E9478064E
:1010700068EE73E080E090E00E940318F301858140
:101080009681DC01ED91FC910480F581E02D0995BC
:101090001816190654F355E0552E4424439462E380
:1010A000362EE1E1F1E0DE011696852D01900D92DC
:1010B0008A95E1F7F3014086812C912CA12CB12C6B
:1010C000C12CD12CE12CF12C00E010E020E030E02C
:1010D00045E050E0BE016A5F7F4FC3010E94940665
:1010E00063E0D30115968D919C9116970E94511C37
:1010F0006AEF70E080E090E00E94031868ED70E015
:10110000F301858196810E942A1C6AEF70E080E0DD
:1011100090E00E94031866ED70E0D30115968D9162
:101120009C9116970E942A1C64EF71E080E090E089
:101130000E9403186AEC70E0F301858196810E9499
:101140002A1C64EF71E080E090E00E940318C30164
:101150000E947806E6E1F1E0DE011196852D01900E
:101160000D928A95E1F7D30118963C9244E0842EC3
:10117000912CFE013B965F0120E030E045E050E01D
:10118000BE016F5F7F4FC3010E9494068F3FFFEF48
:101190009F0739F468EE73E080E090E00E94031846
:1011A00080CF2B852111FFCF049711F52C8530E0DE
:1011B0002053310944E6429FC001439F900D112402
:1011C0002D8530E0205331096AE0629FA001639FC2
:1011D000500D1124840F951F2E8530E020533109C6
:1011E000820F931FD30112969C938E93119705C083
:1011F00084E690E0F3019283818382E3D301189621
:101200008C932E960FB6F894DEBF0FBECDBFDF9144
:10121000CF911F910F91FF90EF90DF90CF90BF90F3
:10122000AF909F908F907F906F905F904F903F9086
:1012300008951092D3058EE096E09093D90580939F
:10124000D8051092DA051092DB059093DD058093A6
:10125000DC0508958F929F92AF92BF92CF92DF925A
:10126000EF92FF920F931F9348015901C12CD12C8B
:10127000E12CF12C00E010E020E030E00E94940628
:101280001F910F91FF90EF90DF90CF90BF90AF90A4
:101290009F908F9008950F931F9300E010E020E03F
:1012A00030E00E942A091F910F910895CF93DF9398
:1012B00000D0CDB7DEB7DC0152968C9152978823CF
:1012C00089F080E589836A8342E050E0BE016F5F68
:1012D0007F4F1C968D919C911D970E944B0981E038
:1012E00090E01FC05596ED91FC91569753968C91C6
:1012F000539791E0980F53969C935397E80FF11DE5
:10130000608353969C91539754968C91549798135D
:1013100008C0ED91FC9111970284F385E02DCD0179
:1013200009950F900F90DF91CF910895AF92BF92E2
:10133000CF92DF92EF92FF920F931F93CF93DF93A1
:1013400000D0CDB7DEB75C017A01DC0152968C91FA
:10135000811104C08B01E60EF71E41C06A01BFEF88
:10136000CB1ADB0AC60169837A830E94E61B8C01D3
:10137000FC0180E58193A70169817A81CF010E94F8
:10138000882AA601B801F501848595850E944B093C
:101390000115110519F0C8010E94EA1BC70122C0FE
:1013A000D5015596ED91FC91569753968C91539794
:1013B00091E0980F53969C93D8019D918D01E80F71
:1013C000F11D9083F50193898489981308C00190D9
:1013D000F081E02D0284F385E02DC50109950E15FD
:1013E0001F05F1F60F900F90DF91CF911F910F9194
:1013F000FF90EF90DF90CF90BF90AF900895CF9384
:10140000DF93EC018A8981110AC04B8950E06D8914
:101410007E898C859D850E944B0981E08B8BDF91B5
:10142000CF910895FC011382128248EE53E060E0F0
:1014300070E044835583668377838BEA93E09183DE
:10144000808383ED95E09587848716861786118AB9
:10145000108A81E0828B0895CF93DF93EC018A8913
:10146000811108C08D899E89009711F00E94EA1BA6
:1014700081E08A8BDF91CF910895EF92FF920F93D5
:101480001F93CF93DF9300D0CDB7DEB77C01FC0173
:101490008685811114C0178680E7898380E28A835C
:1014A0002089318900E210E042E050E0BE016F5F28
:1014B0007F4F848595850E942A09F70186870F90C2
:1014C0000F90DF91CF911F910F91FF90EF900895B2
:1014D000CF93DF93EC010E943D0A8E8590E0DF916F
:1014E000CF910895CF93DF93EC010E943D0A8E8542
:1014F000882369F081508E87E889F9898F8591E08A
:10150000980F9F87E80FF11D808190E002C08FEF58
:101510009FEFDF91CF910895CF93DF93EC010E946D
:101520003D0A8E85882341F08F85E889F989E80F87
:10153000F11D808190E002C08FEF9FEFDF91CF918E
:101540000895CF93DF93EC010E942C0A8889998932
:10155000009721F00E94EA1B198A188ADF91CF9127
:1015600008952BEA33E0FC01318320830C94A10A17
:101570008EED95E00C94120A8EED95E00C94B10A74
:1015800083ED95E09093F6058093F505089583ED3E
:1015900095E09093F8058093F705089508950F93CB
:1015A0001F93CF93DF9300D01F92CDB7DEB729E40E
:1015B0002983FC0126852A836B8300E010E020E06C
:1015C00030E043E050E0BE016F5F7F4F848595853A
:1015D0000E942A0981E090E00F900F900F90DF9118
:1015E000CF911F910F910895EF92FF920F931F9348
:1015F000CF93DF9300D01F92CDB7DEB77C01FC0103
:101600008389811117C0148A8FE4898386858A8330
:1016100080E48B8397012B5E3F4F00E410E043E0B2
:1016200050E0BE016F5F7F4F848595850E942A0937
:10163000F701838B0F900F900F90DF91CF911F9147
:101640000F91FF90EF900895CF93DF93EC010E94EC
:10165000F40A8B8990E0DF91CF910895CF93DF93C7
:10166000EC010E94F40A8B89882359F081508B8BFE
:101670008C8991E0980F9C8BC80FD11D8D8990E0CB
:1016800002C08FEF9FEFDF91CF910895CF93DF934B
:10169000EC010E94F40A8B89882331F08C89C80FF1
:1016A000D11D8D8990E002C08FEF9FEFDF91CF9128
:1016B00008950F931F93CF93DF93EC018B0167EB9A
:1016C00073E0888999890E942423B80188899989BF
:1016D000DF91CF911F910F910C941D236F927F92F8
:1016E0008F929F92AF92BF92CF92DF92EF92FF9232
:1016F0000F931F93CF93DF9300D01F92CDB7DEB728
:101700003C0182E58B83D3015096ED91FC9151977A
:10171000048115812081318182E0882E912CFE0187
:1017200031965F01C12CD12CE12CF12C41E050E02D
:10173000BE016D5F7F4F1C968D919C911D970E94FD
:1017400094068A8190E0D3011F969C938E931E97F6
:1017500050960D911C9151970115110531F0C8015A
:101760000E940222C8010E94E81BF301118A108A1C
:101770008981811102C081E0828B0F900F900F90C0
:10178000DF91CF911F910F91FF90EF90DF90CF905D
:10179000BF90AF909F908F907F906F9008950F9320
:1017A0001F93CF93DF9300D01F92CDB7DEB722E710
:1017B0002983FC0126852A8301E010E09E012D5F2C
:1017C0003F4F42E050E0BE016F5F7F4F84859585BB
:1017D0000E942A0981E09B81913009F080E00F90FE
:1017E0000F900F90DF91CF911F910F9108950F935C
:1017F0001F93CF93DF9300D000D0CDB7DEB727E59E
:101800002B83FC0126852C8302E010E09E012F5FD4
:101810003F4F42E050E0BE016D5F7F4F848595856C
:101820000E942A09898190E0982F88272A81820FB7
:10183000911D0F900F900F900F90DF91CF911F91FE
:101840000F910895EF92FF920F931F93CF93DF9321
:1018500000D0CDB7DEB77C01FC018289882389F0F6
:1018600087E7898386858A8300E010E020E030E006
:1018700042E050E0BE016F5F7F4F848595850E94F6
:101880002A09F701128A0F900F90DF91CF911F91D3
:101890000F91FF90EF90089529EC33E0FC01318324
:1018A00020830C94220CEF92FF920F931F93CF93FF
:1018B000DF9300D0CDB7DEB77C0169837A830E94C5
:1018C000220C86E090E00E94E41B8C0169817A8101
:1018D0000E94BE22F701118B008B0F900F90DF91B9
:1018E000CF911F910F91FF90EF900895EF92FF928B
:1018F0000F931F93CF93DF9300D000D000D0CDB7CC
:10190000DEB78C017B0169EB73E0CE0101960E948A
:101910007022BE016F5F7F4FC8010E94530CCE0141
:1019200001960E94022262EC73E0CE0101960E94B1
:101930007022BE016F5F7F4FC8010E94590BCE011C
:1019400001960E940222B701C8010E94590BC801EA
:101950000E946E0B26960FB6F894DEBF0FBECDBF69
:10196000DF91CF911F910F91FF90EF900895CF934A
:10197000DF93EC010E94760CCE010E94CF0B8823EE
:1019800039F064E670E080E090E00E940318F4CF44
:10199000CE01DF91CF910C94F70BFC018089089563
:1019A0000895EF92FF920F931F93CF93DF93CDB7DC
:1019B000DEB728970FB6F894DEBF0FBECDBF7C010F
:1019C0008B0162EE72E0CE0101964F8358870E9430
:1019D000702262E170E0CE0101960E943322D801AC
:1019E00012966C91CE0101960E9447236EE2CE01C1
:1019F00001960E943423F8016381CE0101960E9472
:101A000047236EE2CE0101960E943423D80114963A
:101A10006C91CE0101960E9447236EE2CE010196A1
:101A20000E943423F8016581CE0101960E9447236C
:101A3000D701ED91FC9169817A810684F785E02DCB
:101A40004F815885C70109958C01CE0101960E94EE
:101A50000222C80128960FB6F894DEBF0FBECDBF94
:101A6000DF91CF911F910F91FF90EF9008956F92AA
:101A70007F928F929F92AF92BF92CF92DF92EF921E
:101A8000FF920F931F93CF93DF9300D0CDB7DEB7B4
:101A9000FC019B013A0180898823C1F08CE689838F
:101AA00086858A83812C912CA12CB12CC12CD12C20
:101AB000E12CF12C8A0142E050E0BE016F5F7F4FC4
:101AC000848595850E949406C30102C080E090E061
:101AD0000F900F90DF91CF911F910F91FF90EF909A
:101AE000DF90CF90BF90AF909F908F907F906F903E
:101AF0000895EF92FF920F931F93CF93DF9300D03F
:101B0000CDB7DEB77C01FC018089882389F08AE6A5
:101B1000898386858A8300E010E020E030E042E09F
:101B200050E0BE016F5F7F4F848595850E942A0932
:101B3000F701108A0F900F90DF91CF911F910F91B5
:101B4000FF90EF9008950F931F93CF93DF9300D0F2
:101B50001F92CDB7DEB7FC0180898823B1F08CE4F9
:101B6000898386858A8301E010E09E012D5F3F4FC7
:101B700042E050E0BE016F5F7F4F848595850E94F3
:101B80002A0981E09B81913009F080E00F900F904D
:101B90000F90DF91CF911F910F9108956F927F92D7
:101BA0008F929F92AF92BF92CF92DF92EF92FF926D
:101BB0000F931F93CF93DF93CDB7DEB727970FB661
:101BC000F894DEBF0FBECDBF3C019B0183E4898347
:101BD0005A834B83DB010D900020E9F78D01015002
:101BE0001109061B170B88248394912CFE0137964C
:101BF0005F01C12CD12CE12CF12C43E050E0BE015F
:101C00006F5F7F4FD3011C968D919C911D970E9411
:101C10009406892BE1F12F81822F90E0F3019787C1
:101C2000868783E68C832D8301E010E09E012A5F86
:101C30003F4F42E050E0BE016C5F7F4FD3011C96E6
:101C40008D919C911D970E942A098E81882339F0DD
:101C500061E070E080E090E00E940318E5CF81E051
:101C6000F301808B0190F081E02D0488F589E02D4F
:101C7000C301099581110EC0D301ED91FC91028839
:101C8000F389E02DC3010995F3011786168680E0DC
:101C900090E002C081E090E027960FB6F894DEBF96
:101CA0000FBECDBFDF91CF911F910F91FF90EF90AD
:101CB000DF90CF90BF90AF909F908F907F906F906C
:101CC00008950F931F93CF93DF9300D01F92CDB74A
:101CD000DEB7FC0180898823A9F08CE6898386859C
:101CE0008A836B8300E010E020E030E043E050E0C6
:101CF000BE016F5F7F4F848595850E942A0981E030
:101D000090E002C080E090E00F900F900F90DF9184
:101D1000CF911F910F9108950F931F93FC01138290
:101D2000128208EE13E020E030E00483158326835E
:101D3000378389ED93E09183808355874487778744
:101D4000668781E0808B118A1F910F910895FC01B5
:101D5000CB011382128248EE53E060E070E04483CE
:101D600055836683778329ED33E03183208395871C
:101D7000848717861686108A118A089529ED33E024
:101D8000FC01318320830895FB012089FC01208B15
:101D9000FB0126853785FC01378726870895EF925A
:101DA000FF920F931F93CF93DF9300D01F92CDB775
:101DB000DEB77C01FC018189811117C0128A8BE496
:101DC000898386858A8380E48B8397012D5E3F4FCC
:101DD00000E410E043E050E0BE016F5F7F4F848578
:101DE00095850E942A09F701818B0F900F900F9023
:101DF000DF91CF911F910F91FF90EF900895CF93B6
:101E0000DF93EC010E94CF0E898990E0DF91CF91A2
:101E10000895CF93DF93EC010E94CF0E8989882328
:101E200059F08150898B8A8991E0980F9A8BC80F5D
:101E3000D11D8B8990E002C08FEF9FEFDF91CF9192
:101E40000895CF92DF92EF92FF920F931F93CF935B
:101E5000DF93EC016A018B01E12CF12C8989882345
:101E6000A9F08FEFE81AF80A8A8991E0980F9A8B07
:101E7000FE01E80FF11D8389F80181938F018989A3
:101E80008150898BEC14FD0448F306C0CE010E94FA
:101E9000CF0E89898111E5CFC701DF91CF911F91C5
:101EA0000F91FF90EF90DF90CF900895CF93DF9345
:101EB000EC010E94CF0E8989882331F08A89C80FEE
:101EC000D11D8B8990E002C08FEF9FEFDF91CF9102
:101ED00008950F9300E020E040E060E089EF95E096
:101EE0000E94B51B0F9108956F927F928F929F92DF
:101EF000AF92BF92CF92DF92EF92FF920F931F9318
:101F0000CF93DF93CDB7DEB72A970FB6F894DEBF35
:101F10000FBECDBF3C018EE48F83F3018481958198
:101F20009887898762EE70E0CE0101960E94E822D0
:101F3000F3018781811106C06AED70E0CE01019640
:101F40000E94C7220D811E8129813A8188248394B1
:101F5000912CCE010A965C01C12CD12CE12CF12CE4
:101F600043E050E0BE01695F7F4FF30180859185BA
:101F70000E94940681E09A85913009F080E0F30197
:101F80008683CE0101960E9402222A960FB6F8940B
:101F9000DEBF0FBECDBFDF91CF911F910F91FF909C
:101FA000EF90DF90CF90BF90AF909F908F907F90F9
:101FB0006F9008958F929F92AF92BF92CF92DF92CF
:101FC000EF92FF920F931F93CF93DF9300D0CDB783
:101FD000DEB722E629836A83812C912CA12CB12CB7
:101FE000C12CD12CE12CF12C00E010E020E030E0FD
:101FF00042E050E0BE016F5F7F4FFC01808591851C
:102000000E94940681E090E00F900F90DF91CF91B5
:102010001F910F91FF90EF90DF90CF90BF90AF9006
:102020009F908F900895FC011382128285EF93E0B8
:1020300091838083758364831682178251874087DA
:1020400008956F927F928F929F92AF92BF92CF929C
:10205000DF92EF92FF920F931F93CF93DF9300D005
:10206000CDB7DEB73C01FB018BE68A8388248394DD
:10207000912CCE0101965C01C12CD12CE12CF12CCC
:1020800000E010E020E030E041E050E0BE016E5F93
:102090007F4F808591850E949406892B31F463EDF2
:1020A00075E0C3010E94A70E07C0698170E043ED8F
:1020B00055E0C3010E948C0EC3010F900F90DF9179
:1020C000CF911F910F91FF90EF90DF90CF90BF9035
:1020D000AF909F908F907F906F9008950F9300E046
:1020E00020E040E060E08FEF95E00E94B51B0F918B
:1020F00008950895FC0189E790E1928B818B7683A6
:1021000065831482108289E0818381E082838383E6
:102110000895FC0184810895CF93DF93EB0167E07C
:10212000CE010E947E1791E02F81821390E0892FCB
:10213000DF91CF910895EF92FF920F931F93CF936A
:10214000DF93EC018B01E42E8D819E810E94B116FC
:10215000F12CB8018D819E810E94E616882359F0EA
:10216000FE1006C0B801CE010E948C10811104C07F
:10217000F394EF1470F780E0DF91CF911F910F91EE
:10218000FF90EF900895EF92FF920F931F93CF93DC
:10219000DF9300D0CDB7DEB77C018A01FC018581D9
:1021A000968169837A830E948A1569817A81F70111
:1021B000858196810E94851640E06EEBF70185814E
:1021C00096810E942716F701858196810E946916E3
:1021D000F8018083F701858196810E946916F801D4
:1021E0008183F701858196810E946916F8018283B7
:1021F000F701858196810E946916F8018383F701B2
:10220000858196810E946916F8018483F701858192
:1022100096810E946916F8018583F7018581968170
:102220000E946916F8018683F701858196810E94D4
:102230006916F8018783F701858196810E946916E6
:10224000F8018087F701858196810F900F90DF91CB
:10225000CF911F910F91FF90EF900C948A15CF931F
:10226000DF93EA010E94C31068E0CE010E947E174E
:1022700091E02885821390E0892FDF91CF91089516
:10228000EF92FF921F93CF93DF9300D0CDB7DEB7CD
:102290007C01FC018581968169837A830E948A157D
:1022A00069817A81F701858196810E94851640E0D7
:1022B00064EBF701858196810E942716F7018581DD
:1022C00096810E94FC15182FF701858196810E9446
:1022D0008A1581E0111180E00F900F90DF91CF916E
:1022E0001F91FF90EF900895CF93DF93CDB7DEB7A6
:1022F00029970FB6F894DEBF0FBECDBFFB0120813A
:102300002031D1F0AE014F5F5F4F0E942F11882323
:1023100079F08D818F3351F020F48F3149F489E0C9
:102320000CC08F3539F08F3739F002C08AE005C014
:1023300080E003C08BE001C08CE029960FB6F894D2
:10234000DEBF0FBECDBFDF91CF910895EF92FF9218
:102350000F931F93CF93DF93CDB7DEB761970FB67F
:10236000F894DEBF0FBECDBF8C01FC018581968144
:102370000E94B116F8011482FF24F394BE01665F37
:102380007F4FF801858196810E94E6168823C9F166
:10239000BE01665F7F4FC8010E948C10882371F3D5
:1023A000F8018081811108C0BE01665F7F4FC801BE
:1023B0000E944011811122C0AE014F5F5F4FBE01EC
:1023C000665F7F4FC8010E94C310F801E180BE0123
:1023D000665F7F4FC8010E9474118E1518F4F801D2
:1023E000818106C0BE01665F7F4FC8010E947411E3
:1023F000F801818384818F5F8483C0CFF801F082EC
:10240000DBCF61960FB6F894DEBF0FBECDBFDF9174
:10241000CF911F910F91FF90EF900895CF93DF938D
:10242000CDB7DEB729970FB6F894DEBF0FBECDBF8C
:10243000AE014F5F5F4F0E94C31081E099819111FF
:1024400001C080E029960FB6F894DEBF0FBECDBF65
:10245000DF91CF9108958F929F92AF92BF92CF92CA
:10246000DF92EF92FF920F931F93CF93DF93EC01D4
:102470008A016950633048F4E62FF0E0EE0FFF1F49
:10248000E550FC4F8081918102C08EEE92E04C01BC
:10249000AA2497FCA094BA2C01151105E1F08B81B8
:1024A0008823C9F08881811116C00E94D4176B015E
:1024B0007C01C80CD91CEA1CFB1CB801CE010E948F
:1024C0000E12811118C00E94D4176C157D058E055F
:1024D0009F0588F4F2CFC501B401DF91CF911F9120
:1024E0000F91FF90EF90DF90CF90BF90AF909F90B3
:1024F0008F900C940318DF91CF911F910F91FF9053
:10250000EF90DF90CF90BF90AF909F908F90089505
:10251000CF93DF93EC018D819E810E948A158D817E
:102520009E810E94AD16488164E48D819E810E9447
:1025300027168A81882341F040E050E06981CE016E
:10254000DF91CF910C942B12DF91CF910895FA0176
:10255000208148E0249F90011124818190E0982FF0
:102560008827990F990F990F282B392BDB018C9114
:102570008031C1F4678170E08681AB01481B51094D
:10258000CA019695982F8827979587950E942F289E
:1025900060517109207F53E0220F331F5A95E1F7F4
:1025A000260F371FC9010895EF92FF920F931F93D3
:1025B000CF93DF93CDB7DEB729970FB6F894DEBF80
:1025C0000FBECDBF8C017B01AE014F5F5F4F0E94FC
:1025D0002F11882341F0AE014F5F5F4FB701C80153
:1025E0000E94A71202C080E894EE29960FB6F894D4
:1025F000DEBF0FBECDBFDF91CF911F910F91FF9036
:10260000EF900895813824EE920774F0BC0188277A
:1026100077FD8095982F0E94142720E030E040E05D
:102620005CE30E94C827089560E070E08EEF92ECB2
:1026300008950E94D4120C940213FC016683478310
:10264000208781E085870895CF93DF93EC0160E0D8
:102650008E810E94F91861E08E810E9432191986DC
:102660001A861B861C86DF91CF9108954F925F9248
:102670006F927F928F929F92AF92BF92CF92DF9292
:10268000EF92FF920F931F93CF93DF93CDB7DEB7F7
:1026900028970FB6F894DEBF0FBECDBF6A017B014D
:1026A000480159019A01AB01C701B6010E94C82730
:1026B0002B013C01A5019401C501B4010E94C8276A
:1026C0006D837E838F83988721E133E243E050E47A
:1026D000C701B6010E94C82729E134E849E252E463
:1026E0000E94102669837A838B839C8326E13BE4D6
:1026F00042E251E4C501B4010E94C8279B01AC012C
:1027000069817A818B819C810E94112669837A83F9
:102710008B839C8328E436E246E65EEBC701B60174
:102720000E94C827A50194010E94C8279B01AC0103
:1027300069817A818B819C810E94112669837A83C9
:102740008B839C8320EE3FE040EE5BEBC301B20144
:102750000E94C8279B01AC0169817A818B819C8191
:102760000E94112669837A838B839C8328EF37E844
:1027700040E65DEB6D817E818F8198850E94C82740
:102780009B01AC0169817A818B819C810E94112619
:1027900069837A838B839C832CEA3DE041EA5AE388
:1027A000C301B2010E94C827A50194010E94C82755
:1027B0009B01AC0169817A818B819C810E941126E9
:1027C0004B015C0128EC3FE84FE55AE3C701B60135
:1027D0000E94C8272D813E814F8158850E94C827BD
:1027E0009B01AC01C501B4010E9411266B017C0163
:1027F00021EF3BE845E056EBC301B2010E94C82738
:102800002D813E814F8158850E94C8279B01AC01D4
:10281000C701B6010E94112628960FB6F894DEBFB4
:102820000FBECDBFDF91CF911F910F91FF90EF9021
:10283000DF90CF90BF90AF909F908F907F906F90E0
:102840005F904F900895DF92EF92FF920F931F9346
:10285000CF93DF93EC010E94D41709851A852B854D
:102860003C85601771078207930720F419861A8642
:102870001B861C862D85211111C009851A852B8583
:102880003C85DC01CB01801B910BA20BB30B803D7F
:102890009740A105B10510F481E07BC01D860E9420
:1028A000D41769877A878B879C871C821B821A8240
:1028B0001982188261E08E810E9432196AEF70E0FD
:1028C00080E090E00E94031861E08E810E94F91878
:1028D00060E08E810E94321964E170E080E090E057
:1028E0000E940318F89461E08E810E94321988E2F8
:1028F00090E00E942B1860E08E810E94F918F12C64
:10290000D12C81E0E12C082F10E08E810E94681903
:102910008017910741F4E39481E090E00E942B1826
:102920008FEFE812F2CF8E810E9468199FEFE916AF
:10293000C9F023E02F1590F4F0FC10C09D2D969562
:1029400096959695FE01E90FF11D9081990F908360
:1029500028852E1510F491609083D394F39495E517
:10296000F912D0CF789427E22D1590F42C8130E025
:102970004881898190E0840F911D4A81840F911DC7
:102980004B81840F911D99272817390709F484CFAB
:1029900080E0DF91CF911F910F91FF90EF90DF903A
:1029A0000895CF92DF92EF92FF920F931F93CF93F0
:1029B000DF93EC01162F0E942314882309F450C0E2
:1029C0008F818B3031F008F44BC08551823078F024
:1029D00047C06A8170E080E090E00E9412271123D6
:1029E00009F443C020E030E040E151E42AC00A810C
:1029F000602F6F7770E080E090E00E94142720E065
:102A000030E040E853E40E94C8276B017C016B81F1
:102A100070E080E090E00E9414279B01AC01C701A8
:102A2000B6010E94112620E030E040E251E40E940D
:102A3000792607FD90581123D9F020E030E040E1DD
:102A400051E40E94C82720E030E040EA50E40E94B0
:102A5000792620E030E040E052E40E94112608C0D0
:102A600020E030E040EC5FE705C09B01AC0102C014
:102A70009B01AC01B901CA01DF91CF911F910F9168
:102A8000FF90EF90DF90CF900895CF92DF92EF927A
:102A9000FF92CF93DF93EC010E942314882379F1F6
:102AA0008F818B3029F158F18551823040F5688152
:102AB00070E080E090E00E94122720E030E040E8E3
:102AC00053E40E94C8276B017C01698170E080E0BB
:102AD00090E00E9414279B01AC01C701B6010E943F
:102AE000112620E030E040E251E40E9479260BC03C
:102AF000688170E080E090E00E94122704C060E0EE
:102B000070E080EC9FE7DF91CF91FF90EF90DF9036
:102B1000CF900895FF920F931F93CF93DF93FC0103
:102B20000081C181D281F8948981F02EF0948F21A7
:102B3000898378941DE7115029F182E090E00E948A
:102B40002B1888818023B9F3F8948A818F218A8396
:102B50008981802B8983789480EE91E00E942B18E4
:102B6000F89489818F21898386E490E00E942B1854
:102B70008881802311E009F010E078948AE991E0DF
:102B80000E942B18812FDF91CF911F910F91FF9001
:102B900008951F93CF93DF93FC011081C181D281EF
:102BA000912F909560FF12C0F8948A8189238A83BF
:102BB0008981812B89838AE090E00E942B188A8189
:102BC000812B8A83789487E390E011C0F8948A81FE
:102BD00089238A838981812B898381E490E00E9403
:102BE0002B188A81812B8A83789485E090E0DF918D
:102BF000CF911F910C942B180F931F93CF93DF93BA
:102C0000FC011081C181D281F8948981812B898353
:102C10008A81012F009580238A8383E090E00E94BF
:102C20002B188981802389838AE090E00E942B18E9
:102C3000C881789485E390E00E942B181C2381E0E2
:102C400009F480E0DF91CF911F910F910895CF9209
:102C5000DF92EF92FF920F931F93CF93DF931F9218
:102C6000CDB7DEB76C01E62E08E010E0FF24F39448
:102C700061E09F2D9E2109F460E0C60149830E9416
:102C8000C915FF0C0150110949810115110581F782
:102C9000411115C0F894D6011196ED91FC9112974F
:102CA00091818C918095892381831196ED91FC917E
:102CB000129792818C9180958923828378940F90CA
:102CC000DF91CF911F910F91FF90EF90DF90CF9008
:102CD0000895EF92FF920F931F93CF93DF938C0190
:102CE000C8E0D0E0F12CEE24E394C8010E94FC156A
:102CF0008111FE28EE0C2197C1F78F2DDF91CF9126
:102D00001F910F91FF90EF900895CF92DF92FF9265
:102D10000F931F93CF93DF931F92CDB7DEB78C0134
:102D2000F62E40E065E579830E942716CF2C798145
:102D3000D72E88E0F82EF60161916F0140E0C801BE
:102D40000E942716FA94B9F70F90DF91CF911F9147
:102D50000F91FF90DF90CF90089540E06CEC0C94C1
:102D60002716FC0113861586148627E030E0DF0164
:102D7000A20FB31F13961C922115310519F0215093
:102D80003109F5CF08951F93CF93DF93EC01162FF0
:102D900060E0812F0E94F918612F70E0FB01EA5E6C
:102DA000FD4FE491E883FB01EC5CFD4FE491F0E022
:102DB000EE0FFF1FEE5AFD4F859194919A83898300
:102DC000CE01DF91CF911F910C94B116AF92BF92BB
:102DD000CF92DF92EF92FF920F931F93CF93DF93E7
:102DE0001F92CDB7DEB75C01E62ED72EFC0185859C
:102DF00081115DC0C5010E948A15811105C0F501D0
:102E00001386158614866EC040E060EFC5010E94EF
:102E1000271601E0F12CC12C11E0C5010E94FC1520
:102E2000682FC50169830E94FC156981613019F41E
:102E30008130B9F433C02F2D30E068131BC0F50189
:102E40008385181730F4E20FF31F8381802349F440
:102E500002C0181731F060E0193058F4F5011487FA
:102E600008C0F501EF0DF11D8381802B838361E0A4
:102E700009C0C12EF501E20FF31F8381902F9095B9
:102E800089238383C5010E94C9151F5F000F11F4B8
:102E9000F39401E0F7E0FF1508F0BFCF113438F0EC
:102EA000F501C386C11018C081E0858715C0F50102
:102EB00013861586148680E0EE2DFD2D20E030E08F
:102EC000D501A20FB31F13969C9191932F5F3F4F93
:102ED00028303105A9F706C0F5018381882339F32D
:102EE00081E0EACF0F90DF91CF911F910F91FF907A
:102EF000EF90DF90CF90BF90AF900895DC0180E01D
:102F0000615038F0ED91E827F0E0E451FF4F8491F3
:102F1000F7CF08951F920F920FB60F9211242F939F
:102F20003F938F939F93AF93BF93809106069091A9
:102F30000706A0910806B09109063091050623E026
:102F4000230F2D3720F40196A11DB11D05C026E8E1
:102F5000230F0296A11DB11D20930506809306063E
:102F600090930706A0930806B093090680910A067D
:102F700090910B06A0910C06B0910D060196A11D33
:102F8000B11D80930A0690930B06A0930C06B09394
:102F90000D06BF91AF919F918F913F912F910F900F
:102FA0000FBE0F901F9018952FB7F89460910606EA
:102FB0007091070680910806909109062FBF089529
:102FC0003FB7F89480910A0690910B06A0910C06E9
:102FD000B0910D0626B5A89B05C02F3F19F00196AC
:102FE000A11DB11D3FBF6627782F892F9A2F620F31
:102FF000711D811D911D42E0660F771F881F991F6B
:103000004A95D1F70895CF92DF92EF92FF92CF9336
:10301000DF936B017C010E94E017EB01C114D10426
:10302000E104F10489F00E94F2230E94E0176C1B76
:103030007D0B683E734090F381E0C81AD108E10827
:10304000F108C851DC4FEACFDF91CF91FF90EF90AC
:10305000DF90CF900895019739F0880F991F880F5E
:10306000991F02970197F1F70895789484B58260CB
:1030700084BD84B5816084BD85B5826085BD85B51C
:10308000816085BDEEE6F0E0808181608083E1E8CB
:10309000F0E0108280818260808380818160808303
:1030A000E0E8F0E0808181608083E1E9F0E0808108
:1030B00082608083808181608083E0E9F0E08081AC
:1030C00081608083E1ECF0E0808184608083808196
:1030D00082608083808181608083E3ECF0E0808186
:1030E00081608083E0ECF0E0808182608083E2ECAC
:1030F000F0E0808181608083EAE7F0E08081846095
:1031000080838081826080838081816080838081F0
:10311000806880830895823108F08251E82FF0E0C2
:10312000E451FE4FE49180917B00E3FB222720F9DC
:1031300030E095E0220F331F9A95E1F78F7D822BC7
:1031400080937B00E7708091060120E4829FC0019C
:103150001124E82BE0937C0080917A0080648093B6
:103160007A0080917A0086FDFCCF809178002091D2
:10317000790090E0922B089590E0FC013197EF30B8
:10318000F105B0F5EA5AFF4F0C9465288091800054
:103190008F7703C0809180008F7D80938000089599
:1031A00080918000877FF9CF84B58F7702C084B586
:1031B0008F7D84BD0895809190008F7707C08091A6
:1031C00090008F7D03C080919000877F8093900056
:1031D00008958091C0008F7703C08091C0008F7DDB
:1031E0008093C00008958091C200877F8093C200C1
:1031F0000895CF93DF9390E0FC01EA5EFD4F2491A8
:10320000FC01EC5CFD4F8491882349F190E0880F2C
:10321000991FFC01E259FD4FA591B491805A9D4F31
:10322000FC01C591D4919FB7611108C0F8948C91AD
:10323000209582238C93888182230AC0623051F4C6
:10324000F8948C91322F309583238C938881822B34
:10325000888304C0F8948C91822B8C939FBFDF915C
:10326000CF9108950F931F93CF93DF931F92CDB704
:10327000DEB7282F30E0F901E850FE4F8491F901C4
:10328000EA5EFD4F1491F901EC5CFD4F04910023BF
:10329000C9F0882321F069830E94BC186981E02F5E
:1032A000F0E0EE0FFF1FE05AFD4FA591B4919FB7DC
:1032B000F8948C91611103C01095812301C0812B7A
:1032C0008C939FBF0F90DF91CF911F910F91089525
:1032D000CF93DF93282F30E0F901E850FE4F84911F
:1032E000F901EA5EFD4FD491F901EC5CFD4FC49108
:1032F000CC2391F081110E94BC18EC2FF0E0EE0F6E
:10330000FF1FEE5AFD4FA591B4912C912D2381E022
:1033100090E021F480E002C080E090E0DF91CF9166
:103320000895FC01818D228D90E0805C9F4F821B6F
:1033300091098F7399270895FC01918D828D9817BB
:1033400031F0828DE80FF11D858D90E008958FEFAB
:103350009FEF0895FC01918D828D981761F0828D09
:10336000DF01A80FB11D5D968C91928D9F5F9F73B9
:10337000928F90E008958FEF9FEF08958EE29BE18A
:10338000892B49F080E090E0892B29F00E942E1BC8
:1033900081110C9400000895FC01848DDF01A80FB9
:1033A000B11DA35ABF4F2C91848D90E001968F736D
:1033B0009927848FA689B7892C93A089B1898C918C
:1033C00080648C93938D848D981306C00288F38952
:1033D000E02D80818F7D80830895CF93DF93EC0172
:1033E000888D8823C9F0EA89FB89808185FD05C025
:1033F000A889B9898C9186FD0FC00FB607FCF5CF5F
:10340000808185FFF2CFA889B9898C9185FFEDCFA6
:10341000CE010E94CC19E7CFDF91CF910895CF92D2
:10342000DF92FF920F931F93CF93DF931F92CDB73D
:10343000DEB76C01DC015B969C915B975C968C918E
:103440005C97981307C05096ED91FC91519780813D
:1034500085FD32C0F601038D10E00F5F1F4F0F7323
:103460001127F02EF601848DF81211C00FB607FC5B
:10347000F9CFD6015096ED91FC915197808185FF4F
:10348000F1CFC60169830E94CC196981EBCF838D8E
:10349000E80FF11DE35AFF4F6083D6015B960C9352
:1034A0005B975296ED91FC91539780818062808367
:1034B00081E058968C930DC0D6015696ED91FC9103
:1034C000579760835096ED91FC915197808180646D
:1034D000808381E090E00F90DF91CF911F910F9159
:1034E000FF90DF90CF900895BF92CF92DF92EF923E
:1034F000FF92CF93DF93EC016A017B01B22EE88942
:10350000F98982E08083411581EE580761057105D4
:10351000A1F060E079E08DE390E0A70196010E94C0
:10352000432821503109410951095695479537954E
:103530002795211580E1380798F0E889F9891082EC
:1035400060E874E88EE190E0A70196010E944328AC
:1035500021503109410951095695479537952795CD
:10356000EC85FD853083EE85FF852083188EEC8900
:10357000FD89B082EA89FB89808180618083EA8944
:10358000FB89808188608083EA89FB8980818068EB
:103590008083EA89FB8980818F7D8083DF91CF9151
:1035A000FF90EF90DF90CF90BF9008951F920F9201
:1035B0000FB60F9211242F938F939F93EF93FF9346
:1035C000E0911E06F0911F068081E0912406F091A3
:1035D000250682FD12C09081809127068F5F8F7330
:1035E00020912806821751F0E0912706F0E0E25F73
:1035F000F94F958F8093270601C08081FF91EF914D
:103600009F918F912F910F900FBE0F901F90189543
:103610001F920F920FB60F9211242F933F934F9347
:103620005F936F937F938F939F93AF93BF93EF932A
:10363000FF938EE096E00E94CC19FF91EF91BF912D
:10364000AF919F918F917F916F915F914F913F913A
:103650002F910F900FBE0F901F9018958EE096E05F
:103660000E94911921E0892B09F420E0822F08950E
:10367000109211061092100688EE93E0A0E0B0E0E0
:103680008093120690931306A0931406B093150628
:1036900085E094E090930F0680930E068DEC90E009
:1036A00090931B0680931A068CEC90E090931D0675
:1036B00080931C0688EC90E090931F0680931E0672
:1036C00089EC90E090932106809320068AEC90E0AC
:1036D00090932306809322068EEC90E0909325062B
:1036E000809324061092270610922806109229062D
:1036F00010922A060895AF92BF92CF92DF92EF9276
:10370000FF920F931F93CF93DF936C017B01C0E077
:10371000D0E000E010E0F601EC0FFD1F4AE050E0C1
:103720006281C7010E94361D5C016EE2C7010E94E2
:10373000511C8A0D9B1D080F191F2196C330D105FE
:1037400051F74AE050E0F6016581C7010E94361D3D
:10375000800F911FDF91CF911F910F91FF90EF90FC
:10376000DF90CF90BF90AF9008950F93FC0185E15B
:1037700094E09183808362834383248305830F9144
:10378000089585E194E09093AC068093AB06109287
:10379000AD061092AE061092AF061092B0060895D4
:1037A00008950E9435180E94D01B81EB96E00E947C
:1037B000E4210E94ED04CEEBD9E10E947C05209724
:1037C000E1F30E94BE19F9CF0C947F280C947F2856
:1037D0000C9417290C941729CF92DF92EF92FF9245
:1037E0000F931F93CF93DF936C017A01EB01E60EE9
:1037F000F71E00E010E0CE15DF0561F06991D601FB
:10380000ED91FC910190F081E02DC6010995080F22
:10381000191FF1CFC801DF91CF911F910F91FF9038
:10382000EF90DF90CF9008956115710581F0DB0175
:103830000D900020E9F7AD0141505109461B570B8F
:10384000DC01ED91FC910280F381E02D099480E090
:1038500090E00895EF92FF920F931F93CF93DF9321
:103860008C01FB01C0E0D0E064917F018FEFE81A8A
:10387000F80A662361F0D801ED91FC910190F08186
:10388000E02DC8010995C80FD91FF701EDCFCE0172
:10389000DF91CF911F910F91FF90EF9008950C94BD
:1038A000141CDC01ED91FC910190F081E02D099454
:1038B0000F931F93CF93DF93EC016DE00E94511C97
:1038C0008C016AE0CE010E94511C800F911FDF9194
:1038D000CF911F910F9108950F931F93CF93DF9373
:1038E000EC010E94141C8C01CE010E94581C800F18
:1038F000911FDF91CF911F910F9108958F929F9209
:10390000AF92BF92CF92DF92EF92FF920F931F93ED
:10391000CF93DF93CDB7DEB7A1970FB6F894DEBF94
:103920000FBECDBF7C01C42EE52FCB01D22E19A234
:1039300021E02D1510F02AE0D22E8E010F5D1F4FD1
:103940008D2C912CA12CB12C6C2D7E2FA5019401D6
:103950000E9443288C2DD29E8019112401501109F8
:103960008A3014F4805D01C0895CF80180832115E0
:1039700031054105510521F0C22EE32FCA01E4CFE4
:10398000B801C7010E94141CA1960FB6F894DEBFBF
:103990000FBECDBFDF91CF911F910F91FF90EF90A0
:1039A000DF90CF90BF90AF909F908F900895CF926F
:1039B000DF92EF92FF920F931F93CF93DF93EC016F
:1039C0006A017B012115310579F4E881F9810190C3
:1039D000F081E02D642FDF91CF911F910F91FF9027
:1039E000EF90DF90CF9009942A303105E9F477FF0A
:1039F0001AC06DE20E94511C8C0144275527BA0160
:103A00004C195D096E097F092AE0CE010E947E1CD7
:103A1000800F911FDF91CF911F910F91FF90EF9039
:103A2000DF90CF9008952AE0B701A601CE01DF9183
:103A3000CF911F910F91FF90EF90DF90CF900C945A
:103A40007E1C9A01AB01662757FD6095762F0C947A
:103A5000D71C2115310541F4DC01ED91FC91019059
:103A6000F081E02D642F09940C947E1C9A01462F5E
:103A700050E060E070E00C94291D4F925F926F92CD
:103A80007F928F929F92AF92BF92CF92DF92EF92EE
:103A9000FF920F931F93CF93DF93EC016A017B0199
:103AA000B22E9A01AB01C701B6010E942B288823D0
:103AB00019F067E174E027C026013701E89477F830
:103AC0002FEF3FEF4FE75FE7C301B2010E942B28C2
:103AD00081110DC02FEF3FEF4FE75FE7C301B20148
:103AE0000E94752618161CF46BE174E00CC02FEFD1
:103AF0003FEF4FE75FE4C701B6010E94C4271816E5
:103B0000ACF46FE174E0CE01DF91CF911F910F9182
:103B1000FF90EF90DF90CF90BF90AF909F908F90ED
:103B20007F906F905F904F900C94141C2FEF3FEF9D
:103B30004FE75FECC701B6010E94752687FDE1CF14
:103B400020E030E0A901C701B6010E94752687FF79
:103B50000AC06DE2CE010E94511C8C01F7FAF0946C
:103B6000F7F8F09402C000E010E0A12C60E070E0F3
:103B700080E09FE3AB1441F020E030E040E251E40C
:103B80000E947926A394F6CF9B01AC01C701B60130
:103B90000E9411266B017C010E94E6262B013C014C
:103BA0000E9412279B01AC01C701B6010E9410269A
:103BB0006B017C012AE0B301A201CE010E947E1CB0
:103BC000080F191FBB2039F063E274E0CE010E9498
:103BD000141C080F191F7B2C772041F120E030E0E6
:103BE00040E251E4C701B6010E94C8276B017C0185
:103BF0000E94E1264B01AA2497FCA094BA2C2AE04B
:103C000030E0B501A401CE010E94D71C080F191F96
:103C1000C501B4010E9414279B01AC01C701B60184
:103C20000E9410266B017C017A94D6CFC801DF91E7
:103C3000CF911F910F91FF90EF90DF90CF90BF90A9
:103C4000AF909F908F907F906F905F904F9008956E
:103C50000C943D1D0F931F93CF93DF93EC010E94B3
:103C6000D417688779878A879B87E881F9810680DE
:103C7000F781E02DCE01099597FF15C00E94D4175A
:103C8000088519852A853B85601B710B820B930B78
:103C90000C811D812E813F81601771078207930778
:103CA00020F38FEF9FEFDF91CF911F910F91089538
:103CB0000F931F93CF93DF93EC018B0162EE72E0C1
:103CC0000E947022C8010E942A1E97FD05C0682F1D
:103CD000CE010E943423F6CFCE01DF91CF911F9108
:103CE0000F9108954091B5065091B6062091B30604
:103CF0003091B40642175307B4F49091E8009570E0
:103D0000E1F39091E80092FD19C08093F100809159
:103D1000B5069091B60601968F739927892B19F4F1
:103D20008EEF8093E8008091B5069091B6060196DB
:103D30009093B6068093B50681E0089580E00895DB
:103D4000FF920F931F93CF93DF938C0188E10E9422
:103D5000721E83E00E94721EC0E0D0E0F801EC0FFA
:103D6000FD1F84910E94721EF82E80E00E94721E38
:103D70008F2121F02196CB30D10581F7DF91CF91B2
:103D80001F910F91FF900895615030F02091F10044
:103D9000FC0120830196F8CF289884E68093B8062A
:103DA00008952FB7FC012083F89467706093E900B1
:103DB0000895CF93DF931F92CDB7DEB7682FCE0162
:103DC00001960E94D11E8091F20099819FBF0F90B1
:103DD000DF91CF910895FF920F931F93CF93DF93BD
:103DE00000D0CDB7DEB7F62E8A019091B7069923A1
:103DF00011F057FF03C08FEF9FEF2BC0682FCE014C
:103E000001967A830E94D11E8091F20090E0A80171
:103E10007A81801791070CF4AC01EF2DF72FF40E87
:103E200084E6FE1639F028988093B8069091F10048
:103E30009193F7CF4115510521F08091F20088232D
:103E400021F089818FBFCA0104C08BE68093E8000E
:103E5000F8CF0F900F90DF91CF911F910F91FF90AE
:103E60000895CF93DF931F92CDB7DEB741E050E0C6
:103E7000BE016F5F7F4F0E94EB1E019719F489818D
:103E800090E002C08FEF9FEF0F90DF91CF910895E8
:103E9000CF93DF931F92CDB7DEB7682FCE01019687
:103EA0000E94D11E9091E800892F807295FF04C076
:103EB0009091F20080E4891B99819FBF0F90DF9160
:103EC000CF9108956F927F928F929F92AF92BF92FF
:103ED000CF92DF92EF92FF920F931F93CF93DF93D6
:103EE0001F92CDB7DEB7782E7B01C42EB52E809100
:103EF000B706882369F0042F152F8AEFD82E872D57
:103F00008072982E9AE3A92E872D8074882E11C076
:103F10008FEF9FEF57C0872D0E94481F682E811199
:103F20000CC0DA94A9F361E070E080E090E00E94B8
:103F300003180115110579F73BC0282F30E002174F
:103F400013070CF4602E672DCE0101960E94D11E3E
:103F50008091E80085FF29C0262D30E0021B130B5D
:103F6000992039F06A948FEF6816B1F01092F10041
:103F7000F9CFF701862D77FE07C0815058F0949154
:103F80009093F1003196F9CF815020F09191909368
:103F9000F100FACFE20EF31E8091E80085FF0FC01A
:103FA0000115110511F481100AC089818FBFC1CF9D
:103FB0005D9884E68093B9068C2D9B2D03C0A0925A
:103FC000E800F3CF0F90DF91CF911F910F91FF90F9
:103FD000EF90DF90CF90BF90AF909F908F907F90A9
:103FE0006F9008951092E9001092B6061092B506EF
:103FF0009093B4068093B3060895CF92DF92FF9218
:104000000F931F93CF93DF9300D0CDB7DEB7F82E79
:104010008A016B0101151105B1F0F601F7FE02C02E
:10402000849101C0808149835A830E94721E01508D
:104030001109FFEFCF1ADF0A49815A818111EACFB6
:104040008FEF9FEF01C0CA010F900F90DF91CF91CA
:104050001F910F91FF90DF90CF9008951F93CF9302
:10406000DF931F92CDB7DEB7162F2091E80022FF15
:10407000FCCF612F79830E94C41E8BEF8093E800F0
:10408000812F7981972F0F90DF91CF911F91089504
:10409000CF93DF931F92CDB7DEB71982CE01019681
:1040A0000E945024CE0101960E94EB24898190E069
:1040B0000F90DF91CF9108951F920F920FB60F923C
:1040C0001124EF92FF920F931F932F933F934F93DF
:1040D0005F936F937F938F939F93AF93BF93EF9370
:1040E000FF93CF93DF93CDB7DEB76297DEBFCDBF2F
:1040F0001092E9008091E80083FFE9C068E0CE01FA
:104100000A960E94C41E82EF8093E8009A8597FF6A
:1041100005C08091E80080FFFCCF03C08EEF809344
:10412000E800892F807609F0B7C08B85811105C022
:104130001092F1001092F100C3C0282F2D7F213082
:1041400009F4BEC0853049F48091E80080FFFCCFBF
:104150008C8580688093E300B3C0863009F074C01A
:104160002D85E888F988223071F580E090E02A8B6F
:104170000E94F21F0E94482099E08E010F5F1F4F9E
:10418000F801392F11923A95E9F799832A892A8300
:1041900091E09E8390E898879AEF99872091B506E1
:1041A0003091B606275F3F4F3C832B838D83C70139
:1041B0000E94F21F49E050E0B80180E00E94FD1F1C
:1041C0000E9448207DC0C7012A8B0E94F21F2A89C5
:1041D000223241F482E290E00E94F624892B09F019
:1041E0006FC072C0213069F488899989089711F4E9
:1041F0002093B2068091B206811116C063E972E085
:1042000018C0233009F060C08C85882381F082308B
:1042100019F481EB92E005C0813009F055C085EAC0
:1042200092E00E94A01E4AC061E872E002C06DEBFD
:1042300072E06115710509F447C0FB01449150E03B
:1042400080E80E94FD1F3CC0873009F43DC08830E3
:1042500021F481E08093F10033C0893089F59370B7
:1042600099F5EDE7F2E081E021E096E38093E90043
:104270002093EB0034913093EC009093ED008F5F2E
:104280003196853099F78EE78093EA001092EA0024
:104290008C858093B70614C0888999890E94F21F83
:1042A0008E85811105C0CE010A960E945B2406C04E
:1042B000823051F4CE010A960E941E25882321F0F7
:1042C0008EEF8093E80003C081E28093EB0062965A
:1042D0000FB6F894DEBF0FBECDBFDF91CF91FF9137
:1042E000EF91BF91AF919F918F917F916F915F916E
:1042F0004F913F912F911F910F91FF90EF900F9051
:104300000FBE0F901F9018958093E9008091F200E6
:10431000882319F08AE38093E80008951F920F9292
:104320000FB60F9211242F933F934F935F936F9388
:104330007F938F939F93AF93BF93EF93FF9380915E
:10434000E1001092E10083FF0FC01092E90091E0BC
:104350009093EB001092EC0092E39093ED0010929A
:10436000B70698E09093F00082FF1DC083E00E94A2
:1043700084218091B906882339F08091B906815053
:104380008093B906882369F08091B806882359F094
:104390008091B80681508093B806811104C0289A94
:1043A00002C05D9AF1CFFF91EF91BF91AF919F91C4
:1043B0008F917F916F915F914F913F912F910F90CE
:1043C0000FBE0F901F9018951092B70681E0809352
:1043D000D70080EA8093D80082E189BD09B400FE4D
:1043E000FDCF61E070E080E090E00E94031880E97A
:1043F0008093D8008CE08093E2001092E000559A00
:10440000209A0895FC01808191810C941729CF9303
:10441000DF93EC0188819981009711F00E941729A0
:10442000198218821D821C821B821A82DF91CF9111
:1044300008950F931F93CF93DF93EC018B016F5F70
:104440007F4F888199810E94A629009731F0998336
:1044500088831B830A8381E001C080E0DF91CF91D4
:104460001F910F910895CF93DF93EC01888199817B
:10447000892B29F08A819B818617970760F4CE01EA
:104480000E941922882341F08C819D81892B19F487
:10449000E881F981108281E0DF91CF910895EF9258
:1044A000FF920F931F93CF93DF93EC017B018A015F
:1044B000BA010E943322811104C0CE010E9407225A
:1044C00007C01D830C83B701888199810E94A52AAA
:1044D000CE01DF91CF911F910F91FF90EF90089542
:1044E000FC011182108213821282158214826115DE
:1044F000710559F0FB0101900020E9F7AF0141502F
:104500005109461B570B0C944F220895EF92FF92CE
:104510000F931F93CF93DF93EC017B018A01BA01C4
:104520000E943322811104C0CE010E94072207C0DD
:104530001D830C83B701888199810E94782ACE015E
:10454000DF91CF911F910F91FF90EF900895CF933E
:10455000DF93EC01FB018617970761F060817181A1
:104560006115710529F0448155810E944F2202C0D6
:104570000E940722CE01DF91CF910895FC011182A4
:10458000108213821282158214820C94A7220F9338
:104590001F93CF93DF9300D0CDB7DEB78C016115A9
:1045A000710561F0CB0169837A830E947F2AAC0197
:1045B00069817A81C8010E94862202C00E94072276
:1045C000C8010F900F90DF91CF911F910F91089527
:1045D000FC011182108213821282158214820C94C3
:1045E000C722EF92FF920F931F93CF93DF93EC01BB
:1045F0007B010C811D816115710511F480E016C0ED
:104600004115510591F0040F151FB8010E94332286
:104610008823A1F3288139818C819D81B701820F84
:10462000931F0E94A52A1D830C8381E0DF91CF9107
:104630001F910F91FF90EF900895FB0144815581E8
:10464000608171810C94F1226115710559F0FB01B3
:1046500001900020E9F7AF0141505109461B570B6B
:104660000C94F12280E00895CF93DF9300D0CDB772
:10467000DEB769831A8241E050E0BE016F5F7F4F71
:104680000E94F1220F900F90DF91CF910895EF9249
:10469000FF920F931F93CF93DF9300D000D0CDB73D
:1046A000DEB77C01862F4AE050E08E010F5F1F4F7E
:1046B000B80190E00E94AC2AF80101900020E9F7CF
:1046C000AF0141505109401B510BB801C7010E9475
:1046D000F1220F900F900F900F90DF91CF911F91CB
:1046E0000F91FF90EF900895FC0124813581232BD9
:1046F00031F421E061157105A1F0FB0108C0FC0156
:10470000808191816115710531F421E0FC01808186
:10471000882339F005C00E949C2A21E0892B09F0EA
:1047200020E0822F0895AF92BF92CF92DF92EF9256
:10473000FF920F931F93CF93DF937C01DC01CD9009
:10474000DC901197C114D10409F441C01496CD91A5
:10475000DC9115972097D9F156018501BFEFAB1A6F
:10476000BB0AF8018081992787FD90950E94702AE5
:10477000892B99F72197CC0DDD1D8881992787FD1D
:1047800090950E94702A892B91F4AE014F5F5F4F84
:10479000401B510BD70115965C934E931497C0168E
:1047A000D10650F4B801C6010E94882A05C0C0177E
:1047B000D10758F32197E1CFD701ED91FC911197E3
:1047C00014968D919C911597E80FF91F1082DF9137
:1047D000CF911F910F91FF90EF90DF90CF90BF90FE
:1047E000AF9008950895CF93DF931F92CDB7DEB7B2
:1047F0006983DC01ED91FC910280F381E02D41E0C1
:1048000050E0BE016F5F7F4F09950F90DF91CF9110
:104810000895CF93DF93EC018C859D8597FF05C0AC
:1048200082E00E94311F9D878C878C859D85DF915A
:10483000CF91089583E00C948421FC0184859585B3
:1048400097FD06C082E00E94D91E90E0019608956F
:1048500082E00E94D91E90E00895FC018485958530
:1048600097FD05C02FEF3FEF35872487089582E03D
:104870000C94311FCF93DF93EC0180910E018823BC
:1048800031F083E00E94621F1816190634F081E0AF
:1048900090E09B838A8380E090E0DF91CF91089540
:1048A000FC0120812E5F208342E450E061EC72E045
:1048B00080E80C94FD1FFC0181819081913A59F4AC
:1048C000813209F03CC047E050E067E071E080E0F1
:1048D0000E94FD1F43C0913291F5803239F467E0A8
:1048E00070E087E091E00E942E2006C0823209F03D
:1048F00035C0828180930E0180910701909108015B
:10490000A0910901B0910A01803B9440A105B10535
:10491000C1F480910E0180FD14C087E797E7909362
:104920000108809300082BE088E190E00FB6F8942E
:10493000A895809360000FBE209360000FC080E0B8
:10494000089588E10FB6F89480936000109260009B
:104950000FBEA895109201081092000881E00895FA
:104960001092BD061092BC0688EE93E0A0E0B0E085
:104970008093BE069093BF06A093C006B093C10675
:1049800089E294E09093BB068093BA068FEF9FEF85
:104990009093C7068093C6060895FF920F931F93C6
:1049A000CF93DF93EC01F62EE881F9810480F58145
:1049B000E02D09958C01E881F9810680F781E02DD1
:1049C0006F2DCE010995C8019927DF91CF911F91D5
:1049D0000F91FF900895FC0120812F5F208349E112
:1049E00050E063E873E080E80C94FD1F45E650E07A
:1049F0006CE973E080E80C94FD1FEF92FF920F9337
:104A00001F93CF93DF931F92CDB7DEB789838B01BE
:104A10007A0141E050E0BE016F5F7F4F84E00E9469
:104A2000621FA701B80184E40E94621F0F90DF910A
:104A3000CF911F910F91FF90EF900895FC0191810C
:104A40008081813A31F481E0913091F0933089F4A2
:104A500011C0813271F49B3021F482818093100166
:104A600005C09A3031F4828180930F0181E008956E
:104A7000089580E0089548E050E082E00C94FD2421
:104A8000CF93DF93DC01683818F0E8E7E60F25C024
:104A9000E62FF0E067FF11C0E058F10981E090E0F7
:104AA00001C0880FEA95EAF714969C911497982B09
:104AB00014969C931497E0E010C0ED5FFC4FE491D6
:104AC000EE2309F440C0E7FF08C014968C911497B8
:104AD000826014968C931497EF7716968C911697A4
:104AE0008E1741F117968C9117978E1719F118961A
:104AF0008C9118978E17F1F019968C9119978E1743
:104B0000C9F01A968C911A978E17A1F01B968C916A
:104B10001B978E1779F080E090E0ED01C80FD91F48
:104B20002E81211102C0EE8305C0019686309105C9
:104B3000A1F709C0BD016C5F7F4FCD010E943B25ED
:104B400081E090E008C081E090E013969C938E9302
:104B5000129780E090E0DF91CF910895683818F0C7
:104B6000E8E7E60F25C0E62FF0E067FF12C0E05847
:104B7000F10921E030E001C0220FEA95EAF7209523
:104B8000DC0114963C911497322314963C93E0E098
:104B90000FC0ED5FFC4FE491EE2329F1E7FF08C061
:104BA000DC0114962C9114972D7F14962C93EF779B
:104BB00020E030E0EE2351F0DC01A20FB31F169687
:104BC0004C9116974E1302C016961C922F5F3F4FC2
:104BD0002630310579F7BC016C5F7F4F0E943B2581
:104BE00081E090E0089580E090E00895FC01168255
:104BF000178210861186128613861482BC016C5FA0
:104C00007F4F0C943B251092160710920D071092BF
:104C10000C0789E394E090930B0780930A070895AB
:104C20005058BB27AA270ED075C166D130F06BD182
:104C300020F031F49F3F11F41EF45BC10EF4E095B7
:104C4000E7FB51C1E92F77D180F3BA1762077307E9
:104C50008407950718F071F49EF58FC10EF4E09566
:104C60000B2EBA2FA02D0B01B90190010C01CA0126
:104C7000A0011124FF27591B99F0593F50F4503ED1
:104C800068F11A16F040A22F232F342F4427585FC3
:104C9000F3CF469537952795A795F0405395C9F7DB
:104CA0007EF41F16BA0B620B730B840BBAF0915093
:104CB000A1F0FF0FBB1F661F771F881FC2F70EC032
:104CC000BA0F621F731F841F48F487957795679505
:104CD000B795F7959E3F08F0B3CF9395880F08F0EE
:104CE0009927EE0F979587950895D9D008F481E01C
:104CF00008950CD00FC107D140F0FED030F021F460
:104D00005F3F19F0F0C0511139C1F3C014D198F3CD
:104D10009923C9F35523B1F3951B550BBB27AA273C
:104D200062177307840738F09F5F5F4F220F331FAE
:104D3000441FAA1FA9F333D00E2E3AF0E0E830D07A
:104D400091505040E695001CCAF729D0FE2F27D07D
:104D5000660F771F881FBB1F261737074807AB074B
:104D6000B0E809F0BB0B802DBF01FF2793585F4FC0
:104D70002AF09E3F510568F0B6C000C15F3FECF3DA
:104D8000983EDCF3869577956795B795F7959F5F85
:104D9000C9F7880F911D9695879597F90895E1E0D9
:104DA000660F771F881FBB1F621773078407BA0738
:104DB00020F0621B730B840BBA0BEE1F88F7E09593
:104DC000089504D06894B111D9C00895BCD088F07A
:104DD0009F5790F0B92F9927B751A0F0D1F0660FE7
:104DE000771F881F991F1AF0BA95C9F712C0B13002
:104DF00081F0C3D0B1E00895C0C0672F782F882715
:104E0000B85F39F0B93FCCF3869577956795B39540
:104E1000D9F73EF490958095709561957F4F8F4FAF
:104E20009F4F0895E89409C097FB3EF490958095B4
:104E3000709561957F4F8F4F9F4F9923A9F0F92F60
:104E400096E9BB279395F695879577956795B795DE
:104E5000F111F8CFFAF4BB0F11F460FF1BC06F5FC4
:104E60007F4F8F4F9F4F16C0882311F096E911C0D6
:104E7000772321F09EE8872F762F05C0662371F0F7
:104E800096E8862F70E060E02AF09A95660F771F0B
:104E9000881FDAF7880F9695879597F90895990FE7
:104EA0000008550FAA0BE0E8FEEF16161706E807F4
:104EB000F907C0F012161306E407F50798F0621B15
:104EC000730B840B950B39F40A2661F0232B242BEA
:104ED000252B21F408950A2609F4A140A6958FEF09
:104EE000811D811D089597F99F6780E870E060E05B
:104EF00008959FEF80EC089500240A941616170673
:104F000018060906089500240A94121613061406BA
:104F100005060895092E0394000C11F4882352F01D
:104F2000BB0F40F4BF2B11F460FF04C06F5F7F4FD5
:104F30008F4F9F4F089557FD9058440F551F59F0BC
:104F40005F3F71F04795880F97FB991F61F09F3F76
:104F500079F087950895121613061406551FF2CF9F
:104F60004695F1DF08C0161617061806991FF1CFEF
:104F700086957105610508940895E894BB27662716
:104F80007727CB0197F908958ADF08F48FEF08950A
:104F90000BD0C0CFB1DF28F0B6DF18F0952309F0B1
:104FA000A2CFA7CF1124EACFC6DFA0F3959FD1F3FC
:104FB000950F50E0551F629FF001729FBB27F00DC7
:104FC000B11D639FAA27F00DB11DAA1F649F66271C
:104FD000B00DA11D661F829F2227B00DA11D621F6B
:104FE000739FB00DA11D621F839FA00D611D221F25
:104FF000749F3327A00D611D231F849F600D211D09
:10500000822F762F6A2F11249F5750408AF0E1F0AB
:1050100088234AF0EE0FFF1FBB1F661F771F881FF4
:1050200091505040A9F79E3F510570F05CCFA6CF3C
:105030005F3FECF3983EDCF3869577956795B795DF
:10504000F795E7959F5FC1F7FE2B880F911D969509
:10505000879597F9089523DF880B990B089597FB9F
:10506000072E16F4009407D077FD09D00E946B2814
:1050700007FC05D03EF4909581959F4F089570955B
:1050800061957F4F0895A1E21A2EAA1BBB1BFD015B
:105090000DC0AA1FBB1FEE1FFF1FA217B307E40717
:1050A000F50720F0A21BB30BE40BF50B661F771F6F
:1050B000881F991F1A9469F760957095809590954F
:1050C0009B01AC01BD01CF010895EE0FFF1F0590BC
:1050D000F491E02D0994AA1BBB1B51E107C0AA1F44
:1050E000BB1FA617B70710F0A61BB70B881F991F89
:1050F0005A95A9F780959095BC01CD010895CF935D
:10510000DF938230910510F482E090E0E09119077E
:10511000F0911A0720E030E0A0E0B0E0309739F1DC
:105120004081518148175907B8F04817590771F461
:1051300082819381109729F013969C938E931297F6
:105140002CC090931A078093190727C021153105A9
:1051500031F04217530718F0A901DB0101C0EF013C
:105160009A01BD01DF010280F381E02DD7CF211527
:105170003105F9F0281B390B2430310580F48A8180
:105180009B816115710521F0FB019383828304C02B
:1051900090931A0780931907FE01329644C0FE01CE
:1051A000E20FF31F819391932250310939832883B1
:1051B0003AC02091170730911807232B41F4209112
:1051C00002013091030130931807209317072091B3
:1051D0000001309101012115310541F42DB73EB791
:1051E0004091040150910501241B350BE0911707F4
:1051F000F0911807E217F307A0F42E1B3F0B2817B6
:10520000390778F0AC014E5F5F4F2417350748F03F
:105210004E0F5F1F50931807409317078193919388
:1052200002C0E0E0F0E0CF01DF91CF910895CF938D
:10523000DF93009709F487C0FC0132971382128232
:10524000C0911907D0911A07209781F420813181EC
:10525000280F391F8091170790911807821793071D
:1052600079F5F0931807E09317076DC0DE0120E091
:1052700030E0AE17BF0750F412964D915C91139732
:105280009D014115510509F1DA01F3CFB383A283E2
:1052900040815181840F951F8A179B0771F48D916E
:1052A0009C911197840F951F02969183808312968B
:1052B0008D919C911397938382832115310529F455
:1052C000F0931A07E09319073EC0D9011396FC9397
:1052D000EE9312974D915D91A40FB51FEA17FB074E
:1052E00079F480819181840F951F0296D9011196DE
:1052F0009C938E938281938113969C938E931297A5
:10530000E0E0F0E08A819B81009719F0FE01EC015A
:10531000F9CFCE01029628813981820F931F209107
:105320001707309118072817390769F4309729F4BF
:1053300010921A071092190702C013821282D0939A
:105340001807C0931707DF91CF910895A0E0B0E050
:10535000ECEAF9E20C94F32AEC01CB01209719F462
:105360000E947F28B8C0FE01E60FF71F9E01225061
:105370003109E217F30708F4ACC0D9010D911C9173
:10538000119706171707B8F00530110508F49FC0EC
:10539000A801445051094617570708F498C0025015
:1053A0001109061B170B019311936D937C93CF0189
:1053B0000E9417298CC05B01A01AB10A4E01800E11
:1053C000911EA0911907B0911A07612C712C60E011
:1053D00070E0109709F449C0A815B905C9F5ED901A
:1053E000FC901197670142E0C40ED11CCA14DB0483
:1053F00078F147018A189B08640142E0C40ED11C71
:105400001296BC9012971396AC91B5E0CB16D104CE
:1054100040F0B282A38391828082D9018D939C93C4
:1054200009C00E5F1F4F0E0D1F1DF9011183008370
:10543000EB2DFA2F6115710531F0DB011396FC930A
:10544000EE93129744C0F0931A07E09319073FC0F8
:105450006D917C9111976616770608F43B01BD01AA
:1054600012960D90BC91A02DB4CF6091170770914A
:10547000180768157905E9F468167906D0F44091A3
:105480000001509101014115510541F44DB75EB73E
:105490006091040170910501461B570BE417F50755
:1054A000C0F4F0931807E0931707F9019183808304
:1054B0000EC00E947F287C01009759F0A801BE0110
:1054C0000E94882ACE010E941729C70104C0CE017C
:1054D00002C080E090E0CDB7DEB7EEE00C940F2B79
:1054E00091116AC0803219F089508550D0F7089523
:1054F000FB01DC0105900D920020E1F70895FC010D
:1055000005900020E9F7809590958E0F9F1F0895D4
:10551000FB01DC0102C001900D9241505040D8F7D0
:105520000895FB01DC010D900020E9F7119701902F
:105530000D920020E1F70895FB01DC018D910190AF
:1055400080190110D9F3990B0895FB01DC0101903A
:105550000D920020E1F708954532510520F44230C4
:1055600010F00C94B72AFB011082CB010895BB27E1
:105570004A3031F4992322F4BDE2909581959F4FF2
:105580000C94C32ABB27FB015527AA27880F991F14
:10559000AA1FA41710F0A41B83955051B9F7A05D62
:1055A000AA3308F0A95DA193009779F7B111B193DF
:1055B0001192CB010C94DF2A992788270895DC01EA
:1055C000FC01672F71917723E1F7329704C07C913A
:1055D0006D9370836291AE17BF07C8F308952F9241
:1055E0003F924F925F926F927F928F929F92AF9273
:1055F000BF92CF92DF92EF92FF920F931F93CF93C0
:10560000DF93CDB7DEB7CA1BDB0B0FB6F894DEBF56
:105610000FBECDBF09942A88398848885F846E847C
:105620007D848C849B84AA84B984C884DF80EE80C6
:10563000FD800C811B81AA81B981CE0FD11D0FB6CF
:10564000F894DEBF0FBECDBFED01089514E0C8E1B0
:10565000D4E004C0FE010E9467282296CC31D10715
:06566000C9F7F894FFCF2A
:1056660000001B0780000100E100000000000001AF
:1056760001585858585858583130304453313842E8
:105686003230206E6F7420666F756E643A20005358
:1056960074617475733A2032303000436F6E7465EE
:1056A6006E742D747970653A206170706C696361EF
:1056B60074696F6E2F6A736F6E007B2274656D70EE
:1056C600223A224C6973742074656D706572617438
:1056D60075726520616E642068756D696469747998
:1056E600222C002274656D7073223A224C69737401
:1056F6002074656D706572617475726573222C0015
:10570600226C69676874223A224D65617375726509
:10571600206C69676874222C002264617465223AE1
:105726002253686F772063757272656E74206465A4
:105736007669636520646174652074696D65222CE1
:105746000022616C69766573696E6365223A22533D
:1057560065636F6E64732073696E6365206C617335
:1057660074204C696E7578207265626F6F74222C96
:105776000022657272223A2253686F77206C617339
:1057860074206572726F72222C00227265736574C2
:10579600223A2252657365742041726475696E6F90
:1057A60022007B20226C69676874223A007B22659E
:1057B60072726F72223A224661696C656420746F58
:1057C60020726561642066726F6D204448542073B0
:1057D600656E736F7221227D007B202248756D698C
:1057E6006469747950657263656E74223A002C2080
:1057F6002254656D7043223A002C202254656D7048
:1058060046223A00202C202248656174496E646560
:105816007846223A002254656D7000223A207B00B9
:105826002241646472657373223A20220022202C7E
:10583600002254656D7043223A20002D3939390013
:105846002C20007B20226572726F7222203A202261
:10585600007B2022726573657474696E6741726499
:1058660075696E6F22203A2022436F6D6D697465EB
:105876006422207D007B20225365636F6E64735320
:10588600696E63654C6173745265626F6F74223A18
:105896002200283C2F70726F632F757074696D65D6
:1058A6002061776B20277B7072696E742024317DAE
:1058B6002729007B20224461746554696D65223A6C
:1058C600220064617465202B2225592D256D2D2516
:1058D600642025483A254D3A2553220074656D709B
:1058E6000074656D7073006C696768740065727228
:1058F600007265736574006461746500616C697635
:105906006573696E636500000000005609960968B4
:105916000A720A8C0AFF09FE002F62696E2F6173F4
:1059260068002D630000000000CF0AEC1B240B2E3C
:105936000B460BCE0A00000000610E370DFF0E0964
:105946000F560FD00CD10CCE0D210F790DA30DCD16
:105956000C00000000DA0FEC1B740F5E00BC007731
:1059660001000000000F1AEC1B9119AA199C19EDF1
:1059760019000000007B1B6E616E00696E66006F89
:105986007666002E0000000000F3233A241D242D25
:105996002409241A2400000000CD24EC1B4025AE67
:0459A60025F62500BD
:00000001FF
