:100000000C940E020C9436020C9436020C943602B8
:100010000C9436020C9436020C9436020C94360280
:100020000C9436020C9436020C94B31F0C94811E6F
:100030000C9436020C9436020C9436020C94360260
:100040000C9436020C9436020C9436020C94360250
:100050000C9436020C9436020C9436020C94B315B0
:100060000C9436020C94FF180C9431190C9436023F
:100070000C9436020C9436020C9436020C94360220
:100080000C9436020C9436020C9436020C94360210
:100090000C9436020C9436020C9436020C94360200
:1000A0000C9436020C9436020C943602FD1600179E
:1000B000EF16F316F9162117211721170417081741
:1000C0000C171217161721171C1772756E2D6272F6
:1000D000696467650A000A000A00302E302E302E4F
:1000E00030003132372E302E302E3100005EBCE22F
:1000F000613FDD83C29C7E20A3FD1F419DC3217F04
:10010000FCA2401E5F01E3BD3E6082DC237D9FC1F7
:10011000421CFEA0E1BF5D0380DE3C62BEE0025CEB
:10012000DF81633D7C22C09E1D43A1FF4618FAA4D7
:1001300027799BC584DA3866E5BB5907DB856739C3
:10014000BAE406581947A5FB7826C49A653BD987B7
:10015000045AB8E6A7F91B45C6987A24F8A6441AAB
:1001600099C7257B3A6486D85B05E7B98CD2306E97
:10017000EDB3510F4E10F2AC2F7193CD114FADF383
:10018000702ECC92D38D6F31B2EC0E50AFF1134D77
:10019000CE90722C6D33D18F0C52B0EE326C8ED06B
:1001A000530DEFB1F0AE4C1291CF2D73CA94762857
:1001B000ABF517490856B4EA6937D58B5709EBB543
:1001C00036688AD495CB2977F4AA4816E9B7550B37
:1001D00088D6346A2B7597C94A14F6A8742AC8962B
:1001E000154BA9F7B6E80A54D7896B3507060504FD
:1001F0000100080A0B0C0D090000000200090F00A5
:1002000000030401000C00000000000000000000DA
:10021000000000000000040802011040804010208F
:1002200040804080080204018040201002011080BC
:1002300010204040040404040403040502020202E6
:10024000040302020202060606060606040402026F
:100250000204000000002300260029002C002F00CB
:1002600000000000250028002B002E0031000000B7
:100270000000240027002A002D00300000C18081EA
:10028000C11201000202000040412341800001012F
:1002900002000112010002000000404123418000E1
:1002A000010102000141726475696E6F204C4C437C
:1002B0000041726475696E6F2059756E0004030900
:1002C00004080B00020202010009040000010202FE
:1002D0000000052400100105240101010424020688
:1002E00005240600010705810310004009040100F0
:1002F000020A000000070502024000000705830211
:1003000040000000000000000000002A2B28000030
:1003100000000000000000000000000000000000DD
:100320000000002C9EB4A0A1A2A434A6A7A5AE36BE
:100330002D3738271E1F20212223242526B333B62C
:100340002EB7B89F8485868788898A8B8C8D8E8FFF
:10035000909192939495969798999A9B9C9D2F3102
:1003600030A3AD350405060708090A0B0C0D0E0F66
:10037000101112131415161718191A1B1C1DAFB1E2
:10038000B0B50009040200010300000009210101C9
:1003900000012265000705840340000105010902F0
:1003A000A1010901A1008501050919012903150011
:1003B00025019503750181029501750581030501EC
:1003C0000930093109381581257F750895038106A3
:1003D000C0C005010906A1018502050719E029E74A
:1003E00015002501750195088102950175088103A5
:1003F0009506750815002565050719002965810012
:10040000C00081048508240A2C0A330A920D970E35
:100410006119EA199E22F123CE04280A11241FBE75
:10042000CFEFDAE0DEBFCDBF13E0A0E0B1E0E2E461
:10043000F2E502C005900D92A430B107D9F725E08E
:10044000A4E0B3E001C01D92A83DB207E1F714E0BB
:10045000C8E1D4E004C02297FE010E945526C230B4
:10046000D107C9F70E94FA190C9414290C940000C2
:100470006BE171E08DE294E00E94741A82E10E94C7
:10048000B4164AE050E0BC018DE294E00E94461BA5
:1004900066E271E08DE294E00E94741A6DE371E00F
:1004A0008DE294E00C94741A8F929F92AF92BF9257
:1004B000CF92DF92EF92FF920F931F938FE194E020
:1004C0000E946E136093920370939303809394033E
:1004D0009093950360E08FE194E00E94FA1260939C
:1004E000960370939703809398039093990361E028
:1004F0008FE194E00E94FA126B017C0160939A03F1
:1005000070939B0380939C0390939D038090920330
:1005100090909303A0909403B0909503A50194014B
:10052000C501B4010E941926811116C0609196037D
:100530007091970380919803909199039B01AC016E
:100540000E941926811108C0A7019601C701B601B2
:100550000E941926882319F060E471E068C09501B3
:100560008401B701A6018FE194E00E945F116093BE
:100570009E0370939F038093A0039093A1036CE666
:1005800071E08DE294E00E94741A409192035091C0
:100590009303609194037091950322E030E08DE223
:1005A00094E00E944D1C61E871E08DE294E00E94AD
:1005B000741A40919603509197036091980370913B
:1005C000990322E030E08DE294E00E944D1C6CE83B
:1005D00071E08DE294E00E94741A40919A03509168
:1005E0009B0360919C0370919D0322E030E08DE2BB
:1005F00094E00E944D1C67E971E08DE294E00E9456
:10060000741A40919E0350919F036091A0037091D2
:10061000A10322E030E08DE294E00E944D1C68EAE4
:1006200071E08DE294E00E94741A6EE371E08DE255
:1006300094E01F910F91FF90EF90DF90CF90BF90CB
:10064000AF909F908F900C94741A61EC71E08DE2E2
:1006500094E00E94741A6EE573E08DE294E00E94CB
:10066000741A69E671E08DE294E00C94741A6FECF0
:1006700071E08DE294E00E94911A6BED71E08DE2E1
:1006800094E00E94911A8DE294E00C947D1A1F93DD
:10069000CF93DF938EEF93E00E94B20E90E09093A1
:1006A000FD038093FC03109291031092900311E0DC
:1006B000C0919003D09191038091FC039091FD0330
:1006C000C817D907DCF56AEF71E08EE593E00E9468
:1006D0009328BE0183E0660F771F8A95E1F7645582
:1006E0007C4F4C2F8EEF93E00E94C40E209190031C
:1006F00030919103F901EE55FC4F811114C0108225
:100700004AE069E573E0C90101960E94A528BC0191
:100710008EE593E00E947F2863E372E08EE593E02C
:100720000E947F2801C010838091900390919103D3
:1007300001969093910380939003BACFDF91CF916C
:100740001F9108950F931F93CF93DF938C01C0E007
:10075000D0E0F80161918F0140E150E08DE294E03A
:100760000E945B1BC730D10531F063E372E08DE27C
:1007700094E00E94741A2196C830D10551F7DF9198
:10078000CF911F910F910895CF92DF92EF92FF9238
:100790008EEF93E00E94B1106EE072E08DE294E083
:1007A0000E94741A1092910310929003209190036A
:1007B000309191038091FC039091FD032817390734
:1007C0000CF077C060E172E08DE294E00E94741A50
:1007D000809190039091910323E0880F991F2A95AF
:1007E000E1F784559C4F0E94A2036FE172E08DE215
:1007F00094E00E94741A63E272E08DE294E00E9439
:10080000741A6091900370919103FB01EE55FC4FB7
:1008100080818823E9F093E0660F771F9A95E1F7CE
:1008200064557C4F8EEF93E00E9442116B017C0176
:100830006093920370939303809394039093950332
:1008400020E030E048EC52EC0E94632487FF07C0B0
:100850006DE272E08DE294E00E94741A08C022E01A
:1008600030E0B701A6018DE294E00E944D1C6EE3DA
:1008700071E08DE294E00E94741A8091FC039091E3
:10088000FD030197209190033091910328173907B8
:1008900031F062E372E08DE294E00E94741A80917C
:1008A000900390919103019690939103809390030C
:1008B0007DCF65E372E08DE294E0FF90EF90DF90F2
:1008C000CF900C94741A67E372E08DE294E00E947A
:1008D000741A0E94380263E472E08DE294E00E9490
:1008E000741A0E9454026DE472E08DE294E00E945A
:1008F000741A0E94C4036EE371E08DE294E00C94DC
:10090000741A0F9300E020E040E060E08AE894E091
:100910000E94DE1940E954E063EB75E180E894E061
:100920000E943C0E60E974E08DE294E00E94D00CDD
:1009300026E046E16AE08FE194E00E94461162E021
:1009400081E194E00E94EC1461E174E08EEF93E0A9
:100950000E94A30E109207031092060388EE93E004
:10096000A0E0B0E08093080390930903A0930A03EA
:10097000B0930B0389E892E09093050380930403FE
:1009800080E994E090931103809310031092160372
:1009900010921703109218030F91089584E093E0CA
:1009A0000E94EF0A8DE294E00C94E70C60E177E29C
:1009B00080E090E00E942C1661E08DE00E942217FA
:1009C00060E08DE00E945B1726E040E950ED63E0B7
:1009D00070E08091990490919A040E949D1880E99A
:1009E00094E00E947E078FE194E00E944D118EEF0B
:1009F00093E00E94CF0F0E9447031092870480E883
:100A000094E00E949D0D61E08DE00C945B17CF9304
:100A1000DF93CDB7DEB7C355D1090FB6F894DEBF6B
:100A20000FBECDBF60E874E0CE0101960E944A0E71
:100A3000BE016F5F7F4F8DE294E00E94ED0CCE010E
:100A400001960E94E70C80913D04882309F442C07E
:100A50006DE274E0CE0101960E947D1CCE010196EC
:100A60000E9481210E94370360E672E0CE01019668
:100A70000E946221882319F00E94540223C065E677
:100A800072E0CE0101960E946221882319F00E9433
:100A9000C40318C06BE672E0CE0101960E94622189
:100AA000882319F00E9438020DC061E772E0CE0180
:100AB00001960E946221882319F00E94250302C03A
:100AC0000E9463048DE294E00E94A20BCE01019685
:100AD0000E94272061E08DE00E945B1762E370E0D6
:100AE00080E090E00E942C16CD5ADF4F0FB6F894AC
:100AF000DEBF0FBECDBFDF91CF910895FC012381F2
:100B000034812627022E2295207F2025032E322F86
:100B100022952F700226269532272327220F220F97
:100B2000220F2025FC01348323830895CF93DF9384
:100B3000EC018D819E81DC01ED91FC916C81019035
:100B4000F081E02D09958D819E81DC01ED91FC9174
:100B50000190F081E02D6B81DF91CF9109948F920C
:100B60009F92AF92BF92CF92DF92EF92FF92CF937C
:100B7000DF93EC016B010E94FD154B015C01E12C40
:100B8000F12C8D819E81DC01ED91FC910680F78135
:100B9000E02D099597FF0DC00E94FD156819790990
:100BA0008A099B096C157D058E059F0550F38FEF13
:100BB0009FEFDF91CF91FF90EF90DF90CF90BF90AC
:100BC000AF909F908F900895CF93DF93EC018D812C
:100BD0009E81DC01ED91FC910480F581E02D099569
:100BE0001816190654F48D819E81DC01ED91FC915B
:100BF0000680F781E02D0995EACFDF91CF91089526
:100C00002F923F924F925F926F927F928F929F921C
:100C1000AF92BF92CF92DF92EF92FF920F931F930A
:100C2000CF93DF93CDB7DEB72D970FB6F894DEBF25
:100C30000FBECDBF3C011B013C832B83BF82AE8224
:100C40005801AC0CBD1CA40EB51EBD824B2C512C02
:100C5000CA01860F971F99878887D901A00FB11FF6
:100C6000BB87AA87F601EE0DFF1DFD87EC87D30138
:100C700018968C91581608F026C1EFEFFFEFD301BC
:100C80001496FC93EE93139715968D919C9116975D
:100C9000DC01ED91FC910190F081E02D6FEF099561
:100CA0006FEFC3010E947E05F30185819681DC010F
:100CB000ED91FC910190F081E02DD3016C910995AB
:100CC000F3016081C3010E947E05D30115968D91C9
:100CD0009C911697DC01ED91FC910190F081E02D43
:100CE0006D810995642DC3010E947E05F301858104
:100CF0009681DC01ED91FC910190F081E02D6A2D4F
:100D000009956A2DC3010E947E0561018885998538
:100D1000C816D906A1F0F301858196818601DC0110
:100D2000ED91FC910190F081E02DD6016D916D0166
:100D30000995F8016081C3010E947E05E7CFCB8051
:100D4000DC808A859B85C816D906B1F0D30115963B
:100D50008D919C9116978601DC01ED91FC9101909B
:100D6000F081E02DD6016D916D010995F80160814A
:100D7000C3010E947E05E5CF87018C859D850817FC
:100D80001907B1F0D30115968D919C9116976801C2
:100D9000DC01ED91FC910190F081E02DD8016D9185
:100DA0008D010995F6016081C3010E947E05E5CFA2
:100DB000C3010E94960564E670E0C3010E94AF057E
:100DC0008F3F910509F074C0EFEFFFEFD301149648
:100DD000FC93EE9313976FEFC3010E947E0565E0CD
:100DE00070E0C3010E94AF05D3016C91262F30E063
:100DF0008217930709F05CC0C3010E947E056AE078
:100E000070E0C3010E94AF058C0197FD51C0682FAF
:100E1000C3010E947E056AE070E0C3010E94AF0535
:100E20006C0197FD45C0682FC3010E947E050A83AF
:100E3000198209811A810C0D1D1DC12CD12C65E070
:100E400070E0C301C016D106A1F0C814D90489F01E
:100E50000E94AF0597FD09C0EE81FF81EC0DFD1DDD
:100E60008083682FC3010E947E05BFEFCB1ADB0A87
:100E7000E6CF0E94AF056C0197FD1AC065E070E0F7
:100E8000C3010E94AF0597FD13C0DC2CCC24C80E13
:100E9000D91EF301838194818C159D0549F48081CD
:100EA0008F5F8083C8018016910678F4C4010DC05D
:100EB000539464E670E080E090E00E942C16C30139
:100EC0000E94E405D4CE8FEF9FEF2D960FB6F894D5
:100ED000DEBF0FBECDBFDF91CF911F910F91FF906D
:100EE000EF90DF90CF90BF90AF909F908F907F90CA
:100EF0006F905F904F903F902F9008953F924F9248
:100F00005F926F927F928F929F92AF92BF92CF9299
:100F1000DF92EF92FF920F931F93CF93DF93CDB7A2
:100F2000DEB72E970FB6F894DEBF0FBECDBF3C01E3
:100F3000DC0117968C9117978111CFC081E017962D
:100F40008C93C3010E94E40568EE73E080E090E0BA
:100F50000E942C16F30185819681DC01ED91FC91B4
:100F60000480F581E02D09951816190654F355E013
:100F7000552E4424439462E3362EE1E1F1E0DE0194
:100F80001696852D01900D928A95E1F7F301408622
:100F9000812C912CA12CB12CC12CD12CE12CF12C29
:100FA00000E010E020E030E045E050E0BE016A5F84
:100FB0007F4FC3010E94000663E0D30115968D9117
:100FC0009C9116970E94761A6AEF70E080E090E09C
:100FD0000E942C1668ED70E0F301858196810E94D5
:100FE0004F1A6AEF70E080E090E00E942C1666EDE8
:100FF00070E0D30115968D919C9116970E944F1A1F
:1010000064EF71E080E090E00E942C166AEC70E0E2
:10101000F301858196810E944F1A64EF71E080E0B0
:1010200090E00E942C16C3010E94E405E6E1F1E085
:10103000DE011196852D01900D928A95E1F7D3017D
:1010400018963C9244E0842E912CFE013B965F0161
:1010500020E030E045E050E0BE016F5F7F4FC3010C
:101060000E9400068F3FFFEF9F0739F468EE73E0A0
:1010700080E090E00E942C1680CF2B852111FFCFBD
:10108000049711F52C8530E02053310944E6429F46
:10109000C001439F900D11242D8530E0205331096C
:1010A0006AE0629FA001639F500D1124840F951F79
:1010B0002E8530E020533109820F931FD301129601
:1010C0009C938E93119705C084E690E0F301928380
:1010D000818382E3D30118968C932E960FB6F894F1
:1010E000DEBF0FBECDBFDF91CF911F910F91FF905B
:1010F000EF90DF90CF90BF90AF909F908F907F90B8
:101100006F905F904F903F900895109290048BECF9
:1011100094E0909396048093950410929704109213
:10112000980490939A048093990408958F929F92C3
:10113000AF92BF92CF92DF92EF92FF920F931F93E5
:1011400048015901C12CD12CE12CF12C00E010E018
:1011500020E030E00E9400061F910F91FF90EF9079
:10116000DF90CF90BF90AF909F908F9008950F9396
:101170001F9300E010E020E030E00E9496081F91ED
:101180000F910895CF93DF9300D0CDB7DEB7DC0188
:1011900052968C915297882389F080E589836A83DF
:1011A00042E050E0BE016F5F7F4F1C968D919C9195
:1011B0001D970E94B70881E090E01FC05596ED9101
:1011C000FC91569753968C91539791E0980F5396B4
:1011D0009C935397E80FF11D608353969C9153970E
:1011E00054968C915497981308C0ED91FC911197E7
:1011F0000284F385E02DCD0109950F900F90DF91CA
:10120000CF910895AF92BF92CF92DF92EF92FF926B
:101210000F931F93CF93DF9300D0CDB7DEB75C0160
:101220007A01DC0152968C91811104C08B01E60E8B
:10123000F71E41C06A01BFEFCB1ADB0AC601698302
:101240007A830E940D1A8C01FC0180E58193A7012D
:1012500069817A81CF010E947628A601B801F50143
:10126000848595850E94B7080115110519F0C801FC
:101270000E940F1AC70122C0D5015596ED91FC912D
:10128000569753968C91539791E0980F53969C9351
:10129000D8019D918D01E80FF11D9083F50193898F
:1012A0008489981308C00190F081E02D0284F385B1
:1012B000E02DC50109950E151F05F1F60F900F9051
:1012C000DF91CF911F910F91FF90EF90DF90CF9022
:1012D000BF90AF900895CF93DF93EC018A8981117D
:1012E0000AC04B8950E06D897E898C859D850E945E
:1012F000B70881E08B8BDF91CF910895FC011382B9
:10130000128248EE53E060E070E0448355836683C8
:10131000778389E792E09183808380E994E09587E1
:10132000848716861786118A108A81E0828B089539
:10133000CF93DF93EC018A89811108C08D899E8942
:10134000009711F00E940F1A81E08A8BDF91CF91F4
:101350000895EF92FF920F931F93CF93DF9300D0E6
:10136000CDB7DEB77C01FC018685811114C01786DC
:1013700080E7898380E28A832089318900E210E056
:1013800042E050E0BE016F5F7F4F848595850E94EB
:101390009608F70186870F900F90DF91CF911F91EC
:1013A0000F91FF90EF900895CF93DF93EC010E948F
:1013B000A9098E8590E0DF91CF910895CF93DF93B7
:1013C000EC010E94A9098E85882369F081508E87DF
:1013D000E889F9898F8591E0980F9F87E80FF11DC3
:1013E000808190E002C08FEF9FEFDF91CF91089551
:1013F000CF93DF93EC010E94A9098E85882341F0E9
:101400008F85E889F989E80FF11D808190E002C09D
:101410008FEF9FEFDF91CF910895CF93DF93EC0192
:101420000E94980988899989009721F00E940F1AD3
:10143000198A188ADF91CF91089529E732E0FC01DB
:10144000318320830C940D0A8BE994E00C947E097F
:101450008BE994E00C941D0A80E994E09093B30426
:101460008093B204089580E994E09093B50480934A
:10147000B404089508950F931F93CF93DF9300D082
:101480001F92CDB7DEB729E42983FC0126852A8384
:101490006B8300E010E020E030E043E050E0BE016C
:1014A0006F5F7F4F848595850E94960881E090E06C
:1014B0000F900F900F90DF91CF911F910F91089592
:1014C000EF92FF920F931F93CF93DF9300D01F9261
:1014D000CDB7DEB77C01FC018389811117C0148A66
:1014E0008FE4898386858A8380E48B8397012B5ED2
:1014F0003F4F00E410E043E050E0BE016F5F7F4FDC
:10150000848595850E949608F701838B0F900F9034
:101510000F90DF91CF911F910F91FF90EF90089561
:10152000CF93DF93EC010E94600A8B8990E0DF91FA
:10153000CF910895CF93DF93EC010E94600A8B89CD
:10154000882359F081508B8B8C8991E0980F9C8B6C
:10155000C80FD11D8D8990E002C08FEF9FEFDF9102
:10156000CF910895CF93DF93EC010E94600A8B899D
:10157000882331F08C89C80FD11D8D8990E002C07D
:101580008FEF9FEFDF91CF910895EF92FF920F932E
:101590001F93CF93DF9300D0CDB7DEB77C01FC0162
:1015A0008289882389F087E7898386858A8300E09A
:1015B00010E020E030E042E050E0BE016F5F7F4F7E
:1015C000848595850E949608F701128A0F900F90E6
:1015D000DF91CF911F910F91FF90EF90089529E82F
:1015E00032E0FC01318320830C94C50AFC01808920
:1015F00008950895EF92FF920F931F93CF93DF9377
:10160000CDB7DEB728970FB6F894DEBF0FBECDBFBB
:101610007C018B0164E372E0CE0101964F83588711
:101620000E94952062E170E0CE0101960E94582050
:10163000D80112966C91CE0101960E9435216EE27E
:10164000CE0101960E942221F8016381CE0101960C
:101650000E9435216EE2CE0101960E942221D8011E
:1016600014966C91CE0101960E9435216EE2CE0156
:1016700001960E942221F8016581CE0101960E9407
:101680003521D701ED91FC9169817A810684F78536
:10169000E02D4F815885C70109958C01CE01019637
:1016A0000E942720C80128960FB6F894DEBF0FBE0F
:1016B000CDBFDF91CF911F910F91FF90EF900895D3
:1016C0006F927F928F929F92AF92BF92CF92DF9252
:1016D000EF92FF920F931F93CF93DF9300D0CDB77C
:1016E000DEB7FC019B013A0180898823C1F08CE6BA
:1016F000898386858A83812C912CA12CB12CC12CC5
:10170000D12CE12CF12C8A0142E050E0BE016F5F48
:101710007F4F848595850E940006C30102C080E04A
:1017200090E00F900F90DF91CF911F910F91FF905C
:10173000EF90DF90CF90BF90AF909F908F907F9071
:101740006F900895EF92FF920F931F93CF93DF93C3
:1017500000D0CDB7DEB77C01FC018089882389F0F9
:101760008AE6898386858A8300E010E020E030E005
:1017700042E050E0BE016F5F7F4F848595850E94F7
:101780009608F701108A0F900F90DF91CF911F916B
:101790000F91FF90EF9008950F931F93CF93DF93D6
:1017A00000D01F92CDB7DEB7FC0180898823B1F04D
:1017B0008CE4898386858A8301E010E09E012D5F99
:1017C0003F4F42E050E0BE016F5F7F4F84859585BB
:1017D0000E94960881E09B81913009F080E00F9093
:1017E0000F900F90DF91CF911F910F9108956F92FD
:1017F0007F928F929F92AF92BF92CF92DF92EF92A1
:10180000FF920F931F93CF93DF93CDB7DEB7279748
:101810000FB6F894DEBF0FBECDBF3C019B0183E441
:1018200089835A834B83DB010D900020E9F78D01FA
:1018300001501109061B170B88248394912CFE017B
:1018400037965F01C12CD12CE12CF12C43E050E004
:10185000BE016F5F7F4FD3011C968D919C911D97A8
:101860000E940006892BE1F12F81822F90E0F30185
:101870009787868783E68C832D8301E010E09E01A5
:101880002A5F3F4F42E050E0BE016C5F7F4FD301C3
:101890001C968D919C911D970E9496088E8188239D
:1018A00039F061E070E080E090E00E942C16E5CF16
:1018B00081E0F301808B0190F081E02D0488F589AF
:1018C000E02DC301099581110EC0D301ED91FC916A
:1018D0000288F389E02DC3010995F3011786168666
:1018E00080E090E002C081E090E027960FB6F89487
:1018F000DEBF0FBECDBFDF91CF911F910F91FF9043
:10190000EF90DF90CF90BF90AF909F908F907F909F
:101910006F9008950F931F93CF93DF9300D01F9282
:10192000CDB7DEB7FC0180898823A9F08CE68983D6
:1019300086858A836B8300E010E020E030E043E09E
:1019400050E0BE016F5F7F4F848595850E949608A9
:1019500081E090E002C080E090E00F900F900F9047
:10196000DF91CF911F910F9108950F931F93FC0169
:101970001382128208EE13E020E030E00483158326
:101980002683378389E992E0918380835587448752
:101990007787668781E0808B118A1F910F91089568
:1019A000FC01CB011382128248EE53E060E070E04C
:1019B000448355836683778329E932E0318320832A
:1019C0009587848717861686108A118A089529E9D3
:1019D00032E0FC01318320830895FB012089FC0162
:1019E000208BFB0126853785FC01378726870895E4
:1019F000EF92FF920F931F93CF93DF9300D01F922C
:101A0000CDB7DEB77C01FC018189811117C0128A34
:101A10008BE4898386858A8380E48B8397012D5E9E
:101A20003F4F00E410E043E050E0BE016F5F7F4FA6
:101A3000848595850E949608F701818B0F900F9001
:101A40000F90DF91CF911F910F91FF90EF9008952C
:101A5000CF93DF93EC010E94F80C898990E0DF912D
:101A6000CF910895CF93DF93EC010E94F80C898900
:101A7000882359F08150898B8A8991E0980F9A8B3D
:101A8000C80FD11D8B8990E002C08FEF9FEFDF91CF
:101A9000CF910895CF92DF92EF92FF920F931F9311
:101AA000CF93DF93EC016A018B01E12CF12C898942
:101AB0008823A9F08FEFE81AF80A8A8991E0980F35
:101AC0009A8BFE01E80FF11D8389F80181938F0144
:101AD00089898150898BEC14FD0448F306C0CE013E
:101AE0000E94F80C89898111E5CFC701DF91CF9160
:101AF0001F910F91FF90EF90DF90CF900895CF93BB
:101B0000DF93EC010E94F80C8989882331F08A89DF
:101B1000C80FD11D8B8990E002C08FEF9FEFDF913E
:101B2000CF9108950F9300E020E040E060E086EB65
:101B300094E00E94DE190F9108956F927F928F9228
:101B40009F92AF92BF92CF92DF92EF92FF920F934C
:101B50001F93CF93DF93CDB7DEB72A970FB6F894D4
:101B6000DEBF0FBECDBF3C018EE48F83F3018481C5
:101B700095819887898762EE70E0CE0101960E9478
:101B8000ED20F3018781811106C06AED70E0CE017E
:101B900001960E94CC200D811E8129813A818824E2
:101BA0008394912CCE010A965C01C12CD12CE12C9E
:101BB000F12C43E050E0BE01695F7F4FF301808567
:101BC00091850E94000681E09A85913009F080E0BD
:101BD000F3018683CE0101960E9427202A960FB634
:101BE000F894DEBF0FBECDBFDF91CF911F910F9153
:101BF000FF90EF90DF90CF90BF90AF909F908F902D
:101C00007F906F9008958F929F92AF92BF92CF92E4
:101C1000DF92EF92FF920F931F93CF93DF9300D049
:101C2000CDB7DEB722E629836A83812C912CA12CC3
:101C3000B12CC12CD12CE12CF12C00E010E020E0E3
:101C400030E042E050E0BE016F5F7F4FFC018085D5
:101C500091850E94000681E090E00F900F90DF9147
:101C6000CF911F910F91FF90EF90DF90CF90BF9099
:101C7000AF909F908F900895FC011382128285EBA4
:101C800092E09183808375836483168217825187E3
:101C9000408708956F927F928F929F92AF92BF92EA
:101CA000CF92DF92EF92FF920F931F93CF93DF9328
:101CB00000D0CDB7DEB73C01FB018BE68A838824D8
:101CC0008394912CCE0101965C01C12CD12CE12C86
:101CD000F12C00E010E020E030E041E050E0BE01F7
:101CE0006E5F7F4F808591850E940006892B31F4BD
:101CF00060E974E0C3010E94D00C07C0698170E004
:101D000040E954E0C3010E94B50CC3010F900F904D
:101D1000DF91CF911F910F91FF90EF90DF90CF90C7
:101D2000BF90AF909F908F907F906F9008950F938A
:101D300000E020E040E060E08CEB94E00E94DE19DF
:101D40000F9108950895FC0182EA9EE0928B818BA9
:101D5000768365831482108289E0818381E08283A7
:101D600083830895FC0184810895CF93DF93EB0171
:101D700067E0CE010E94A71591E02F81821390E0C9
:101D8000892FDF91CF910895EF92FF920F931F93C8
:101D9000CF93DF93EC018B01E42E8D819E810E9415
:101DA000DA14F12CB8018D819E810E940F158823D1
:101DB00059F0FE1006C0B801CE010E94B50E811187
:101DC00004C0F394EF1470F780E0DF91CF911F917E
:101DD0000F91FF90EF900895EF92FF920F931F9352
:101DE000CF93DF9300D0CDB7DEB77C018A01FC0131
:101DF0008581968169837A830E94B31369817A8190
:101E0000F701858196810E94AE1440E06EEBF701E8
:101E1000858196810E945014F701858196810E94E8
:101E20009214F8018083F701858196810E949214B3
:101E3000F8018183F701858196810E949214F8014F
:101E40008283F701858196810E949214F801838331
:101E5000F701858196810E949214F8018483F7012D
:101E6000858196810E949214F8018583F70185810E
:101E700096810E949214F8018683F70185819681EC
:101E80000E949214F8018783F701858196810E9450
:101E90009214F8018087F701858196810F900F9049
:101EA000DF91CF911F910F91FF90EF900C94B3139E
:101EB000CF93DF93EA010E94EC0E68E0CE010E940E
:101EC000A71591E02885821390E0892FDF91CF91AB
:101ED0000895EF92FF921F93CF93DF9300D0CDB779
:101EE000DEB77C01FC018581968169837A830E943B
:101EF000B31369817A81F701858196810E94AE14BE
:101F000040E064EBF701858196810E945014F7014F
:101F1000858196810E942514182FF701858196816D
:101F20000E94B31381E0111180E00F900F90DF91B8
:101F3000CF911F91FF90EF900895CF93DF93CDB78E
:101F4000DEB729970FB6F894DEBF0FBECDBFFB01F9
:101F500020812031D1F0AE014F5F5F4F0E94580FBA
:101F6000882379F08D818F3351F020F48F3149F43B
:101F700089E00CC08F3539F08F3739F002C08AE024
:101F800005C080E003C08BE001C08CE029960FB64D
:101F9000F894DEBF0FBECDBFDF91CF910895EF92D1
:101FA000FF920F931F93CF93DF93CDB7DEB7619767
:101FB0000FB6F894DEBF0FBECDBF8C01FC0185814A
:101FC00096810E94DA14F8011482FF24F394BE0172
:101FD000665F7F4FF801858196810E940F158823E7
:101FE000C9F1BE01665F7F4FC8010E94B50E88230C
:101FF00071F3F8018081811108C0BE01665F7F4FD7
:10200000C8010E94690F811122C0AE014F5F5F4F6E
:10201000BE01665F7F4FC8010E94EC0EF801E180AF
:10202000BE01665F7F4FC8010E949D0F8E1518F498
:10203000F801818106C0BE01665F7F4FC8010E9422
:102040009D0FF801818384818F5F8483C0CFF80165
:10205000F082DBCF61960FB6F894DEBF0FBECDBF26
:10206000DF91CF911F910F91FF90EF900895CF9343
:10207000DF93CDB7DEB729970FB6F894DEBF0FBE5A
:10208000CDBFAE014F5F5F4F0E94EC0E81E09981A2
:10209000911101C080E029960FB6F894DEBF0FBE03
:1020A000CDBFDF91CF9108958F929F92AF92BF9253
:1020B000CF92DF92EF92FF920F931F93CF93DF9314
:1020C000EC018A016950633048F4E62FF0E0EE0F2E
:1020D000FF1FE554FD4F8081918102C08EEE92E09A
:1020E0004C01AA2497FCA094BA2C01151105E1F02B
:1020F0008B818823C9F08881811116C00E94FD154B
:102100006B017C01C80CD91CEA1CFB1CB801CE0178
:102110000E943710811118C00E94FD156C157D05B5
:102120008E059F0588F4F2CFC501B401DF91CF91F0
:102130001F910F91FF90EF90DF90CF90BF90AF90E5
:102140009F908F900C942C16DF91CF911F910F913F
:10215000FF90EF90DF90CF90BF90AF909F908F90C7
:102160000895CF93DF93EC018D819E810E94B3137C
:102170008D819E810E94D614488164E48D819E8168
:102180000E9450148A81882341F040E050E0698128
:10219000CE01DF91CF910C945410DF91CF9108952F
:1021A000FA01208148E0249F90011124818190E070
:1021B000982F8827990F990F990F282B392BDB011E
:1021C0008C918031C1F4678170E08681AB01481B3E
:1021D0005109CA019695982F8827979587950E944F
:1021E0001D2660517109207F53E0220F331F5A953D
:1021F000E1F7260F371FC9010895EF92FF920F9361
:102200001F93CF93DF93CDB7DEB729970FB6F8941E
:10221000DEBF0FBECDBF8C017B01AE014F5F5F4FB4
:102220000E94580F882341F0AE014F5F5F4FB70106
:10223000C8010E94D01002C080E894EE29960FB623
:10224000F894DEBF0FBECDBFDF91CF911F910F91EC
:10225000FF90EF900895813824EE920774F0BC014E
:10226000882777FD8095982F0E94022520E030E096
:1022700040E05CE30E94B625089560E070E08EEFD8
:1022800092EC08950E94FD100C942B11FC016683C2
:102290004783208781E085870895CF93DF93EC0102
:1022A00060E08E810E94221761E08E810E945B17A0
:1022B00019861A861B861C86DF91CF9108954F924E
:1022C0005F926F927F928F929F92AF92BF92CF92C6
:1022D000DF92EF92FF920F931F93CF93DF93CDB7CF
:1022E000DEB728970FB6F894DEBF0FBECDBF6A01E8
:1022F0007B01480159019A01AB01C701B6010E9457
:10230000B6252B013C01A5019401C501B4010E9431
:10231000B6256D837E838F83988721E133E243E086
:1023200050E4C701B6010E94B62529E134E849E22C
:1023300052E40E94FE2369837A838B839C8326E187
:102340003BE442E251E4C501B4010E94B6259B0181
:10235000AC0169817A818B819C810E94FF23698312
:102360007A838B839C8328E436E246E65EEBC701E2
:10237000B6010E94B625A50194010E94B6259B01D5
:10238000AC0169817A818B819C810E94FF236983E2
:102390007A838B839C8320EE3FE040EE5BEBC301AE
:1023A000B2010E94B6259B01AC0169817A818B81C3
:1023B0009C810E94FF2369837A838B839C8328EF0F
:1023C00037E840E65DEB6D817E818F8198850E94C4
:1023D000B6259B01AC0169817A818B819C810E9429
:1023E000FF2369837A838B839C832CEA3DE041EA57
:1023F0005AE3C301B2010E94B625A50194010E94CF
:10240000B6259B01AC0169817A818B819C810E94F8
:10241000FF234B015C0128EC3FE84FE55AE3C7017D
:10242000B6010E94B6252D813E814F8158850E94BC
:10243000B6259B01AC01C501B4010E94FF236B01CD
:102440007C0121EF3BE845E056EBC301B2010E945D
:10245000B6252D813E814F8158850E94B6259B016E
:10246000AC01C701B6010E94FF2328960FB6F8946D
:10247000DEBF0FBECDBFDF91CF911F910F91FF90B7
:10248000EF90DF90CF90BF90AF909F908F907F9014
:102490006F905F904F900895DF92EF92FF920F93AD
:1024A0001F93CF93DF93EC010E94FD1509851A85D8
:1024B0002B853C85601771078207930720F41986E6
:1024C0001A861B861C862D85211111C009851A8547
:1024D0002B853C85DC01CB01801B910BA20BB30B40
:1024E000803D9740A105B10510F481E07BC01D86B9
:1024F0000E94FD1569877A878B879C871C821B82C7
:102500001A821982188261E08E810E945B176AEF3D
:1025100070E080E090E00E942C1661E08E810E94C5
:10252000221760E08E810E945B1764E170E080E01A
:1025300090E00E942C16F89461E08E810E945B1757
:1025400088E290E00E94541660E08E810E9422177B
:10255000F12CD12C81E0E12C082F10E08E810E941B
:1025600091178017910741F4E39481E090E00E9475
:1025700054168FEFE812F2CF8E810E9491179FEFD1
:10258000E916C9F023E02F1590F4F0FC10C09D2D42
:10259000969596959695FE01E90FF11D9081990FFC
:1025A000908328852E1510F491609083D394F39432
:1025B00095E5F912D0CF789427E22D1590F42C816F
:1025C00030E04881898190E0840F911D4A81840F19
:1025D000911D4B81840F911D99272817390709F404
:1025E00084CF80E0DF91CF911F910F91FF90EF900A
:1025F000DF900895CF92DF92EF92FF920F931F9397
:10260000CF93DF93EC01162F0E944C12882309F41C
:1026100050C08F818B3031F008F44BC0855182302F
:1026200078F047C06A8170E080E090E00E94002569
:10263000112309F443C020E030E040E151E42AC016
:102640000A81602F6F7770E080E090E00E940225A1
:1026500020E030E040E853E40E94B6256B017C01A5
:102660006B8170E080E090E00E9402259B01AC014C
:10267000C701B6010E94FF2320E030E040E251E4B0
:102680000E94672407FD90581123D9F020E030E024
:1026900040E151E40E94B62520E030E040EA50E4F9
:1026A0000E94672420E030E040E052E40E94FF23D3
:1026B00008C020E030E040EC5FE705C09B01AC01C2
:1026C00002C09B01AC01B901CA01DF91CF911F91FA
:1026D0000F91FF90EF90DF90CF900895CF92DF920F
:1026E000EF92FF92CF93DF93EC010E944C1288236C
:1026F00079F18F818B3029F158F18551823040F585
:10270000688170E080E090E00E94002520E030E0E9
:1027100040E853E40E94B6256B017C01698170E0BA
:1027200080E090E00E9402259B01AC01C701B60148
:102730000E94FF2320E030E040E251E40E94672441
:102740000BC0688170E080E090E00E94002504C02A
:1027500060E070E080EC9FE7DF91CF91FF90EF9019
:10276000DF90CF900895FF920F931F93CF93DF9345
:10277000FC010081C181D281F8948981F02EF0940E
:102780008F21898378941DE7115029F182E090E030
:102790000E94541688818023B9F3F8948A818F218E
:1027A0008A838981802B8983789480EE91E00E94CE
:1027B0005416F89489818F21898386E490E00E94E1
:1027C00054168881802311E009F010E078948AE99A
:1027D00091E00E945416812FDF91CF911F910F91AC
:1027E000FF9008951F93CF93DF93FC011081C18167
:1027F000D281912F909560FF12C0F8948A8189232D
:102800008A838981812B89838AE090E00E94541613
:102810008A81812B8A83789487E390E011C0F894B1
:102820008A8189238A838981812B898381E490E04D
:102830000E9454168A81812B8A83789485E090E0E7
:10284000DF91CF911F910C9454160F931F93CF9348
:10285000DF93FC011081C181D281F8948981812BA1
:1028600089838A81012F009580238A8383E090E009
:102870000E9454168981802389838AE090E00E9417
:102880005416C881789485E390E00E9454161C2366
:1028900081E009F480E0DF91CF911F910F910895BD
:1028A000CF92DF92EF92FF920F931F93CF93DF931C
:1028B0001F92CDB7DEB76C01E62E08E010E0FF24D2
:1028C000F39461E09F2D9E2109F460E0C6014983E5
:1028D0000E94F213FF0C01501109498101151105E5
:1028E00081F7411115C0F894D6011196ED91FC9134
:1028F000129791818C918095892381831196ED9116
:10290000FC91129792818C9180958923828378948F
:102910000F90DF91CF911F910F91FF90EF90DF907B
:10292000CF900895EF92FF920F931F93CF93DF9371
:102930008C01C8E0D0E0F12CEE24E394C8010E94A1
:1029400025148111FE28EE0C2197C1F78F2DDF9100
:10295000CF911F910F91FF90EF900895CF92DF924A
:10296000FF920F931F93CF93DF931F92CDB7DEB7E4
:102970008C01F62E40E065E579830E945014CF2C3F
:102980007981D72E88E0F82EF60161916F0140E041
:10299000C8010E945014FA94B9F70F90DF91CF91BB
:1029A0001F910F91FF90DF90CF90089540E06CEC65
:1029B0000C945014FC0113861586148627E030E031
:1029C000DF01A20FB31F13961C922115310519F0D8
:1029D00021503109F5CF08951F93CF93DF93EC0178
:1029E000162F60E0812F0E942217612F70E0FB01FB
:1029F000EA5EFD4FE491E883FB01EC5CFD4FE4915E
:102A0000F0E0EE0FFF1FEE5AFD4F859194919A83EF
:102A10008983CE01DF91CF911F910C94DA14AF928C
:102A2000BF92CF92DF92EF92FF920F931F93CF93BB
:102A3000DF931F92CDB7DEB75C01E62ED72EFC01E7
:102A4000858581115DC0C5010E94B313811105C048
:102A5000F5011386158614866EC040E060EFC5014F
:102A60000E94501401E0F12CC12C11E0C5010E941C
:102A70002514682FC50169830E942514698161307E
:102A800019F48130B9F433C02F2D30E068131BC026
:102A9000F5018385181730F4E20FF31F838180233B
:102AA00049F402C0181731F060E0193058F4F5010C
:102AB000148708C0F501EF0DF11D8381802B8383FE
:102AC00061E009C0C12EF501E20FF31F8381902F51
:102AD000909589238383C5010E94F2131F5F000F25
:102AE00011F4F39401E0F7E0FF1508F0BFCF1134C3
:102AF00038F0F501C386C11018C081E0858715C084
:102B0000F50113861586148680E0EE2DFD2D20E05C
:102B100030E0D501A20FB31F13969C9191932F5FC4
:102B20003F4F28303105A9F706C0F501838188237E
:102B300039F381E0EACF0F90DF91CF911F910F9190
:102B4000FF90EF90DF90CF90BF90AF900895DC01A1
:102B500080E0615038F0ED91E827F0E0E451FF4F5C
:102B60008491F7CF08951F920F920FB60F92112400
:102B70002F933F938F939F93AF93BF938091C30401
:102B80009091C404A091C504B091C6043091C204D0
:102B900023E0230F2D3720F40196A11DB11D05C0A0
:102BA00026E8230F0296A11DB11D2093C204809335
:102BB000C3049093C404A093C504B093C604809149
:102BC000C7049091C804A091C904B091CA040196A9
:102BD000A11DB11D8093C7049093C804A093C9049C
:102BE000B093CA04BF91AF919F918F913F912F9164
:102BF0000F900FBE0F901F9018952FB7F89460910B
:102C0000C3047091C4048091C5049091C6042FBF81
:102C100008953FB7F8948091C7049091C804A0919B
:102C2000C904B091CA0426B5A89B05C02F3F19F06E
:102C30000196A11DB11D3FBF6627782F892F9A2FBE
:102C4000620F711D811D911D42E0660F771F881F65
:102C5000991F4A95D1F70895CF92DF92EF92FF9294
:102C6000CF93DF936B017C010E940916EB01C11425
:102C7000D104E104F10489F00E94E0210E940916C8
:102C80006C1B7D0B683E734090F381E0C81AD1083D
:102C9000E108F108C851DC4FEACFDF91CF91FF90F6
:102CA000EF90DF90CF900895019739F0880F991F2A
:102CB000880F991F02970197F1F70895789484B5CA
:102CC000826084BD84B5816084BD85B5826085BD28
:102CD00085B5816085BDEEE6F0E08081816080830E
:102CE000E1E8F0E0108280818260808380818160F1
:102CF0008083E0E8F0E0808181608083E1E9F0E0BA
:102D0000808182608083808181608083E0E9F0E05F
:102D1000808181608083E1ECF0E080818460808349
:102D2000808182608083808181608083E3ECF0E039
:102D3000808181608083E0ECF0E08081826080832C
:102D4000E2ECF0E0808181608083EAE7F0E080815E
:102D500084608083808182608083808181608083C1
:102D60008081806880830895823108F08251E82F45
:102D7000F0E0E451FE4FE49180917B00E3FB2227D9
:102D800020F930E095E0220F331F9A95E1F78F7D0F
:102D9000822B80937B00E7708091060120E4829F64
:102DA000C0011124E82BE0937C0080917A008064BC
:102DB00080937A0080917A0086FDFCCF8091780024
:102DC0002091790090E0922B089590E0FC013197DA
:102DD000EF30F105B0F5EA5AFF4F0C94532680917D
:102DE00080008F7703C0809180008F7D809380006A
:102DF000089580918000877FF9CF84B58F7702C0D6
:102E000084B58F7D84BD0895809190008F7707C031
:102E1000809190008F7D03C080919000877F809388
:102E2000900008958091C0008F7703C08091C0000A
:102E30008F7D8093C00008958091C200877F80932A
:102E4000C2000895CF93DF9390E0FC01EA5EFD4F4E
:102E50002491FC01EC5CFD4F8491882349F190E0C2
:102E6000880F991FFC01E259FD4FA591B491805A3A
:102E70009D4FFC01C591D4919FB7611108C0F89492
:102E80008C91209582238C93888182230AC06230A2
:102E900051F4F8948C91322F309583238C93888150
:102EA000822B888304C0F8948C91822B8C939FBFD3
:102EB000DF91CF9108950F931F93CF93DF931F92CC
:102EC000CDB7DEB7282F30E0F901E850FE4F8491EE
:102ED000F901EA5EFD4F1491F901EC5CFD4F04919C
:102EE0000023C9F0882321F069830E94E5166981D7
:102EF000E02FF0E0EE0FFF1FE05AFD4FA591B491D7
:102F00009FB7F8948C91611103C01095812301C083
:102F1000812B8C939FBF0F90DF91CF911F910F91C9
:102F20000895CF93DF93282F30E0F901E850FE4F4A
:102F30008491F901EA5EFD4FD491F901EC5CFD4FFB
:102F4000C491CC2391F081110E94E516EC2FF0E0A2
:102F5000EE0FFF1FEE5AFD4FA591B4912C912D233A
:102F600081E090E021F480E002C080E090E0DF9119
:102F7000CF910895FC01818D228D90E0805C9F4F60
:102F8000821B91098F7399270895FC01918D828D81
:102F9000981731F0828DE80FF11D858D90E008952E
:102FA0008FEF9FEF0895FC01918D828D981761F04E
:102FB000828DDF01A80FB11D5D968C91928D9F5F70
:102FC0009F73928F90E008958FEF9FEF089587E5AC
:102FD00099E1892B49F080E090E0892B29F00E944B
:102FE000571981110C9400000895FC01848DDF01B4
:102FF000A80FB11DA35ABF4F2C91848D90E001966C
:103000008F739927848FA689B7892C93A089B1895A
:103010008C9180648C93938D848D981306C0028864
:10302000F389E02D80818F7D80830895CF93DF9396
:10303000EC01888D8823C9F0EA89FB89808185FDB0
:1030400005C0A889B9898C9186FD0FC00FB607FC11
:10305000F5CF808185FFF2CFA889B9898C9185FF52
:10306000EDCFCE010E94F517E7CFDF91CF91089504
:10307000CF92DF92FF920F931F93CF93DF931F9214
:10308000CDB7DEB76C01DC015B969C915B975C96DB
:103090008C915C97981307C05096ED91FC915197D5
:1030A000808185FD32C0F601038D10E00F5F1F4F58
:1030B0000F731127F02EF601848DF81211C00FB690
:1030C00007FCF9CFD6015096ED91FC915197808184
:1030D00085FFF1CFC60169830E94F5176981EBCFA7
:1030E000838DE80FF11DE35AFF4F6083D6015B9695
:1030F0000C935B975296ED91FC915397808180627F
:10310000808381E058968C930DC0D6015696ED9140
:10311000FC91579760835096ED91FC915197808177
:103120008064808381E090E00F90DF91CF911F91C8
:103130000F91FF90DF90CF900895BF92CF92DF92D2
:10314000EF92FF92CF93DF93EC016A017B01B22EE5
:10315000E889F98982E08083411581EE580761058D
:103160007105A1F060E079E08DE390E0A7019601A0
:103170000E94312621503109410951095695479540
:1031800037952795211580E1380798F0E889F98966
:10319000108260E874E88EE190E0A70196010E9439
:1031A00031262150310941095109569547953795E6
:1031B0002795EC85FD853083EE85FF852083188E6D
:1031C000EC89FD89B082EA89FB89808180618083F6
:1031D000EA89FB89808188608083EA89FB89808114
:1031E00080688083EA89FB8980818F7D8083DF917D
:1031F000CF91FF90EF90DF90CF90BF9008951F92F6
:103200000F920FB60F9211242F938F939F93EF93EA
:10321000FF93E091DB04F091DC048081E091E10414
:10322000F091E20482FD12C090818091E4048F5FEE
:103230008F732091E504821751F0E091E404F0E0EF
:10324000E553FB4F958F8093E40401C08081FF918B
:10325000EF919F918F912F910F900FBE0F901F9024
:1032600018951F920F920FB60F9211242F933F9330
:103270004F935F936F937F938F939F93AF93BF937E
:10328000EF93FF938BEC94E00E94F517FF91EF9181
:10329000BF91AF919F918F917F916F915F914F916E
:1032A0003F912F910F900FBE0F901F9018958BECB0
:1032B00094E00E94BA1721E0892B09F420E0822FC4
:1032C00008951092CE041092CD0488EE93E0A0E011
:1032D000B0E08093CF049093D004A093D104B09336
:1032E000D20485EC92E09093CC048093CB048DECD7
:1032F00090E09093D8048093D7048CEC90E0909366
:10330000DA048093D90488EC90E09093DC048093F5
:10331000DB0489EC90E09093DE048093DD048AEC7A
:1033200090E09093E0048093DF048EEC90E0909323
:10333000E2048093E1041092E4041092E5041092F8
:10334000E6041092E7040895AF92BF92CF92DF9205
:10335000EF92FF920F931F93CF93DF936C017B014A
:10336000C0E0D0E000E010E0F601EC0FFD1F4AE005
:1033700050E06281C7010E945B1B5C016EE2C701E5
:103380000E94761A8A0D9B1D080F191F2196C330C3
:10339000D10551F74AE050E0F6016581C7010E946E
:1033A0005B1B800F911FDF91CF911F910F91FF90B9
:1033B000EF90DF90CF90BF90AF9008950F93FC01F6
:1033C00085ED92E091838083628343832483058328
:1033D0000F91089585ED92E09093690580936805BB
:1033E00010926A0510926B0510926C0510926D0593
:1033F000089508950E945E160E94F9198EE695E0E0
:103400000E9409200E94D604C7EED7E10E9407055A
:103410002097E1F30E94E717F9CF0C946D260C94E6
:103420000527CF92DF92EF92FF920F931F93CF93D6
:10343000DF936C017A01EB01E60EF71E00E010E06D
:10344000CE15DF0561F06991D601ED91FC910190F7
:10345000F081E02DC6010995080F191FF1CFC801B1
:10346000DF91CF911F910F91FF90EF90DF90CF9060
:1034700008956115710581F0DB010D900020E9F7D9
:10348000AD0141505109461B570BDC01ED91FC91F8
:103490000280F381E02D099480E090E00895EF929E
:1034A000FF920F931F93CF93DF938C01FB01C0E03A
:1034B000D0E064917F018FEFE81AF80A662361F08B
:1034C000D801ED91FC910190F081E02DC8010995A2
:1034D000C80FD91FF701EDCFCE01DF91CF911F911A
:1034E0000F91FF90EF9008950C94391ADC01ED9143
:1034F000FC910190F081E02D09940F931F93CF93DD
:10350000DF93EC016DE00E94761A8C016AE0CE0137
:103510000E94761A800F911FDF91CF911F910F911A
:1035200008950F931F93CF93DF93EC010E94391AF4
:103530008C01CE010E947D1A800F911FDF91CF91E7
:103540001F910F9108958F929F92AF92BF92CF9249
:10355000DF92EF92FF920F931F93CF93DF93CDB73C
:10356000DEB7A1970FB6F894DEBF0FBECDBF7C01CA
:10357000C42EE52FCB01D22E19A221E02D1510F07B
:103580002AE0D22E8E010F5D1F4F8D2C912CA12C85
:10359000B12C6C2D7E2FA50194010E9431268C2D1B
:1035A000D29E80191124015011098A3014F4805DD3
:1035B00001C0895CF8018083211531054105510561
:1035C00021F0C22EE32FCA01E4CFB801C7010E9447
:1035D000391AA1960FB6F894DEBF0FBECDBFDF91AA
:1035E000CF911F910F91FF90EF90DF90CF90BF9000
:1035F000AF909F908F900895CF92DF92EF92FF92BD
:103600000F931F93CF93DF93EC016A017B01211588
:10361000310579F4E881F9810190F081E02D642F82
:10362000DF91CF911F910F91FF90EF90DF90CF909E
:1036300009942A303105E9F477FF1AC06DE20E943F
:10364000761A8C0144275527BA014C195D096E0979
:103650007F092AE0CE010E94A31A800F911FDF91FB
:10366000CF911F910F91FF90EF90DF90CF90089531
:103670002AE0B701A601CE01DF91CF911F910F91F2
:10368000FF90EF90DF90CF900C94A31A9A01AB01BA
:10369000662757FD6095762F0C94FC1A211531058D
:1036A00041F4DC01ED91FC910190F081E02D642F5B
:1036B00009940C94A31A9A01462F50E060E070E040
:1036C0000C944E1B4F925F926F927F928F929F92BB
:1036D000AF92BF92CF92DF92EF92FF920F931F9320
:1036E000CF93DF93EC016A017B01B22E9A01AB010B
:1036F000C701B6010E941926882319F067ED72E010
:1037000027C026013701E89477F82FEF3FEF4FE706
:103710005FE7C301B2010E94192681110DC02FEF8E
:103720003FEF4FE75FE7C301B2010E946324181621
:103730001CF46BED72E00CC02FEF3FEF4FE75FE43E
:10374000C701B6010E94B2251816ACF46FED72E005
:10375000CE01DF91CF911F910F91FF90EF90DF90FD
:10376000CF90BF90AF909F908F907F906F905F9021
:103770004F900C94391A2FEF3FEF4FE75FECC701E2
:10378000B6010E94632487FDE1CF20E030E0A9016B
:10379000C701B6010E94632487FF0AC06DE2CE0113
:1037A0000E94761A8C01F7FAF094F7F8F09402C0B0
:1037B00000E010E0A12C60E070E080E09FE3AB143B
:1037C00041F020E030E040E251E40E946724A394FD
:1037D000F6CF9B01AC01C701B6010E94FF236B012C
:1037E0007C010E94D4242B013C010E9400259B01F6
:1037F000AC01C701B6010E94FE236B017C012AE0E7
:10380000B301A201CE010E94A31A080F191FBB2009
:1038100039F063EE72E0CE010E94391A080F191FC9
:103820007B2C772041F120E030E040E251E4C701F9
:10383000B6010E94B6256B017C010E94CF244B018A
:10384000AA2497FCA094BA2C2AE030E0B501A40188
:10385000CE010E94FC1A080F191FC501B4010E9475
:1038600002259B01AC01C701B6010E94FE236B013A
:103870007C017A94D6CFC801DF91CF911F910F912F
:10388000FF90EF90DF90CF90BF90AF909F908F9080
:103890007F906F905F904F9008950C94621B0F93F0
:1038A0001F93CF93DF93EC010E94FD156887798702
:1038B0008A879B87E881F9810680F781E02DCE0118
:1038C000099597FF15C00E94FD15088519852A8561
:1038D0003B85601B710B820B930B0C811D812E812C
:1038E0003F81601771078207930720F38FEF9FEFE7
:1038F000DF91CF911F910F9108950F931F93CF9355
:10390000DF93EC018B0164E372E00E949520C80113
:103910000E944F1C97FD05C0682FCE010E942221F6
:10392000F6CFCE01DF91CF911F910F910895409175
:103930007205509173052091700530917105421701
:103940005307B4F49091E8009570E1F39091E8008A
:1039500092FD19C08093F1008091720590917305DA
:1039600001968F739927892B19F48EEF8093E800C5
:1039700080917205909173050196909373058093E1
:10398000720581E0089580E00895FF920F931F93E0
:10399000CF93DF938C0188E10E94971C83E00E9403
:1039A000971CC0E0D0E0F801EC0FFD1F84910E944D
:1039B000971CF82E80E00E94971C8F2121F0219601
:1039C000CB30D10581F7DF91CF911F910F91FF90FF
:1039D0000895615030F02091F100FC0120830196A0
:1039E000F8CF289884E68093750508952FB7FC01D9
:1039F0002083F89467706093E9000895CF93DF9374
:103A00001F92CDB7DEB7682FCE0101960E94F61C3B
:103A10008091F20099819FBF0F90DF91CF9108951F
:103A2000FF920F931F93CF93DF9300D0CDB7DEB7F4
:103A3000F62E8A0190917405992311F057FF03C067
:103A40008FEF9FEF2BC0682FCE0101967A830E94E3
:103A5000F61C8091F20090E0A8017A81801791070E
:103A60000CF4AC01EF2DF72FF40E84E6FE1639F0BE
:103A70002898809375059091F1009193F7CF4115A7
:103A8000510521F08091F200882321F089818FBFB8
:103A9000CA0104C08BE68093E800F8CF0F900F9026
:103AA000DF91CF911F910F91FF900895CF93DF93F6
:103AB0001F92CDB7DEB741E050E0BE016F5F7F4F90
:103AC0000E94101D019719F4898190E002C08FEFC8
:103AD0009FEF0F90DF91CF910895CF93DF931F92C7
:103AE000CDB7DEB7682FCE0101960E94F61C9091EB
:103AF000E800892F807295FF04C09091F20080E465
:103B0000891B99819FBF0F90DF91CF9108956F928C
:103B10007F928F929F92AF92BF92CF92DF92EF925D
:103B2000FF920F931F93CF93DF931F92CDB7DEB712
:103B3000782E7B01C42EB52E80917405882369F000
:103B4000042F152F8AEFD82E872D8072982E9AE396
:103B5000A92E872D8074882E11C08FEF9FEF57C03C
:103B6000872D0E946D1D682E81110CC0DA94A9F377
:103B700061E070E080E090E00E942C1601151105D4
:103B800079F73BC0282F30E0021713070CF4602EA2
:103B9000672DCE0101960E94F61C8091E80085FFFA
:103BA00029C0262D30E0021B130B992039F06A94AE
:103BB0008FEF6816B1F01092F100F9CFF701862D62
:103BC00077FE07C0815058F094919093F1003196A0
:103BD000F9CF815020F091919093F100FACFE20E4D
:103BE000F31E8091E80085FF0FC00115110511F447
:103BF00081100AC089818FBFC1CF5D9884E6809310
:103C000076058C2D9B2D03C0A092E800F3CF0F907A
:103C1000DF91CF911F910F91FF90EF90DF90CF90A8
:103C2000BF90AF909F908F907F906F90089510926B
:103C3000E9001092730510927205909371058093BC
:103C400070050895CF92DF92FF920F931F93CF9349
:103C5000DF9300D0CDB7DEB7F82E8A016B010115D6
:103C60001105B1F0F601F7FE02C0849101C0808118
:103C700049835A830E94971C01501109FFEFCF1A04
:103C8000DF0A49815A818111EACF8FEF9FEF01C08E
:103C9000CA010F900F90DF91CF911F910F91FF906C
:103CA000DF90CF9008951F93CF93DF931F92CDB7EE
:103CB000DEB7162F2091E80022FFFCCF612F798319
:103CC0000E94E91C8BEF8093E800812F7981972F68
:103CD0000F90DF91CF911F910895CF93DF931F92A3
:103CE000CDB7DEB71982CE0101960E943E22CE01E9
:103CF00001960E94D922898190E00F90DF91CF91A7
:103D000008951F920F920FB60F921124EF92FF9217
:103D10000F931F932F933F934F935F936F937F93D3
:103D20008F939F93AF93BF93EF93FF93CF93DF93C3
:103D3000CDB7DEB76297DEBFCDBF1092E9008091AC
:103D4000E80083FFE9C068E0CE010A960E94E91C02
:103D500082EF8093E8009A8597FF05C08091E80084
:103D600080FFFCCF03C08EEF8093E800892F807620
:103D700009F0B7C08B85811105C01092F100109237
:103D8000F100C3C0282F2D7F213009F4BEC085303B
:103D900049F48091E80080FFFCCF8C858068809397
:103DA000E300B3C0863009F074C02D85E888F98837
:103DB000223071F580E090E02A8B0E94171E0E944D
:103DC0006D1E99E08E010F5F1F4FF801392F119280
:103DD0003A95E9F799832A892A8391E09E8390E8AE
:103DE00098879AEF99872091720530917305275F24
:103DF0003F4F3C832B838D83C7010E94171E49E0F0
:103E000050E0B80180E00E94221E0E946D1E7DC01D
:103E1000C7012A8B0E94171E2A89223241F482E2AE
:103E200090E00E94E422892B09F06FC072C021301B
:103E300069F488899989089711F420936F05809116
:103E40006F05811116C063E972E018C0233009F0D4
:103E500060C08C85882381F0823019F481EB92E078
:103E600005C0813009F055C085EA92E00E94C51C6A
:103E70004AC061E872E002C06DEB72E06115710545
:103E800009F447C0FB01449150E080E80E94221EE3
:103E90003CC0873009F43DC0883021F481E0809334
:103EA000F10033C0893089F5937099F5EDE7F2E0C0
:103EB00081E021E096E38093E9002093EB003491C8
:103EC0003093EC009093ED008F5F3196853099F739
:103ED0008EE78093EA001092EA008C858093740547
:103EE00014C0888999890E94171E8E85811105C08A
:103EF000CE010A960E94492206C0823051F4CE01BA
:103F00000A960E940C23882321F08EEF8093E8000C
:103F100003C081E28093EB0062960FB6F894DEBF97
:103F20000FBECDBFDF91CF91FF91EF91BF91AF91C8
:103F30009F918F917F916F915F914F913F912F91C1
:103F40001F910F91FF90EF900F900FBE0F901F9059
:103F500018958093E9008091F200882319F08AE394
:103F60008093E80008951F920F920FB60F921124CC
:103F70002F933F934F935F936F937F938F939F9371
:103F8000AF93BF93EF93FF938091E1001092E10014
:103F900083FF0FC01092E90091E09093EB00109224
:103FA000EC0092E39093ED001092740598E09093EA
:103FB000F00082FF1DC083E00E94A91F809176055A
:103FC000882339F080917605815080937605882387
:103FD00069F080917505882359F0809175058150AD
:103FE00080937505811104C0289A02C05D9AF1CFB3
:103FF000FF91EF91BF91AF919F918F917F916F91C1
:104000005F914F913F912F910F900FBE0F901F9096
:1040100018951092740581E08093D70080EA809310
:10402000D80082E189BD09B400FEFDCF61E070E0F7
:1040300080E090E00E942C1680E98093D8008CE00C
:104040008093E2001092E000559A209A0895FC01B6
:10405000808191810C940527CF93DF93EC018881B7
:104060009981009711F00E940527198218821D82FC
:104070001C821B821A82DF91CF9108950F931F93A8
:10408000CF93DF93EC018B016F5F7F4F8881998124
:104090000E949427009731F0998388831B830A83B9
:1040A00081E001C080E0DF91CF911F910F910895D1
:1040B000CF93DF93EC0188819981892B29F08A8144
:1040C0009B818617970760F4CE010E943E208823CB
:1040D00041F08C819D81892B19F4E881F98110824E
:1040E00081E0DF91CF910895EF92FF920F931F939C
:1040F000CF93DF93EC017B018A01BA010E94582023
:10410000811104C0CE010E942C2007C01D830C83A6
:10411000B701888199810E949328CE01DF91CF91C8
:104120001F910F91FF90EF900895FC011182108272
:1041300013821282158214826115710559F0FB01F8
:1041400001900020E9F7AF0141505109461B570B80
:104150000C9474200895EF92FF920F931F93CF93C6
:10416000DF93EC017B018A01BA010E945820811182
:1041700004C0CE010E942C2007C01D830C83B70110
:10418000888199810E946628CE01DF91CF911F918D
:104190000F91FF90EF9008950F931F93CF93DF93AC
:1041A00000D0CDB7DEB78C016115710561F0CB0190
:1041B00069837A830E946D28AC0169817A81C80184
:1041C0000E94AB2002C00E942C20C8010F900F90CB
:1041D000DF91CF911F910F910895FC011182108200
:1041E00013821282158214820C94CC20EF92FF92DB
:1041F0000F931F93CF93DF93EC017B010C811D8103
:104200006115710511F480E016C04115510591F05A
:10421000040F151FB8010E9458208823A1F328819C
:1042200039818C819D81B701820F931F0E94932851
:104230001D830C8381E0DF91CF911F910F91FF903F
:10424000EF900895CF93DF9300D0CDB7DEB76983A9
:104250001A8241E050E0BE016F5F7F4F0E94F6205E
:104260000F900F90DF91CF910895EF92FF920F93EF
:104270001F93CF93DF9300D000D0CDB7DEB77C0182
:10428000862F4AE050E08E010F5F1F4FB80190E08B
:104290000E949A28F80101900020E9F7AF014150EF
:1042A0005109401B510BB801C7010E94F6200F9025
:1042B0000F900F900F90DF91CF911F910F91FF9072
:1042C000EF900895FC0124813581232B31F421E006
:1042D00061157105A1F0FB0108C0FC01808191818D
:1042E0006115710531F421E0FC018081882339F0EA
:1042F00005C00E948A2821E0892B09F020E0822F46
:104300000895AF92BF92CF92DF92EF92FF920F93F8
:104310001F93CF93DF937C01DC01CD90DC9011974C
:10432000C114D10409F441C01496CD91DC911597C4
:104330002097D9F156018501BFEFAB1ABB0AF801EE
:104340008081992787FD90950E945E28892B99F797
:104350002197CC0DDD1D8881992787FD90950E94BE
:104360005E28892B91F4AE014F5F5F4F401B510BCC
:10437000D70115965C934E931497C016D10650F44E
:10438000B801C6010E94762805C0C017D10758F3AE
:104390002197E1CFD701ED91FC91119714968D9162
:1043A0009C911597E80FF91F1082DF91CF911F9113
:1043B0000F91FF90EF90DF90CF90BF90AF90089556
:1043C0000895CF93DF931F92CDB7DEB76983DC01E9
:1043D000ED91FC910280F381E02D41E050E0BE01BF
:1043E0006F5F7F4F09950F90DF91CF910895CF9325
:1043F000DF93EC018C859D8597FF05C082E00E94CC
:10440000561D9D878C878C859D85DF91CF91089562
:1044100083E00C94A91FFC018485958597FD06C057
:1044200082E00E94FE1C90E00196089582E00E94C6
:10443000FE1C90E00895FC018485958597FD05C0DC
:104440002FEF3FEF35872487089582E00C94561DA7
:10445000CF93DF93EC0180910E01882331F083E04C
:104460000E94871D1816190634F081E090E09B83A6
:104470008A8380E090E0DF91CF910895FC01208154
:104480002E5F208342E450E061EC72E080E80C94FF
:10449000221EFC0181819081913A59F4813209F008
:1044A0003CC047E050E067E071E080E00E94221EDF
:1044B00043C0913291F5803239F467E070E087E0D3
:1044C00091E00E94531E06C0823209F035C08281FD
:1044D00080930E018091070190910801A09109013C
:1044E000B0910A01803B9440A105B105C1F48091CF
:1044F0000E0180FD14C087E797E790930108809331
:1045000000082BE088E190E00FB6F894A89580931E
:1045100060000FBE209360000FC080E0089588E126
:104520000FB6F89480936000109260000FBEA895BB
:10453000109201081092000881E0089510927A0507
:104540001092790588EE93E0A0E0B0E080937B05BF
:1045500090937C05A0937D05B0937E0589EE92E053
:1045600090937805809377058FEF9FEF9093840564
:10457000809383050895FF920F931F93CF93DF934A
:10458000EC01F62EE881F9810480F581E02D099592
:104590008C01E881F9810680F781E02D6F2DCE0135
:1045A0000995C8019927DF91CF911F910F91FF9035
:1045B0000895FC0120812F5F208349E150E063E8EA
:1045C00073E080E80C94221E45E650E06CE973E04D
:1045D00080E80C94221EEF92FF920F931F93CF93CB
:1045E000DF931F92CDB7DEB789838B017A0141E05B
:1045F00050E0BE016F5F7F4F84E00E94871DA701DE
:10460000B80184E40E94871D0F90DF91CF911F9124
:104610000F91FF90EF900895FC0191818081813A84
:1046200031F481E0913091F0933089F411C08132FE
:1046300071F49B3021F482818093100105C09A307F
:1046400031F4828180930F0181E00895089580E024
:10465000089548E050E082E00C94EB22CF93DF9382
:10466000DC01683818F0E8E7E60F25C0E62FF0E037
:1046700067FF11C0E058F10981E090E001C0880FA8
:10468000EA95EAF714969C911497982B14969C93AC
:104690001497E0E010C0ED5FFC4FE491EE2309F4C5
:1046A00040C0E7FF08C014968C911497826014965E
:1046B0008C931497EF7716968C9116978E1741F17D
:1046C00017968C9117978E1719F118968C91189749
:1046D0008E17F1F019968C9119978E17C9F01A96CA
:1046E0008C911A978E17A1F01B968C911B978E17A1
:1046F00079F080E090E0ED01C80FD91F2E812111E3
:1047000002C0EE8305C0019686309105A1F709C06D
:10471000BD016C5F7F4FCD010E94292381E090E0B5
:1047200008C081E090E013969C938E93129780E0EE
:1047300090E0DF91CF910895683818F0E8E7E60F30
:1047400025C0E62FF0E067FF12C0E058F10921E034
:1047500030E001C0220FEA95EAF72095DC011496BB
:104760003C911497322314963C93E0E00FC0ED5F28
:10477000FC4FE491EE2329F1E7FF08C0DC01149619
:104780002C9114972D7F14962C93EF7720E030E036
:10479000EE2351F0DC01A20FB31F16964C91169731
:1047A0004E1302C016961C922F5F3F4F26303105E4
:1047B00079F7BC016C5F7F4F0E94292381E090E074
:1047C000089580E090E00895FC011682178210861B
:1047D0001186128613861482BC016C5F7F4F0C9485
:1047E00029231092D3051092CA051092C90589EFAA
:1047F00092E09093C8058093C70508955058BB2751
:10480000AA270ED075C166D130F06BD120F031F4FB
:104810009F3F11F41EF45BC10EF4E095E7FB51C11C
:10482000E92F77D180F3BA176207730784079507DA
:1048300018F071F49EF58FC10EF4E0950B2EBA2F8F
:10484000A02D0B01B90190010C01CA01A001112496
:10485000FF27591B99F0593F50F4503E68F11A1642
:10486000F040A22F232F342F4427585FF3CF4695D3
:1048700037952795A795F0405395C9F77EF41F16F5
:10488000BA0B620B730B840BBAF09150A1F0FF0FBF
:10489000BB1F661F771F881FC2F70EC0BA0F621FAB
:1048A000731F841F48F4879577956795B795F7959B
:1048B0009E3F08F0B3CF9395880F08F09927EE0F2D
:1048C000979587950895D9D008F481E008950CD084
:1048D0000FC107D140F0FED030F021F45F3F19F056
:1048E000F0C0511139C1F3C014D198F39923C9F321
:1048F0005523B1F3951B550BBB27AA2762177307E6
:10490000840738F09F5F5F4F220F331F441FAA1F99
:10491000A9F333D00E2E3AF0E0E830D09150504059
:10492000E695001CCAF729D0FE2F27D0660F771F07
:10493000881FBB1F261737074807AB07B0E809F0E9
:10494000BB0B802DBF01FF2793585F4F2AF09E3F7E
:10495000510568F0B6C000C15F3FECF3983EDCF350
:10496000869577956795B795F7959F5FC9F7880FF7
:10497000911D9695879597F90895E1E0660F771F49
:10498000881FBB1F621773078407BA0720F0621BDA
:10499000730B840BBA0BEE1F88F7E095089504D0D3
:1049A0006894B111D9C00895BCD088F09F5790F099
:1049B000B92F9927B751A0F0D1F0660F771F881F44
:1049C000991F1AF0BA95C9F712C0B13081F0C3D05F
:1049D000B1E00895C0C0672F782F8827B85F39F0FD
:1049E000B93FCCF3869577956795B395D9F73EF4A3
:1049F00090958095709561957F4F8F4F9F4F08954B
:104A0000E89409C097FB3EF4909580957095619568
:104A10007F4F8F4F9F4F9923A9F0F92F96E9BB271E
:104A20009395F695879577956795B795F111F8CF9A
:104A3000FAF4BB0F11F460FF1BC06F5F7F4F8F4F05
:104A40009F4F16C0882311F096E911C0772321F0FB
:104A50009EE8872F762F05C0662371F096E8862F93
:104A600070E060E02AF09A95660F771F881FDAF7EA
:104A7000880F9695879597F90895990F0008550F17
:104A8000AA0BE0E8FEEF16161706E807F907C0F0D4
:104A900012161306E407F50798F0621B730B840BDC
:104AA000950B39F40A2661F0232B242B252B21F4B6
:104AB00008950A2609F4A140A6958FEF811D811D56
:104AC000089597F99F6780E870E060E008959FEF90
:104AD00080EC089500240A94161617061806090695
:104AE000089500240A941216130614060506089564
:104AF000092E0394000C11F4882352F0BB0F40F4EC
:104B0000BF2B11F460FF04C06F5F7F4F8F4F9F4F2B
:104B1000089557FD9058440F551F59F05F3F71F0AD
:104B20004795880F97FB991F61F09F3F79F0879514
:104B30000895121613061406551FF2CF4695F1DF9D
:104B400008C0161617061806991FF1CF869571052D
:104B5000610508940895E894BB2766277727CB0161
:104B600097F908958ADF08F48FEF08950BD0C0CF2E
:104B7000B1DF28F0B6DF18F0952309F0A2CFA7CF58
:104B80001124EACFC6DFA0F3959FD1F3950F50E033
:104B9000551F629FF001729FBB27F00DB11D639FEF
:104BA000AA27F00DB11DAA1F649F6627B00DA11D95
:104BB000661F829F2227B00DA11D621F739FB00D3B
:104BC000A11D621F839FA00D611D221F749F3327AB
:104BD000A00D611D231F849F600D211D822F762F44
:104BE0006A2F11249F5750408AF0E1F088234AF041
:104BF000EE0FFF1FBB1F661F771F881F915050408D
:104C0000A9F79E3F510570F05CCFA6CF5F3FECF354
:104C1000983EDCF3869577956795B795F795E79578
:104C20009F5FC1F7FE2B880F911D9695879597F989
:104C3000089523DF880B990B089597FB072E16F430
:104C4000009407D077FD09D00E94592607FC05D0B3
:104C50003EF4909581959F4F0895709561957F4F93
:104C60000895A1E21A2EAA1BBB1BFD010DC0AA1FAD
:104C7000BB1FEE1FFF1FA217B307E407F50720F0C5
:104C8000A21BB30BE40BF50B661F771F881F991F40
:104C90001A9469F760957095809590959B01AC0189
:104CA000BD01CF010895EE0FFF1F0590F491E02D97
:104CB0000994AA1BBB1B51E107C0AA1FBB1FA61763
:104CC000B70710F0A61BB70B881F991F5A95A9F7B5
:104CD00080959095BC01CD010895CF93DF938230EC
:104CE000910510F482E090E0E091D605F091D705AF
:104CF00020E030E0A0E0B0E0309739F14081518110
:104D000048175907B8F04817590771F48281938101
:104D1000109729F013969C938E9312972CC0909322
:104D2000D7058093D60527C02115310531F04217EC
:104D3000530718F0A901DB0101C0EF019A01BD0181
:104D4000DF010280F381E02DD7CF21153105F9F085
:104D5000281B390B2430310580F48A819B81611531
:104D6000710521F0FB019383828304C09093D705E2
:104D70008093D605FE01329644C0FE01E20FF31F78
:104D80008193919322503109398328833AC020912D
:104D9000D4053091D505232B41F4209102013091A7
:104DA00003013093D5052093D40520910001309163
:104DB00001012115310541F42DB73EB740910401A1
:104DC00050910501241B350BE091D405F091D505D8
:104DD000E217F307A0F42E1B3F0B2817390778F0D2
:104DE000AC014E5F5F4F2417350748F04E0F5F1F31
:104DF0005093D5054093D4058193919302C0E0E090
:104E0000F0E0CF01DF91CF910895CF93DF9300972A
:104E100009F487C0FC01329713821282C091D60533
:104E2000D091D705209781F420813181280F391F37
:104E30008091D4059091D5058217930779F5F09369
:104E4000D505E093D4056DC0DE0120E030E0AE175B
:104E5000BF0750F412964D915C9113979D01411537
:104E6000510509F1DA01F3CFB383A2834081518167
:104E7000840F951F8A179B0771F48D919C91119750
:104E8000840F951F02969183808312968D919C9139
:104E90001397938382832115310529F4F093D70565
:104EA000E093D6053EC0D9011396FC93EE9312977A
:104EB0004D915D91A40FB51FEA17FB0779F480812E
:104EC0009181840F951F0296D90111969C938E9320
:104ED0008281938113969C938E931297E0E0F0E089
:104EE0008A819B81009719F0FE01EC01F9CFCE0178
:104EF000029628813981820F931F2091D405309129
:104F0000D5052817390769F4309729F41092D70589
:104F10001092D60502C013821282D093D505C09399
:104F2000D405DF91CF910895A0E0B0E0EAE9F7E27F
:104F30000C94E128EC01CB01209719F40E946D2616
:104F4000B8C0FE01E60FF71F9E0122503109E2179B
:104F5000F30708F4ACC0D9010D911C911197061705
:104F60001707B8F00530110508F49FC0A801445098
:104F700051094617570708F498C002501109061B3B
:104F8000170B019311936D937C93CF010E9405271A
:104F90008CC05B01A01AB10A4E01800E911EA09137
:104FA000D605B091D705612C712C60E070E01097A8
:104FB00009F449C0A815B905C9F5ED90FC90119701
:104FC000670142E0C40ED11CCA14DB0478F147012A
:104FD0008A189B08640142E0C40ED11C1296BC9052
:104FE00012971396AC91B5E0CB16D10440F0B28283
:104FF000A38391828082D9018D939C9309C00E5F17
:105000001F4F0E0D1F1DF90111830083EB2DFA2F89
:105010006115710531F0DB011396FC93EE93129745
:1050200044C0F093D705E093D6053FC06D917C91C5
:1050300011976616770608F43B01BD0112960D9094
:10504000BC91A02DB4CF6091D4057091D5056815A1
:105050007905E9F468167906D0F440910001509181
:1050600001014115510541F44DB75EB7609104014E
:1050700070910501461B570BE417F507C0F4F09338
:10508000D505E093D405F901918380830EC00E9479
:105090006D267C01009759F0A801BE010E94762878
:1050A000CE010E940527C70104C0CE0102C080E0E6
:1050B00090E0CDB7DEB7EEE00C94FD2891116AC008
:1050C000803219F089508550D0F70895FB01DC013A
:1050D00005900D920020E1F70895FC010590002055
:1050E000E9F7809590958E0F9F1F0895FB01DC01D5
:1050F00002C001900D9241505040D8F70895FB0135
:10510000DC010D900020E9F7119701900D9200202D
:10511000E1F70895FB01DC018D91019080190110E8
:10512000D9F3990B0895FB01DC0101900D92002049
:10513000E1F708954532510520F4423010F00C9407
:10514000A528FB011082CB010895BB274A3031F41A
:10515000992322F4BDE2909581959F4F0C94B1283C
:10516000BB27FB015527AA27880F991FAA1FA41741
:1051700010F0A41B83955051B9F7A05DAA3308F035
:10518000A95DA193009779F7B111B1931192CB0169
:105190000C94CD28992788270895DC01FC01672FFE
:1051A00071917723E1F7329704C07C916D937083FE
:1051B0006291AE17BF07C8F308952F923F924F92A6
:1051C0005F926F927F928F929F92AF92BF92CF9297
:1051D000DF92EF92FF920F931F93CF93DF93CDB7A0
:1051E000DEB7CA1BDB0B0FB6F894DEBF0FBECDBF18
:1051F00009942A88398848885F846E847D848C84E9
:105200009B84AA84B984C884DF80EE80FD800C81F1
:105210001B81AA81B981CE0FD11D0FB6F894DEBFD4
:105220000FBECDBFED01089514E0C8E1D4E004C085
:10523000FE010E9455262296CC31D107C9F7F89479
:02524000FFCF9E
:105242000000D80580000100E1000000000000011C
:1052520001585858585858583130307B20224C69E0
:10526200676874223A002C20224164647265737369
:10527200223A2022416E616C6F67302200207D004D
:105282007B226572726F72223A224661696C656492
:1052920020746F20726561642066726F6D204448CD
:1052A200542073656E736F7221227D007B20224829
:1052B200756D696469747950657263656E74223ABA
:1052C200002C202254656D7043223A002C20225477
:1052D200656D7046223A00202C202248656174498F
:1052E2006E64657846223A002C202241646472651D
:1052F2007373223A20224469676974616C313022E7
:10530200007B20226572726F7222203A20220053A3
:1053120074617475733A2032303000436F6E746575
:105322006E742D747970653A206170706C69636176
:1053320074696F6E2F6A736F6E0044533138423254
:1053420030206E6F7420666F756E643A20005B00C9
:105352007B202241646472657373223A2022002208
:10536200202C002254656D7043223A20002D3939D9
:1053720039002C20005D007B20224C696768742272
:105382003A20002C2022444854223A20002C202289
:1053920054656D706572617475726573223A20008E
:1053A20074656D700074656D7073006C6967687404
:1053B200006572720000000000C2080209D409DE12
:1053C20009F8096B09000000003B0A111A900A9AB9
:1053D2000AB20A3A0A000000008A0C600B280D3259
:1053E2000D7F0DF90AFA0AF70B4A0DA20BCC0BF648
:1053F2000A00000000030E111A9D0D5E00BC00772A
:1054020001000000003818111ABA17D317C5171671
:105412001800000000A4196E616E00696E66006FCC
:105422007666002E0000000000E12128220B221BDC
:1054320022F721082200000000BB22111A2E239C11
:0454420023E423003C
:00000001FF
