:100000000C940E020C9436020C9436020C943602B8
:100010000C9436020C9436020C9436020C94360280
:100020000C9436020C9436020C9445230C94132243
:100030000C9436020C9436020C9436020C94360260
:100040000C9436020C9436020C9436020C94360250
:100050000C9436020C9436020C9436020C9433192C
:100060000C9436020C947F1C0C94B11C0C94360238
:100070000C9436020C9436020C9436020C94360220
:100080000C9436020C9436020C9436020C94360210
:100090000C9436020C9436020C9436020C94360200
:1000A0000C9436020C9436020C9436027D1A801A97
:1000B0006F1A731A791AA11AA11AA11A841A881A26
:1000C0008C1A921A961AA11A9C1A72756E2D627267
:1000D000696467650A000A000A00302E302E302E4F
:1000E00030003132372E302E302E3100005EBCE22F
:1000F000613FDD83C29C7E20A3FD1F419DC3217F04
:10010000FCA2401E5F01E3BD3E6082DC237D9FC1F7
:10011000421CFEA0E1BF5D0380DE3C62BEE0025CEB
:10012000DF81633D7C22C09E1D43A1FF4618FAA4D7
:1001300027799BC584DA3866E5BB5907DB856739C3
:10014000BAE406581947A5FB7826C49A653BD987B7
:10015000045AB8E6A7F91B45C6987A24F8A6441AAB
:1001600099C7257B3A6486D85B05E7B98CD2306E97
:10017000EDB3510F4E10F2AC2F7193CD114FADF383
:10018000702ECC92D38D6F31B2EC0E50AFF1134D77
:10019000CE90722C6D33D18F0C52B0EE326C8ED06B
:1001A000530DEFB1F0AE4C1291CF2D73CA94762857
:1001B000ABF517490856B4EA6937D58B5709EBB543
:1001C00036688AD495CB2977F4AA4816E9B7550B37
:1001D00088D6346A2B7597C94A14F6A8742AC8962B
:1001E000154BA9F7B6E80A54D7896B3507060504FD
:1001F0000100080A0B0C0D090000000200090F00A5
:1002000000030401000C00000000000000000000DA
:10021000000000000000040802011040804010208F
:1002200040804080080204018040201002011080BC
:1002300010204040040404040403040502020202E6
:10024000040302020202060606060606040402026F
:100250000204000000002300260029002C002F00CB
:1002600000000000250028002B002E0031000000B7
:100270000000240027002A002D00300000C18081EA
:10028000C11201000202000040412341800001012F
:1002900002000112010002000000404123418000E1
:1002A000010102000141726475696E6F204C4C437C
:1002B0000041726475696E6F2059756E0004030900
:1002C00004080B00020202010009040000010202FE
:1002D0000000052400100105240101010424020688
:1002E00005240600010705810310004009040100F0
:1002F000020A000000070502024000000705830211
:1003000040000000000000000000002A2B28000030
:1003100000000000000000000000000000000000DD
:100320000000002C9EB4A0A1A2A434A6A7A5AE36BE
:100330002D3738271E1F20212223242526B333B62C
:100340002EB7B89F8485868788898A8B8C8D8E8FFF
:10035000909192939495969798999A9B9C9D2F3102
:1003600030A3AD350405060708090A0B0C0D0E0F66
:10037000101112131415161718191A1B1C1DAFB1E2
:10038000B0B50009040200010300000009210101C9
:1003900000012265000705840340000105010902F0
:1003A000A1010901A1008501050919012903150011
:1003B00025019503750181029501750581030501EC
:1003C0000930093109381581257F750895038106A3
:1003D000C0C005010906A1018502050719E029E74A
:1003E00015002501750195088102950175088103A5
:1003F0009506750815002565050719002965810012
:10040000C0003306AC0A4B0C530C5A0C12111712D5
:10041000E11C6A1D8726DA2780064F0C11241FBEB7
:10042000CFEFDAE0DEBFCDBF16E0A0E0B1E0E8E458
:10043000FAE502C005900D92A230B107D9F729E084
:10044000A2E0B6E001C01D92AD33B207E1F714E0BF
:10045000C8E1D4E004C02297FE010E943E2AC230C7
:10046000D107C9F70E947A1D0C94172D0C94000037
:10047000CF93DF93EC016BE171E082E997E00E949A
:10048000061EBE0182E997E00E94F81D6EEC71E045
:1004900082E997E00E94061E60E371E082E997E03E
:1004A0000E94061E68E571E082E997E00E94061E40
:1004B00065E771E082E997E00E94061E6EE871E050
:1004C00082E997E00E94061E66EB71E082E997E000
:1004D0000E94061E61ED71E082E997E00E94061E0F
:1004E00066EF71E082E997E00E94061E69E172E022
:1004F00082E997E00E94061E69E472E082E997E0D3
:100500000E94061E62E672E082E997E00E94061EE3
:100510006FE673E082E997E0DF91CF910C94061EBD
:100520006AE772E082E997E00E94061E82E10E947B
:10053000341A4AE050E0BC0182E997E00E94D81EDC
:100540006EE673E082E997E00C94061E8F929F920C
:10055000AF92BF92CF92DF92EF92FF920F931F93D1
:1005600084E897E00E94EE166093F5067093F60615
:100570008093F7069093F80660E084E897E00E9485
:100580007A166093F9067093FA068093FB069093AF
:10059000FC0661E084E897E00E947A166B017C011A
:1005A0006093FD067093FE068093FF06909300070C
:1005B0008090F5069090F606A090F706B090F806A9
:1005C000A5019401C501B4010E94022A811116C03F
:1005D0006091F9067091FA068091FB069091FC06F5
:1005E0009B01AC010E94022A811108C0A70196015B
:1005F000C701B6010E94022A882319F065E872E05B
:1006000062C095018401B701A60184E897E00E94C9
:10061000DF146093010770930207809303079093A0
:10062000040761EB72E082E997E00E94061E4091A8
:10063000F5065091F6066091F7067091F80622E0F3
:1006400030E082E997E00E94DF1F66EC72E082E909
:1006500097E00E94061E4091F9065091FA066091BB
:10066000FB067091FC0622E030E082E997E00E94F0
:10067000DF1F61ED72E082E997E00E94061E409163
:10068000FD065091FE066091FF067091000722E082
:1006900030E082E997E00E94DF1F6CED72E082E9B2
:1006A00097E00E94061E4091010750910207609159
:1006B00003077091040722E030E082E997E00E948E
:1006C000DF1F6FE673E082E997E01F910F91FF90C3
:1006D000EF90DF90CF90BF90AF909F908F900C9451
:1006E000061ECF92DF92EF92FF9281E697E00E9482
:1006F00031146DEE72E082E997E00E94061E1092BE
:10070000F4061092F3062091F3063091F4068091DE
:100710005F0790916007281739070CF081C06FEED2
:1007200072E082E997E00E94061E61EF72E082E9C2
:1007300097E00E94061E6091F3067091F40693E024
:10074000660F771F9A95E1F7615F784F40E150E0BF
:1007500082E997E00E94D81E6EEF72E082E997E08E
:100760000E94061E62E073E082E997E00E94061E86
:100770006091F3067091F406FB01EB5FF84F808106
:100780008823E9F083E0660F771F8A95E1F7615FC0
:10079000784F81E697E00E94C2146B017C01609360
:1007A000F5067093F6068093F7069093F80620E01E
:1007B00030E048EC52EC0E944C2887FF07C06CE008
:1007C00073E082E997E00E94061E08C022E030E054
:1007D000B701A60182E997E00E94DF1F6FE673E090
:1007E00082E997E00E94061E80915F079091600762
:1007F00001972091F3063091F4062817390731F05C
:1008000061E173E082E997E00E94061E8091F306A1
:100810009091F40601969093F4068093F30673CFBB
:1008200064E173E082E997E0FF90EF90DF90CF9072
:100830000C94061ECF93C82F66E173E082E997E01F
:100840000E94061E0E94900262E273E082E997E035
:100850000E94061E0E94A6026CE273E082E997E005
:100860000E94061E0E947103CC2339F06FE673E0EC
:1008700082E997E0CF910C94061ECF9108956FE323
:1008800073E082E997E00E94061E61EC76E082E95F
:1008900097E00E94061E6EEA72E082E997E00C94EF
:1008A000061E6DE473E082E997E00E94061EE09167
:1008B0008207F09183070994FF920F931F93CF93C0
:1008C000DF9300D000D000D0CDB7DEB78C01F62E7C
:1008D0006BE473E08DE596E00E947C2CB8018DE519
:1008E00096E00E94682C6BE473E08DE596E00E9430
:1008F000682C61E773E0CE0101960E942724BE01B7
:100900006F5F7F4F82E096E00E94FC0DCE01019662
:100910000E94B923FF2019F068E773E002C06DE977
:1009200073E0CE0101960E942724BE016F5F7F4FC6
:1009300082E096E00E94EC0CCE0101960E94B92361
:100940006DE576E0CE0101960E942724BE016F5F1F
:100950007F4F82E096E00E94EC0CCE0101960E944F
:10096000B92382E096E00E94B50D82E096E00E94F5
:10097000620D8111FACFFF2029F16BEB73E082E960
:1009800097E00E94061EB80182E997E00E94061EC9
:100990006EEC73E082E997E00E94061E82E096E02A
:1009A0000E94B70C1816190654F482E096E00E94D3
:1009B000C10C682F82E997E00E94081EEFCF6EEA13
:1009C00072E014C082E096E00E94B70C1816190677
:1009D000CCF36BEB73E082E997E00E94061EB8014E
:1009E00082E997E00E94061E6DE673E082E997E0D7
:1009F0000E94061E26960FB6F894DEBF0FBECDBF2E
:100A0000DF91CF911F910F91FF90089569E074E0FD
:100A100082E997E00E94231E65E174E082E997E095
:100A20000E94231E82E997E00C940F1E1F93CF9320
:100A3000DF9381E697E00E94321290E09093600786
:100A400080935F071092F4061092F30611E0C091B4
:100A5000F306D091F40680915F0790916007C81764
:100A6000D907DCF564E374E081EC96E00E947C2C0D
:100A7000BE0123E0660F771F2A95E1F7615F784F8B
:100A80004C2F81E697E00E9444122091F3063091AA
:100A9000F406F901EB5FF84F811114C010824AE0AF
:100AA00067E576E0C90101960E94A82CBC0181ECA3
:100AB00096E00E94682C62E173E081EC96E00E946F
:100AC000682C01C010838091F3069091F406019682
:100AD0009093F4068093F306BACFDF91CF911F91E4
:100AE0000895CF93DF9300D000D000D0CDB7DEB70C
:100AF000BC01CE0101960E942724BE016F5F7F4F8B
:100B000082E096E00E94600ECE0101960E94B92319
:100B100082E096E00E94620D8111FACF82E096E0B9
:100B20000E94B70C1816190674F482E096E00E9431
:100B3000C10C80935C068A3089F3682F82E997E0C4
:100B40000E94081EEBCF26960FB6F894DEBF0FBEAC
:100B5000CDBFDF91CF91089568E474E082E997E01A
:100B60000E94061E87E594E00E9471056DE673E021
:100B700082E997E00C94061E80E00E941A0461E767
:100B800074E082E997E00E94061E0E94AC056FE6C1
:100B900073E082E997E00C94061E62E874E082E953
:100BA00097E00E94061E8DE894E00E9471056DE6B4
:100BB00073E082E997E00C94061E0F931F93CF9386
:100BC000DF9300D000D000D0CDB7DEB78C0165EB4D
:100BD00074E0CE0101960E942724BE016F5F7F4F13
:100BE000C8010E946625192FCE0101960E94B923E3
:100BF000812F8095881F8827881F26960FB6F89426
:100C0000DEBF0FBECDBFDF91CF911F910F91089531
:100C10000F931F93CF93DF9300D000D000D0CDB7B8
:100C2000DEB78C0164EC74E0CE0101960E942724AB
:100C3000BE016F5F7F4FC8010E946625192FCE014C
:100C400001960E94B923812F8095881F8827881FCD
:100C500026960FB6F894DEBF0FBECDBFDF91CF91C1
:100C60001F910F9108950F9300E020E040E060E0B5
:100C70008FEE97E00E945E1D45EF57E063EB75E154
:100C800085EE97E00E94BC1165EF77E082E997E07E
:100C90000E94501026E046E16AE084E897E00E9456
:100CA000C61462E084E797E00E946C1864E777E07E
:100CB00081E697E00E942312109205061092040626
:100CC00088EE93E0A0E0B0E08093060690930706DC
:100CD000A0930806B093090688E895E09093030670
:100CE0008093020685EF97E090930F0680930E069F
:100CF0001092140610921506109216060F91089580
:100D000082E096E00E94F50D82E997E00C9467106E
:100D100061E08DE00E94A21A60E08DE00E94DB1A83
:100D200026E040E950ED63E070E08091FE0790918D
:100D3000FF070E941D1C85EF97E00E94A50984E82B
:100D400097E00E94CD1481E697E00E944F130E9425
:100D500016051092EC0785EE97E00E941D1161E0E8
:100D60008DE00C94DB1ACF93DF93CDB7DEB7C95576
:100D7000D1090FB6F894DEBF0FBECDBF65EE77E0A8
:100D8000CE0101960E94CA11BE016F5F7F4F82E9BA
:100D900097E00E946D10CE0101960E94671080912D
:100DA000A207882309F4BDC062E977E0CE018C5A1E
:100DB0009F4F0E940F20CE018C5A9F4F0E946A25A0
:100DC000CE018C5A9F4F0E94DD05882391F0CE0101
:100DD0008C5A9F4F0E940806882321F081E00E94D0
:100DE0001A0496C064ED74E082E997E00E94061E42
:100DF0008FC00E94060568EE74E0CE018C5A9F4FAA
:100E00000E942B25882319F00E94A60281C06DEE56
:100E100074E0CE018C5A9F4F0E942B25882319F035
:100E20000E94710375C063EF74E0CE018C5A9F4F2E
:100E30000E942B25882319F00E94900269C069EF57
:100E400074E0CE018C5A9F4F0E942B25882319F005
:100E50000E943F045DC06DEF74E0CE018C5A9F4F3D
:100E60000E942B25882319F00E94510451C063E091
:100E700075E0CE018C5A9F4F0E942B25882319F0D4
:100E80000E94AC0545C068E075E0CE018C5A9F4FCA
:100E90000E942B25882319F00E94BC0539C06DE003
:100EA00075E0CE018C5A9F4F0E942B25882321F09C
:100EB00060E085E195E00CC068E275E0CE018C5AF7
:100EC0009F4F0E942B25882331F061E080E395E05D
:100ED0000E945C041DC064E475E0CE018C5A9F4FF3
:100EE0000E942B25882329F082E595E00E94CD05FC
:100EF0000FC0BE016C5A7F4FCE0101960E9475242F
:100F0000CE0101960E943802CE0101960E94B923BB
:100F100082E997E00E94220FCE018C5A9F4F0E94D7
:100F2000B92361E08DE00E94DB1A62E370E080E0AB
:100F300090E00E94AC19C75ADF4F0FB6F894DEBF9D
:100F40000FBECDBFDF91CF910895FC012381348185
:100F50002627022E2295207F2025032E322F229530
:100F60002F700226269532272327220F220F220FC9
:100F70002025FC01348323830895CF93DF93EC0174
:100F80008D819E81DC01ED91FC916C810190F0815D
:100F9000E02D09958D819E81DC01ED91FC91019000
:100FA000F081E02D6B81DF91CF9109948F929F9218
:100FB000AF92BF92CF92DF92EF92FF92CF93DF93E7
:100FC000EC016B010E947D194B015C01E12CF12CBD
:100FD0008D819E81DC01ED91FC910680F781E02DF1
:100FE000099597FF0DC00E947D19681979098A0932
:100FF0009B096C157D058E059F0550F38FEF9FEFC4
:10100000DF91CF91FF90EF90DF90CF90BF90AF90A6
:101010009F908F900895CF93DF93EC018D819E81F7
:10102000DC01ED91FC910480F581E02D0995181605
:10103000190654F48D819E81DC01ED91FC910680AE
:10104000F781E02D0995EACFDF91CF9108952F9296
:101050003F924F925F926F927F928F929F92AF9248
:10106000BF92CF92DF92EF92FF920F931F93CF9395
:10107000DF93CDB7DEB72D970FB6F894DEBF0FBE66
:10108000CDBF3C011B013C832B83BF82AE82580144
:10109000AC0CBD1CA40EB51EBD824B2C512CCA013C
:1010A000860F971F99878887D901A00FB11FBB872B
:1010B000AA87F601EE0DFF1DFD87EC87D301189678
:1010C0008C91581608F026C1EFEFFFEFD30114966C
:1010D000FC93EE93139715968D919C911697DC01D6
:1010E000ED91FC910190F081E02D6FEF09956FEF8C
:1010F000C3010E94A507F30185819681DC01ED9172
:10110000FC910190F081E02DD3016C910995F301E0
:101110006081C3010E94A507D30115968D919C9112
:101120001697DC01ED91FC910190F081E02D6D812D
:101130000995642DC3010E94A507F301858196815D
:10114000DC01ED91FC910190F081E02D6A2D099573
:101150006A2DC3010E94A507610188859985C8167B
:10116000D906A1F0F301858196818601DC01ED911C
:10117000FC910190F081E02DD6016D916D010995F2
:10118000F8016081C3010E94A507E7CFCB80DC8016
:101190008A859B85C816D906B1F0D30115968D9125
:1011A0009C9116978601DC01ED91FC910190F081F4
:1011B000E02DD6016D916D010995F8016081C301A3
:1011C0000E94A507E5CF87018C859D850817190723
:1011D000B1F0D30115968D919C9116976801DC01B1
:1011E000ED91FC910190F081E02DD8016D918D0180
:1011F0000995F6016081C3010E94A507E5CFC301EF
:101200000E94BD0764E670E0C3010E94D6078F3FCD
:10121000910509F074C0EFEFFFEFD3011496FC9332
:10122000EE9313976FEFC3010E94A50765E070E08E
:10123000C3010E94D607D3016C91262F30E082179C
:10124000930709F05CC0C3010E94A5076AE070E043
:10125000C3010E94D6078C0197FD51C0682FC301BE
:101260000E94A5076AE070E0C3010E94D6076C01E6
:1012700097FD45C0682FC3010E94A5070A83198204
:1012800009811A810C0D1D1DC12CD12C65E070E067
:10129000C301C016D106A1F0C814D90489F00E9478
:1012A000D60797FD09C0EE81FF81EC0DFD1D8083FF
:1012B000682FC3010E94A507BFEFCB1ADB0AE6CF58
:1012C0000E94D6076C0197FD1AC065E070E0C3016B
:1012D0000E94D60797FD13C0DC2CCC24C80ED91E63
:1012E000F301838194818C159D0549F480818F5F82
:1012F0008083C8018016910678F4C4010DC0539410
:1013000064E670E080E090E00E94AC19C3010E94A6
:101310000B08D4CE8FEF9FEF2D960FB6F894DEBF5B
:101320000FBECDBFDF91CF911F910F91FF90EF9036
:10133000DF90CF90BF90AF909F908F907F906F90F5
:101340005F904F903F902F9008953F924F925F9201
:101350006F927F928F929F92AF92BF92CF92DF92C5
:10136000EF92FF920F931F93CF93DF93CDB7DEB72A
:101370002E970FB6F894DEBF0FBECDBF3C01DC0147
:1013800017968C9117978111CFC081E017968C9397
:10139000C3010E940B0868EE73E080E090E00E94B9
:1013A000AC19F30185819681DC01ED91FC910480FB
:1013B000F581E02D09951816190654F355E0552EC0
:1013C0004424439462E3362EE1E1F1E0DE01169617
:1013D000852D01900D928A95E1F7F3014086812CCD
:1013E000912CA12CB12CC12CD12CE12CF12C00E0A2
:1013F00010E020E030E045E050E0BE016A5F7F4F42
:10140000C3010E94270863E0D30115968D919C913A
:1014100016970E94081E6AEF70E080E090E00E943C
:10142000AC1968ED70E0F301858196810E94D31DAF
:101430006AEF70E080E090E00E94AC1966ED70E029
:10144000D30115968D919C9116970E94D31D64EF40
:1014500071E080E090E00E94AC196AEC70E0F3016A
:10146000858196810E94D31D64EF71E080E090E059
:101470000E94AC19C3010E940B08E6E1F1E0DE0115
:101480001196852D01900D928A95E1F7D30118965A
:101490003C9244E0842E912CFE013B965F0120E0BB
:1014A00030E045E050E0BE016F5F7F4FC3010E9416
:1014B00027088F3FFFEF9F0739F468EE73E080E065
:1014C00090E00E94AC1980CF2B852111FFCF0497AB
:1014D00011F52C8530E02053310944E6429FC001CC
:1014E000439F900D11242D8530E0205331096AE08F
:1014F000629FA001639F500D1124840F951F2E85BC
:1015000030E020533109820F931FD30112969C9330
:101510008E93119705C084E690E0F3019283818356
:1015200082E3D30118968C932E960FB6F894DEBF03
:101530000FBECDBFDF91CF911F910F91FF90EF9024
:10154000DF90CF90BF90AF909F908F907F906F90E3
:101550005F904F903F9008951092F50780E398E0D8
:101560009093FB078093FA071092FC071092FD07F7
:101570009093FF078093FE0708958F929F92AF92FA
:10158000BF92CF92DF92EF92FF920F931F93480189
:101590005901C12CD12CE12CF12C00E010E020E00D
:1015A00030E00E9427081F910F91FF90EF90DF908D
:1015B000CF90BF90AF909F908F9008950F931F93FF
:1015C00000E010E020E030E00E94BD0A1F910F9182
:1015D0000895CF93DF9300D0CDB7DEB7DC015296EC
:1015E0008C915297882389F080E589836A8342E051
:1015F00050E0BE016F5F7F4F1C968D919C911D97AF
:101600000E94DE0A81E090E01FC05596ED91FC91AA
:10161000569753968C91539791E0980F53969C93BD
:101620005397E80FF11D608353969C9153975496FE
:101630008C915497981308C0ED91FC9111970284F6
:10164000F385E02DCD0109950F900F90DF91CF919B
:101650000895AF92BF92CF92DF92EF92FF920F93D5
:101660001F93CF93DF9300D0CDB7DEB75C017A0133
:10167000DC0152968C91811104C08B01E60EF71E9D
:1016800041C06A01BFEFCB1ADB0AC60169837A83C6
:101690000E948F1D8C01FC0180E58193A701698167
:1016A0007A81CF010E945F2CA601B801F5018485E3
:1016B00095850E94DE0A0115110519F0C8010E94E6
:1016C000931DC70122C0D5015596ED91FC91569707
:1016D00053968C91539791E0980F53969C93D80111
:1016E0009D918D01E80FF11D9083F5019389848907
:1016F000981308C00190F081E02D0284F385E02D5D
:10170000C50109950E151F05F1F60F900F90DF9199
:10171000CF911F910F91FF90EF90DF90CF90BF90EE
:10172000AF900895CF93DF93EC018A8981110AC0AD
:101730004B8950E06D897E898C859D850E94DE0AEB
:1017400081E08B8BDF91CF910895FC01138212828F
:1017500048EE53E060E070E044835583668377830E
:101760008AE695E09183808385EF97E0958784876B
:1017700016861786118A108A81E0828B0895CF938E
:10178000DF93EC018A89811108C08D899E890097B9
:1017900011F00E94931D81E08A8BDF91CF91089513
:1017A000EF92FF920F931F93CF93DF9300D0CDB7AB
:1017B000DEB77C01FC018685811114C0178680E7A5
:1017C000898380E28A832089318900E210E042E047
:1017D00050E0BE016F5F7F4F848595850E94BD0AF2
:1017E000F70186870F900F90DF91CF911F910F9196
:1017F000FF90EF900895CF93DF93EC010E94D00B00
:101800008E8590E0DF91CF910895CF93DF93EC0127
:101810000E94D00B8E85882369F081508E87E889DD
:10182000F9898F8591E0980F9F87E80FF11D8081DE
:1018300090E002C08FEF9FEFDF91CF910895CF939B
:10184000DF93EC010E94D00B8E85882341F08F85B9
:10185000E889F989E80FF11D808190E002C08FEFDF
:101860009FEFDF91CF910895CF93DF93EC010E941A
:10187000BF0B88899989009721F00E94931D198ACE
:10188000188ADF91CF9108952AE635E0FC01318373
:1018900020830C94340C80E098E00C94A50B80E03D
:1018A00098E00C94440C85EF97E09093180880938F
:1018B0001708089585EF97E090931A088093190808
:1018C000089508950F931F93CF93DF9300D01F9235
:1018D000CDB7DEB729E42983FC0126852A836B83F3
:1018E00000E010E020E030E043E050E0BE016F5F38
:1018F0007F4F848595850E94BD0A81E090E00F901E
:101900000F900F90DF91CF911F910F910895EF925B
:10191000FF920F931F93CF93DF9300D01F92CDB709
:10192000DEB77C01FC018389811117C0148A8FE422
:10193000898386858A8380E48B8397012B5E3F4F62
:1019400000E410E043E050E0BE016F5F7F4F84850C
:1019500095850E94BD0AF701838B0F900F900F9021
:10196000DF91CF911F910F91FF90EF900895CF934A
:10197000DF93EC010E94870C8B8990E0DF91CF917F
:101980000895CF93DF93EC010E94870C8B89882305
:1019900059F081508B8B8C8991E0980F9C8BC80FEC
:1019A000D11D8D8990E002C08FEF9FEFDF91CF9125
:1019B0000895CF93DF93EC010E94870C8B898823D5
:1019C00031F08C89C80FD11D8D8990E002C08FEF56
:1019D0009FEFDF91CF9108950F931F93CF93DF93E4
:1019E000EC018B0166E775E0888999890E94DB2408
:1019F000B80188899989DF91CF911F910F910C943B
:101A0000D4246F927F928F929F92AF92BF92CF9287
:101A1000DF92EF92FF920F931F93CF93DF9300D04B
:101A20001F92CDB7DEB73C0182E58B83D301509680
:101A3000ED91FC915197048115812081318182E0E3
:101A4000882E912CFE0131965F01C12CD12CE12C06
:101A5000F12C41E050E0BE016D5F7F4F1C968D91EF
:101A60009C911D970E9427088A8190E0D3011F96C0
:101A70009C938E931E9750960D911C915197011532
:101A8000110531F0C8010E94B923C8010E94911DBF
:101A9000F301118A108A8981811102C081E0828B51
:101AA0000F900F900F90DF91CF911F910F91FF90AA
:101AB000EF90DF90CF90BF90AF909F908F907F90EE
:101AC0006F9008950F931F93CF93DF9300D01F92D1
:101AD000CDB7DEB722E72983FC0126852A8301E002
:101AE00010E09E012D5F3F4F42E050E0BE016F5F6E
:101AF0007F4F848595850E94BD0A81E09B8191304E
:101B000009F080E00F900F900F90DF91CF911F911F
:101B10000F9108950F931F93CF93DF9300D000D0C0
:101B2000CDB7DEB727E52B83FC0126852C8302E0A9
:101B300010E09E012F5F3F4F42E050E0BE016D5F1D
:101B40007F4F848595850E94BD0A898190E0982FFA
:101B500088272A81820F911D0F900F900F900F9070
:101B6000DF91CF911F910F910895CF93DF93EC01F7
:101B70000E94010DCE010E94620D882339F064E6B7
:101B800070E080E090E00E94AC19F4CFCE01DF91CC
:101B9000CF910C948A0DEF92FF920F931F93CF93E6
:101BA000DF9300D0CDB7DEB77C01FC0182898823AA
:101BB00089F087E7898386858A8300E010E020E04A
:101BC00030E042E050E0BE016F5F7F4F8485958535
:101BD0000E94BD0AF701128A0F900F90DF91CF91FA
:101BE0001F910F91FF90EF90089528E835E0FC01D8
:101BF000318320830C94CB0DEF92FF920F931F93B0
:101C0000CF93DF9300D0CDB7DEB77C0169837A83B1
:101C10000E94CB0D86E090E00E948D1D8C016981B1
:101C20007A810E947524F701118B008B0F900F9021
:101C3000DF91CF911F910F91FF90EF900895EF9258
:101C4000FF920F931F93CF93DF9300D000D000D06B
:101C5000CDB7DEB78C017B0168E775E0CE01019658
:101C60000E942724BE016F5F7F4FC8010E94FC0DB8
:101C7000CE0101960E94B92361E875E0CE0101967C
:101C80000E942724BE016F5F7F4FC8010E94EC0CA9
:101C9000CE0101960E94B923B701C8010E94EC0C45
:101CA000C8010E94010D26960FB6F894DEBF0FBE44
:101CB000CDBFDF91CF911F910F91FF90EF900895CD
:101CC000CF93DF93EC010E941F0ECE010E94620DA4
:101CD000882339F064E670E080E090E00E94AC195F
:101CE000F4CFCE01DF91CF910C948A0DFC01808955
:101CF00008950895EF92FF920F931F93CF93DF9370
:101D0000CDB7DEB728970FB6F894DEBF0FBECDBFB4
:101D10007C018B0163E173E0CE0101964F8358870C
:101D20000E94272462E170E0CE0101960E94EA231E
:101D3000D80112966C91CE0101960E94FE246EE2AB
:101D4000CE0101960E94EB24F8016381CE01019639
:101D50000E94FE246EE2CE0101960E94EB24D8017F
:101D600014966C91CE0101960E94FE246EE2CE0183
:101D700001960E94EB24F8016581CE0101960E9434
:101D8000FE24D701ED91FC9169817A810684F78563
:101D9000E02D4F815885C70109958C01CE01019630
:101DA0000E94B923C80128960FB6F894DEBF0FBE73
:101DB000CDBFDF91CF911F910F91FF90EF900895CC
:101DC0006F927F928F929F92AF92BF92CF92DF924B
:101DD000EF92FF920F931F93CF93DF9300D0CDB775
:101DE000DEB7FC019B013A0180898823C1F08CE6B3
:101DF000898386858A83812C912CA12CB12CC12CBE
:101E0000D12CE12CF12C8A0142E050E0BE016F5F41
:101E10007F4F848595850E942708C30102C080E01A
:101E200090E00F900F90DF91CF911F910F91FF9055
:101E3000EF90DF90CF90BF90AF909F908F907F906A
:101E40006F900895EF92FF920F931F93CF93DF93BC
:101E500000D0CDB7DEB77C01FC018089882389F0F2
:101E60008AE6898386858A8300E010E020E030E0FE
:101E700042E050E0BE016F5F7F4F848595850E94F0
:101E8000BD0AF701108A0F900F90DF91CF911F913B
:101E90000F91FF90EF9008950F931F93CF93DF93CF
:101EA00000D01F92CDB7DEB7FC0180898823B1F046
:101EB0008CE4898386858A8301E010E09E012D5F92
:101EC0003F4F42E050E0BE016F5F7F4F84859585B4
:101ED0000E94BD0A81E09B81913009F080E00F9063
:101EE0000F900F90DF91CF911F910F9108956F92F6
:101EF0007F928F929F92AF92BF92CF92DF92EF929A
:101F0000FF920F931F93CF93DF93CDB7DEB7279741
:101F10000FB6F894DEBF0FBECDBF3C019B0183E43A
:101F200089835A834B83DB010D900020E9F78D01F3
:101F300001501109061B170B88248394912CFE0174
:101F400037965F01C12CD12CE12CF12C43E050E0FD
:101F5000BE016F5F7F4FD3011C968D919C911D97A1
:101F60000E942708892BE1F12F81822F90E0F30155
:101F70009787868783E68C832D8301E010E09E019E
:101F80002A5F3F4F42E050E0BE016C5F7F4FD301BC
:101F90001C968D919C911D970E94BD0A8E8188236D
:101FA00039F061E070E080E090E00E94AC19E5CF8C
:101FB00081E0F301808B0190F081E02D0488F589A8
:101FC000E02DC301099581110EC0D301ED91FC9163
:101FD0000288F389E02DC3010995F301178616865F
:101FE00080E090E002C081E090E027960FB6F89480
:101FF000DEBF0FBECDBFDF91CF911F910F91FF903C
:10200000EF90DF90CF90BF90AF909F908F907F9098
:102010006F9008950F931F93CF93DF9300D01F927B
:10202000CDB7DEB7FC0180898823A9F08CE68983CF
:1020300086858A836B8300E010E020E030E043E097
:1020400050E0BE016F5F7F4F848595850E94BD0A79
:1020500081E090E002C080E090E00F900F900F9040
:10206000DF91CF911F910F9108950F931F93FC0162
:102070001382128208EE13E020E030E0048315831F
:102080002683378388E995E0918380835587448749
:102090007787668781E0808B118A1F910F91089561
:1020A000FC01CB011382128248EE53E060E070E045
:1020B000448355836683778328E935E03183208321
:1020C0009587848717861686108A118A089528E9CD
:1020D00035E0FC01318320830895FB012089FC0158
:1020E000208BFB0126853785FC01378726870895DD
:1020F000EF92FF920F931F93CF93DF9300D01F9225
:10210000CDB7DEB77C01FC018189811117C0128A2D
:102110008BE4898386858A8380E48B8397012D5E97
:102120003F4F00E410E043E050E0BE016F5F7F4F9F
:10213000848595850E94BD0AF701818B0F900F90D1
:102140000F90DF91CF911F910F91FF90EF90089525
:10215000CF93DF93EC010E947810898990E0DF91A2
:10216000CF910895CF93DF93EC010E947810898975
:10217000882359F08150898B8A8991E0980F9A8B36
:10218000C80FD11D8B8990E002C08FEF9FEFDF91C8
:10219000CF910895CF92DF92EF92FF920F931F930A
:1021A000CF93DF93EC016A018B01E12CF12C89893B
:1021B0008823A9F08FEFE81AF80A8A8991E0980F2E
:1021C0009A8BFE01E80FF11D8389F80181938F013D
:1021D00089898150898BEC14FD0448F306C0CE0137
:1021E0000E94781089898111E5CFC701DF91CF91D5
:1021F0001F910F91FF90EF90DF90CF900895CF93B4
:10220000DF93EC010E9478108989882331F08A8954
:10221000C80FD11D8B8990E002C08FEF9FEFDF9137
:10222000CF9108950F9300E020E040E060E08BE163
:1022300098E00E945E1D0F9108956F927F928F9299
:102240009F92AF92BF92CF92DF92EF92FF920F9345
:102250001F93CF93DF93CDB7DEB72A970FB6F894CD
:10226000DEBF0FBECDBF3C018EE48F83F3018481BE
:1022700095819887898762EE70E0CE0101960E9471
:102280009F24F3018781811106C06AED70E0CE01C1
:1022900001960E947E240D811E8129813A81882425
:1022A0008394912CCE010A965C01C12CD12CE12C97
:1022B000F12C43E050E0BE01695F7F4FF301808560
:1022C00091850E94270881E09A85913009F080E08D
:1022D000F3018683CE0101960E94B9232A960FB698
:1022E000F894DEBF0FBECDBFDF91CF911F910F914C
:1022F000FF90EF90DF90CF90BF90AF909F908F9026
:102300007F906F9008958F929F92AF92BF92CF92DD
:10231000DF92EF92FF920F931F93CF93DF9300D042
:10232000CDB7DEB722E629836A83812C912CA12CBC
:10233000B12CC12CD12CE12CF12C00E010E020E0DC
:1023400030E042E050E0BE016F5F7F4FFC018085CE
:1023500091850E94270881E090E00F900F90DF9117
:10236000CF911F910F91FF90EF90DF90CF90BF9092
:10237000AF909F908F900895FC011382128284EB9E
:1023800095E09183808375836483168217825187D9
:10239000408708956F927F928F929F92AF92BF92E3
:1023A000CF92DF92EF92FF920F931F93CF93DF9321
:1023B00000D0CDB7DEB73C01FB018BE68A838824D1
:1023C0008394912CCE0101965C01C12CD12CE12C7F
:1023D000F12C00E010E020E030E041E050E0BE01F0
:1023E0006E5F7F4F808591850E942708892B31F48D
:1023F00065EF77E0C3010E94501007C0698170E06B
:1024000045EF57E0C3010E943510C3010F900F90B4
:10241000DF91CF911F910F91FF90EF90DF90CF90C0
:10242000BF90AF909F908F907F906F9008950F9383
:1024300000E020E040E060E081E298E00E945E1D64
:102440000F9108950895FC0182E292E1928B818BB5
:10245000768365831482108289E0818381E08283A0
:1024600083830895FC0184810895CF93DF93EB016A
:1024700067E0CE010E94271991E02F81821390E03E
:10248000892FDF91CF910895EF92FF920F931F93C1
:10249000CF93DF93EC018B01E42E8D819E810E940E
:1024A0005A18F12CB8018D819E810E948F188823C3
:1024B00059F0FE1006C0B801CE010E9435128111FC
:1024C00004C0F394EF1470F780E0DF91CF911F9177
:1024D0000F91FF90EF900895EF92FF920F931F934B
:1024E000CF93DF9300D0CDB7DEB77C018A01FC012A
:1024F0008581968169837A830E94331769817A8105
:10250000F701858196810E942E1840E06EEBF7015D
:10251000858196810E94D017F701858196810E945E
:102520001218F8018083F701858196810E941218A4
:10253000F8018183F701858196810E941218F801C4
:102540008283F701858196810E941218F8018383A6
:10255000F701858196810E941218F8018483F701A2
:10256000858196810E941218F8018583F701858183
:1025700096810E941218F8018683F7018581968161
:102580000E941218F8018783F701858196810E94C5
:102590001218F8018087F701858196810F900F90BE
:1025A000DF91CF911F910F91FF90EF900C94331713
:1025B000CF93DF93EA010E946C1268E0CE010E9483
:1025C000271991E02885821390E0892FDF91CF9120
:1025D0000895EF92FF921F93CF93DF9300D0CDB772
:1025E000DEB77C01FC018581968169837A830E9434
:1025F000331769817A81F701858196810E942E18AF
:1026000040E064EBF701858196810E94D017F701C5
:10261000858196810E94A517182FF70185819681E3
:102620000E94331781E0111180E00F900F90DF912D
:10263000CF911F91FF90EF900895CF93DF93CDB787
:10264000DEB729970FB6F894DEBF0FBECDBFFB01F2
:1026500020812031D1F0AE014F5F5F4F0E94D81230
:10266000882379F08D818F3351F020F48F3149F434
:1026700089E00CC08F3539F08F3739F002C08AE01D
:1026800005C080E003C08BE001C08CE029960FB646
:10269000F894DEBF0FBECDBFDF91CF910895EF92CA
:1026A000FF920F931F93CF93DF93CDB7DEB7619760
:1026B0000FB6F894DEBF0FBECDBF8C01FC01858143
:1026C00096810E945A18F8011482FF24F394BE01E7
:1026D000665F7F4FF801858196810E948F1888235D
:1026E000C9F1BE01665F7F4FC8010E943512882381
:1026F00071F3F8018081811108C0BE01665F7F4FD0
:10270000C8010E94E912811122C0AE014F5F5F4FE4
:10271000BE01665F7F4FC8010E946C12F801E18024
:10272000BE01665F7F4FC8010E941D138E1518F40D
:10273000F801818106C0BE01665F7F4FC8010E941B
:102740001D13F801818384818F5F8483C0CFF801DA
:10275000F082DBCF61960FB6F894DEBF0FBECDBF1F
:10276000DF91CF911F910F91FF90EF900895CF933C
:10277000DF93CDB7DEB729970FB6F894DEBF0FBE53
:10278000CDBFAE014F5F5F4F0E946C1281E0998117
:10279000911101C080E029960FB6F894DEBF0FBEFC
:1027A000CDBFDF91CF9108958F929F92AF92BF924C
:1027B000CF92DF92EF92FF920F931F93CF93DF930D
:1027C000EC018A016950633048F4E62FF0E0EE0F27
:1027D000FF1FE654FA4F8081918102C08EEE92E095
:1027E0004C01AA2497FCA094BA2C01151105E1F024
:1027F0008B818823C9F08881811116C00E947D19C0
:102800006B017C01C80CD91CEA1CFB1CB801CE0171
:102810000E94B713811118C00E947D196C157D05A7
:102820008E059F0588F4F2CFC501B401DF91CF91E9
:102830001F910F91FF90EF90DF90CF90BF90AF90DE
:102840009F908F900C94AC19DF91CF911F910F91B5
:10285000FF90EF90DF90CF90BF90AF909F908F90C0
:102860000895CF93DF93EC018D819E810E943317F1
:102870008D819E810E945618488164E48D819E81DD
:102880000E94D0178A81882341F040E050E069819E
:10289000CE01DF91CF910C94D413DF91CF910895A5
:1028A000FA01208148E0249F90011124818190E069
:1028B000982F8827990F990F990F282B392BDB0117
:1028C0008C918031C1F4678170E08681AB01481B37
:1028D0005109CA019695982F8827979587950E9448
:1028E000062A60517109207F53E0220F331F5A9549
:1028F000E1F7260F371FC9010895EF92FF920F935A
:102900001F93CF93DF93CDB7DEB729970FB6F89417
:10291000DEBF0FBECDBF8C017B01AE014F5F5F4FAD
:102920000E94D812882341F0AE014F5F5F4FB7017C
:10293000C8010E94501402C080E894EE29960FB698
:10294000F894DEBF0FBECDBFDF91CF911F910F91E5
:10295000FF90EF900895813824EE920774F0BC0147
:10296000882777FD8095982F0E94EB2820E030E0A3
:1029700040E05CE30E949F29089560E070E08EEFE4
:1029800092EC08950E947D140C94AB14FC016683B4
:102990004783208781E085870895CF93DF93EC01FB
:1029A00060E08E810E94A21A61E08E810E94DB1A93
:1029B00019861A861B861C86DF91CF9108954F9247
:1029C0005F926F927F928F929F92AF92BF92CF92BF
:1029D000DF92EF92FF920F931F93CF93DF93CDB7C8
:1029E000DEB728970FB6F894DEBF0FBECDBF6A01E1
:1029F0007B01480159019A01AB01C701B6010E9450
:102A00009F292B013C01A5019401C501B4010E943D
:102A10009F296D837E838F83988721E133E243E092
:102A200050E4C701B6010E949F2929E134E849E238
:102A300052E40E94E72769837A838B839C8326E193
:102A40003BE442E251E4C501B4010E949F299B018D
:102A5000AC0169817A818B819C810E94E82769831E
:102A60007A838B839C8328E436E246E65EEBC701DB
:102A7000B6010E949F29A50194010E949F299B01F4
:102A8000AC0169817A818B819C810E94E8276983EE
:102A90007A838B839C8320EE3FE040EE5BEBC301A7
:102AA000B2010E949F299B01AC0169817A818B81CF
:102AB0009C810E94E82769837A838B839C8328EF1B
:102AC00037E840E65DEB6D817E818F8198850E94BD
:102AD0009F299B01AC0169817A818B819C810E9435
:102AE000E82769837A838B839C832CEA3DE041EA63
:102AF0005AE3C301B2010E949F29A50194010E94DB
:102B00009F299B01AC0169817A818B819C810E9404
:102B1000E8274B015C0128EC3FE84FE55AE3C70189
:102B2000B6010E949F292D813E814F8158850E94C8
:102B30009F299B01AC01C501B4010E94E8276B01EC
:102B40007C0121EF3BE845E056EBC301B2010E9456
:102B50009F292D813E814F8158850E949F299B018D
:102B6000AC01C701B6010E94E82728960FB6F89479
:102B7000DEBF0FBECDBFDF91CF911F910F91FF90B0
:102B8000EF90DF90CF90BF90AF909F908F907F900D
:102B90006F905F904F900895DF92EF92FF920F93A6
:102BA0001F93CF93DF93EC010E947D1909851A854D
:102BB0002B853C85601771078207930720F41986DF
:102BC0001A861B861C862D85211111C009851A8540
:102BD0002B853C85DC01CB01801B910BA20BB30B39
:102BE000803D9740A105B10510F481E07BC01D86B2
:102BF0000E947D1969877A878B879C871C821B823C
:102C00001A821982188261E08E810E94DB1A6AEFB3
:102C100070E080E090E00E94AC1961E08E810E943B
:102C2000A21A60E08E810E94DB1A64E170E080E00D
:102C300090E00E94AC19F89461E08E810E94DB1A4A
:102C400088E290E00E94D41960E08E810E94A21A6E
:102C5000F12CD12C81E0E12C082F10E08E810E9414
:102C6000111B8017910741F4E39481E090E00E94EA
:102C7000D4198FEFE812F2CF8E810E94111B9FEFC3
:102C8000E916C9F023E02F1590F4F0FC10C09D2D3B
:102C9000969596959695FE01E90FF11D9081990FF5
:102CA000908328852E1510F491609083D394F3942B
:102CB00095E5F912D0CF789427E22D1590F42C8168
:102CC00030E04881898190E0840F911D4A81840F12
:102CD000911D4B81840F911D99272817390709F4FD
:102CE00084CF80E0DF91CF911F910F91FF90EF9003
:102CF000DF900895CF92DF92EF92FF920F931F9390
:102D0000CF93DF93EC01162F0E94CC15882309F492
:102D100050C08F818B3031F008F44BC08551823028
:102D200078F047C06A8170E080E090E00E94E92876
:102D3000112309F443C020E030E040E151E42AC00F
:102D40000A81602F6F7770E080E090E00E94EB28AE
:102D500020E030E040E853E40E949F296B017C01B1
:102D60006B8170E080E090E00E94EB289B01AC0159
:102D7000C701B6010E94E82720E030E040E251E4BC
:102D80000E94502807FD90581123D9F020E030E030
:102D900040E151E40E949F2920E030E040EA50E405
:102DA0000E94502820E030E040E052E40E94E827F2
:102DB00008C020E030E040EC5FE705C09B01AC01BB
:102DC00002C09B01AC01B901CA01DF91CF911F91F3
:102DD0000F91FF90EF90DF90CF900895CF92DF9208
:102DE000EF92FF92CF93DF93EC010E94CC158823E2
:102DF00079F18F818B3029F158F18551823040F57E
:102E0000688170E080E090E00E94E92820E030E0F6
:102E100040E853E40E949F296B017C01698170E0C6
:102E200080E090E00E94EB289B01AC01C701B60155
:102E30000E94E82720E030E040E251E40E94502860
:102E40000BC0688170E080E090E00E94E92804C037
:102E500060E070E080EC9FE7DF91CF91FF90EF9012
:102E6000DF90CF900895FF920F931F93CF93DF933E
:102E7000FC010081C181D281F8948981F02EF09407
:102E80008F21898378941DE7115029F182E090E029
:102E90000E94D41988818023B9F3F8948A818F2104
:102EA0008A838981802B8983789480EE91E00E94C7
:102EB000D419F89489818F21898386E490E00E9457
:102EC000D4198881802311E009F010E078948AE910
:102ED00091E00E94D419812FDF91CF911F910F9122
:102EE000FF9008951F93CF93DF93FC011081C18160
:102EF000D281912F909560FF12C0F8948A81892326
:102F00008A838981812B89838AE090E00E94D41989
:102F10008A81812B8A83789487E390E011C0F894AA
:102F20008A8189238A838981812B898381E490E046
:102F30000E94D4198A81812B8A83789485E090E05D
:102F4000DF91CF911F910C94D4190F931F93CF93BE
:102F5000DF93FC011081C181D281F8948981812B9A
:102F600089838A81012F009580238A8383E090E002
:102F70000E94D4198981802389838AE090E00E948D
:102F8000D419C881789485E390E00E94D4191C2359
:102F900081E009F480E0DF91CF911F910F910895B6
:102FA000CF92DF92EF92FF920F931F93CF93DF9315
:102FB0001F92CDB7DEB76C01E62E08E010E0FF24CB
:102FC000F39461E09F2D9E2109F460E0C6014983DE
:102FD0000E947217FF0C015011094981011511055A
:102FE00081F7411115C0F894D6011196ED91FC912D
:102FF000129791818C918095892381831196ED910F
:10300000FC91129792818C91809589238283789488
:103010000F90DF91CF911F910F91FF90EF90DF9074
:10302000CF900895EF92FF920F931F93CF93DF936A
:103030008C01C8E0D0E0F12CEE24E394C8010E949A
:10304000A5178111FE28EE0C2197C1F78F2DDF9176
:10305000CF911F910F91FF90EF900895CF92DF9243
:10306000FF920F931F93CF93DF931F92CDB7DEB7DD
:103070008C01F62E40E065E579830E94D017CF2CB5
:103080007981D72E88E0F82EF60161916F0140E03A
:10309000C8010E94D017FA94B9F70F90DF91CF9131
:1030A0001F910F91FF90DF90CF90089540E06CEC5E
:1030B0000C94D017FC0113861586148627E030E0A7
:1030C000DF01A20FB31F13961C922115310519F0D1
:1030D00021503109F5CF08951F93CF93DF93EC0171
:1030E000162F60E0812F0E94A21A612F70E0FB0171
:1030F000EA5EFD4FE491E883FB01EC5CFD4FE49157
:10310000F0E0EE0FFF1FEE5AFD4F859194919A83E8
:103110008983CE01DF91CF911F910C945A18AF9201
:10312000BF92CF92DF92EF92FF920F931F93CF93B4
:10313000DF931F92CDB7DEB75C01E62ED72EFC01E0
:10314000858581115DC0C5010E943317811105C0BD
:10315000F5011386158614866EC040E060EFC50148
:103160000E94D01701E0F12CC12C11E0C5010E9492
:10317000A517682FC50169830E94A5176981613071
:1031800019F48130B9F433C02F2D30E068131BC01F
:10319000F5018385181730F4E20FF31F8381802334
:1031A00049F402C0181731F060E0193058F4F50105
:1031B000148708C0F501EF0DF11D8381802B8383F7
:1031C00061E009C0C12EF501E20FF31F8381902F4A
:1031D000909589238383C5010E9472171F5F000F9A
:1031E00011F4F39401E0F7E0FF1508F0BFCF1134BC
:1031F00038F0F501C386C11018C081E0858715C07D
:10320000F50113861586148680E0EE2DFD2D20E055
:1032100030E0D501A20FB31F13969C9191932F5FBD
:103220003F4F28303105A9F706C0F5018381882377
:1032300039F381E0EACF0F90DF91CF911F910F9189
:10324000FF90EF90DF90CF90BF90AF900895DC019A
:1032500080E0615038F0ED91E827F0E0E451FF4F55
:103260008491F7CF08951F920F920FB60F921124F9
:103270002F933F938F939F93AF93BF938091280891
:1032800090912908A0912A08B0912B083091270825
:1032900023E0230F2D3720F40196A11DB11D05C099
:1032A00026E8230F0296A11DB11D209327088093C5
:1032B000280890932908A0932A08B0932B0880919E
:1032C0002C0890912D08A0912E08B0912F080196FE
:1032D000A11DB11D80932C0890932D08A0932E085A
:1032E000B0932F08BF91AF919F918F913F912F91F4
:1032F0000F900FBE0F901F9018952FB7F894609104
:1033000028087091290880912A0890912B082FBFD6
:1033100008953FB7F89480912C0890912D08A091C2
:103320002E08B0912F0826B5A89B05C02F3F19F095
:103330000196A11DB11D3FBF6627782F892F9A2FB7
:10334000620F711D811D911D42E0660F771F881F5E
:10335000991F4A95D1F70895CF92DF92EF92FF928D
:10336000CF93DF936B017C010E948919EB01C1149B
:10337000D104E104F10489F00E94C9250E94891951
:103380006C1B7D0B683E734090F381E0C81AD10836
:10339000E108F108C851DC4FEACFDF91CF91FF90EF
:1033A000EF90DF90CF900895019739F0880F991F23
:1033B000880F991F02970197F1F70895789484B5C3
:1033C000826084BD84B5816084BD85B5826085BD21
:1033D00085B5816085BDEEE6F0E080818160808307
:1033E000E1E8F0E0108280818260808380818160EA
:1033F0008083E0E8F0E0808181608083E1E9F0E0B3
:10340000808182608083808181608083E0E9F0E058
:10341000808181608083E1ECF0E080818460808342
:10342000808182608083808181608083E3ECF0E032
:10343000808181608083E0ECF0E080818260808325
:10344000E2ECF0E0808181608083EAE7F0E0808157
:1034500084608083808182608083808181608083BA
:103460008081806880830895823108F08251E82F3E
:10347000F0E0E451FE4FE49180917B00E3FB2227D2
:1034800020F930E095E0220F331F9A95E1F78F7D08
:10349000822B80937B00E7708091060120E4829F5D
:1034A000C0011124E82BE0937C0080917A008064B5
:1034B00080937A0080917A0086FDFCCF809178001D
:1034C0002091790090E0922B089590E0FC013197D3
:1034D000EF30F105B0F5EA5AFF4F0C943C2A809189
:1034E00080008F7703C0809180008F7D8093800063
:1034F000089580918000877FF9CF84B58F7702C0CF
:1035000084B58F7D84BD0895809190008F7707C02A
:10351000809190008F7D03C080919000877F809381
:10352000900008958091C0008F7703C08091C00003
:103530008F7D8093C00008958091C200877F809323
:10354000C2000895CF93DF9390E0FC01EA5EFD4F47
:103550002491FC01EC5CFD4F8491882349F190E0BB
:10356000880F991FFC01E259FD4FA591B491805A33
:103570009D4FFC01C591D4919FB7611108C0F8948B
:103580008C91209582238C93888182230AC062309B
:1035900051F4F8948C91322F309583238C93888149
:1035A000822B888304C0F8948C91822B8C939FBFCC
:1035B000DF91CF9108950F931F93CF93DF931F92C5
:1035C000CDB7DEB7282F30E0F901E850FE4F8491E7
:1035D000F901EA5EFD4F1491F901EC5CFD4F049195
:1035E0000023C9F0882321F069830E94651A69814C
:1035F000E02FF0E0EE0FFF1FE05AFD4FA591B491D0
:103600009FB7F8948C91611103C01095812301C07C
:10361000812B8C939FBF0F90DF91CF911F910F91C2
:103620000895CF93DF93282F30E0F901E850FE4F43
:103630008491F901EA5EFD4FD491F901EC5CFD4FF4
:10364000C491CC2391F081110E94651AEC2FF0E017
:10365000EE0FFF1FEE5AFD4FA591B4912C912D2333
:1036600081E090E021F480E002C080E090E0DF9112
:10367000CF910895FC01818D228D90E0805C9F4F59
:10368000821B91098F7399270895FC01918D828D7A
:10369000981731F0828DE80FF11D858D90E0089527
:1036A0008FEF9FEF0895FC01918D828D981761F047
:1036B000828DDF01A80FB11D5D968C91928D9F5F69
:1036C0009F73928F90E008958FEF9FEF089587ED9D
:1036D0009CE1892B49F080E090E0892B29F00E9441
:1036E000D71C81110C9400000895FC01848DDF012A
:1036F000A80FB11DA35ABF4F2C91848D90E0019665
:103700008F739927848FA689B7892C93A089B18953
:103710008C9180648C93938D848D981306C002885D
:10372000F389E02D80818F7D80830895CF93DF938F
:10373000EC01888D8823C9F0EA89FB89808185FDA9
:1037400005C0A889B9898C9186FD0FC00FB607FC0A
:10375000F5CF808185FFF2CFA889B9898C9185FF4B
:10376000EDCFCE010E94751BE7CFDF91CF91089579
:10377000CF92DF92FF920F931F93CF93DF931F920D
:10378000CDB7DEB76C01DC015B969C915B975C96D4
:103790008C915C97981307C05096ED91FC915197CE
:1037A000808185FD32C0F601038D10E00F5F1F4F51
:1037B0000F731127F02EF601848DF81211C00FB689
:1037C00007FCF9CFD6015096ED91FC91519780817D
:1037D00085FFF1CFC60169830E94751B6981EBCF1C
:1037E000838DE80FF11DE35AFF4F6083D6015B968E
:1037F0000C935B975296ED91FC9153978081806278
:10380000808381E058968C930DC0D6015696ED9139
:10381000FC91579760835096ED91FC915197808170
:103820008064808381E090E00F90DF91CF911F91C1
:103830000F91FF90DF90CF900895BF92CF92DF92CB
:10384000EF92FF92CF93DF93EC016A017B01B22EDE
:10385000E889F98982E08083411581EE5807610586
:103860007105A1F060E079E08DE390E0A701960199
:103870000E941A2A2150310941095109569547954C
:1038800037952795211580E1380798F0E889F9895F
:10389000108260E874E88EE190E0A70196010E9432
:1038A0001A2A2150310941095109569547953795F2
:1038B0002795EC85FD853083EE85FF852083188E66
:1038C000EC89FD89B082EA89FB89808180618083EF
:1038D000EA89FB89808188608083EA89FB8980810D
:1038E00080688083EA89FB8980818F7D8083DF9176
:1038F000CF91FF90EF90DF90CF90BF9008951F92EF
:103900000F920FB60F9211242F938F939F93EF93E3
:10391000FF93E0914008F09141088081E0914608D2
:10392000F091470882FD12C09081809149088F5F15
:103930008F7320914A08821751F0E0914908F0E016
:10394000E05DF74F958F8093490801C08081FF911A
:10395000EF919F918F912F910F900FBE0F901F901D
:1039600018951F920F920FB60F9211242F933F9329
:103970004F935F936F937F938F939F93AF93BF9377
:10398000EF93FF9380E398E00E94751BFF91EF9106
:10399000BF91AF919F918F917F916F915F914F9167
:1039A0003F912F910F900FBE0F901F90189580E3BD
:1039B00098E00E943A1B21E0892B09F420E0822F35
:1039C0000895109233081092320888EE93E0A0E038
:1039D000B0E08093340890933508A0933608B093F4
:1039E000370884EC95E090933108809330088DEC93
:1039F00090E090933D0880933C088CEC90E090938D
:103A00003F0880933E0888EC90E0909341088093B3
:103A1000400889EC90E090934308809342088AEC38
:103A200090E090934508809344088EEC90E090934A
:103A30004708809346081092490810924A0810924D
:103A40004B0810924C080895AF92BF92CF92DF922C
:103A5000EF92FF920F931F93CF93DF936C017B0143
:103A6000C0E0D0E000E010E0F601EC0FFD1F4AE0FE
:103A700050E06281C7010E94ED1E5C016EE2C70149
:103A80000E94081E8A0D9B1D080F191F2196C33026
:103A9000D10551F74AE050E0F6016581C7010E9467
:103AA000ED1E800F911FDF91CF911F910F91FF901D
:103AB000EF90DF90CF90BF90AF9008950F93FC01EF
:103AC00084ED95E09183808362834383248305831F
:103AD0000F91089584ED95E09093CE088093CD08E2
:103AE0001092CF081092D0081092D1081092D208EC
:103AF000089508950E94DE190E94791D83ED98E0D3
:103B00000E949B230E948806C7E6DBE10E94B30661
:103B10002097E1F30E94671BF9CF0C94562A0C946E
:103B2000562A0C94EE2A0C94EE2ACF92DF92EF9252
:103B3000FF920F931F93CF93DF936C017A01EB01F8
:103B4000E60EF71E00E010E0CE15DF0561F069918A
:103B5000D601ED91FC910190F081E02DC60109950F
:103B6000080F191FF1CFC801DF91CF911F910F915D
:103B7000FF90EF90DF90CF9008956115710581F06F
:103B8000DB010D900020E9F7AD0141505109461BC2
:103B9000570BDC01ED91FC910280F381E02D09943B
:103BA00080E090E00895EF92FF920F931F93CF93E0
:103BB000DF938C01FB01C0E0D0E064917F018FEFC7
:103BC000E81AF80A662361F0D801ED91FC910190A2
:103BD000F081E02DC8010995C80FD91FF701EDCF7D
:103BE000CE01DF91CF911F910F91FF90EF9008953B
:103BF000DC01ED91FC91DB0114964D915C911597E0
:103C00006D917C910280F381E02D09940C94BD1D8F
:103C1000DC01ED91FC910190F081E02D09940F936E
:103C20001F93CF93DF93EC016DE00E94081E8C017F
:103C30006AE0CE010E94081E800F911FDF91CF9194
:103C40001F910F9108950F931F93CF93DF93EC0172
:103C50000E94BD1D8C01CE010E940F1E800F911F7E
:103C6000DF91CF911F910F9108958F929F92AF9204
:103C7000BF92CF92DF92EF92FF920F931F93CF9359
:103C8000DF93CDB7DEB7A1970FB6F894DEBF0FBEB6
:103C9000CDBF7C01C42EE52FCB01D22E19A221E08D
:103CA0002D1510F02AE0D22E8E010F5D1F4F8D2CA6
:103CB000912CA12CB12C6C2D7E2FA50194010E947A
:103CC0001A2A8C2DD29E80191124015011098A3094
:103CD00014F4805D01C0895CF801808321153105F1
:103CE0004105510521F0C22EE32FCA01E4CFB801EE
:103CF000C7010E94BD1DA1960FB6F894DEBF0FBE8E
:103D0000CDBFDF91CF911F910F91FF90EF90DF908A
:103D1000CF90BF90AF909F908F900895CF92DF92F9
:103D2000EF92FF920F931F93CF93DF93EC016A0101
:103D30007B012115310579F4E881F9810190F08149
:103D4000E02D642FDF91CF911F910F91FF90EF90A5
:103D5000DF90CF9009942A303105E9F477FF1AC03B
:103D60006DE20E94081E8C0144275527BA014C19A8
:103D70005D096E097F092AE0CE010E94351E800F81
:103D8000911FDF91CF911F910F91FF90EF90DF90E6
:103D9000CF9008952AE0B701A601CE01DF91CF911F
:103DA0001F910F91FF90EF90DF90CF900C94351EF4
:103DB0009A01AB01662757FD6095762F0C948E1EF5
:103DC0002115310541F4DC01ED91FC910190F08168
:103DD000E02D642F09940C94351E9A01462F50E073
:103DE00060E070E00C94E01E4F925F926F927F92C1
:103DF0008F929F92AF92BF92CF92DF92EF92FF92FB
:103E00000F931F93CF93DF93EC016A017B01B22ED6
:103E10009A01AB01C701B6010E94022A882319F05A
:103E200066ED75E027C026013701E89477F82FEF9B
:103E30003FEF4FE75FE7C301B2010E94022A811101
:103E40000DC02FEF3FEF4FE75FE7C301B2010E94C4
:103E50004C2818161CF46AED75E00CC02FEF3FEFEC
:103E60004FE75FE4C701B6010E949B291816ACF426
:103E70006EED75E0CE01DF91CF911F910F91FF9014
:103E8000EF90DF90CF90BF90AF909F908F907F90FA
:103E90006F905F904F900C94BD1D2FEF3FEF4FE759
:103EA0005FECC701B6010E944C2887FDE1CF20E0FE
:103EB00030E0A901C701B6010E944C2887FF0AC063
:103EC0006DE2CE010E94081E8C01F7FAF094F7F81B
:103ED000F09402C000E010E0A12C60E070E080E00F
:103EE0009FE3AB1441F020E030E040E251E40E9457
:103EF0005028A394F6CF9B01AC01C701B6010E94E4
:103F0000E8276B017C010E94BD282B013C010E9427
:103F1000E9289B01AC01C701B6010E94E7276B01AC
:103F20007C012AE0B301A201CE010E94351E080FD8
:103F3000191FBB2039F062EE75E0CE010E94BD1D55
:103F4000080F191F7B2C772041F120E030E040E280
:103F500051E4C701B6010E949F296B017C010E94B8
:103F6000B8284B01AA2497FCA094BA2C2AE030E090
:103F7000B501A401CE010E948E1E080F191FC501B4
:103F8000B4010E94EB289B01AC01C701B6010E945D
:103F9000E7276B017C017A94D6CFC801DF91CF91DE
:103FA0001F910F91FF90EF90DF90CF90BF90AF9057
:103FB0009F908F907F906F905F904F9008950C949A
:103FC000F41E0F931F93CF93DF93EC010E947D1992
:103FD000688779878A879B87E881F9810680F781DE
:103FE000E02DCE01099597FF15C00E947D19088527
:103FF00019852A853B85601B710B820B930B0C8105
:104000001D812E813F81601771078207930720F37E
:104010008FEF9FEFDF91CF911F910F9108950F9335
:104020001F93CF93DF93EC018B0163E173E00E9458
:104030002724C8010E94E11F97FD05C0682FCE010B
:104040000E94EB24F6CFCE01DF91CF911F910F910B
:1040500008954091D7085091D8082091D508309103
:10406000D60842175307B4F49091E8009570E1F335
:104070009091E80092FD19C08093F1008091D708DB
:104080009091D80801968F739927892B19F48EEF98
:104090008093E8008091D7089091D808019690937A
:1040A000D8088093D70881E0089580E00895FF92B2
:1040B0000F931F93CF93DF938C0188E10E942920F7
:1040C00083E00E942920C0E0D0E0F801EC0FFD1F42
:1040D00084910E942920F82E80E00E9429208F21BF
:1040E00021F02196CB30D10581F7DF91CF911F913F
:1040F0000F91FF900895615030F02091F100FC0184
:1041000020830196F8CF289884E68093DA080895F2
:104110002FB7FC012083F89467706093E90008953D
:10412000CF93DF931F92CDB7DEB7682FCE010196F4
:104130000E9488208091F20099819FBF0F90DF91AB
:10414000CF910895FF920F931F93CF93DF9300D0E9
:10415000CDB7DEB7F62E8A019091D908992311F0D8
:1041600057FF03C08FEF9FEF2BC0682FCE01019642
:104170007A830E9488208091F20090E0A8017A81E1
:10418000801791070CF4AC01EF2DF72FF40E84E6A5
:10419000FE1639F028988093DA089091F1009193F7
:1041A000F7CF4115510521F08091F200882321F0CD
:1041B00089818FBFCA0104C08BE68093E800F8CFE5
:1041C0000F900F90DF91CF911F910F91FF90089565
:1041D000CF93DF931F92CDB7DEB741E050E0BE0131
:1041E0006F5F7F4F0E94A220019719F4898190E0B0
:1041F00002C08FEF9FEF0F90DF91CF910895CF9383
:10420000DF931F92CDB7DEB7682FCE0101960E94D3
:1042100088209091E800892F807295FF04C09091CA
:10422000F20080E4891B99819FBF0F90DF91CF91AD
:1042300008956F927F928F929F92AF92BF92CF928A
:10424000DF92EF92FF920F931F93CF93DF931F9212
:10425000CDB7DEB7782E7B01C42EB52E8091D9085C
:10426000882369F0042F152F8AEFD82E872D8072AE
:10427000982E9AE3A92E872D8074882E11C08FEF77
:104280009FEF57C0872D0E94FF20682E81110CC020
:10429000DA94A9F361E070E080E090E00E94AC194C
:1042A0000115110579F73BC0282F30E002171307DD
:1042B0000CF4602E672DCE0101960E94882080911B
:1042C000E80085FF29C0262D30E0021B130B992042
:1042D00039F06A948FEF6816B1F01092F100F9CFBF
:1042E000F701862D77FE07C0815058F09491909386
:1042F000F1003196F9CF815020F091919093F10027
:10430000FACFE20EF31E8091E80085FF0FC0011581
:10431000110511F481100AC089818FBFC1CF5D984A
:1043200084E68093DB088C2D9B2D03C0A092E800CF
:10433000F3CF0F90DF91CF911F910F91FF90EF90EE
:10434000DF90CF90BF90AF909F908F907F906F90B5
:1043500008951092E9001092D8081092D70890930F
:10436000D6088093D5080895CF92DF92FF920F93DD
:104370001F93CF93DF9300D0CDB7DEB7F82E8A011D
:104380006B0101151105B1F0F601F7FE02C0849131
:1043900001C0808149835A830E942920015011095C
:1043A000FFEFCF1ADF0A49815A818111EACF8FEFDF
:1043B0009FEF01C0CA010F900F90DF91CF911F9125
:1043C0000F91FF90DF90CF9008951F93CF93DF93CD
:1043D0001F92CDB7DEB7162F2091E80022FFFCCF49
:1043E000612F79830E947B208BEF8093E800812FDF
:1043F0007981972F0F90DF91CF911F910895CF93DF
:10440000DF931F92CDB7DEB71982CE0101960E94CD
:104410002726CE0101960E94C226898190E00F9046
:10442000DF91CF9108951F920F920FB60F92112432
:10443000EF92FF920F931F932F933F934F935F93AE
:104440006F937F938F939F93AF93BF93EF93FF935C
:10445000CF93DF93CDB7DEB76297DEBFCDBF1092AB
:10446000E9008091E80083FFE9C068E0CE010A9688
:104470000E947B2082EF8093E8009A8597FF05C019
:104480008091E80080FFFCCF03C08EEF8093E800AE
:10449000892F807609F0B7C08B85811105C01092F5
:1044A000F1001092F100C3C0282F2D7F213009F4B4
:1044B000BEC0853049F48091E80080FFFCCF8C8538
:1044C00080688093E300B3C0863009F074C02D8506
:1044D000E888F988223071F580E090E02A8B0E940C
:1044E000A9210E94FF2199E08E010F5F1F4FF80163
:1044F000392F11923A95E9F799832A892A8391E015
:104500009E8390E898879AEF99872091D7083091F9
:10451000D808275F3F4F3C832B838D83C7010E94C0
:10452000A92149E050E0B80180E00E94B4210E9436
:10453000FF217DC0C7012A8B0E94A9212A8922322E
:1045400041F482E290E00E94CD26892B09F06FC0F1
:1045500072C0213069F488899989089711F42093F1
:10456000D4088091D408811116C063E972E018C0A4
:10457000233009F060C08C85882381F0823019F4E3
:1045800081EB92E005C0813009F055C085EA92E0E8
:104590000E9457204AC061E872E002C06DEB72E0F1
:1045A0006115710509F447C0FB01449150E080E8B2
:1045B0000E94B4213CC0873009F43DC0883021F40A
:1045C00081E08093F10033C0893089F5937099F5CB
:1045D000EDE7F2E081E021E096E38093E9002093AB
:1045E000EB0034913093EC009093ED008F5F3196A7
:1045F000853099F78EE78093EA001092EA008C8567
:104600008093D90814C0888999890E94A9218E8530
:10461000811105C0CE010A960E94322606C0823062
:1046200051F4CE010A960E94F526882321F08EEFE0
:104630008093E80003C081E28093EB0062960FB69E
:10464000F894DEBF0FBECDBFDF91CF91FF91EF9108
:10465000BF91AF919F918F917F916F915F914F919A
:104660003F912F911F910F91FF90EF900F900FBEF0
:104670000F901F9018958093E9008091F200882395
:1046800019F08AE38093E80008951F920F920FB605
:104690000F9211242F933F934F935F936F937F93C8
:1046A0008F939F93AF93BF93EF93FF938091E1001C
:1046B0001092E10083FF0FC01092E90091E0909307
:1046C000EB001092EC0092E39093ED001092D90869
:1046D00098E09093F00082FF1DC083E00E943B238E
:1046E0008091DB08882339F08091DB08815080932A
:1046F000DB08882369F08091DA08882359F08091DB
:10470000DA0881508093DA08811104C0289A02C027
:104710005D9AF1CFFF91EF91BF91AF919F918F91F2
:104720007F916F915F914F913F912F910F900FBEAD
:104730000F901F9018951092D90881E08093D700B0
:1047400080EA8093D80082E189BD09B400FEFDCFE4
:1047500061E070E080E090E00E94AC1980E9809315
:10476000D8008CE08093E2001092E000559A209AE5
:104770000895FC01808191810C94EE2ACF93DF9300
:10478000EC0188819981009711F00E94EE2A19822C
:1047900018821D821C821B821A82DF91CF9108959C
:1047A0000F931F93CF93DF93EC018B016F5F7F4FCC
:1047B000888199810E947D2B009731F099838883AD
:1047C0001B830A8381E001C080E0DF91CF911F91BC
:1047D0000F910895CF93DF93EC0188819981892B04
:1047E00029F08A819B818617970760F4CE010E9489
:1047F000D023882341F08C819D81892B19F4E88195
:10480000F981108281E0DF91CF910895EF92FF92BC
:104810000F931F93CF93DF93EC017B018A01BA01C1
:104820000E94EA23811104C0CE010E94BE2307C06A
:104830001D830C83B701888199810E947C2CCE0155
:10484000DF91CF911F910F91FF90EF900895FC01A0
:1048500011821082138212821582148261157105F1
:1048600059F0FB0101900020E9F7AF0141505109D7
:10487000461B570B0C9406240895EF92FF920F935A
:104880001F93CF93DF93EC017B018A01BA010E9451
:10489000EA23811104C0CE010E94BE2307C01D83FC
:1048A0000C83B701888199810E944F2CCE01DF9142
:1048B000CF911F910F91FF90EF900895CF93DF93C9
:1048C000EC01FB018617970761F06081718161152A
:1048D000710529F0448155810E94062402C00E947E
:1048E000BE23CE01DF91CF910895FC011182108289
:1048F00013821282158214820C945E240F931F93EC
:10490000CF93DF9300D0CDB7DEB78C016115710571
:1049100061F0CB0169837A830E94562CAC016981D6
:104920007A81C8010E943D2402C00E94BE23C801B2
:104930000F900F90DF91CF911F910F910895FC017F
:104940001182108213821282158214820C947E24AA
:10495000EF92FF920F931F93CF93DF93EC017B01B4
:104960000C811D816115710511F480E016C041159F
:10497000510591F0040F151FB8010E94EA23882306
:10498000A1F3288139818C819D81B701820F931F0A
:104990000E947C2C1D830C8381E0DF91CF911F91BD
:1049A0000F91FF90EF900895FB0144815581608144
:1049B00071810C94A8246115710559F0FB010190D7
:1049C0000020E9F7AF0141505109461B570B0C94E9
:1049D000A82480E00895CF93DF9300D0CDB7DEB751
:1049E00069831A8241E050E0BE016F5F7F4F0E94F1
:1049F000A8240F900F90DF91CF910895EF92FF922E
:104A00000F931F93CF93DF9300D000D0CDB7DEB7C5
:104A10007C01862F4AE050E08E010F5F1F4FB801E6
:104A200090E00E949D2CF80101900020E9F7AF0171
:104A300041505109401B510BB801C7010E94A824E5
:104A40000F900F900F900F90DF91CF911F910F91CA
:104A5000FF90EF900895FC0124813581232B31F4E0
:104A600021E061157105A1F0FB0108C0FC01808106
:104A700091816115710531F421E0FC018081882369
:104A800039F005C00E94732C21E0892B09F020E049
:104A9000822F0895CF93DF93FC018481958148177D
:104AA000590778F4C081D181FB0160817181CE0109
:104AB000840F951F0E94832C009719F08C1B9D0B6F
:104AC00002C08FEF9FEFDF91CF91089540E050E05B
:104AD0000C944A25AF92BF92CF92DF92EF92FF9251
:104AE0000F931F93CF93DF937C01DC01CD90DC907B
:104AF0001197C114D10409F441C01496CD91DC91F1
:104B000015972097D9F156018501BFEFAB1ABB0A63
:104B1000F8018081992787FD90950E94472C892B69
:104B200099F72197CC0DDD1D8881992787FD9095F8
:104B30000E94472C892B91F4AE014F5F5F4F401BC1
:104B4000510BD70115965C934E931497C016D1065E
:104B500050F4B801C6010E945F2C05C0C017D107F0
:104B600058F32197E1CFD701ED91FC91119714965D
:104B70008D919C911597E80FF91F1082DF91CF91CD
:104B80001F910F91FF90EF90DF90CF90BF90AF906B
:104B900008950895CF93DF931F92CDB7DEB7698351
:104BA000DC01ED91FC910280F381E02D41E050E0C9
:104BB000BE016F5F7F4F09950F90DF91CF910895F0
:104BC000CF93DF93EC018C859D8597FF05C082E034
:104BD0000E94E8209D878C878C859D85DF91CF91F1
:104BE000089583E00C943B23FC018485958597FD13
:104BF00006C082E00E94902090E00196089582E035
:104C00000E94902090E00895FC018485958597FD91
:104C100005C02FEF3FEF35872487089582E00C947D
:104C2000E820CF93DF93EC0180910E01882331F0CF
:104C300083E00E9419211816190634F081E090E0F3
:104C40009B838A8380E090E0DF91CF910895FC01FF
:104C500020812E5F208342E450E061EC72E080E826
:104C60000C94B421FC0181819081913A59F48132F4
:104C700009F03CC047E050E067E071E080E00E944E
:104C8000B42143C0913291F5803239F467E070E08D
:104C900087E091E00E94E52106C0823209F035C02C
:104CA000828180930E018091070190910801A0916B
:104CB0000901B0910A01803B9440A105B105C1F4FE
:104CC00080910E0180FD14C087E797E7909301085B
:104CD000809300082BE088E190E00FB6F894A89547
:104CE000809360000FBE209360000FC080E00895A5
:104CF00088E10FB6F89480936000109260000FBEB8
:104D0000A895109201081092000881E00895109271
:104D1000DF081092DE0888EE93E0A0E0B0E0809318
:104D2000E0089093E108A093E208B093E30888EECE
:104D300095E09093DD088093DC088FEF9FEF9093D0
:104D4000E9088093E8080895FF920F931F93CF938B
:104D5000DF93EC01F62EE881F9810480F581E02DE6
:104D600009958C01E881F9810680F781E02D6F2D8E
:104D7000CE010995C8019927DF91CF911F910F911D
:104D8000FF900895FC0120812F5F208349E150E0CE
:104D900063E873E080E80C94B42145E650E06CE9E8
:104DA00073E080E80C94B421EF92FF920F931F936D
:104DB000CF93DF931F92CDB7DEB789838B017A0142
:104DC00041E050E0BE016F5F7F4F84E00E941921F7
:104DD000A701B80184E40E9419210F90DF91CF91BF
:104DE0001F910F91FF90EF900895FC0191818081B8
:104DF000813A31F481E0913091F0933089F411C01F
:104E0000813271F49B3021F482818093100105C0BE
:104E10009A3031F4828180930F0181E008950895E2
:104E200080E0089548E050E082E00C94D426CF93CF
:104E3000DF93DC01683818F0E8E7E60F25C0E62FBD
:104E4000F0E067FF11C0E058F10981E090E001C097
:104E5000880FEA95EAF714969C911497982B14966C
:104E60009C931497E0E010C0ED5FFC4FE491EE23BB
:104E700009F440C0E7FF08C014968C911497826033
:104E800014968C931497EF7716968C9116978E172D
:104E900041F117968C9117978E1719F118968C91EE
:104EA00018978E17F1F019968C9119978E17C9F0F3
:104EB0001A968C911A978E17A1F01B968C911B97BE
:104EC0008E1779F080E090E0ED01C80FD91F2E8198
:104ED000211102C0EE8305C0019686309105A1F72D
:104EE00009C0BD016C5F7F4FCD010E94122781E098
:104EF00090E008C081E090E013969C938E93129707
:104F000080E090E0DF91CF910895683818F0E8E7ED
:104F1000E60F25C0E62FF0E067FF12C0E058F10968
:104F200021E030E001C0220FEA95EAF72095DC018C
:104F300014963C911497322314963C93E0E00FC0F2
:104F4000ED5FFC4FE491EE2329F1E7FF08C0DC019F
:104F500014962C9114972D7F14962C93EF7720E0C4
:104F600030E0EE2351F0DC01A20FB31F16964C91F6
:104F700016974E1302C016961C922F5F3F4F263095
:104F8000310579F7BC016C5F7F4F0E94122781E0E9
:104F900090E0089580E090E00895FC011682178269
:104FA00010861186128613861482BC016C5F7F4FB7
:104FB0000C9412271092380910922F0910922E0982
:104FC00088EF95E090932D0980932C09089550580F
:104FD000BB27AA270ED075C166D130F06BD120F067
:104FE00031F49F3F11F41EF45BC10EF4E095E7FB32
:104FF00051C1E92F77D180F3BA176207730784078D
:10500000950718F071F49EF58FC10EF4E0950B2E04
:10501000BA2FA02D0B01B90190010C01CA01A0010A
:105020001124FF27591B99F0593F50F4503E68F165
:105030001A16F040A22F232F342F4427585FF3CFA6
:10504000469537952795A795F0405395C9F77EF477
:105050001F16BA0B620B730B840BBAF09150A1F0C0
:10506000FF0FBB1F661F771F881FC2F70EC0BA0F46
:10507000621F731F841F48F4879577956795B795CE
:10508000F7959E3F08F0B3CF9395880F08F09927C6
:10509000EE0F979587950895D9D008F481E008958B
:1050A0000CD00FC107D140F0FED030F021F45F3FAB
:1050B00019F0F0C0511139C1F3C014D198F39923FC
:1050C000C9F35523B1F3951B550BBB27AA276217CC
:1050D0007307840738F09F5F5F4F220F331F441F11
:1050E000AA1FA9F333D00E2E3AF0E0E830D0915049
:1050F0005040E695001CCAF729D0FE2F27D0660F36
:10510000771F881FBB1F261737074807AB07B0E874
:1051100009F0BB0B802DBF01FF2793585F4F2AF08A
:105120009E3F510568F0B6C000C15F3FECF3983E6A
:10513000DCF3869577956795B795F7959F5FC9F7E7
:10514000880F911D9695879597F90895E1E0660F70
:10515000771F881FBB1F621773078407BA0720F0E9
:10516000621B730B840BBA0BEE1F88F7E095089552
:1051700004D06894B111D9C00895BCD088F09F576D
:1051800090F0B92F9927B751A0F0D1F0660F771F93
:10519000881F991F1AF0BA95C9F712C0B13081F073
:1051A000C3D0B1E00895C0C0672F782F8827B85FBB
:1051B00039F0B93FCCF3869577956795B395D9F7D4
:1051C0003EF490958095709561957F4F8F4F9F4FDE
:1051D0000895E89409C097FB3EF4909580957095EA
:1051E00061957F4F8F4F9F4F9923A9F0F92F96E933
:1051F000BB279395F695879577956795B795F111A8
:10520000F8CFFAF4BB0F11F460FF1BC06F5F7F4F44
:105210008F4F9F4F16C0882311F096E911C0772356
:1052200021F09EE8872F762F05C0662371F096E85F
:10523000862F70E060E02AF09A95660F771F881F2E
:10524000DAF7880F9695879597F90895990F0008D2
:10525000550FAA0BE0E8FEEF16161706E807F90748
:10526000C0F012161306E407F50798F0621B730BE3
:10527000840B950B39F40A2661F0232B242B252B64
:1052800021F408950A2609F4A140A6958FEF811D07
:10529000811D089597F99F6780E870E060E00895A8
:1052A0009FEF80EC089500240A941616170618063E
:1052B0000906089500240A9412161306140605061A
:1052C0000895092E0394000C11F4882352F0BB0FAB
:1052D00040F4BF2B11F460FF04C06F5F7F4F8F4F0E
:1052E0009F4F089557FD9058440F551F59F05F3F49
:1052F00071F04795880F97FB991F61F09F3F79F0F8
:1053000087950895121613061406551FF2CF469579
:10531000F1DF08C0161617061806991FF1CF8695FB
:105320007105610508940895E894BB2766277727DF
:10533000CB0197F908958ADF08F48FEF08950BD019
:10534000C0CFB1DF28F0B6DF18F0952309F0A2CF67
:10535000A7CF1124EACFC6DFA0F3959FD1F3950F15
:1053600050E0551F629FF001729FBB27F00DB11DE9
:10537000639FAA27F00DB11DAA1F649F6627B00D79
:10538000A11D661F829F2227B00DA11D621F739F62
:10539000B00DA11D621F839FA00D611D221F749F70
:1053A0003327A00D611D231F849F600D211D822FB7
:1053B000762F6A2F11249F5750408AF0E1F08823FE
:1053C0004AF0EE0FFF1FBB1F661F771F881F91500B
:1053D0005040A9F79E3F510570F05CCFA6CF5F3FCC
:1053E000ECF3983EDCF3869577956795B795F7953E
:1053F000E7959F5FC1F7FE2B880F911D96958795C6
:1054000097F9089523DF880B990B089597FB072ED2
:1054100016F4009407D077FD09D00E94422A07FCB9
:1054200005D03EF4909581959F4F089570956195B4
:105430007F4F0895A1E21A2EAA1BBB1BFD010DC0D0
:10544000AA1FBB1FEE1FFF1FA217B307E407F50734
:1054500020F0A21BB30BE40BF50B661F771F881F10
:10546000991F1A9469F760957095809590959B01A6
:10547000AC01BD01CF010895EE0FFF1F0590F4911F
:10548000E02D0994AA1BBB1B51E107C0AA1FBB1F3B
:10549000A617B70710F0A61BB70B881F991F5A95C0
:1054A000A9F780959095BC01CD010895CF93DF9326
:1054B0008230910510F482E090E0E0913B09F09198
:1054C0003C0920E030E0A0E0B0E0309739F14081C5
:1054D000518148175907B8F04817590771F482816C
:1054E0009381109729F013969C938E9312972CC05A
:1054F00090933C0980933B0927C02115310531F079
:105500004217530718F0A901DB0101C0EF019A010E
:10551000BD01DF010280F381E02DD7CF21153105D8
:10552000F9F0281B390B2430310580F48A819B81E6
:105530006115710521F0FB019383828304C0909370
:105540003C0980933B09FE01329644C0FE01E20F04
:10555000F31F8193919322503109398328833AC0F4
:105560002091390930913A09232B41F4209102010D
:105570003091030130933A092093390920910001B9
:10558000309101012115310541F42DB73EB740910D
:10559000040150910501241B350BE0913909F0916C
:1055A0003A09E217F307A0F42E1B3F0B281739071F
:1055B00078F0AC014E5F5F4F2417350748F04E0F6F
:1055C0005F1F50933A09409339098193919302C028
:1055D000E0E0F0E0CF01DF91CF910895CF93DF932A
:1055E000009709F487C0FC01329713821282C091A0
:1055F0003B09D0913C09209781F420813181280F0B
:10560000391F8091390990913A098217930779F5EA
:10561000F0933A09E09339096DC0DE0120E030E0F3
:10562000AE17BF0750F412964D915C9113979D01F0
:105630004115510509F1DA01F3CFB383A28340810B
:105640005181840F951F8A179B0771F48D919C914E
:105650001197840F951F02969183808312968D91E6
:105660009C911397938382832115310529F4F0933C
:105670003C09E0933B093EC0D9011396FC93EE939D
:1056800012974D915D91A40FB51FEA17FB0779F4AE
:1056900080819181840F951F0296D90111969C9368
:1056A0008E938281938113969C938E931297E0E060
:1056B000F0E08A819B81009719F0FE01EC01F9CF9F
:1056C000CE01029628813981820F931F20913909DA
:1056D00030913A092817390769F4309729F4109264
:1056E0003C0910923B0902C013821282D0933A09FE
:1056F000C0933909DF91CF910895A0E0B0E0E3E8CD
:10570000FBE20C94E42CEC01CB01209719F40E94ED
:10571000562AB8C0FE01E60FF71F9E01225031093C
:10572000E217F30708F4ACC0D9010D911C91119751
:1057300006171707B8F00530110508F49FC0A80137
:10574000445051094617570708F498C002501109F0
:10575000061B170B019311936D937C93CF010E944D
:10576000EE2A8CC05B01A01AB10A4E01800E911E78
:10577000A0913B09B0913C09612C712C60E070E074
:10578000109709F449C0A815B905C9F5ED90FC902A
:105790001197670142E0C40ED11CCA14DB0478F1F2
:1057A00047018A189B08640142E0C40ED11C12967E
:1057B000BC9012971396AC91B5E0CB16D10440F093
:1057C000B282A38391828082D9018D939C9309C078
:1057D0000E5F1F4F0E0D1F1DF90111830083EB2D6E
:1057E000FA2F6115710531F0DB011396FC93EE93EE
:1057F000129744C0F0933C09E0933B093FC06D9180
:105800007C9111976616770608F43B01BD0112964C
:105810000D90BC91A02DB4CF6091390970913A09D7
:1058200068157905E9F468167906D0F4409100010D
:10583000509101014115510541F44DB75EB760919A
:10584000040170910501461B570BE417F507C0F4DE
:10585000F0933A09E0933909F901918380830EC0EE
:105860000E94562A7C01009759F0A801BE010E94AF
:105870005F2CCE010E94EE2AC70104C0CE0102C0F7
:1058800080E090E0CDB7DEB7EEE00C94002D9111F2
:1058900084C0803219F089508550D0F70895FB01FB
:1058A000DC0105900D920020E1F70895FC010590C0
:1058B0000020E9F7809590958E0F9F1F0895FB01BA
:1058C000DC0102C001900D9241505040D8F708957C
:1058D000FB01DC010D900020E9F7119701900D927A
:1058E0000020E1F70895FB01DC018D910190801902
:1058F0000110D9F3990B0895FB01DC0101900D9281
:105900000020E1F70895FB0151915523A9F0BF0153
:10591000DC014D9145174111E1F759F4CD0101909A
:10592000002049F04D9140154111C9F3FB0141118F
:10593000EFCF81E090E0019708954532510520F4C2
:10594000423010F00C94A82CFB011082CB0108957A
:10595000BB274A3031F4992322F4BDE2909581951A
:105960009F4F0C94B42CBB27FB015527AA27880F07
:10597000991FAA1FA41710F0A41B83955051B9F7C3
:10598000A05DAA3308F0A95DA193009779F7B11142
:10599000B1931192CB010C94D02C992788270895AC
:1059A000DC01FC01672F71917723E1F7329704C086
:1059B0007C916D9370836291AE17BF07C8F3089511
:1059C0002F923F924F925F926F927F928F929F920F
:1059D000AF92BF92CF92DF92EF92FF920F931F93FD
:1059E000CF93DF93CDB7DEB7CA1BDB0B0FB6F894AE
:1059F000DEBF0FBECDBF09942A88398848885F84EE
:105A00006E847D848C849B84AA84B984C884DF805E
:105A1000EE80FD800C811B81AA81B981CE0FD11D42
:105A20000FB6F894DEBF0FBECDBFED01089514E0B0
:105A3000C8E1D4E004C0FE010E943E2A2296CC3187
:085A4000D107C9F7F894FFCF6C
:105A480000003D0980000100E100000000000001A5
:105A580001585858585858583130307B22496E767A
:105A6800616C696420636F6D6D616E64223A220017
:105A78002274656D70223A224C6973742074656DC6
:105A8800706572617475726520616E642068756DE9
:105A98006964697479222C002274656D7073223AE6
:105AA800224C6973742074656D70657261747572C7
:105AB8006573222C00226C69676874223A224D654E
:105AC8006173757265206C69676874222C002264A2
