:100000000C940E020C9436020C9436020C943602B8
:100010000C9436020C9436020C9436020C94360280
:100020000C9436020C9436020C94AA220C9478217B
:100030000C9436020C9436020C9436020C94360260
:100040000C9436020C9436020C9436020C94360250
:100050000C9436020C9436020C9436020C94A618BA
:100060000C9436020C94F21B0C94241C0C94360253
:100070000C9436020C9436020C9436020C94360220
:100080000C9436020C9436020C9436020C94360210
:100090000C9436020C9436020C9436020C94360200
:1000A0000C9436020C9436020C943602F019F319B3
:1000B000E219E619EC19141A141A141AF719FB1993
:1000C000FF19051A091A141A0F1A72756E2D627229
:1000D000696467650A000A000A00302E302E302E4F
:1000E00030003132372E302E302E3100005EBCE22F
:1000F000613FDD83C29C7E20A3FD1F419DC3217F04
:10010000FCA2401E5F01E3BD3E6082DC237D9FC1F7
:10011000421CFEA0E1BF5D0380DE3C62BEE0025CEB
:10012000DF81633D7C22C09E1D43A1FF4618FAA4D7
:1001300027799BC584DA3866E5BB5907DB856739C3
:10014000BAE406581947A5FB7826C49A653BD987B7
:10015000045AB8E6A7F91B45C6987A24F8A6441AAB
:1001600099C7257B3A6486D85B05E7B98CD2306E97
:10017000EDB3510F4E10F2AC2F7193CD114FADF383
:10018000702ECC92D38D6F31B2EC0E50AFF1134D77
:10019000CE90722C6D33D18F0C52B0EE326C8ED06B
:1001A000530DEFB1F0AE4C1291CF2D73CA94762857
:1001B000ABF517490856B4EA6937D58B5709EBB543
:1001C00036688AD495CB2977F4AA4816E9B7550B37
:1001D00088D6346A2B7597C94A14F6A8742AC8962B
:1001E000154BA9F7B6E80A54D7896B3507060504FD
:1001F0000100080A0B0C0D090000000200090F00A5
:1002000000030401000C00000000000000000000DA
:10021000000000000000040802011040804010208F
:1002200040804080080204018040201002011080BC
:1002300010204040040404040403040502020202E6
:10024000040302020202060606060606040402026F
:100250000204000000002300260029002C002F00CB
:1002600000000000250028002B002E0031000000B7
:100270000000240027002A002D00300000C18081EA
:10028000C11201000202000040412341800001012F
:1002900002000112010002000000404123418000E1
:1002A000010102000141726475696E6F204C4C437C
:1002B0000041726475696E6F2059756E0004030900
:1002C00004080B00020202010009040000010202FE
:1002D0000000052400100105240101010424020688
:1002E00005240600010705810310004009040100F0
:1002F000020A000000070502024000000705830211
:1003000040000000000000000000002A2B28000030
:1003100000000000000000000000000000000000DD
:100320000000002C9EB4A0A1A2A434A6A7A5AE36BE
:100330002D3738271E1F20212223242526B333B62C
:100340002EB7B89F8485868788898A8B8C8D8E8FFF
:10035000909192939495969798999A9B9C9D2F3102
:1003600030A3AD350405060708090A0B0C0D0E0F66
:10037000101112131415161718191A1B1C1DAFB1E2
:10038000B0B50009040200010300000009210101C9
:1003900000012265000705840340000105010902F0
:1003A000A1010901A1008501050919012903150011
:1003B00025019503750181029501750581030501EC
:1003C0000930093109381581257F750895038106A3
:1003D000C0C005010906A1018502050719E029E74A
:1003E00015002501750195088102950175088103A5
:1003F0009506750815002565050719002965810012
:10040000C000A9051F0ABE0BC60BCD0B85108A11B3
:10041000541CDD1CEC253F27F605C20B11241FBE22
:10042000CFEFDAE0DEBFCDBF16E0A0E0B1E0E2E161
:10043000F9E502C005900D92A430B107D9F729E083
:10044000A4E0B6E001C01D92AF33B207E1F714E0BB
:10045000C8E1D4E004C02297FE010E94A329C23063
:10046000D107C9F70E94ED1C0C947C2C0C94000061
:100470006AE772E084E997E00E946B1D82E10E94C6
:10048000A7194AE050E0BC0184E997E00E943D1EB4
:1004900065E872E084E997E00E946B1D6CE473E00C
:1004A00084E997E00C946B1D8F929F92AF92BF925C
:1004B000CF92DF92EF92FF920F931F9386E897E01F
:1004C0000E9461166093F7067093F8068093F90610
:1004D0009093FA0660E086E897E00E94ED1560933D
:1004E000FB067093FC068093FD069093FE0661E088
:1004F00086E897E00E94ED156B017C016093FF0692
:100500007093000780930107909302078090F7068D
:100510009090F806A090F906B090FA06A501940113
:10052000C501B4010E946729811116C06091FB06C4
:100530007091FC068091FD069091FE069B01AC0136
:100540000E946729811108C0A7019601C701B60161
:100550000E946729882319F06CE972E068C0950150
:100560008401B701A60186E897E00E9452146093C7
:10057000030770930407809305079093060768ECC0
:1005800072E084E997E00E946B1D4091F70650915C
:10059000F8066091F9067091FA0622E030E084E9ED
:1005A00097E00E94441F6DED72E084E997E00E949D
:1005B0006B1D4091FB065091FC066091FD06709109
:1005C000FE0622E030E084E997E00E94441F68EED6
:1005D00072E084E997E00E946B1D4091FF06509104
:1005E0000007609101077091020722E030E084E982
:1005F00097E00E94441F63EF72E084E997E00E9455
:100600006B1D40910307509104076091050770919D
:10061000060722E030E084E997E00E94441F64E08E
:1006200073E084E997E00E946B1D6DE473E084E958
:1006300097E01F910F91FF90EF90DF90CF90BF90C8
:10064000AF909F908F900C946B1D6DE173E084E9E7
:1006500097E00E946B1D63EC76E084E997E00E94CE
:100660006B1D65EC72E084E997E00C946B1D6BE206
:1006700073E084E997E00E946B1DE0918407F0919C
:1006800085070994FF920F931F93CF93DF9300D0B8
:1006900000D000D0CDB7DEB78C01F62E69E273E052
:1006A0008FE596E00E94E12BB8018FE596E00E946D
:1006B000CD2B69E273E08FE596E00E94CD2B6FE4CD
:1006C00073E0CE0101960E948C23BE016F5F7F4FC5
:1006D00084E096E00E946F0DCE0101960E941E23D9
:1006E000FF2019F066E573E002C06BE773E0CE010E
:1006F00001960E948C23BE016F5F7F4F84E096E0DD
:100700000E945F0CCE0101960E941E236FE576E0E9
:10071000CE0101960E948C23BE016F5F7F4F84E063
:1007200096E00E945F0CCE0101960E941E2384E099
:1007300096E00E94280D84E096E00E94D50C81117D
:10074000FACFFF2029F169E973E084E997E00E947C
:100750006B1DB80184E997E00E946B1D6CEA73E0A1
:1007600084E997E00E946B1D84E096E00E942A0CC9
:100770001816190654F484E096E00E94340C682F91
:1007800084E997E00E946D1DEFCF65EC72E014C024
:1007900084E096E00E942A0C18161906CCF369E949
:1007A00073E084E997E00E946B1DB80184E997E04B
:1007B0000E946B1D6BE473E084E997E00E946B1D5F
:1007C00026960FB6F894DEBF0FBECDBFDF91CF9156
:1007D0001F910F91FF90089567EE73E084E997E011
:1007E0000E94881D63EF73E084E997E00E94881DF2
:1007F00084E997E00C94741D1F93CF93DF9383E6F5
:1008000097E00E94A51190E09093620780936107A2
:100810001092F6061092F50611E0C091F506D091FF
:10082000F6068091610790916207C817D907DCF539
:1008300062E174E083EC96E00E94E12BBE0183E06C
:10084000660F771F8A95E1F76F5E784F4C2F83E62E
:1008500097E00E94B7112091F5063091F606F90154
:10086000E95FF84F811114C010824AE069E576E033
:10087000C90101960E940D2CBC0183EC96E00E94F8
:10088000CD2B67EA74E083EC96E00E94CD2B01C08B
:1008900010838091F5069091F60601969093F606E6
:1008A0008093F506BACFDF91CF911F910895CF9332
:1008B000DF9300D000D000D0CDB7DEB7BC01CE01B1
:1008C00001960E948C23BE016F5F7F4F84E096E00B
:1008D0000E94D30DCE0101960E941E2384E096E073
:1008E0000E94D50C8111FACF84E096E00E942A0C78
:1008F0001816190674F484E096E00E94340C809374
:100900005E068A3089F3682F84E997E00E946D1DA6
:10091000EBCF26960FB6F894DEBF0FBECDBFDF91AA
:10092000CF91089566E274E084E997E00E946B1D20
:1009300085E394E00E9457046BE473E084E997E058
:100940000C946B1D6FE474E084E997E00E946B1DCA
:100950008AE594E00E9457046BE473E084E997E031
:100960000C946B1D0F931F93CF93DF938C01C0E00A
:10097000D0E0F80161918F0140E150E084E997E017
:100980000E94521EC730D10531F067EA74E084E955
:1009900097E00E946B1D2196C830D10551F7DF9179
:1009A000CF911F910F910895CF92DF92EF92FF9216
:1009B00083E697E00E94A41362E874E084E997E07C
:1009C0000E946B1D1092F6061092F5062091F50616
:1009D0003091F606809161079091620728173907D8
:1009E0000CF077C064E874E084E997E00E946B1D26
:1009F0008091F5069091F60623E0880F991F2A95BD
:100A0000E1F78F5E984F0E94B20463E974E084E9D5
:100A100097E00E946B1D67E974E084E997E00E940B
:100A20006B1D6091F5067091F606FB01E95FF84FCA
:100A300080818823E9F093E0660F771F9A95E1F7AC
:100A40006F5E784F83E697E00E9435146B017C015E
:100A50006093F7067093F8068093F9069093FA0670
:100A600020E030E048EC52EC0E94B12787FF07C03D
:100A700061EA74E084E997E00E946B1D08C022E0FF
:100A800030E0B701A60184E997E00E94441F6DE4BD
:100A900073E084E997E00E946B1D8091610790915B
:100AA000620701972091F5063091F606281739075D
:100AB00031F066EA74E084E997E00E946B1D809152
:100AC000F5069091F60601969093F6068093F5064A
:100AD0007DCF69EA74E084E997E0FF90EF90DF90C2
:100AE000CF900C946B1DCF93C82F6BEA74E084E910
:100AF00097E00E946B1D0E94380267EB74E084E966
:100B000097E00E946B1D0E94540261EC74E084E93E
:100B100097E00E946B1D0E94D404CC2339F06DE451
:100B200073E084E997E0CF910C946B1DCF91089509
:100B300080E00E94730564ED74E084E997E00E9410
:100B40006B1D0E9492046DE473E084E997E00C94BD
:100B50006B1D0F9300E020E040E060E081EF97E044
:100B60000E94D11C47EF57E063EB75E187EE97E0F9
:100B70000E942F1167EF77E084E997E00E94C30F8E
:100B800026E046E16AE086E897E00E94391462E0D8
:100B900086E797E00E94DF1766E777E083E697E055
:100BA0000E949611109207061092060688EE93E0B6
:100BB000A0E0B0E08093080690930906A0930A068F
:100BC000B0930B068AE895E090930506809304069F
:100BD00087EF97E090931106809310061092160607
:100BE00010921706109218060F91089584E096E06F
:100BF0000E94680D84E997E00C94DA0F61E08DE0C3
:100C00000E94151A60E08DE00E944E1A26E040E92D
:100C100050ED63E070E080910008909101080E941F
:100C2000901B87EF97E00E94180986E897E00E94E2
:100C3000401483E697E00E94C2120E94FC031092C7
:100C4000EE0787EE97E00E94901061E08DE00C9433
:100C50004E1A1F93CF93DF93CDB7DEB7C955D10995
:100C60000FB6F894DEBF0FBECDBF67EE77E0CE01C2
:100C700001960E943D11BE016F5F7F4F84E997E0AE
:100C80000E94E00FCE0101960E94DA0F8091A40726
:100C9000882309F49CC064E977E0CE018C5A9F4F09
:100CA0000E94741FCE018C5A9F4F0E94CF240E9435
:100CB000EC0365EE74E0CE018C5A9F4F0E949024A5
:100CC000882319F00E94540279C06AEE74E0CE01C4
:100CD0008C5A9F4F0E949024882319F00E94D404BC
:100CE0006DC060EF74E0CE018C5A9F4F0E9490243B
:100CF000882319F00E94380261C066EF74E0CE01CB
:100D00008C5A9F4F0E949024882319F00E9425033B
:100D100055C06AEF74E0CE018C5A9F4F0E94902418
:100D2000882319F00E94370349C060E075E0CE01C6
:100D30008C5A9F4F0E949024882319F00E9492049D
:100D40003DC06AE075E0CE018C5A9F4F0E9490240E
:100D5000811123C065E075E0CE0101960E948C23CD
:100D6000BE016F5F7F4FCE018C5A9F4F0E94CB24F4
:100D700097FF0CC068EA74E0CE018C5A9F4F0E9426
:100D8000902411E0811103C010E001C011E0CE01F8
:100D900001960E941E23112319F00E9498050EC08F
:100DA0006FE075E0CE018C5A9F4F0E9490248823FB
:100DB00019F160E087E195E00E94420384E997E041
:100DC0000E94950ECE018C5A9F4F0E941E2361E017
:100DD0008DE00E944E1A62E370E080E090E00E9495
:100DE0001F19C75ADF4F0FB6F894DEBF0FBECDBF35
:100DF000DF91CF911F9108956AE275E0CE018C5A80
:100E00009F4F0E949024882321F061E082E395E0C7
:100E1000D3CF66E475E0CE018C5A9F4F0E94902498
:100E2000882309F4BACF84E595E00E94A204C6CFD6
:100E3000FC01238134812627022E2295207F202544
:100E4000032E322F22952F70022626953227232734
:100E5000220F220F220F2025FC01348323830895C3
:100E6000CF93DF93EC018D819E81DC01ED91FC91AC
:100E70006C810190F081E02D09958D819E81DC01CE
:100E8000ED91FC910190F081E02D6B81DF91CF918C
:100E900009948F929F92AF92BF92CF92DF92EF927E
:100EA000FF92CF93DF93EC016B010E94F0184B018E
:100EB0005C01E12CF12C8D819E81DC01ED91FC9196
:100EC0000680F781E02D099597FF0DC00E94F0186C
:100ED000681979098A099B096C157D058E059F059E
:100EE00050F38FEF9FEFDF91CF91FF90EF90DF9066
:100EF000CF90BF90AF909F908F900895CF93DF9346
:100F0000EC018D819E81DC01ED91FC910480F581E5
:100F1000E02D09951816190654F48D819E81DC0187
:100F2000ED91FC910680F781E02D0995EACFDF91E4
:100F3000CF9108952F923F924F925F926F927F923E
:100F40008F929F92AF92BF92CF92DF92EF92FF92D9
:100F50000F931F93CF93DF93CDB7DEB72D970FB6C7
:100F6000F894DEBF0FBECDBF3C011B013C832B8339
:100F7000BF82AE825801AC0CBD1CA40EB51EBD8252
:100F80004B2C512CCA01860F971F99878887D9014E
:100F9000A00FB11FBB87AA87F601EE0DFF1DFD87CD
:100FA000EC87D30118968C91581608F026C1EFEF04
:100FB000FFEFD3011496FC93EE93139715968D9142
:100FC0009C911697DC01ED91FC910190F081E02D50
:100FD0006FEF09956FEFC3010E941807F301858138
:100FE0009681DC01ED91FC910190F081E02DD3011F
:100FF0006C910995F3016081C3010E941807D30128
:1010000015968D919C911697DC01ED91FC910190C4
:10101000F081E02D6D810995642DC3010E941807B0
:10102000F30185819681DC01ED91FC910190F081C5
:10103000E02D6A2D09956A2DC3010E9418076101F0
:1010400088859985C816D906A1F0F3018581968116
:101050008601DC01ED91FC910190F081E02DD6013B
:101060006D916D010995F8016081C3010E94180717
:10107000E7CFCB80DC808A859B85C816D906B1F086
:10108000D30115968D919C9116978601DC01ED9107
:10109000FC910190F081E02DD6016D916D010995D3
:1010A000F8016081C3010E941807E5CF87018C8594
:1010B0009D8508171907B1F0D30115968D919C9164
:1010C00016976801DC01ED91FC910190F081E02D13
:1010D000D8016D918D010995F6016081C3010E94CF
:1010E0001807E5CFC3010E94300764E670E0C30132
:1010F0000E9449078F3F910509F074C0EFEFFFEFA1
:10110000D3011496FC93EE9313976FEFC3010E94E3
:10111000180765E070E0C3010E944907D3016C9194
:10112000262F30E08217930709F05CC0C3010E94AC
:1011300018076AE070E0C3010E9449078C0197FD1F
:1011400051C0682FC3010E9418076AE070E0C30114
:101150000E9449076C0197FD45C0682FC3010E949A
:1011600018070A83198209811A810C0D1D1DC12CD3
:10117000D12C65E070E0C301C016D106A1F0C814FF
:10118000D90489F00E94490797FD09C0EE81FF81CB
:10119000EC0DFD1D8083682FC3010E941807BFEF6F
:1011A000CB1ADB0AE6CF0E9449076C0197FD1AC0F3
:1011B00065E070E0C3010E94490797FD13C0DC2C75
:1011C000CC24C80ED91EF301838194818C159D0512
:1011D00049F480818F5F8083C8018016910678F47E
:1011E000C4010DC0539464E670E080E090E00E947A
:1011F0001F19C3010E947E07D4CE8FEF9FEF2D965B
:101200000FB6F894DEBF0FBECDBFDF91CF911F9117
:101210000F91FF90EF90DF90CF90BF90AF909F9095
:101220008F907F906F905F904F903F902F90089598
:101230003F924F925F926F927F928F929F92AF9266
:10124000BF92CF92DF92EF92FF920F931F93CF93B3
:10125000DF93CDB7DEB72E970FB6F894DEBF0FBE83
:10126000CDBF3C01DC0117968C9117978111CFC03F
:1012700081E017968C93C3010E947E0768EE73E0AD
:1012800080E090E00E941F19F30185819681DC01C6
:10129000ED91FC910480F581E02D09951816190651
:1012A00054F355E0552E4424439462E3362EE1E195
:1012B000F1E0DE011696852D01900D928A95E1F7F9
:1012C000F3014086812C912CA12CB12CC12CD12C66
:1012D000E12CF12C00E010E020E030E045E050E0AF
:1012E000BE016A5F7F4FC3010E949A0763E0D3018A
:1012F00015968D919C9116970E946D1D6AEF70E076
:1013000080E090E00E941F1968ED70E0F301858194
:1013100096810E94461D6AEF70E080E090E00E9496
:101320001F1966ED70E0D30115968D919C9116976B
:101330000E94461D64EF71E080E090E00E941F195A
:101340006AEC70E0F301858196810E94461D64EF8E
:1013500071E080E090E00E941F19C3010E947E07A7
:10136000E6E1F1E0DE011196852D01900D928A955E
:10137000E1F7D30118963C9244E0842E912CFE01B3
:101380003B965F0120E030E045E050E0BE016F5F3A
:101390007F4FC3010E949A078F3FFFEF9F0739F4E9
:1013A00068EE73E080E090E00E941F1980CF2B85EB
:1013B0002111FFCF049711F52C8530E0205331091E
:1013C00044E6429FC001439F900D11242D8530E0DB
:1013D000205331096AE0629FA001639F500D1124E0
:1013E000840F951F2E8530E020533109820F931F03
:1013F000D30112969C938E93119705C084E690E0DA
:10140000F3019283818382E3D30118968C932E9605
:101410000FB6F894DEBF0FBECDBFDF91CF911F9105
:101420000F91FF90EF90DF90CF90BF90AF909F9083
:101430008F907F906F905F904F903F9008951092A3
:10144000F70782E398E09093FD078093FC071092E2
:10145000FE071092FF0790930108809300080895FB
:101460008F929F92AF92BF92CF92DF92EF92FF92B4
:101470000F931F9348015901C12CD12CE12CF12C61
:1014800000E010E020E030E00E949A071F910F91E9
:10149000FF90EF90DF90CF90BF90AF909F908F9094
:1014A00008950F931F9300E010E020E030E00E94C9
:1014B000300A1F910F910895CF93DF9300D0CDB7DD
:1014C000DEB7DC0152968C915297882389F080E533
:1014D00089836A8342E050E0BE016F5F7F4F1C96B4
:1014E0008D919C911D970E94510A81E090E01FC050
:1014F0005596ED91FC91569753968C91539791E0A8
:10150000980F53969C935397E80FF11D6083539661
:101510009C91539754968C915497981308C0ED91D1
:10152000FC9111970284F385E02DCD0109950F9070
:101530000F90DF91CF910895AF92BF92CF92DF923B
:10154000EF92FF920F931F93CF93DF9300D0CDB70D
:10155000DEB75C017A01DC0152968C91811104C0E6
:101560008B01E60EF71E41C06A01BFEFCB1ADB0A02
:10157000C60169837A830E94021D8C01FC0180E50B
:101580008193A70169817A81CF010E94C42BA601B2
:10159000B801F501848595850E94510A0115110550
:1015A00019F0C8010E94061DC70122C0D501559639
:1015B000ED91FC91569753968C91539791E0980F2B
:1015C00053969C93D8019D918D01E80FF11D908356
:1015D000F50193898489981308C00190F081E02D6A
:1015E0000284F385E02DC50109950E151F05F1F65E
:1015F0000F900F90DF91CF911F910F91FF90EF907F
:10160000DF90CF90BF90AF900895CF93DF93EC0120
:101610008A8981110AC04B8950E06D897E898C8549
:101620009D850E94510A81E08B8BDF91CF910895B7
:10163000FC011382128248EE53E060E070E04483C4
:101640005583668377838CE695E09183808387EF6B
:1016500097E09587848716861786118A108A81E01D
:10166000828B0895CF93DF93EC018A89811108C0A2
:101670008D899E89009711F00E94061D81E08A8B5A
:10168000DF91CF910895EF92FF920F931F93CF9325
:10169000DF9300D0CDB7DEB77C01FC0186858111D8
:1016A00014C0178680E7898380E28A832089318984
:1016B00000E210E042E050E0BE016F5F7F4F8485A2
:1016C00095850E94300AF70186870F900F90DF9171
:1016D000CF911F910F91FF90EF900895CF93DF93DB
:1016E000EC010E94430B8E8590E0DF91CF9108952D
:1016F000CF93DF93EC010E94430B8E85882369F022
:1017000081508E87E889F9898F8591E0980F9F87AE
:10171000E80FF11D808190E002C08FEF9FEFDF9115
:10172000CF910895CF93DF93EC010E94430B8E85F8
:10173000882341F08F85E889F989E80FF11D8081C0
:1017400090E002C08FEF9FEFDF91CF910895CF938C
:10175000DF93EC010E94320B88899989009721F070
:101760000E94061D198A188ADF91CF9108952CE6F0
:1017700035E0FC01318320830C94A70B82E098E0D4
:101780000C94180B82E098E00C94B70B87EF97E06D
:1017900090931A0880931908089587EF97E0909323
:1017A0001C0880931B08089508950F931F93CF93EF
:1017B000DF9300D01F92CDB7DEB729E42983FC0167
:1017C00026852A836B8300E010E020E030E043E0D0
:1017D00050E0BE016F5F7F4F848595850E94300A7F
:1017E00081E090E00F900F900F90DF91CF911F91CB
:1017F0000F910895EF92FF920F931F93CF93DF9372
:1018000000D01F92CDB7DEB77C01FC018389811126
:1018100017C0148A8FE4898386858A8380E48B834A
:1018200097012B5E3F4F00E410E043E050E0BE0123
:101830006F5F7F4F848595850E94300AF701838B07
:101840000F900F900F90DF91CF911F910F91FF900C
:10185000EF900895CF93DF93EC010E94FA0B8B89F0
:1018600090E0DF91CF910895CF93DF93EC010E9438
:10187000FA0B8B89882359F081508B8B8C8991E0EE
:10188000980F9C8BC80FD11D8D8990E002C08FEFFF
:101890009FEFDF91CF910895CF93DF93EC010E94EA
:1018A000FA0B8B89882331F08C89C80FD11D8D8963
:1018B00090E002C08FEF9FEFDF91CF9108950F93DB
:1018C0001F93CF93DF93EC018B0168E775E0888964
:1018D00099890E944024B80188899989DF91CF9124
:1018E0001F910F910C9439246F927F928F929F9247
:1018F000AF92BF92CF92DF92EF92FF920F931F931E
:10190000CF93DF9300D01F92CDB7DEB73C0182E5C5
:101910008B83D3015096ED91FC91519704811581F1
:101920002081318182E0882E912CFE0131965F0169
:10193000C12CD12CE12CF12C41E050E0BE016D5FB7
:101940007F4F1C968D919C911D970E949A078A81CA
:1019500090E0D3011F969C938E931E9750960D9105
:101960001C9151970115110531F0C8010E941E23E9
:10197000C8010E94041DF301118A108A8981811116
:1019800002C081E0828B0F900F900F90DF91CF917A
:101990001F910F91FF90EF90DF90CF90BF90AF908D
:1019A0009F908F907F906F9008950F931F93CF9388
:1019B000DF9300D01F92CDB7DEB722E72983FC0169
:1019C00026852A8301E010E09E012D5F3F4F42E013
:1019D00050E0BE016F5F7F4F848595850E94300A7D
:1019E00081E09B81913009F080E00F900F900F9083
:1019F000DF91CF911F910F9108950F931F93CF9374
:101A0000DF9300D000D0CDB7DEB727E52B83FC01F4
:101A100026852C8302E010E09E012F5F3F4F42E0BD
:101A200050E0BE016D5F7F4F848595850E94300A2E
:101A3000898190E0982F88272A81820F911D0F902D
:101A40000F900F900F90DF91CF911F910F910895FC
:101A5000CF93DF93EC010E94740CCE010E94D50C51
:101A6000882339F064E670E080E090E00E941F195E
:101A7000F4CFCE01DF91CF910C94FD0CEF92FF9249
:101A80000F931F93CF93DF9300D0CDB7DEB77C01C8
:101A9000FC018289882389F087E7898386858A8388
:101AA00000E010E020E030E042E050E0BE016F5F77
:101AB0007F4F848595850E94300AF701128A0F9026
:101AC0000F90DF91CF911F910F91FF90EF900895AC
:101AD0002AE835E0FC01318320830C943E0DEF921F
:101AE000FF920F931F93CF93DF9300D0CDB7DEB754
:101AF0007C0169837A830E943E0D86E090E00E941B
:101B0000001D8C0169817A810E94DA23F701118B13
:101B1000008B0F900F90DF91CF911F910F91FF904D
:101B2000EF900895EF92FF920F931F93CF93DF935F
:101B300000D000D000D0CDB7DEB78C017B016AE7C2
:101B400075E0CE0101960E948C23BE016F5F7F4F2E
:101B5000C8010E946F0DCE0101960E941E2363E80A
:101B600075E0CE0101960E948C23BE016F5F7F4F0E
:101B7000C8010E945F0CCE0101960E941E23B7018E
:101B8000C8010E945F0CC8010E94740C26960FB613
:101B9000F894DEBF0FBECDBFDF91CF911F910F91A3
:101BA000FF90EF900895CF93DF93EC010E94920D88
:101BB000CE010E94D50C882339F064E670E080E005
:101BC00090E00E941F19F4CFCE01DF91CF910C94C9
:101BD000FD0CFC01808908950895EF92FF920F9308
:101BE0001F93CF93DF93CDB7DEB728970FB6F89446
:101BF000DEBF0FBECDBF7C018B0168EA74E0CE0171
:101C000001964F8358870E948C2362E170E0CE01D9
:101C100001960E944F23D80112966C91CE01019635
:101C20000E9463246EE2CE0101960E945024F801C6
:101C30006381CE0101960E9463246EE2CE0101967B
:101C40000E945024D80114966C91CE0101960E94F6
:101C500063246EE2CE0101960E945024F801658152
:101C6000CE0101960E946324D701ED91FC91698118
:101C70007A810684F785E02D4F815885C701099543
:101C80008C01CE0101960E941E23C80128960FB632
:101C9000F894DEBF0FBECDBFDF91CF911F910F91A2
:101CA000FF90EF9008956F927F928F929F92AF92E4
:101CB000BF92CF92DF92EF92FF920F931F93CF9339
:101CC000DF9300D0CDB7DEB7FC019B013A018089DC
:101CD0008823C1F08CE6898386858A83812C912CA8
:101CE000A12CB12CC12CD12CE12CF12C8A0142E089
:101CF00050E0BE016F5F7F4F848595850E949A07F3
:101D0000C30102C080E090E00F900F90DF91CF916F
:101D10001F910F91FF90EF90DF90CF90BF90AF9009
:101D20009F908F907F906F900895EF92FF920F9306
:101D30001F93CF93DF9300D0CDB7DEB77C01FC01BA
:101D40008089882389F08AE6898386858A8300E0F2
:101D500010E020E030E042E050E0BE016F5F7F4FD6
:101D6000848595850E94300AF701108A0F900F90A4
:101D7000DF91CF911F910F91FF90EF9008950F93F6
:101D80001F93CF93DF9300D01F92CDB7DEB7FC0136
:101D900080898823B1F08CE4898386858A8301E079
:101DA00010E09E012D5F3F4F42E050E0BE016F5FAB
:101DB0007F4F848595850E94300A81E09B81913018
:101DC00009F080E00F900F900F90DF91CF911F915D
:101DD0000F9108956F927F928F929F92AF92BF92D0
:101DE000CF92DF92EF92FF920F931F93CF93DF93E7
:101DF000CDB7DEB727970FB6F894DEBF0FBECDBFC5
:101E00003C019B0183E489835A834B83DB010D9062
:101E10000020E9F78D0101501109061B170B8824DA
:101E20008394912CFE0137965F01C12CD12CE12CBB
:101E3000F12C43E050E0BE016F5F7F4FD3011C9651
:101E40008D919C911D970E949A07892BE1F12F811A
:101E5000822F90E0F3019787868783E68C832D831A
:101E600001E010E09E012A5F3F4F42E050E0BE01DA
:101E70006C5F7F4FD3011C968D919C911D970E94A2
:101E8000300A8E81882339F061E070E080E090E0D4
:101E90000E941F19E5CF81E0F301808B0190F08152
:101EA000E02D0488F589E02DC301099581110EC04C
:101EB000D301ED91FC910288F389E02DC3010995CE
:101EC000F3011786168680E090E002C081E090E082
:101ED00027960FB6F894DEBF0FBECDBFDF91CF912E
:101EE0001F910F91FF90EF90DF90CF90BF90AF9038
:101EF0009F908F907F906F9008950F931F93CF9333
:101F0000DF9300D01F92CDB7DEB7FC018089882314
:101F1000A9F08CE6898386858A836B8300E010E0D4
:101F200020E030E043E050E0BE016F5F7F4F8485EA
:101F300095850E94300A81E090E002C080E090E048
:101F40000F900F900F90DF91CF911F910F910895F7
:101F50000F931F93FC011382128208EE13E020E01E
:101F600030E004831583268337838AE995E09183E3
:101F70008083558744877787668781E0808B118AC5
:101F80001F910F910895FC01CB011382128248EE3C
:101F900053E060E070E044835583668377832AE9E9
:101FA00035E0318320839587848717861686108ACB
:101FB000118A08952AE935E0FC01318320830895D0
:101FC000FB012089FC01208BFB0126853785FC0164
:101FD000378726870895EF92FF920F931F93CF9331
:101FE000DF9300D01F92CDB7DEB77C01FC01818961
:101FF000811117C0128A8BE4898386858A8380E4E5
:102000008B8397012D5E3F4F00E410E043E050E0EA
:10201000BE016F5F7F4F848595850E94300AF7016E
:10202000818B0F900F900F90DF91CF911F910F91A7
:10203000FF90EF900895CF93DF93EC010E94EB0F98
:10204000898990E0DF91CF910895CF93DF93EC01E0
:102050000E94EB0F8989882359F08150898B8A89E6
:1020600091E0980F9A8BC80FD11D8B8990E002C028
:102070008FEF9FEFDF91CF910895CF92DF92EF9294
:10208000FF920F931F93CF93DF93EC016A018B01B3
:10209000E12CF12C89898823A9F08FEFE81AF80A3E
:1020A0008A8991E0980F9A8BFE01E80FF11D8389D0
:1020B000F80181938F0189898150898BEC14FD048B
:1020C00048F306C0CE010E94EB0F89898111E5CF4C
:1020D000C701DF91CF911F910F91FF90EF90DF909B
:1020E000CF900895CF93DF93EC010E94EB0F898985
:1020F000882331F08A89C80FD11D8B8990E002C0F6
:102100008FEF9FEFDF91CF9108950F9300E020E0D4
:1021100040E060E08DE198E00E94D11C0F910895AD
:102120006F927F928F929F92AF92BF92CF92DF92E7
:10213000EF92FF920F931F93CF93DF93CDB7DEB74C
:102140002A970FB6F894DEBF0FBECDBF3C018EE4D8
:102150008F83F301848195819887898762EE70E08F
:10216000CE0101960E940424F3018781811106C0EB
:102170006AED70E0CE0101960E94E3230D811E817D
:1021800029813A8188248394912CCE010A965C019E
:10219000C12CD12CE12CF12C43E050E0BE01695F51
:1021A0007F4FF301808591850E949A0781E09A858F
:1021B000913009F080E0F3018683CE0101960E9400
:1021C0001E232A960FB6F894DEBF0FBECDBFDF9157
:1021D000CF911F910F91FF90EF90DF90CF90BF9024
:1021E000AF909F908F907F906F9008958F929F9265
:1021F000AF92BF92CF92DF92EF92FF920F931F9315
:10220000CF93DF9300D0CDB7DEB722E629836A8370
:10221000812C912CA12CB12CC12CD12CE12CF12C96
:1022200000E010E020E030E042E050E0BE016F5FEF
:102230007F4FFC01808591850E949A0781E090E0A4
:102240000F900F90DF91CF911F910F91FF90EF9022
:10225000DF90CF90BF90AF909F908F900895FC013A
:102260001382128286EB95E0918380837583648369
:10227000168217825187408708956F927F928F92BE
:102280009F92AF92BF92CF92DF92EF92FF920F9305
:102290001F93CF93DF9300D0CDB7DEB73C01FB0196
:1022A0008BE68A8388248394912CCE0101965C016D
:1022B000C12CD12CE12CF12C00E010E020E030E02A
:1022C00041E050E0BE016E5F7F4F808591850E94A6
:1022D0009A07892B31F467EF77E0C3010E94C30F9F
:1022E00007C0698170E047EF57E0C3010E94A80F63
:1022F000C3010F900F90DF91CF911F910F91FF902D
:10230000EF90DF90CF90BF90AF909F908F907F9095
:102310006F9008950F9300E020E040E060E083E2DA
:1023200098E00E94D11C0F9108950895FC0185E961
:1023300091E1928B818B768365831482108289E090
:10234000818381E0828383830895FC0184810895E1
:10235000CF93DF93EB0167E0CE010E949A1891E0E2
:102360002F81821390E0892FDF91CF910895EF9212
:10237000FF920F931F93CF93DF93EC018B01E42E19
:102380008D819E810E94CD17F12CB8018D819E8197
:102390000E940218882359F0FE1006C0B801CE0131
:1023A0000E94A811811104C0F394EF1470F780E02B
:1023B000DF91CF911F910F91FF90EF900895EF92D1
:1023C000FF920F931F93CF93DF9300D0CDB7DEB76B
:1023D0007C018A01FC018581968169837A830E9450
:1023E000A61669817A81F701858196810E94A117DD
:1023F00040E06EEBF701858196810E944317F7015B
:10240000858196810E948517F8018083F701858177
:1024100096810E948517F8018183F7018581968155
:102420000E948517F8018283F701858196810E94B9
:102430008517F8018383F701858196810E948517AE
:10244000F8018483F701858196810E948517F80140
:102450008583F701858196810E948517F80186831F
:10246000F701858196810E948517F8018783F7011E
:10247000858196810E948517F8018087F701858103
:1024800096810F900F90DF91CF911F910F91FF9048
:10249000EF900C94A616CF93DF93EA010E94DF1110
:1024A00068E0CE010E949A1891E02885821390E09E
:1024B000892FDF91CF910895EF92FF921F93CF93D1
:1024C000DF9300D0CDB7DEB77C01FC01858196811A
:1024D00069837A830E94A61669817A81F7018581D2
:1024E00096810E94A11740E064EBF70185819681F7
:1024F0000E944317F701858196810E941817182FB3
:10250000F701858196810E94A61681E0111180E075
:102510000F900F90DF91CF911F91FF90EF90089552
:10252000CF93DF93CDB7DEB729970FB6F894DEBF10
:102530000FBECDBFFB0120812031D1F0AE014F5F36
:102540005F4F0E944B12882379F08D818F3351F0B9
:1025500020F48F3149F489E00CC08F3539F08F3782
:1025600039F002C08AE005C080E003C08BE001C002
:102570008CE029960FB6F894DEBF0FBECDBFDF9179
:10258000CF910895EF92FF920F931F93CF93DF9314
:10259000CDB7DEB761970FB6F894DEBF0FBECDBFE3
:1025A0008C01FC01858196810E94CD17F80114826F
:1025B000FF24F394BE01665F7F4FF8018581968109
:1025C0000E9402188823C9F1BE01665F7F4FC801CF
:1025D0000E94A811882371F3F8018081811108C03D
:1025E000BE01665F7F4FC8010E945C12811122C04C
:1025F000AE014F5F5F4FBE01665F7F4FC8010E9413
:10260000DF11F801E180BE01665F7F4FC8010E94C3
:1026100090128E1518F4F801818106C0BE01665F24
:102620007F4FC8010E949012F801818384818F5FDF
:102630008483C0CFF801F082DBCF61960FB6F894A7
:10264000DEBF0FBECDBFDF91CF911F910F91FF90E5
:10265000EF900895CF93DF93CDB7DEB729970FB6EC
:10266000F894DEBF0FBECDBFAE014F5F5F4F0E943B
:10267000DF1181E09981911101C080E029960FB6A8
:10268000F894DEBF0FBECDBFDF91CF9108958F923A
:102690009F92AF92BF92CF92DF92EF92FF920F93F1
:1026A0001F93CF93DF93EC018A016950633048F4A4
:1026B000E62FF0E0EE0FFF1FE454FA4F8081918186
:1026C00002C08EEE92E04C01AA2497FCA094BA2C92
:1026D00001151105E1F08B818823C9F088818111F2
:1026E00016C00E94F0186B017C01C80CD91CEA1CB2
:1026F000FB1CB801CE010E942A13811118C00E9450
:10270000F0186C157D058E059F0588F4F2CFC50184
:10271000B401DF91CF911F910F91FF90EF90DF9067
:10272000CF90BF90AF909F908F900C941F19DF9126
:10273000CF911F910F91FF90EF90DF90CF90BF90BE
:10274000AF909F908F900895CF93DF93EC018D8190
:102750009E810E94A6168D819E810E94C917488184
:1027600064E48D819E810E9443178A81882341F011
:1027700040E050E06981CE01DF91CF910C94471386
:10278000DF91CF910895FA01208148E0249F9001C4
:102790001124818190E0982F8827990F990F990F24
:1027A000282B392BDB018C918031C1F4678170E0DB
:1027B0008681AB01481B5109CA019695982F88273D
:1027C000979587950E946B2960517109207F53E08E
:1027D000220F331F5A95E1F7260F371FC9010895BD
:1027E000EF92FF920F931F93CF93DF93CDB7DEB796
:1027F00029970FB6F894DEBF0FBECDBF8C017B01C9
:10280000AE014F5F5F4F0E944B12882341F0AE0133
:102810004F5F5F4FB701C8010E94C31302C080E839
:1028200094EE29960FB6F894DEBF0FBECDBFDF91B0
:10283000CF911F910F91FF90EF900895813824EE72
:10284000920774F0BC01882777FD8095982F0E942D
:10285000502820E030E040E05CE30E940429089525
:1028600060E070E08EEF92EC08950E94F0130C94FB
:102870001E14FC0166834783208781E085870895C5
:10288000CF93DF93EC0160E08E810E94151A61E026
:102890008E810E944E1A19861A861B861C86DF912D
:1028A000CF9108954F925F926F927F928F929F92F5
:1028B000AF92BF92CF92DF92EF92FF920F931F934E
:1028C000CF93DF93CDB7DEB728970FB6F894DEBF6E
:1028D0000FBECDBF6A017B01480159019A01AB01CE
:1028E000C701B6010E9404292B013C01A5019401F6
:1028F000C501B4010E9404296D837E838F8398876C
:1029000021E133E243E050E4C701B6010E9404290B
:1029100029E134E849E252E40E944C2769837A8332
:102920008B839C8326E13BE442E251E4C501B40180
:102930000E9404299B01AC0169817A818B819C8171
:102940000E944D2769837A838B839C8328E436E237
:1029500046E65EEBC701B6010E940429A501940179
:102960000E9404299B01AC0169817A818B819C8141
:102970000E944D2769837A838B839C8320EE3FE0FE
:1029800040EE5BEBC301B2010E9404299B01AC0144
:1029900069817A818B819C810E944D2769837A832A
:1029A0008B839C8328EF37E840E65DEB6D817E8169
:1029B0008F8198850E9404299B01AC0169817A81ED
:1029C0008B819C810E944D2769837A838B839C83B2
:1029D0002CEA3DE041EA5AE3C301B2010E94042916
:1029E000A50194010E9404299B01AC0169817A81AF
:1029F0008B819C810E944D274B015C0128EC3FE8B4
:102A00004FE55AE3C701B6010E9404292D813E819A
:102A10004F8158850E9404299B01AC01C501B40176
:102A20000E944D276B017C0121EF3BE845E056EB0E
:102A3000C301B2010E9404292D813E814F81588536
:102A40000E9404299B01AC01C701B6010E944D27D9
:102A500028960FB6F894DEBF0FBECDBFDF91CF91A1
:102A60001F910F91FF90EF90DF90CF90BF90AF90AC
:102A70009F908F907F906F905F904F900895DF921E
:102A8000EF92FF920F931F93CF93DF93EC010E947D
:102A9000F01809851A852B853C8560177107820718
:102AA000930720F419861A861B861C862D85211112
:102AB00011C009851A852B853C85DC01CB01801B63
:102AC000910BA20BB30B803D9740A105B10510F40B
:102AD00081E07BC01D860E94F01869877A878B870A
:102AE0009C871C821B821A821982188261E08E8167
:102AF0000E944E1A6AEF70E080E090E00E941F1979
:102B000061E08E810E94151A60E08E810E944E1A4B
:102B100064E170E080E090E00E941F19F89461E0A9
:102B20008E810E944E1A88E290E00E94471960E070
:102B30008E810E94151AF12CD12C81E0E12C082FF6
:102B400010E08E810E94841A8017910741F4E3946B
:102B500081E090E00E9447198FEFE812F2CF8E815A
:102B60000E94841A9FEFE916C9F023E02F1590F414
:102B7000F0FC10C09D2D969596959695FE01E90F57
:102B8000F11D9081990F908328852E1510F4916086
:102B90009083D394F39495E5F912D0CF789427E2FB
:102BA0002D1590F42C8130E04881898190E0840FCC
:102BB000911D4A81840F911D4B81840F911D99278E
:102BC0002817390709F484CF80E0DF91CF911F9156
:102BD0000F91FF90EF90DF900895CF92DF92EF92E8
:102BE000FF920F931F93CF93DF93EC01162F0E9458
:102BF0003F15882309F450C08F818B3031F008F4E1
:102C00004BC08551823078F047C06A8170E080E027
:102C100090E00E944E28112309F443C020E030E0E8
:102C200040E151E42AC00A81602F6F7770E080E0B4
:102C300090E00E94502820E030E040E853E40E94F9
:102C400004296B017C016B8170E080E090E00E94C0
:102C500050289B01AC01C701B6010E944D2720E01E
:102C600030E040E251E40E94B52707FD905811235F
:102C7000D9F020E030E040E151E40E94042920E056
:102C800030E040EA50E40E94B52720E030E040E028
:102C900052E40E944D2708C020E030E040EC5FE79E
:102CA00005C09B01AC0102C09B01AC01B901CA0186
:102CB000DF91CF911F910F91FF90EF90DF90CF9018
:102CC0000895CF92DF92EF92FF92CF93DF93EC01C2
:102CD0000E943F15882379F18F818B3029F158F1BB
:102CE0008551823040F5688170E080E090E00E947C
:102CF0004E2820E030E040E853E40E9404296B01B4
:102D00007C01698170E080E090E00E9450289B0186
:102D1000AC01C701B6010E944D2720E030E040E23F
:102D200051E40E94B5270BC0688170E080E090E01C
:102D30000E944E2804C060E070E080EC9FE7DF91C5
:102D4000CF91FF90EF90DF90CF900895FF920F9377
:102D50001F93CF93DF93FC010081C181D281F8944E
:102D60008981F02EF0948F21898378941DE711508A
:102D700029F182E090E00E94471988818023B9F30D
:102D8000F8948A818F218A838981802B8983789422
:102D900080EE91E00E944719F89489818F21898300
:102DA00086E490E00E9447198881802311E009F0B1
:102DB00010E078948AE991E00E944719812FDF9111
:102DC000CF911F910F91FF9008951F93CF93DF93A1
:102DD000FC011081C181D281912F909560FF12C0BA
:102DE000F8948A8189238A838981812B89838AE067
:102DF00090E00E9447198A81812B8A83789487E327
:102E000090E011C0F8948A8189238A838981812B7B
:102E1000898381E490E00E9447198A81812B8A830B
:102E2000789485E090E0DF91CF911F910C94471941
:102E30000F931F93CF93DF93FC011081C181D28147
:102E4000F8948981812B89838A81012F00958023C1
:102E50008A8383E090E00E944719898180238983D7
:102E60008AE090E00E944719C881789485E390E059
:102E70000E9447191C2381E009F480E0DF91CF9183
:102E80001F910F910895CF92DF92EF92FF920F93CF
:102E90001F93CF93DF931F92CDB7DEB76C01E62E61
:102EA00008E010E0FF24F39461E09F2D9E2109F4D7
:102EB00060E0C60149830E94E516FF0C015011092C
:102EC00049810115110581F7411115C0F894D6010A
:102ED0001196ED91FC91129791818C9180958923A7
:102EE00081831196ED91FC91129792818C9180953E
:102EF0008923828378940F90DF91CF911F910F9156
:102F0000FF90EF90DF90CF900895EF92FF920F9394
:102F10001F93CF93DF938C01C8E0D0E0F12CEE2417
:102F2000E394C8010E9418178111FE28EE0C219726
:102F3000C1F78F2DDF91CF911F910F91FF90EF90EF
:102F40000895CF92DF92FF920F931F93CF93DF9359
:102F50001F92CDB7DEB78C01F62E40E065E5798390
:102F60000E944317CF2C7981D72E88E0F82EF601E6
:102F700061916F0140E0C8010E944317FA94B9F7CC
:102F80000F90DF91CF911F910F91FF90DF90CF9025
:102F9000089540E06CEC0C944317FC0113861586F1
:102FA000148627E030E0DF01A20FB31F13961C92B6
:102FB0002115310519F021503109F5CF08951F93DE
:102FC000CF93DF93EC01162F60E0812F0E94151A3A
:102FD000612F70E0FB01EA5EFD4FE491E883FB01A5
:102FE000EC5CFD4FE491F0E0EE0FFF1FEE5AFD4F59
:102FF000859194919A838983CE01DF91CF911F911E
:103000000C94CD17AF92BF92CF92DF92EF92FF92C6
:103010000F931F93CF93DF931F92CDB7DEB75C0161
:10302000E62ED72EFC01858581115DC0C5010E9469
:10303000A616811105C0F5011386158614866EC08B
:1030400040E060EFC5010E94431701E0F12CC12C64
:1030500011E0C5010E941817682FC50169830E94FD
:1030600018176981613019F48130B9F433C02F2DFC
:1030700030E068131BC0F5018385181730F4E20FA8
:10308000F31F8381802349F402C0181731F060E0F8
:10309000193058F4F501148708C0F501EF0DF11D42
:1030A0008381802B838361E009C0C12EF501E20F8B
:1030B000F31F8381902F909589238383C5010E94FC
:1030C000E5161F5F000F11F4F39401E0F7E0FF1520
:1030D00008F0BFCF113438F0F501C386C11018C015
:1030E00081E0858715C0F50113861586148680E07A
:1030F000EE2DFD2D20E030E0D501A20FB31F139679
:103100009C9191932F5F3F4F28303105A9F706C05E
:10311000F5018381882339F381E0EACF0F90DF91B5
:10312000CF911F910F91FF90EF90DF90CF90BF90C4
:10313000AF900895DC0180E0615038F0ED91E82710
:10314000F0E0E451FF4F8491F7CF08951F920F9262
:103150000FB60F9211242F933F938F939F93AF93AA
:10316000BF9380912A0890912B08A0912C08B091D0
:103170002D083091290823E0230F2D3720F40196E4
:10318000A11DB11D05C026E8230F0296A11DB11D8A
:103190002093290880932A0890932B08A0932C0849
:1031A000B0932D0880912E0890912F08A09130089F
:1031B000B09131080196A11DB11D80932E08909306
:1031C0002F08A0933008B0933108BF91AF919F9121
:1031D0008F913F912F910F900FBE0F901F901895D8
:1031E0002FB7F89460912A0870912B0880912C08D1
:1031F00090912D082FBF08953FB7F89480912E0825
:1032000090912F08A0913008B091310826B5A89B65
:1032100005C02F3F19F00196A11DB11D3FBF6627C4
:10322000782F892F9A2F620F711D811D911D42E009
:10323000660F771F881F991F4A95D1F70895CF927F
:10324000DF92EF92FF92CF93DF936B017C010E949C
:10325000FC18EB01C114D104E104F10489F00E94CF
:103260002E250E94FC186C1B7D0B683E734090F36A
:1032700081E0C81AD108E108F108C851DC4FEACF53
:10328000DF91CF91FF90EF90DF90CF90089501975D
:1032900039F0880F991F880F991F02970197F1F74E
:1032A0000895789484B5826084BD84B5816084BDBE
:1032B00085B5826085BD85B5816085BDEEE6F0E0AF
:1032C000808181608083E1E8F0E01082808182600B
:1032D0008083808181608083E0E8F0E0808181608C
:1032E0008083E1E9F0E08081826080838081816079
:1032F0008083E0E9F0E0808181608083E1ECF0E0B0
:10330000808184608083808182608083808181600D
:103310008083E3ECF0E0808181608083E0ECF0E08A
:10332000808182608083E2ECF0E080818160808334
:10333000EAE7F0E08081846080838081826080831E
:10334000808181608083808180688083089582315C
:1033500008F08251E82FF0E0E451FE4FE4918091B3
:103360007B00E3FB222720F930E095E0220F331F9A
:103370009A95E1F78F7D822B80937B00E770809197
:10338000060120E4829FC0011124E82BE0937C0019
:1033900080917A00806480937A0080917A0086FD23
:1033A000FCCF809178002091790090E0922B0895D5
:1033B00090E0FC013197EF30F105B0F5EA5AFF4F8C
:1033C0000C94A129809180008F7703C080918000A8
:1033D0008F7D80938000089580918000877FF9CF52
:1033E00084B58F7702C084B58F7D84BD08958091A8
:1033F00090008F7707C0809190008F7D03C08091EF
:103400009000877F8093900008958091C0008F770F
:1034100003C08091C0008F7D8093C000089580918B
:10342000C200877F8093C2000895CF93DF9390E01E
:10343000FC01EA5EFD4F2491FC01EC5CFD4F8491A0
:10344000882349F190E0880F991FFC01E259FD4F54
:10345000A591B491805A9D4FFC01C591D4919FB71D
:10346000611108C0F8948C91209582238C938881F7
:1034700082230AC0623051F4F8948C91322F309537
:1034800083238C938881822B888304C0F8948C9149
:10349000822B8C939FBFDF91CF9108950F931F9341
:1034A000CF93DF931F92CDB7DEB7282F30E0F9011D
:1034B000E850FE4F8491F901EA5EFD4F1491F90145
:1034C000EC5CFD4F04910023C9F0882321F069834F
:1034D0000E94D8196981E02FF0E0EE0FFF1FE05A3B
:1034E000FD4FA591B4919FB7F8948C91611103C0E1
:1034F0001095812301C0812B8C939FBF0F90DF918A
:10350000CF911F910F910895CF93DF93282F30E033
:10351000F901E850FE4F8491F901EA5EFD4FD49124
:10352000F901EC5CFD4FC491CC2391F081110E9414
:10353000D819EC2FF0E0EE0FFF1FEE5AFD4FA591CA
:10354000B4912C912D2381E090E021F480E002C021
:1035500080E090E0DF91CF910895FC01818D228D74
:1035600090E0805C9F4F821B91098F73992708958B
:10357000FC01918D828D981731F0828DE80FF11D3D
:10358000858D90E008958FEF9FEF0895FC01918D58
:10359000828D981761F0828DDF01A80FB11D5D96B5
:1035A0008C91928D9F5F9F73928F90E008958FEF23
:1035B0009FEF08958AE49CE1892B49F080E090E038
:1035C000892B29F00E944A1C81110C940000089557
:1035D000FC01848DDF01A80FB11DA35ABF4F2C91B0
:1035E000848D90E001968F739927848FA689B7897F
:1035F0002C93A089B1898C9180648C93938D848D58
:10360000981306C00288F389E02D80818F7D808326
:103610000895CF93DF93EC01888D8823C9F0EA8960
:10362000FB89808185FD05C0A889B9898C9186FDBB
:103630000FC00FB607FCF5CF808185FFF2CFA889B8
:10364000B9898C9185FFEDCFCE010E94E81AE7CFB2
:10365000DF91CF910895CF92DF92FF920F931F9346
:10366000CF93DF931F92CDB7DEB76C01DC015B9681
:103670009C915B975C968C915C97981307C05096D1
:10368000ED91FC915197808185FD32C0F601038D4B
:1036900010E00F5F1F4F0F731127F02EF601848D7E
:1036A000F81211C00FB607FCF9CFD6015096ED9174
:1036B000FC915197808185FFF1CFC60169830E94FB
:1036C000E81A6981EBCF838DE80FF11DE35AFF4FB4
:1036D0006083D6015B960C935B975296ED91FC91BB
:1036E000539780818062808381E058968C930DC0CF
:1036F000D6015696ED91FC91579760835096ED91C7
:10370000FC91519780818064808381E090E00F90EC
:10371000DF91CF911F910F91FF90DF90CF9008958F
:10372000BF92CF92DF92EF92FF92CF93DF93EC01A3
:103730006A017B01B22EE889F98982E08083411514
:1037400081EE580761057105A1F060E079E08DE335
:1037500090E0A70196010E947F292150310941097B
:1037600051095695479537952795211580E13807DA
:1037700098F0E889F989108260E874E88EE190E0B9
:10378000A70196010E947F29215031094109510961
:103790005695479537952795EC85FD853083EE85C1
:1037A000FF852083188EEC89FD89B082EA89FB8928
:1037B000808180618083EA89FB8980818860808341
:1037C000EA89FB89808180688083EA89FB8980811E
:1037D0008F7D8083DF91CF91FF90EF90DF90CF902E
:1037E000BF9008951F920F920FB60F9211242F933E
:1037F0008F939F93EF93FF93E0914208F0914308DA
:103800008081E0914808F091490882FD12C09081C2
:1038100080914B088F5F8F7320914C08821751F075
:10382000E0914B08F0E0EE5CF74F958F80934B08EA
:1038300001C08081FF91EF919F918F912F910F9007
:103840000FBE0F901F9018951F920F920FB60F92F8
:1038500011242F933F934F935F936F937F938F9395
:103860009F93AF93BF93EF93FF9382E398E00E94FF
:10387000E81AFF91EF91BF91AF919F918F917F9146
:103880006F915F914F913F912F910F900FBE0F90CD
:103890001F90189582E398E00E94AD1A21E0892BD1
:1038A00009F420E0822F0895109235081092340810
:1038B00088EE93E0A0E0B0E080933608909337085C
:1038C000A0933808B093390886EC95E090933308BC
:1038D000809332088DEC90E090933F0880933E08EF
:1038E0008CEC90E0909341088093400888EC90E045
:1038F000909343088093420889EC90E090934508A8
:10390000809344088AEC90E090934708809346089F
:103910008EEC90E0909349088093480810924B08F1
:1039200010924C0810924D0810924E080895AF92D4
:10393000BF92CF92DF92EF92FF920F931F93CF939C
:10394000DF936C017B01C0E0D0E000E010E0F60105
:10395000EC0FFD1F4AE050E06281C7010E94521E39
:103960005C016EE2C7010E946D1D8A0D9B1D080F50
:10397000191F2196C330D10551F74AE050E0F601F6
:103980006581C7010E94521E800F911FDF91CF9168
:103990001F910F91FF90EF90DF90CF90BF90AF906D
:1039A00008950F93FC0186ED95E0918380836283F7
:1039B0004383248305830F91089586ED95E09093CA
:1039C000D0088093CF081092D1081092D20810929C
:1039D000D3081092D408089508950E9451190E94A6
:1039E000EC1C85ED98E00E9400230E94FE05CAEDC4
:1039F000DAE10E9429062097E1F30E94DA1AF9CF52
:103A00000C94BB290C94BB290C94532A0C94532A74
:103A1000CF92DF92EF92FF920F931F93CF93DF939A
:103A20006C017A01EB01E60EF71E00E010E0CE1506
:103A3000DF0561F06991D601ED91FC910190F08173
:103A4000E02DC6010995080F191FF1CFC801DF91BC
:103A5000CF911F910F91FF90EF90DF90CF9008953D
:103A60006115710581F0DB010D900020E9F7AD01D2
:103A700041505109461B570BDC01ED91FC9102802E
:103A8000F381E02D099480E090E00895EF92FF9299
:103A90000F931F93CF93DF938C01FB01C0E0D0E025
:103AA00064917F018FEFE81AF80A662361F0D8016C
:103AB000ED91FC910190F081E02DC8010995C80FAE
:103AC000D91FF701EDCFCE01DF91CF911F910F915B
:103AD000FF90EF9008950C94301DDC01ED91FC9166
:103AE0000190F081E02D09940F931F93CF93DF9302
:103AF000EC016DE00E946D1D8C016AE0CE010E9418
:103B00006D1D800F911FDF91CF911F910F9108952F
:103B10000F931F93CF93DF93EC010E94301D8C0114
:103B2000CE010E94741D800F911FDF91CF911F91D4
:103B30000F9108958F929F92AF92BF92CF92DF9292
:103B4000EF92FF920F931F93CF93DF93CDB7DEB722
:103B5000A1970FB6F894DEBF0FBECDBF7C01C42E77
:103B6000E52FCB01D22E19A221E02D1510F02AE06D
:103B7000D22E8E010F5D1F4F8D2C912CA12CB12CBC
:103B80006C2D7E2FA50194010E947F298C2DD29E41
:103B900080191124015011098A3014F4805D01C08C
:103BA000895CF8018083211531054105510521F01B
:103BB000C22EE32FCA01E4CFB801C7010E94301D15
:103BC000A1960FB6F894DEBF0FBECDBFDF91CF91A7
:103BD0001F910F91FF90EF90DF90CF90BF90AF902B
:103BE0009F908F900895CF92DF92EF92FF920F9364
:103BF0001F93CF93DF93EC016A017B0121153105FF
:103C000079F4E881F9810190F081E02D642FDF9152
:103C1000CF911F910F91FF90EF90DF90CF9009947B
:103C20002A303105E9F477FF1AC06DE20E946D1D5C
:103C30008C0144275527BA014C195D096E097F098B
:103C40002AE0CE010E949A1D800F911FDF91CF9133
:103C50001F910F91FF90EF90DF90CF9008952AE091
:103C6000B701A601CE01DF91CF911F910F91FF9077
:103C7000EF90DF90CF900C949A1D9A01AB016627CC
:103C800057FD6095762F0C94F31D2115310541F4F5
:103C9000DC01ED91FC910190F081E02D642F0994FD
:103CA0000C949A1D9A01462F50E060E070E00C944D
:103CB000451E4F925F926F927F928F929F92AF922A
:103CC000BF92CF92DF92EF92FF920F931F93CF9309
:103CD000DF93EC016A017B01B22E9A01AB01C701AF
:103CE000B6010E946729882319F068ED75E027C0A6
:103CF00026013701E89477F82FEF3FEF4FE75FE7B2
:103D0000C301B2010E94672981110DC02FEF3FEF5F
:103D10004FE75FE7C301B2010E94B12718161CF4F8
:103D20006CED75E00CC02FEF3FEF4FE75FE4C7018C
:103D3000B6010E9400291816ACF460EE75E0CE01C1
:103D4000DF91CF911F910F91FF90EF90DF90CF9077
:103D5000BF90AF909F908F907F906F905F904F90AB
:103D60000C94301D2FEF3FEF4FE75FECC701B6011A
:103D70000E94B12787FDE1CF20E030E0A901C70113
:103D8000B6010E94B12787FF0AC06DE2CE010E94F2
:103D90006D1D8C01F7FAF094F7F8F09402C000E082
:103DA00010E0A12C60E070E080E09FE3AB1441F0F4
:103DB00020E030E040E251E40E94B527A394F6CF22
:103DC0009B01AC01C701B6010E944D276B017C012C
:103DD0000E9422282B013C010E944E289B01AC012D
:103DE000C701B6010E944C276B017C012AE0B30198
:103DF000A201CE010E949A1D080F191FBB2039F0A5
:103E000064EE75E0CE010E94301D080F191F7B2C57
:103E1000772041F120E030E040E251E4C701B601F3
:103E20000E9404296B017C010E941D284B01AA24D9
:103E300097FCA094BA2C2AE030E0B501A401CE0191
:103E40000E94F31D080F191FC501B4010E945028DC
:103E50009B01AC01C701B6010E944C276B017C019C
:103E60007A94D6CFC801DF91CF911F910F91FF9027
:103E7000EF90DF90CF90BF90AF909F908F907F900A
:103E80006F905F904F9008950C94591E0F931F935D
:103E9000CF93DF93EC010E94F018688779878A87B7
:103EA0009B87E881F9810680F781E02DCE01099595
:103EB00097FF15C00E94F018088519852A853B8553
:103EC000601B710B820B930B0C811D812E813F8136
:103ED000601771078207930720F38FEF9FEFDF9141
:103EE000CF911F910F9108950F931F93CF93DF935D
:103EF000EC018B0168EA74E00E948C23C8010E94E7
:103F0000461F97FD05C0682FCE010E945024F6CFB2
:103F1000CE01DF91CF911F910F9108954091D90863
:103F20005091DA082091D7083091D80842175307EA
:103F3000B4F49091E8009570E1F39091E80092FD5F
:103F400019C08093F1008091D9089091DA08019608
:103F50008F739927892B19F48EEF8093E800809155
:103F6000D9089091DA0801969093DA088093D908DD
:103F700081E0089580E00895FF920F931F93CF93FF
:103F8000DF938C0188E10E948E1F83E00E948E1FC8
:103F9000C0E0D0E0F801EC0FFD1F84910E948E1F5D
:103FA000F82E80E00E948E1F8F2121F02196CB30C9
:103FB000D10581F7DF91CF911F910F91FF90089567
:103FC000615030F02091F100FC0120830196F8CF80
:103FD000289884E68093DC0808952FB7FC0120839D
:103FE000F89467706093E9000895CF93DF931F9270
:103FF000CDB7DEB7682FCE0101960E94ED1F8091EC
:10400000F20099819FBF0F90DF91CF910895FF92A9
:104010000F931F93CF93DF9300D0CDB7DEB7F62E6B
:104020008A019091DB08992311F057FF03C08FEFAD
:104030009FEF2BC0682FCE0101967A830E94ED1F5F
:104040008091F20090E0A8017A81801791070CF42A
:10405000AC01EF2DF72FF40E84E6FE1639F0289808
:104060008093DC089091F1009193F7CF41155105B1
:1040700021F08091F200882321F089818FBFCA014D
:1040800004C08BE68093E800F8CF0F900F90DF918B
:10409000CF911F910F91FF900895CF93DF931F92BF
:1040A000CDB7DEB741E050E0BE016F5F7F4F0E94A9
:1040B0000720019719F4898190E002C08FEF9FEFEC
:1040C0000F90DF91CF910895CF93DF931F92CDB7DB
:1040D000DEB7682FCE0101960E94ED1F9091E80097
:1040E000892F807295FF04C09091F20080E4891BB3
:1040F00099819FBF0F90DF91CF9108956F927F922A
:104100008F929F92AF92BF92CF92DF92EF92FF92E7
:104110000F931F93CF93DF931F92CDB7DEB7782E07
:104120007B01C42EB52E8091DB08882369F0042F13
:10413000152F8AEFD82E872D8072982E9AE3A92EFC
:10414000872D8074882E11C08FEF9FEF57C0872D69
:104150000E946420682E81110CC0DA94A9F361E0FA
:1041600070E080E090E00E941F190115110579F7B9
:104170003BC0282F30E0021713070CF4602E672D88
:10418000CE0101960E94ED1F8091E80085FF29C0B5
:10419000262D30E0021B130B992039F06A948FEF23
:1041A0006816B1F01092F100F9CFF701862D77FE75
:1041B00007C0815058F094919093F1003196F9CF57
:1041C000815020F091919093F100FACFE20EF31E0E
:1041D0008091E80085FF0FC00115110511F48110D1
:1041E0000AC089818FBFC1CF5D9884E68093DD08C6
:1041F0008C2D9B2D03C0A092E800F3CF0F90DF9190
:10420000CF911F910F91FF90EF90DF90CF90BF90D3
:10421000AF909F908F907F906F9008951092E900DB
:104220001092DA081092D9089093D8088093D70892
:104230000895CF92DF92FF920F931F93CF93DF9356
:1042400000D0CDB7DEB7F82E8A016B01011511053C
:10425000B1F0F601F7FE02C0849101C0808149836C
:104260005A830E948E1F01501109FFEFCF1ADF0AF7
:1042700049815A818111EACF8FEF9FEF01C0CA01B6
:104280000F900F90DF91CF911F910F91FF90DF90D2
:10429000CF9008951F93CF93DF931F92CDB7DEB7D2
:1042A000162F2091E80022FFFCCF612F79830E9416
:1042B000E01F8BEF8093E800812F7981972F0F907B
:1042C000DF91CF911F910895CF93DF931F92CDB7C8
:1042D000DEB71982CE0101960E948C25CE0101968F
:1042E0000E942726898190E00F90DF91CF91089559
:1042F0001F920F920FB60F921124EF92FF920F931D
:104300001F932F933F934F935F936F937F938F935D
:104310009F93AF93BF93EF93FF93CF93DF93CDB76B
:10432000DEB76297DEBFCDBF1092E9008091E80052
:1043300083FFE9C068E0CE010A960E94E01F82EF89
:104340008093E8009A8597FF05C08091E80080FF80
:10435000FCCF03C08EEF8093E800892F807609F0B0
:10436000B7C08B85811105C01092F1001092F10049
:10437000C3C0282F2D7F213009F4BEC0853049F4F9
:104380008091E80080FFFCCF8C8580688093E300FB
:10439000B3C0863009F074C02D85E888F9882230D2
:1043A00071F580E090E02A8B0E940E210E9464212A
:1043B00099E08E010F5F1F4FF801392F11923A9546
:1043C000E9F799832A892A8391E09E8390E8988768
:1043D0009AEF99872091D9083091DA08275F3F4FEB
:1043E0003C832B838D83C7010E940E2149E050E05E
:1043F000B80180E00E9419210E9464217DC0C7019C
:104400002A8B0E940E212A89223241F482E290E016
:104410000E943226892B09F06FC072C0213069F4E6
:1044200088899989089711F42093D6088091D60835
:10443000811116C063E972E018C0233009F060C032
:104440008C85882381F0823019F481EB92E005C0DD
:10445000813009F055C085EA92E00E94BC1F4AC035
:1044600061E872E002C06DEB72E06115710509F45C
:1044700047C0FB01449150E080E80E9419213CC0F4
:10448000873009F43DC0883021F481E08093F10049
:1044900033C0893089F5937099F5EDE7F2E081E05A
:1044A00021E096E38093E9002093EB003491309370
:1044B000EC009093ED008F5F3196853099F78EE791
:1044C0008093EA001092EA008C858093DB0814C088
:1044D000888999890E940E218E85811105C0CE019F
:1044E0000A960E94972506C0823051F4CE010A96A2
:1044F0000E945A26882321F08EEF8093E80003C0A3
:1045000081E28093EB0062960FB6F894DEBF0FBE97
:10451000CDBFDF91CF91FF91EF91BF91AF919F916F
:104520008F917F916F915F914F913F912F911F914B
:104530000F91FF90EF900F900FBE0F901F90189566
:104540008093E9008091F200882319F08AE3809338
:10455000E80008951F920F920FB60F9211242F9327
:104560003F934F935F936F937F938F939F93AF93FB
:10457000BF93EF93FF938091E1001092E10083FFDE
:104580000FC01092E90091E09093EB001092EC00C4
:1045900092E39093ED001092DB0898E09093F00086
:1045A00082FF1DC083E00E94A0228091DD08882345
:1045B00039F08091DD0881508093DD08882369F00F
:1045C0008091DC08882359F08091DC088150809329
:1045D000DC08811104C0289A02C05D9AF1CFFF91D6
:1045E000EF91BF91AF919F918F917F916F915F916B
:1045F0004F913F912F910F900FBE0F901F901895E4
:104600001092DB0881E08093D70080EA8093D80085
:1046100082E189BD09B400FEFDCF61E070E080E079
:1046200090E00E941F1980E98093D8008CE080936D
:10463000E2001092E000559A209A0895FC018081D2
:1046400091810C94532ACF93DF93EC018881998157
:10465000009711F00E94532A198218821D821C8231
:104660001B821A82DF91CF9108950F931F93CF93EE
:10467000DF93EC018B016F5F7F4F888199810E94EE
:10468000E22A009731F0998388831B830A8381E0B3
:1046900001C080E0DF91CF911F910F910895CF93DA
:1046A000DF93EC0188819981892B29F08A819B8194
:1046B0008617970760F4CE010E943523882341F0C6
:1046C0008C819D81892B19F4E881F981108281E028
:1046D000DF91CF910895EF92FF920F931F93CF93A5
:1046E000DF93EC017B018A01BA010E944F23811103
:1046F00004C0CE010E94232307C01D830C83B70191
:10470000888199810E94E12BCE01DF91CF911F9189
:104710000F91FF90EF900895FC0111821082138297
:104720001282158214826115710559F0FB01019006
:104730000020E9F7AF0141505109461B570B0C947B
:104740006B230895EF92FF920F931F93CF93DF9304
:10475000EC017B018A01BA010E944F23811104C040
:10476000CE010E94232307C01D830C83B7018881DB
:1047700099810E94B42BCE01DF91CF911F910F91AF
:10478000FF90EF900895CF93DF93EC01FB01861724
:10479000970761F0608171816115710529F044818D
:1047A00055810E946B2302C00E942323CE01DF911A
:1047B000CF910895FC01118210821382128215821A
:1047C00014820C94C3230F931F93CF93DF9300D0D5
:1047D000CDB7DEB78C016115710561F0CB0169833E
:1047E0007A830E94BB2BAC0169817A81C8010E9447
:1047F000A22302C00E942323C8010F900F90DF91D3
:10480000CF911F910F910895FC01118210821382A4
:104810001282158214820C94E323EF92FF920F937D
:104820001F93CF93DF93EC017B010C811D816115F8
:10483000710511F480E016C04115510591F0040F87
:10484000151FB8010E944F238823A1F328813981C5
:104850008C819D81B701820F931F0E94E12B1D83E4
:104860000C8381E0DF91CF911F910F91FF90EF902A
:104870000895FB0144815581608171810C940D2460
:104880006115710559F0FB0101900020E9F7AF01B6
:1048900041505109461B570B0C940D2480E008959C
:1048A000CF93DF9300D0CDB7DEB769831A8241E0A2
:1048B00050E0BE016F5F7F4F0E940D240F900F905C
:1048C000DF91CF910895EF92FF920F931F93CF93B3
:1048D000DF9300D000D0CDB7DEB77C01862F4AE051
:1048E00050E08E010F5F1F4FB80190E00E94022C34
:1048F000F80101900020E9F7AF0141505109401B38
:10490000510BB801C7010E940D240F900F900F901A
:104910000F90DF91CF911F910F91FF90EF9008952D
:10492000FC0124813581232B31F421E061157105CF
:10493000A1F0FB0108C0FC01808191816115710526
:1049400031F421E0FC018081882339F005C00E9408
:10495000D82B21E0892B09F020E0822F0895CF93F6
:10496000DF93FC01848195814817590778F4C08151
:10497000D181FB0160817181CE01840F951F0E945E
:10498000E82B009719F08C1B9D0B02C08FEF9FEF57
:10499000DF91CF91089540E050E00C94AF24AF92A6
:1049A000BF92CF92DF92EF92FF920F931F93CF931C
:1049B000DF937C01DC01CD90DC901197C114D10410
:1049C00009F441C01496CD91DC9115972097D9F147
:1049D00056018501BFEFAB1ABB0AF8018081992708
:1049E00087FD90950E94AC2B892B99F72197CC0DD0
:1049F000DD1D8881992787FD90950E94AC2B892B1E
:104A000091F4AE014F5F5F4F401B510BD7011596DC
:104A10005C934E931497C016D10650F4B801C601AA
:104A20000E94C42B05C0C017D10758F32197E1CFCE
:104A3000D701ED91FC91119714968D919C9115974A
:104A4000E80FF91F1082DF91CF911F910F91FF9016
:104A5000EF90DF90CF90BF90AF9008950895CF93DF
:104A6000DF931F92CDB7DEB76983DC01ED91FC9136
:104A70000280F381E02D41E050E0BE016F5F7F4F87
:104A800009950F90DF91CF910895CF93DF93EC01BB
:104A90008C859D8597FF05C082E00E944D209D87F3
:104AA0008C878C859D85DF91CF91089583E00C9450
:104AB000A022FC018485958597FD06C082E00E94B6
:104AC000F51F90E00196089582E00E94F51F90E0A6
:104AD0000895FC018485958597FD05C02FEF3FEF74
:104AE00035872487089582E00C944D20CF93DF937F
:104AF000EC0180910E01882331F083E00E947E203A
:104B00001816190634F081E090E09B838A8380E0D8
:104B100090E0DF91CF910895FC0120812E5F2083EA
:104B200042E450E061EC72E080E80C941921FC0151
:104B300081819081913A59F4813209F03CC047E07B
:104B400050E067E071E080E00E94192143C091329B
:104B500091F5803239F467E070E087E091E00E94DF
:104B60004A2106C0823209F035C0828180930E014D
:104B70008091070190910801A0910901B0910A016B
:104B8000803B9440A105B105C1F480910E0180FDE8
:104B900014C087E797E790930108809300082BE003
:104BA00088E190E00FB6F894A895809360000FBE5E
:104BB000209360000FC080E0089588E10FB6F8945C
:104BC00080936000109260000FBEA89510920108BB
:104BD0001092000881E008951092E1081092E00818
:104BE00088EE93E0A0E0B0E08093E2089093E308C1
:104BF000A093E408B093E5088AEE95E09093DF086F
:104C00008093DE088FEF9FEF9093EB088093EA0884
:104C10000895FF920F931F93CF93DF93EC01F62E2D
:104C2000E881F9810480F581E02D09958C01E88106
:104C3000F9810680F781E02D6F2DCE010995C8011D
:104C40009927DF91CF911F910F91FF900895FC015B
:104C500020812F5F208349E150E063E873E080E822
:104C60000C94192145E650E06CE973E080E80C945F
:104C70001921EF92FF920F931F93CF93DF931F920F
:104C8000CDB7DEB789838B017A0141E050E0BE01E8
:104C90006F5F7F4F84E00E947E20A701B80184E40B
:104CA0000E947E200F90DF91CF911F910F91FF9076
:104CB000EF900895FC0191818081813A31F481E087
:104CC000913091F0933089F411C0813271F49B30AE
:104CD00021F482818093100105C09A3031F48281E1
:104CE00080930F0181E00895089580E0089548E0E1
:104CF00050E082E00C943926CF93DF93DC016838D2
:104D000018F0E8E7E60F25C0E62FF0E067FF11C0D6
:104D1000E058F10981E090E001C0880FEA95EAF7D8
:104D200014969C911497982B14969C931497E0E0FA
:104D300010C0ED5FFC4FE491EE2309F440C0E7FFA3
:104D400008C014968C911497826014968C931497D3
:104D5000EF7716968C9116978E1741F117968C91D6
:104D600017978E1719F118968C9118978E17F1F0E6
:104D700019968C9119978E17C9F01A968C911A97DB
:104D80008E17A1F01B968C911B978E1779F080E0FF
:104D900090E0ED01C80FD91F2E81211102C0EE83D2
:104DA00005C0019686309105A1F709C0BD016C5F71
:104DB0007F4FCD010E94772681E090E008C081E01E
:104DC00090E013969C938E93129780E090E0DF9191
:104DD000CF910895683818F0E8E7E60F25C0E62F70
:104DE000F0E067FF12C0E058F10921E030E001C0B7
:104DF000220FEA95EAF72095DC0114963C9114976E
:104E0000322314963C93E0E00FC0ED5FFC4FE49139
:104E1000EE2329F1E7FF08C0DC0114962C911497CA
:104E20002D7F14962C93EF7720E030E0EE2351F0A5
:104E3000DC01A20FB31F16964C9116974E1302C0B9
:104E400016961C922F5F3F4F2630310579F7BC0133
:104E50006C5F7F4F0E94772681E090E0089580E0AC
:104E600090E00895FC011682178210861186128642
:104E700013861482BC016C5F7F4F0C9477261092CE
:104E80003A0910923109109230098AEF95E0909317
:104E90002F0980932E0908955058BB27AA270ED0BA
:104EA00075C166D130F06BD120F031F49F3F11F421
:104EB0001EF45BC10EF4E095E7FB51C1E92F77D1F9
:104EC00080F3BA17620773078407950718F071F427
:104ED0009EF58FC10EF4E0950B2EBA2FA02D0B017D
:104EE000B90190010C01CA01A0011124FF27591B2F
:104EF00099F0593F50F4503E68F11A16F040A22F35
:104F0000232F342F4427585FF3CF469537952795A5
:104F1000A795F0405395C9F77EF41F16BA0B620BA4
:104F2000730B840BBAF09150A1F0FF0FBB1F661FEB
:104F3000771F881FC2F70EC0BA0F621F731F841F2E
:104F400048F4879577956795B795F7959E3F08F054
:104F5000B3CF9395880F08F09927EE0F9795879513
:104F60000895D9D008F481E008950CD00FC107D17D
:104F700040F0FED030F021F45F3F19F0F0C0511145
:104F800039C1F3C014D198F39923C9F35523B1F370
:104F9000951B550BBB27AA2762177307840738F0A8
:104FA0009F5F5F4F220F331F441FAA1FA9F333D007
:104FB0000E2E3AF0E0E830D091505040E695001CBB
:104FC000CAF729D0FE2F27D0660F771F881FBB1F77
:104FD000261737074807AB07B0E809F0BB0B802D51
:104FE000BF01FF2793585F4F2AF09E3F510568F09D
:104FF000B6C000C15F3FECF3983EDCF38695779531
:105000006795B795F7959F5FC9F7880F911D96959E
:10501000879597F90895E1E0660F771F881FBB1FFA
:10502000621773078407BA0720F0621B730B840BA7
:10503000BA0BEE1F88F7E095089504D06894B1117B
:10504000D9C00895BCD088F09F5790F0B92F992708
:10505000B751A0F0D1F0660F771F881F991F1AF083
:10506000BA95C9F712C0B13081F0C3D0B1E008954C
:10507000C0C0672F782F8827B85F39F0B93FCCF3CD
:10508000869577956795B395D9F73EF49095809579
:10509000709561957F4F8F4F9F4F0895E89409C099
:1050A00097FB3EF490958095709561957F4F8F4F5B
:1050B0009F4F9923A9F0F92F96E9BB279395F69571
:1050C000879577956795B795F111F8CFFAF4BB0FEF
:1050D00011F460FF1BC06F5F7F4F8F4F9F4F16C053
:1050E000882311F096E911C0772321F09EE8872FDD
:1050F000762F05C0662371F096E8862F70E060E099
:105100002AF09A95660F771F881FDAF7880F969511
:10511000879597F90895990F0008550FAA0BE0E8B5
:10512000FEEF16161706E807F907C0F01216130669
:10513000E407F50798F0621B730B840B950B39F4A9
:105140000A2661F0232B242B252B21F408950A260F
:1051500009F4A140A6958FEF811D811D089597F94F
:105160009F6780E870E060E008959FEF80EC08950D
:1051700000240A9416161706180609060895002436
:105180000A9412161306140605060895092E0394B0
:10519000000C11F4882352F0BB0F40F4BF2B11F424
:1051A00060FF04C06F5F7F4F8F4F9F4F089557FD83
:1051B0009058440F551F59F05F3F71F04795880F85
:1051C00097FB991F61F09F3F79F08795089512161C
:1051D00013061406551FF2CF4695F1DF08C01616C8
:1051E00017061806991FF1CF869571056105089479
:1051F0000895E894BB2766277727CB0197F9089590
:105200008ADF08F48FEF08950BD0C0CFB1DF28F00C
:10521000B6DF18F0952309F0A2CFA7CF1124EACF6B
:10522000C6DFA0F3959FD1F3950F50E0551F629F05
:10523000F001729FBB27F00DB11D639FAA27F00DEF
:10524000B11DAA1F649F6627B00DA11D661F829F16
:105250002227B00DA11D621F739FB00DA11D621FFB
:10526000839FA00D611D221F749F3327A00D611D18
:10527000231F849F600D211D822F762F6A2F1124FA
:105280009F5750408AF0E1F088234AF0EE0FFF1F4D
:10529000BB1F661F771F881F91505040A9F79E3F84
:1052A000510570F05CCFA6CF5F3FECF3983EDCF386
:1052B000869577956795B795F795E7959F5FC1F7C1
:1052C000FE2B880F911D9695879597F9089523DFFA
:1052D000880B990B089597FB072E16F4009407D0BE
:1052E00077FD09D00E94A72907FC05D03EF49095D0
:1052F00081959F4F0895709561957F4F0895A1E224
:105300001A2EAA1BBB1BFD010DC0AA1FBB1FEE1F3F
:10531000FF1FA217B307E407F50720F0A21BB30B8A
:10532000E40BF50B661F771F881F991F1A9469F706
:1053300060957095809590959B01AC01BD01CF0162
:105340000895EE0FFF1F0590F491E02D0994AA1B1C
:10535000BB1B51E107C0AA1FBB1FA617B70710F060
:10536000A61BB70B881F991F5A95A9F78095909592
:10537000BC01CD010895CF93DF938230910510F4E5
:1053800082E090E0E0913D09F0913E0920E030E0BC
:10539000A0E0B0E0309739F14081518148175907BA
:1053A000B8F04817590771F482819381109729F05A
:1053B00013969C938E9312972CC090933E098093E2
:1053C0003D0927C02115310531F04217530718F068
:1053D000A901DB0101C0EF019A01BD01DF010280DB
:1053E000F381E02DD7CF21153105F9F0281B390BBA
:1053F0002430310580F48A819B816115710521F08B
:10540000FB019383828304C090933E0980933D09FE
:10541000FE01329644C0FE01E20FF31F8193919387
:1054200022503109398328833AC020913B093091B9
:105430003C09232B41F42091020130910301309368
:105440003C0920933B092091000130910101211575
:10545000310541F42DB73EB740910401509105014B
:10546000241B350BE0913B09F0913C09E217F3074F
:10547000A0F42E1B3F0B2817390778F0AC014E5FC4
:105480005F4F2417350748F04E0F5F1F50933C09BC
:1054900040933B098193919302C0E0E0F0E0CF019B
:1054A000DF91CF910895CF93DF93009709F487C0E0
:1054B000FC01329713821282C0913D09D0913E09BE
:1054C000209781F420813181280F391F80913B0979
:1054D00090913C098217930779F5F0933C09E0938A
:1054E0003B096DC0DE0120E030E0AE17BF0750F48D
:1054F00012964D915C9113979D014115510509F14B
:10550000DA01F3CFB383A28340815181840F951FC9
:105510008A179B0771F48D919C911197840F951FA9
:1055200002969183808312968D919C911397938319
:1055300082832115310529F4F0933E09E0933D095A
:105540003EC0D9011396FC93EE9312974D915D9155
:10555000A40FB51FEA17FB0779F480819181840FAE
:10556000951F0296D90111969C938E938281938107
:1055700013969C938E931297E0E0F0E08A819B81D2
:10558000009719F0FE01EC01F9CFCE0102962881B7
:105590003981820F931F20913B0930913C092817D4
:1055A000390769F4309729F410923E0910923D09A9
:1055B00002C013821282D0933C09C0933B09DF9151
:1055C000CF910895A0E0B0E0E8EEFAE20C94492C07
:1055D000EC01CB01209719F40E94BB29B8C0FE0151
:1055E000E60FF71F9E0122503109E217F30708F476
:1055F000ACC0D9010D911C91119706171707B8F08F
:105600000530110508F49FC0A80144505109461700
:10561000570708F498C002501109061B170B019395
:1056200011936D937C93CF010E94532A8CC05B0130
:10563000A01AB10A4E01800E911EA0913D09B091B1
:105640003E09612C712C60E070E0109709F449C0AC
:10565000A815B905C9F5ED90FC901197670142E0D6
:10566000C40ED11CCA14DB0478F147018A189B08C8
:10567000640142E0C40ED11C1296BC90129713969E
:10568000AC91B5E0CB16D10440F0B282A3839182F5
:105690008082D9018D939C9309C00E5F1F4F0E0D20
:1056A0001F1DF90111830083EB2DFA2F6115710580
:1056B00031F0DB011396FC93EE93129744C0F09304
:1056C0003E09E0933D093FC06D917C9111976616AC
:1056D000770608F43B01BD0112960D90BC91A02DF8
:1056E000B4CF60913B0970913C0968157905E9F4E4
:1056F00068167906D0F440910001509101014115DE
:10570000510541F44DB75EB76091040170910501F8
:10571000461B570BE417F507C0F4F0933C09E093E0
:105720003B09F901918380830EC00E94BB297C0153
:10573000009759F0A801BE010E94C42BCE010E941F
:10574000532AC70104C0CE0102C080E090E0CDB76B
:10575000DEB7EEE00C94652C911184C0803219F014
:1057600089508550D0F70895FB01DC0105900D921A
:105770000020E1F70895FC0105900020E9F78095ED
:1057800090958E0F9F1F0895FB01DC0102C00190D0
:105790000D9241505040D8F70895FB01DC010D9067
:1057A0000020E9F7119701900D920020E1F708958C
:1057B000FB01DC018D91019080190110D9F3990B47
:1057C0000895FB01DC0101900D920020E1F708959E
:1057D000FB0151915523A9F0BF01DC014D91451703
:1057E0004111E1F759F4CD010190002049F04D91AC
:1057F00040154111C9F3FB014111EFCF81E090E069
:10580000019708954532510520F4423010F00C9470
:105810000D2CFB011082CB010895BB274A3031F4D7
:10582000992322F4BDE2909581959F4F0C94192CF9
:10583000BB27FB015527AA27880F991FAA1FA4176A
:1058400010F0A41B83955051B9F7A05DAA3308F05E
:10585000A95DA193009779F7B111B1931192CB0192
:105860000C94352C992788270895DC01FC01672FBB
:1058700071917723E1F7329704C07C916D93708327
:105880006291AE17BF07C8F308952F923F924F92CF
:105890005F926F927F928F929F92AF92BF92CF92C0
:1058A000DF92EF92FF920F931F93CF93DF93CDB7C9
:1058B000DEB7CA1BDB0B0FB6F894DEBF0FBECDBF41
:1058C00009942A88398848885F846E847D848C8412
:1058D0009B84AA84B984C884DF80EE80FD800C811B
:1058E0001B81AA81B981CE0FD11D0FB6F894DEBFFE
:1058F0000FBECDBFED01089514E0C8E1D4E004C0AF
:10590000FE010E94A3292296CC31D107C9F7F89451
:02591000FFCFC7
:1059120000003F0980000100E100000000000001DA
:1059220001585858585858583130307B22496E76B1
:10593200616C696420636F6D6D616E64223A22004E
:105942002274656D70223A224C6973742074656DFD
:10595200706572617475726520616E642068756D20
:105962006964697479222C002274656D7073223A1D
:10597200224C6973742074656D70657261747572FE
:105982006573222C00226C69676874223A224D6585
:105992006173757265206C69676874222C002264D9
:1059A200617465223A2253686F772063757272655B
:1059B2006E74206465766963652064617465207421
:1059C200696D65222C002264617461223A22536857
:1059D2006F772073656E736F722064617461222C1D
:1059E20000226D616B6570686F6E6563616C6C221D
:1059F2003A226D616B6520612070686F6E6520636D
:105A0200616C6C222C002273656E6473736D223A92
:105A12002253656E64206D65737361676520746FD0
:105A22002070686F6E65222C002273656E646D7340
:105A32006D223A2253656E64206D657373616765EA
:105A420020746F2070686F6E6520776974682070AB
:105A5200696374757265222C0022657272223A2281
:105A620053686F77206C617374206572726F722253
:105A72002C00227265736574223A22526573657432
:105A82002041726475696E6F22007B20224C696727
:105A92006874223A002C2022416464726573732276
:105AA2003A2022416E616C6F673022007B22657260
:105AB200726F72223A224661696C656420746F20AB
:105AC200726561642066726F6D204448542073656C
:105AD2006E736F7221227D007B202248756D69648E
