:100000000C940E020C9436020C9436020C943602B8
:100010000C9436020C9436020C9436020C94360280
:100020000C9436020C9436020C94B7200C94851F65
:100030000C9436020C9436020C9436020C94360260
:100040000C9436020C9436020C9436020C94360250
:100050000C9436020C9436020C9436020C94B816AA
:100060000C9436020C94051A0C94371A0C94360230
:100070000C9436020C9436020C9436020C94360220
:100080000C9436020C9436020C9436020C94360210
:100090000C9436020C9436020C9436020C94360200
:1000A0000C9436020C9436020C943602031806188F
:1000B000F517F917FF172718271827180A180E1809
:1000C000121818181C182718221872756E2D6272D3
:1000D000696467650A000A000A00302E302E302E4F
:1000E00030003132372E302E302E3100005EBCE22F
:1000F000613FDD83C29C7E20A3FD1F419DC3217F04
:10010000FCA2401E5F01E3BD3E6082DC237D9FC1F7
:10011000421CFEA0E1BF5D0380DE3C62BEE0025CEB
:10012000DF81633D7C22C09E1D43A1FF4618FAA4D7
:1001300027799BC584DA3866E5BB5907DB856739C3
:10014000BAE406581947A5FB7826C49A653BD987B7
:10015000045AB8E6A7F91B45C6987A24F8A6441AAB
:1001600099C7257B3A6486D85B05E7B98CD2306E97
:10017000EDB3510F4E10F2AC2F7193CD114FADF383
:10018000702ECC92D38D6F31B2EC0E50AFF1134D77
:10019000CE90722C6D33D18F0C52B0EE326C8ED06B
:1001A000530DEFB1F0AE4C1291CF2D73CA94762857
:1001B000ABF517490856B4EA6937D58B5709EBB543
:1001C00036688AD495CB2977F4AA4816E9B7550B37
:1001D00088D6346A2B7597C94A14F6A8742AC8962B
:1001E000154BA9F7B6E80A54D7896B3507060504FD
:1001F0000100080A0B0C0D090000000200090F00A5
:1002000000030401000C00000000000000000000DA
:10021000000000000000040802011040804010208F
:1002200040804080080204018040201002011080BC
:1002300010204040040404040403040502020202E6
:10024000040302020202060606060606040402026F
:100250000204000000002300260029002C002F00CB
:1002600000000000250028002B002E0031000000B7
:100270000000240027002A002D00300000C18081EA
:10028000C11201000202000040412341800001012F
:1002900002000112010002000000404123418000E1
:1002A000010102000141726475696E6F204C4C437C
:1002B0000041726475696E6F2059756E0004030900
:1002C00004080B00020202010009040000010202FE
:1002D0000000052400100105240101010424020688
:1002E00005240600010705810310004009040100F0
:1002F000020A000000070502024000000705830211
:1003000040000000000000000000002A2B28000030
:1003100000000000000000000000000000000000DD
:100320000000002C9EB4A0A1A2A434A6A7A5AE36BE
:100330002D3738271E1F20212223242526B333B62C
:100340002EB7B89F8485868788898A8B8C8D8E8FFF
:10035000909192939495969798999A9B9C9D2F3102
:1003600030A3AD350405060708090A0B0C0D0E0F66
:10037000101112131415161718191A1B1C1DAFB1E2
:10038000B0B50009040200010300000009210101C9
:1003900000012265000705840340000105010902F0
:1003A000A1010901A1008501050919012903150011
:1003B00025019503750181029501750581030501EC
:1003C0000930093109381581257F750895038106A3
:1003D000C0C005010906A1018502050719E029E74A
:1003E00015002501750195088102950175088103A5
:1003F0009506750815002565050719002965810012
:10040000C0002B058A09290B310B380B970E9C0F66
:10041000671AF01A362489257D052D0B11241FBE7D
:10042000CFEFDAE0DEBFCDBF13E0A0E0B1E0E6EA57
:10043000F5E502C005900D92AE36B107D9F726E07A
:10044000AEE6B3E001C01D92A834B207E1F714E0B4
:10045000C8E1D4E004C02297FE010E94ED27C2301B
:10046000D107C9F70E94001B0C94C62A0C94000007
:100470006BE171E08DE994E00E947A1B82E10E94B9
:10048000BA174AE050E0BC018DE994E00E943C1CA0
:1004900066E271E08DE994E00E947A1B69ED72E0FA
:1004A0008DE994E00C947A1B8F929F92AF92BF9249
:1004B000CF92DF92EF92FF920F931F938FE894E019
:1004C0000E94CF116093020470930304809304048C
:1004D0009093050460E08FE894E00E945B116093C4
:1004E000060470930704809308049093090461E064
:1004F0008FE894E00E945B116B017C0160930A0419
:1005000070930B0480930C0490930D04809002046C
:1005100090900304A0900404B0900504A5019401F8
:10052000C501B4010E94B127811116C06091060473
:100530007091070480910804909109049B01AC011B
:100540000E94B127811108C0A7019601C701B60119
:100550000E94B127882319F06DE371E068C095010E
:100560008401B701A6018FE894E00E94C00F609358
:100570000E0470930F04809310049093110469E6A5
:1005800071E08DE994E00E947A1B40910204509141
:100590000304609104047091050422E030E08DE9C9
:1005A00094E00E94431D6EE771E08DE994E00E94A3
:1005B0007A1B4091060450910704609108047091E1
:1005C000090422E030E08DE994E00E94431D69E8CF
:1005D00071E08DE994E00E947A1B40910A045091E9
:1005E0000B0460910C0470910D0422E030E08DE961
:1005F00094E00E94431D64E971E08DE994E00E945B
:100600007A1B40910E0450910F0460911004709178
:10061000110422E030E08DE994E00E94431D65EA78
:1006200071E08DE994E00E947A1B6AED72E08DE939
:1006300094E01F910F91FF90EF90DF90CF90BF90CB
:10064000AF909F908F900C947A1B6EEB71E08DE9C8
:1006500094E00E947A1B6EEC73E08DE994E00E94B6
:100660007A1B66E671E08DE994E00C947A1B60E0F9
:1006700087E00C946118811102C060E001C061E064
:1006800086E00E9461186CEC71E08DE994E00C94B6
:100690007A1B811102C060E001C061E085E00E9428
:1006A00061186CEC71E08DE994E00C947A1B65EEB6
:1006B00071E08DE994E00E94871B61EF71E08DE9A4
:1006C00094E00E94871B8DE994E00C94831BFF92B9
:1006D0000F931F93CF93DF93CDB7DEB762970FB61B
:1006E000F894DEBF0FBECDBF00E010E060E172E025
:1006F000CE0101960E949921BE016F5F7F4F8EE669
:1007000093E00E94D02297FD07C081E005311105DA
:100710000CF480E0F82E02C0FF24F394CE01019681
:100720000E942B21FF20A9F04DE06DE974E0CE017D
:1007300001960E94731DBE016F5F7F4F8EE693E0AE
:100740000E94D021CE0101960E942B210F5F1F4FE6
:10075000CDCF8EE693E00E94192364E172E0CE01D2
:1007600007960E949921BE01695F7F4F8EE693E054
:100770000E94D0228C016AE172E0CE010D960E94A7
:100780009921BE01635F7F4F8EE693E00E94D022E5
:10079000AC014E5F5F4F98016EE673E0CE010196AB
:1007A0000E94D422BE016F5F7F4F8EE693E00E94CD
:1007B000D021CE0101960E942B21CE010D960E94E0
:1007C0002B21CE0107960E942B2162960FB6F8943A
:1007D000DEBF0FBECDBFDF91CF911F910F91FF9074
:1007E00008951F93CF93DF938EE694E00E94241424
:1007F00090E090936D0480936C0410920104109229
:10080000000411E0C0910004D091010480916C04B7
:1008100090916D04C817D907DCF56DE172E08EEC9C
:1008200093E00E942B2ABE0183E0660F771F8A9512
:10083000E1F7645E7B4F4C2F8EE694E00E94361405
:100840002091000430910104F901EE5EFB4F81110B
:1008500014C010824AE069EC73E0C90101960E945D
:10086000572ABC018EEC93E00E94172A66E572E0DD
:100870008EEC93E00E94172A01C01083809100043F
:100880009091010401969093010480930004BACFE3
:10089000DF91CF911F9108950F931F93CF93DF9313
:1008A0008C01C0E0D0E0F80161918F0140E150E09F
:1008B0008DE994E00E94511CC730D10531F066E506
:1008C00072E08DE994E00E947A1B2196C830D10530
:1008D00051F7DF91CF911F910F910895CF92DF9241
:1008E000EF92FF928EE694E00E94231661E372E09D
:1008F0008DE994E00E947A1B10920104109200048A
:10090000209100043091010480916C0490916D0459
:10091000281739070CF077C063E372E08DE994E0A3
:100920000E947A1B809100049091010423E0880FBB
:10093000991F2A95E1F7845E9B4F0E944C0462E464
:1009400072E08DE994E00E947A1B66E472E08DE922
:1009500094E00E947A1B6091000470910104FB01F5
:10096000EE5EFB4F80818823E9F093E0660F771FEE
:100970009A95E1F7645E7B4F8EE694E00E94B41690
:100980006B017C0160930204709303048093040460
:100990009093050420E030E048EC52EC0E94FB25E7
:1009A00087FF07C060E572E08DE994E00E947A1B42
:1009B00008C022E030E0B701A6018DE994E00E9472
:1009C000431D6AED72E08DE994E00E947A1B8091EC
:1009D0006C0490916D040197209100043091010402
:1009E0002817390731F065E572E08DE994E00E943F
:1009F0007A1B809100049091010401969093010468
:100A0000809300047DCF68E572E08DE994E0FF906B
:100A1000EF90DF90CF900C947A1B6AE572E08DE93D
:100A200094E00E947A1B0E94380266E672E08DE92B
:100A300094E00E947A1B0E94540260E772E08DE904
:100A400094E00E947A1B0E946E046AED72E08DE9C8
:100A500094E00C947A1B0F9300E020E040E060E00B
:100A60008AEF94E00E94E41A40E055E063EB75E100
:100A700080EF94E00E94410F60E075E08DE994E022
:100A80000E94D50D26E046E16AE08FE894E00E94DE
:100A9000A70F62E081E894E00E944D1361E874E0E2
:100AA0008EE694E00E94151410927703109276035C
:100AB00088EE93E0A0E0B0E0809378039093790310
:100AC000A0937A03B0937B0380EF92E09093750339
:100AD0008093740380E095E090938103809380037A
:100AE00010928603109287031092880360E473E0EB
:100AF0008EE693E00F910C9499218EE693E00E948C
:100B00002B2184E793E00E94F40B8DE994E00C9490
:100B1000EC0D60E177E280E090E00E94311761E047
:100B200087E00E94281861E087E00E94611861E078
:100B300086E00E94281861E086E00E94611861E06A
:100B400085E00E94281861E085E00E94611861E05C
:100B50008DE00E94281860E08DE00E94611826E078
:100B600040E950ED63E070E08091090590910A053D
:100B70000E94A31980E095E00E9483088FE894E02A
:100B80000E94AE0F8EE694E00E9441150E94F10390
:100B90001092F70480EF94E00E94A20E61E08DE0D5
:100BA0000C946118CF93DF93CDB7DEB7C355D1094D
:100BB0000FB6F894DEBF0FBECDBF60EF74E0CE017C
:100BC00001960E944F0FBE016F5F7F4F8DE994E049
:100BD0000E94F20DCE0101960E94EC0D8091AD04B1
:100BE000882309F47CC00E9467030E94570363E8CE
:100BF00072E08EE693E00E949522882319F00E940D
:100C0000540269C068E872E08EE693E00E94952283
:100C1000882319F00E946E045EC06EE872E08EE6D2
:100C200093E00E949522882319F00E94380253C055
:100C300064E972E08EE693E00E949522882319F021
:100C40000E94250348C068E972E08EE693E00E94A6
:100C50009522882311F080E009C067EA72E08EE6F1
:100C600093E00E949522882321F081E00E943B03BB
:100C700032C06EE972E08EE693E00E9495228823EE
:100C800011F080E009C06DEA72E08EE693E00E9408
:100C90009522882321F081E00E9449031CC065EB66
:100CA00072E08EE693E00E949522882319F00E945C
:100CB000370311C06AEB72E08EE693E00E94952242
:100CC000882319F00E940D0506C06FEB72E08DE9D4
:100CD00094E00E94871B8DE994E00E94A70C61E0DC
:100CE0008DE00E94611862E370E080E090E00E9475
:100CF0003117CD5ADF4F0FB6F894DEBF0FBECDBF10
:100D0000DF91CF910895FC01238134812627022EA3
:100D10002295207F2025032E322F22952F70022628
:100D2000269532272327220F220F220F2025FC0190
:100D3000348323830895CF93DF93EC018D819E81CB
:100D4000DC01ED91FC916C810190F081E02D099521
:100D50008D819E81DC01ED91FC910190F081E02D6F
:100D60006B81DF91CF9109948F929F92AF92BF9246
:100D7000CF92DF92EF92FF92CF93DF93EC016B0162
:100D80000E9402174B015C01E12CF12C8D819E81A8
:100D9000DC01ED91FC910680F781E02D099597FF2C
:100DA0000DC00E940217681979098A099B096C1500
:100DB0007D058E059F0550F38FEF9FEFDF91CF915B
:100DC000FF90EF90DF90CF90BF90AF909F908F906B
:100DD0000895CF93DF93EC018D819E81DC01ED912D
:100DE000FC910480F581E02D09951816190654F43C
:100DF0008D819E81DC01ED91FC910680F781E02DD3
:100E00000995EACFDF91CF9108952F923F924F92AB
:100E10005F926F927F928F929F92AF92BF92CF928A
:100E2000DF92EF92FF920F931F93CF93DF93CDB793
:100E3000DEB72D970FB6F894DEBF0FBECDBF3C01D5
:100E40001B013C832B83BF82AE825801AC0CBD1CBE
:100E5000A40EB51EBD824B2C512CCA01860F971FC4
:100E600099878887D901A00FB11FBB87AA87F60190
:100E7000EE0DFF1DFD87EC87D30118968C91581657
:100E800008F026C1EFEFFFEFD3011496FC93EE9329
:100E9000139715968D919C911697DC01ED91FC911D
:100EA0000190F081E02D6FEF09956FEFC3010E9473
:100EB0008306F30185819681DC01ED91FC9101901F
:100EC000F081E02DD3016C910995F3016081C3019C
:100ED0000E948306D30115968D919C911697DC0193
:100EE000ED91FC910190F081E02D6D810995642DCB
:100EF000C3010E948306F30185819681DC01ED9197
:100F0000FC910190F081E02D6A2D09956A2DC301B5
:100F10000E948306610188859985C816D906A1F0CB
:100F2000F301858196818601DC01ED91FC910190B0
:100F3000F081E02DD6016D916D010995F801608178
:100F4000C3010E948306E7CFCB80DC808A859B8526
:100F5000C816D906B1F0D30115968D919C911697BC
:100F60008601DC01ED91FC910190F081E02DD6012C
:100F70006D916D010995F8016081C3010E9483069E
:100F8000E5CF87018C859D8508171907B1F0D3013E
:100F900015968D919C9116976801DC01ED91FC915D
:100FA0000190F081E02DD8016D918D010995F60138
:100FB0006081C3010E948306E5CFC3010E949B06A6
:100FC00064E670E0C3010E94B4068F3F910509F00A
:100FD00074C0EFEFFFEFD3011496FC93EE931397D9
:100FE0006FEFC3010E94830665E070E0C3010E94B9
:100FF000B406D3016C91262F30E08217930709F0D5
:101000005CC0C3010E9483066AE070E0C3010E94D5
:10101000B4068C0197FD51C0682FC3010E9483065E
:101020006AE070E0C3010E94B4066C0197FD45C000
:10103000682FC3010E9483060A83198209811A81DD
:101040000C0D1D1DC12CD12C65E070E0C301C01634
:10105000D106A1F0C814D90489F00E94B40697FD06
:1010600009C0EE81FF81EC0DFD1D8083682FC30157
:101070000E948306BFEFCB1ADB0AE6CF0E94B406BC
:101080006C0197FD1AC065E070E0C3010E94B406D0
:1010900097FD13C0DC2CCC24C80ED91EF30183812C
:1010A00094818C159D0549F480818F5F8083C801F0
:1010B0008016910678F4C4010DC0539464E670E084
:1010C00080E090E00E943117C3010E94E906D4CE6F
:1010D0008FEF9FEF2D960FB6F894DEBF0FBECDBFFA
:1010E000DF91CF911F910F91FF90EF90DF90CF9004
:1010F000BF90AF909F908F907F906F905F904F9038
:101100003F902F9008953F924F925F926F927F92FF
:101110008F929F92AF92BF92CF92DF92EF92FF9207
:101120000F931F93CF93DF93CDB7DEB72E970FB6F4
:10113000F894DEBF0FBECDBF3C01DC0117968C9149
:1011400017978111CFC081E017968C93C3010E943D
:10115000E90668EE73E080E090E00E943117F30149
:1011600085819681DC01ED91FC910480F581E02D73
:1011700009951816190654F355E0552E4424439446
:1011800062E3362EE1E1F1E0DE011696852D019055
:101190000D928A95E1F7F3014086812C912CA12CC8
:1011A000B12CC12CD12CE12CF12C00E010E020E07E
:1011B00030E045E050E0BE016A5F7F4FC3010E940E
:1011C000050763E0D30115968D919C9116970E94B7
:1011D0007C1B6AEF70E080E090E00E94311768EDC0
:1011E00070E0F301858196810E94551B6AEF70E0E3
:1011F00080E090E00E94311766ED70E0D301159613
:101200008D919C9116970E94551B64EF71E080E0D0
:1012100090E00E9431176AEC70E0F30185819681BD
:101220000E94551B64EF71E080E090E00E9431174E
:10123000C3010E94E906E6E1F1E0DE011196852D89
:1012400001900D928A95E1F7D30118963C9244E003
:10125000842E912CFE013B965F0120E030E045E0BA
:1012600050E0BE016F5F7F4FC3010E9405078F3FB3
:10127000FFEF9F0739F468EE73E080E090E00E9492
:10128000311780CF2B852111FFCF049711F52C85C5
:1012900030E02053310944E6429FC001439F900D46
:1012A00011242D8530E0205331096AE0629FA001AE
:1012B000639F500D1124840F951F2E8530E020531D
:1012C0003109820F931FD30112969C938E9311972D
:1012D00005C084E690E0F3019283818382E3D30129
:1012E00018968C932E960FB6F894DEBF0FBECDBF26
:1012F000DF91CF911F910F91FF90EF90DF90CF90F2
:10130000BF90AF909F908F907F906F905F904F9025
:101310003F900895109200058BE395E090930605A9
:1013200080930505109207051092080590930A0511
:101330008093090508958F929F92AF92BF92CF92AA
:10134000DF92EF92FF920F931F9348015901C12C36
:10135000D12CE12CF12C00E010E020E030E00E94E4
:1013600005071F910F91FF90EF90DF90CF90BF90F6
:10137000AF909F908F9008950F931F9300E010E01F
:1013800020E030E00E949B091F910F910895CF93B8
:10139000DF9300D0CDB7DEB7DC0152968C91529727
:1013A000882389F080E589836A8342E050E0BE01AA
:1013B0006F5F7F4F1C968D919C911D970E94BC0979
:1013C00081E090E01FC05596ED91FC9156975396A1
:1013D0008C91539791E0980F53969C935397E80FF5
:1013E000F11D608353969C91539754968C9154971A
:1013F000981308C0ED91FC9111970284F385E02DBC
:10140000CD0109950F900F90DF91CF910895AF9284
:10141000BF92CF92DF92EF92FF920F931F93CF93E1
:10142000DF9300D0CDB7DEB75C017A01DC015296C4
:101430008C91811104C08B01E60EF71E41C06A0138
:10144000BFEFCB1ADB0AC60169837A830E94131BA4
:101450008C01FC0180E58193A70169817A81CF012C
:101460000E940E2AA601B801F501848595850E9487
:10147000BC090115110519F0C8010E94151BC7010F
:1014800022C0D5015596ED91FC91569753968C91BB
:10149000539791E0980F53969C93D8019D918D019D
:1014A000E80FF11D9083F50193898489981308C092
:1014B0000190F081E02D0284F385E02DC5010995AE
:1014C0000E151F05F1F60F900F90DF91CF911F9130
:1014D0000F91FF90EF90DF90CF90BF90AF90089565
:1014E000CF93DF93EC018A8981110AC04B8950E0C8
:1014F0006D897E898C859D850E94BC0981E08B8BDE
:10150000DF91CF910895FC011382128248EE53E0DF
:1015100060E070E0448355836683778380EE92E0D9
:101520009183808380E095E095878487168617866F
:10153000118A108A81E0828B0895CF93DF93EC01AA
:101540008A89811108C08D899E89009711F00E94B7
:10155000151B81E08A8BDF91CF910895EF92FF9266
:101560000F931F93CF93DF9300D0CDB7DEB77C01ED
:10157000FC018685811114C0178680E7898380E28B
:101580008A832089318900E210E042E050E0BE0108
:101590006F5F7F4F848595850E949B09F701868741
:1015A0000F900F90DF91CF911F910F91FF90EF90CF
:1015B0000895CF93DF93EC010E94AE0A8E8590E0F0
:1015C000DF91CF910895CF93DF93EC010E94AE0A93
:1015D0008E85882369F081508E87E889F9898F8507
:1015E00091E0980F9F87E80FF11D808190E002C085
:1015F0008FEF9FEFDF91CF910895CF93DF93EC01B1
:101600000E94AE0A8E85882341F08F85E889F9898A
:10161000E80FF11D808190E002C08FEF9FEFDF9116
:10162000CF910895CF93DF93EC010E949D0A8889A2
:101630009989009721F00E94151B198A188ADF9159
:10164000CF91089520EE32E0FC01318320830C9489
:10165000120B8BE095E00C94830A8BE095E00C94E0
:10166000220B80E095E09093230580932205089556
:1016700080E095E0909325058093240508950895D2
:101680000F931F93CF93DF9300D01F92CDB7DEB798
:1016900029E42983FC0126852A836B8300E010E07E
:1016A00020E030E043E050E0BE016F5F7F4F848573
:1016B00095850E949B0981E090E00F900F900F901C
:1016C000DF91CF911F910F910895EF92FF920F93A9
:1016D0001F93CF93DF9300D01F92CDB7DEB77C016D
:1016E000FC018389811117C0148A8FE48983868560
:1016F0008A8380E48B8397012B5E3F4F00E410E0E8
:1017000043E050E0BE016F5F7F4F848595850E9466
:101710009B09F701838B0F900F900F90DF91CF9172
:101720001F910F91FF90EF900895CF93DF93EC01FD
:101730000E94650B8B8990E0DF91CF910895CF9344
:10174000DF93EC010E94650B8B89882359F081504F
:101750008B8B8C8991E0980F9C8BC80FD11D8D8944
:1017600090E002C08FEF9FEFDF91CF910895CF936C
:10177000DF93EC010E94650B8B89882331F08C8903
:10178000C80FD11D8D8990E002C08FEF9FEFDF91D0
:10179000CF910895EF92FF920F931F93CF93DF9312
:1017A00000D0CDB7DEB77C01FC018289882389F0A7
:1017B00087E7898386858A8300E010E020E030E0B7
:1017C00042E050E0BE016F5F7F4F848595850E94A7
:1017D0009B09F701128A0F900F90DF91CF911F9113
:1017E0000F91FF90EF90089520EF32E0FC013183DC
:1017F00020830C94CA0BFC01808908950895EF9210
:10180000FF920F931F93CF93DF93CDB7DEB7289747
:101810000FB6F894DEBF0FBECDBF7C018B0160E434
:1018200073E0CE0101964F8358870E94992162E1AF
:1018300070E0CE0101960E945C21D80112966C9155
:10184000CE0101960E9468226EE2CE0101960E94AE
:101850005522F8016381CE0101960E9468226EE252
:10186000CE0101960E945522D80114966C91CE01AA
:1018700001960E9468226EE2CE0101960E945522D6
:10188000F8016581CE0101960E946822D701ED9191
:10189000FC9169817A810684F785E02D4F81588516
:1018A000C70109958C01CE0101960E942B21C80128
:1018B00028960FB6F894DEBF0FBECDBFDF91CF9153
:1018C0001F910F91FF90EF9008956F927F928F92EA
:1018D0009F92AF92BF92CF92DF92EF92FF920F93BF
:1018E0001F93CF93DF9300D0CDB7DEB7FC019B01F0
:1018F0003A0180898823C1F08CE6898386858A83B2
:10190000812C912CA12CB12CC12CD12CE12CF12CAF
:101910008A0142E050E0BE016F5F7F4F848595856C
:101920000E940507C30102C080E090E00F900F9075
:10193000DF91CF911F910F91FF90EF90DF90CF90AB
:10194000BF90AF909F908F907F906F900895EF928F
:10195000FF920F931F93CF93DF9300D0CDB7DEB7E5
:101960007C01FC018089882389F08AE68983868549
:101970008A8300E010E020E030E042E050E0BE0169
:101980006F5F7F4F848595850E949B09F701108AC0
:101990000F900F90DF91CF911F910F91FF90EF90DB
:1019A00008950F931F93CF93DF9300D01F92CDB76D
:1019B000DEB7FC0180898823B1F08CE489838685B9
:1019C0008A8301E010E09E012D5F3F4F42E050E02E
:1019D000BE016F5F7F4F848595850E949B0981E0E2
:1019E0009B81913009F080E00F900F900F90DF9174
:1019F000CF911F910F9108956F927F928F929F9236
:101A0000AF92BF92CF92DF92EF92FF920F931F930C
:101A1000CF93DF93CDB7DEB727970FB6F894DEBF2D
:101A20000FBECDBF3C019B0183E489835A834B8366
:101A3000DB010D900020E9F78D0101501109061B13
:101A4000170B88248394912CFE0137965F01C12CDB
:101A5000D12CE12CF12C43E050E0BE016F5F7F4FB1
:101A6000D3011C968D919C911D970E940507892B8F
:101A7000E1F12F81822F90E0F3019787868783E63B
:101A80008C832D8301E010E09E012A5F3F4F42E0EE
:101A900050E0BE016C5F7F4FD3011C968D919C91ED
:101AA0001D970E949B098E81882339F061E070E0C8
:101AB00080E090E00E943117E5CF81E0F301808B58
:101AC0000190F081E02D0488F589E02DC30109958E
:101AD00081110EC0D301ED91FC910288F389E02DB4
:101AE000C3010995F3011786168680E090E002C0D5
:101AF00081E090E027960FB6F894DEBF0FBECDBF11
:101B0000DF91CF911F910F91FF90EF90DF90CF90D9
:101B1000BF90AF909F908F907F906F9008950F939C
:101B20001F93CF93DF9300D01F92CDB7DEB7FC0198
:101B300080898823A9F08CE6898386858A836B83D4
:101B400000E010E020E030E043E050E0BE016F5FD5
:101B50007F4F848595850E949B0981E090E002C0BB
:101B600080E090E00F900F900F90DF91CF911F9148
:101B70000F9108950F931F93FC011382128208EEB8
:101B800013E020E030E0048315832683378380E070
:101B900093E091838083558744877787668781E0C8
:101BA000808B118A1F910F910895FC01CB01138244
:101BB000128248EE53E060E070E044835583668310
:101BC000778320E033E031832083958784871786ED
:101BD0001686108A118A089520E033E0FC013183D3
:101BE00020830895FB012089FC01208BFB012685C1
:101BF0003785FC01378726870895EF92FF920F9370
:101C00001F93CF93DF9300D01F92CDB7DEB77C0137
:101C1000FC018189811117C0128A8BE48983868532
:101C20008A8380E48B8397012D5E3F4F00E410E0B0
:101C300043E050E0BE016F5F7F4F848595850E9431
:101C40009B09F701818B0F900F900F90DF91CF913F
:101C50001F910F91FF90EF900895CF93DF93EC01C8
:101C60000E94FD0D898990E0DF91CF910895CF9377
:101C7000DF93EC010E94FD0D8989882359F0815082
:101C8000898B8A8991E0980F9A8BC80FD11D8B8917
:101C900090E002C08FEF9FEFDF91CF910895CF9238
:101CA000DF92EF92FF920F931F93CF93DF93EC019C
:101CB0006A018B01E12CF12C89898823A9F08FEF2F
:101CC000E81AF80A8A8991E0980F9A8BFE01E80FCA
:101CD000F11D8389F80181938F0189898150898B56
:101CE000EC14FD0448F306C0CE010E94FD0D898965
:101CF0008111E5CFC701DF91CF911F910F91FF9027
:101D0000EF90DF90CF900895CF93DF93EC010E9486
:101D1000FD0D8989882331F08A89C80FD11D8B89EF
:101D200090E002C08FEF9FEFDF91CF9108950F9366
:101D300000E020E040E060E086E295E00E94E41AE6
:101D40000F9108956F927F928F929F92AF92BF9260
:101D5000CF92DF92EF92FF920F931F93CF93DF9377
:101D6000CDB7DEB72A970FB6F894DEBF0FBECDBF52
:101D70003C018EE48F83F301848195819887898764
:101D800062EE70E0CE0101960E942022F30187816D
:101D9000811106C06AED70E0CE0101960E94FF211C
:101DA0000D811E8129813A8188248394912CCE0152
:101DB0000A965C01C12CD12CE12CF12C43E050E0BF
:101DC000BE01695F7F4FF301808591850E94050701
:101DD00081E09A85913009F080E0F3018683CE019D
:101DE00001960E942B212A960FB6F894DEBF0FBEF3
:101DF000CDBFDF91CF911F910F91FF90EF90DF90BA
:101E0000CF90BF90AF909F908F907F906F900895EC
:101E10008F929F92AF92BF92CF92DF92EF92FF92FA
:101E20000F931F93CF93DF9300D0CDB7DEB722E699
:101E300029836A83812C912CA12CB12CC12CD12C0B
:101E4000E12CF12C00E010E020E030E042E050E036
:101E5000BE016F5F7F4FFC01808591850E94050761
:101E600081E090E00F900F90DF91CF911F910F9143
:101E7000FF90EF90DF90CF90BF90AF909F908F90AA
:101E80000895FC01138212828CE193E09183808398
:101E900075836483168217825187408708956F92F5
:101EA0007F928F929F92AF92BF92CF92DF92EF92EA
:101EB000FF920F931F93CF93DF9300D0CDB7DEB780
:101EC0003C01FB018BE68A8388248394912CCE010C
:101ED00001965C01C12CD12CE12CF12C00E010E02A
:101EE00020E030E041E050E0BE016E5F7F4F808532
:101EF00091850E940507892B31F460E075E0C301EC
:101F00000E94D50D07C0698170E040E055E0C30133
:101F10000E94BA0DC3010F900F90DF91CF911F91D6
:101F20000F91FF90EF90DF90CF90BF90AF909F9078
:101F30008F907F906F9008950F9300E020E040E035
:101F400060E08CE295E00E94E41A0F910895FC0194
:101F500066834783208781E085870895CF93DF9349
:101F6000EC0160E08E810E94281861E08E810E9461
:101F7000611819861A861B861C86DF91CF910895F9
:101F80004F925F926F927F928F929F92AF92BF9289
:101F9000CF92DF92EF92FF920F931F93CF93DF9335
:101FA000CDB7DEB728970FB6F894DEBF0FBECDBF12
:101FB0006A017B01480159019A01AB01C701B601D1
:101FC0000E944E272B013C01A5019401C501B401DB
:101FD0000E944E276D837E838F83988721E133E2B1
:101FE00043E050E4C701B6010E944E2729E134E8DE
:101FF00049E252E40E94962569837A838B839C830D
:1020000026E13BE442E251E4C501B4010E944E27BF
:102010009B01AC0169817A818B819C810E9497250B
:1020200069837A838B839C8328E436E246E65EEB01
:10203000C701B6010E944E27A50194010E944E27B8
:102040009B01AC0169817A818B819C810E949725DB
:1020500069837A838B839C8320EE3FE040EE5BEBC9
:10206000C301B2010E944E279B01AC0169817A81B4
:102070008B819C810E94972569837A838B839C83C3
:1020800028EF37E840E65DEB6D817E818F81988592
:102090000E944E279B01AC0169817A818B819C81D2
:1020A0000E94972569837A838B839C832CEA3DE089
:1020B00041EA5AE3C301B2010E944E27A5019401EF
:1020C0000E944E279B01AC0169817A818B819C81A2
:1020D0000E9497254B015C0128EC3FE84FE55AE34D
:1020E000C701B6010E944E272D813E814F81588540
:1020F0000E944E279B01AC01C501B4010E949725A7
:102100006B017C0121EF3BE845E056EBC301B201D6
:102110000E944E272D813E814F8158850E944E2777
:102120009B01AC01C701B6010E94972528960FB606
:10213000F894DEBF0FBECDBFDF91CF911F910F91FD
:10214000FF90EF90DF90CF90BF90AF909F908F90D7
:102150007F906F905F904F900895DF92EF92FF9283
:102160000F931F93CF93DF93EC010E940217098511
:102170001A852B853C85601771078207930720F429
:1021800019861A861B861C862D85211111C009858A
:102190001A852B853C85DC01CB01801B910BA20BA2
:1021A000B30B803D9740A105B10510F481E07BC0E1
:1021B0001D860E94021769877A878B879C871C82FD
:1021C0001B821A821982188261E08E810E94611836
:1021D0006AEF70E080E090E00E94311761E08E814C
:1021E0000E94281860E08E810E94611864E170E00E
:1021F00080E090E00E943117F89461E08E810E94A7
:10220000611888E290E00E94591760E08E810E9478
:102210002818F12CD12C81E0E12C082F10E08E81C0
:102220000E9497188017910741F4E39481E090E0B1
:102230000E9459178FEFE812F2CF8E810E949718F3
:102240009FEFE916C9F023E02F1590F4F0FC10C0C1
:102250009D2D969596959695FE01E90FF11D90811D
:10226000990F908328852E1510F491609083D39454
:10227000F39495E5F912D0CF789427E22D1590F4D8
:102280002C8130E04881898190E0840F911D4A8142
:10229000840F911D4B81840F911D992728173907B1
:1022A00009F484CF80E0DF91CF911F910F91FF90CF
:1022B000EF90DF900895CF92DF92EF92FF920F930D
:1022C0001F93CF93DF93EC01162F0E94AD1088234C
:1022D00009F450C08F818B3031F008F44BC0855128
:1022E000823078F047C06A8170E080E090E00E9420
:1022F0009826112309F443C020E030E040E151E486
:102300002AC00A81602F6F7770E080E090E00E9421
:102310009A2620E030E040E853E40E944E276B010B
:102320007C016B8170E080E090E00E949A269B0126
:10233000AC01C701B6010E94972520E030E040E2E1
:1023400051E40E94FF2507FD90581123D9F020E0A9
:1023500030E040E151E40E944E2720E030E040EAC6
:1023600050E40E94FF2520E030E040E052E40E946B
:10237000972508C020E030E040EC5FE705C09B01F6
:10238000AC0102C09B01AC01B901CA01DF91CF9140
:102390001F910F91FF90EF90DF90CF900895CF9213
:1023A000DF92EF92FF92CF93DF93EC010E94AD108A
:1023B000882379F18F818B3029F158F18551823052
:1023C00040F5688170E080E090E00E94982620E06F
:1023D00030E040E853E40E944E276B017C016981A4
:1023E00070E080E090E00E949A269B01AC01C7015A
:1023F000B6010E94972520E030E040E251E40E94BF
:10240000FF250BC0688170E080E090E00E94982674
:1024100004C060E070E080EC9FE7DF91CF91FF9017
:10242000EF90DF90CF900895FF920F931F93CF937B
:10243000DF93FC010081C181D281F8948981F02E63
:10244000F0948F21898378941DE7115029F182E05F
:1024500090E00E94591788818023B9F3F8948A810B
:102460008F218A838981802B8983789480EE91E003
:102470000E945917F89489818F21898386E490E01E
:102480000E9459178881802311E009F010E07894A8
:102490008AE991E00E945917812FDF91CF911F9116
:1024A0000F91FF9008951F93CF93DF93FC0110814C
:1024B000C181D281912F909560FF12C0F8948A81DA
:1024C00089238A838981812B89838AE090E00E9415
:1024D00059178A81812B8A83789487E390E011C011
:1024E000F8948A8189238A838981812B898381E475
:1024F00090E00E9459178A81812B8A83789485E025
:1025000090E0DF91CF911F910C9459170F931F9377
:10251000CF93DF93FC011081C181D281F89489812E
:10252000812B89838A81012F009580238A8383E010
:1025300090E00E9459178981802389838AE090E086
:102540000E945917C881789485E390E00E9459173A
:102550001C2381E009F480E0DF91CF911F910F915E
:102560000895CF92DF92EF92FF920F931F93CF9334
:10257000DF931F92CDB7DEB76C01E62E08E010E0C6
:10258000FF24F39461E09F2D9E2109F460E0C601D1
:1025900049830E945312FF0C015011094981011512
:1025A000110581F7411115C0F894D6011196ED91EE
:1025B000FC91129791818C9180958923818311964A
:1025C000ED91FC91129792818C9180958923828361
:1025D00078940F90DF91CF911F910F91FF90EF9022
:1025E000DF90CF900895EF92FF920F931F93CF93B8
:1025F000DF938C01C8E0D0E0F12CEE24E394C80115
:102600000E9486128111FE28EE0C2197C1F78F2DB2
:10261000DF91CF911F910F91FF90EF900895CF928E
:10262000DF92FF920F931F93CF93DF931F92CDB74B
:10263000DEB78C01F62E40E065E579830E94B11289
:10264000CF2C7981D72E88E0F82EF60161916F01A9
:1026500040E0C8010E94B112FA94B9F70F90DF91DF
:10266000CF911F910F91FF90DF90CF90089540E0A0
:102670006CEC0C94B112FC0113861586148627E0CD
:1026800030E0DF01A20FB31F13961C922115310514
:1026900019F021503109F5CF08951F93CF93DF939F
:1026A000EC01162F60E0812F0E942818612F70E046
:1026B000FB01EA5EFD4FE491E883FB01EC5CFD4F1A
:1026C000E491F0E0EE0FFF1FEE5AFD4F85919491DB
:1026D0009A838983CE01DF91CF911F910C943B1394
:1026E000AF92BF92CF92DF92EF92FF920F931F9320
:1026F000CF93DF931F92CDB7DEB75C01E62ED72EC6
:10270000FC01858581115DC0C5010E9414128111F3
:1027100005C0F5011386158614866EC040E060EF93
:10272000C5010E94B11201E0F12CC12C11E0C501DC
:102730000E948612682FC50169830E9486126981F2
:10274000613019F48130B9F433C02F2D30E06813B3
:102750001BC0F5018385181730F4E20FF31F838146
:10276000802349F402C0181731F060E0193058F4A2
:10277000F501148708C0F501EF0DF11D8381802B51
:10278000838361E009C0C12EF501E20FF31F83814D
:10279000902F909589238383C5010E9453121F5F58
:1027A000000F11F4F39401E0F7E0FF1508F0BFCF3C
:1027B000113438F0F501C386C11018C081E0858757
:1027C00015C0F50113861586148680E0EE2DFD2DCB
:1027D00020E030E0D501A20FB31F13969C91919396
:1027E0002F5F3F4F28303105A9F706C0F5018381DF
:1027F000882339F381E0EACF0F90DF91CF911F91C9
:102800000F91FF90EF90DF90CF90BF90AF90089521
:10281000DC0180E0615038F0ED91E827F0E0E45110
:10282000FF4F8491F7CF08950895FC0184E194E16E
:10283000928B818B768365831482108289E08183F9
:1028400081E0828383830895FC0184810895CF937E
:10285000DF93EB0167E0CE010E94081491E02F8125
:10286000821390E0892FDF91CF910895EF92FF922C
:102870000F931F93CF93DF93EC018B01E42E8D8197
:102880009E810E943B13F12CB8018D819E810E9494
:102890007013882359F0FE1006C0B801CE010E94C3
:1028A0002714811104C0F394EF1470F780E0DF91D6
:1028B000CF911F910F91FF90EF900895EF92FF92AB
:1028C0000F931F93CF93DF9300D0CDB7DEB77C017A
:1028D0008A01FC018581968169837A830E941412A2
:1028E00069817A81F701858196810E940F1340E00A
:1028F0006EEBF701858196810E94B112F701858107
:1029000096810E94F312F8018083F70185819681F8
:102910000E94F312F8018183F701858196810E945C
:10292000F312F8018283F701858196810E94F312E8
:10293000F8018383F701858196810E94F312F801E3
:102940008483F701858196810E94F312F8018583C3
:10295000F701858196810E94F312F8018683F701C1
:10296000858196810E94F312F8018783F7018581A2
:1029700096810E94F312F8018087F7018581968184
:102980000F900F90DF91CF911F910F91FF90EF90DB
:102990000C941412CF93DF93EA010E945E1468E056
:1029A000CE010E94081491E02885821390E0892FBF
:1029B000DF91CF910895EF92FF921F93CF93DF9312
:1029C00000D0CDB7DEB77C01FC018581968169839B
:1029D0007A830E94141269817A81F7018581968138
:1029E0000E940F1340E064EBF701858196810E94FD
:1029F000B112F701858196810E948612182FF70186
:102A0000858196810E94141281E0111180E00F905F
:102A10000F90DF91CF911F91FF90EF900895CF938A
:102A2000DF93CDB7DEB729970FB6F894DEBF0FBEA0
:102A3000CDBFFB0120812031D1F0AE014F5F5F4F50
:102A40000E94CA14882379F08D818F3351F020F4CD
:102A50008F3149F489E00CC08F3539F08F3739F068
:102A600002C08AE005C080E003C08BE001C08CE0BA
:102A700029960FB6F894DEBF0FBECDBFDF91CF9180
:102A80000895EF92FF920F931F93CF93DF93CDB7EB
:102A9000DEB761970FB6F894DEBF0FBECDBF8C01D5
:102AA000FC01858196810E943B13F8011482FF246A
:102AB000F394BE01665F7F4FF801858196810E9485
:102AC00070138823C9F1BE01665F7F4FC8010E9461
:102AD0002714882371F3F8018081811108C0BE0199
:102AE000665F7F4FC8010E94DB14811122C0AE01D6
:102AF0004F5F5F4FBE01665F7F4FC8010E945E144B
:102B0000F801E180BE01665F7F4FC8010E940F158A
:102B10008E1518F4F801818106C0BE01665F7F4FF3
:102B2000C8010E940F15F801818384818F5F84831F
:102B3000C0CFF801F082DBCF61960FB6F894DEBF0C
:102B40000FBECDBFDF91CF911F910F91FF90EF90FE
:102B50000895CF93DF93CDB7DEB729970FB6F894DA
:102B6000DEBF0FBECDBFAE014F5F5F4F0E945E1450
:102B700081E09981911101C080E029960FB6F89407
:102B8000DEBF0FBECDBFDF91CF9108958F929F9290
:102B9000AF92BF92CF92DF92EF92FF920F931F936B
:102BA000CF93DF93EC018A016950633048F4E62F3C
:102BB000F0E0EE0FFF1FEE5DFC4F8081918102C0BF
:102BC0008EEE92E04C01AA2497FCA094BA2C011539
:102BD0001105E1F08B818823C9F08881811116C02D
:102BE0000E9402176B017C01C80CD91CEA1CFB1C5B
:102BF000B801CE010E94A915811118C00E940217C8
:102C00006C157D058E059F0588F4F2CFC501B401D2
:102C1000DF91CF911F910F91FF90EF90DF90CF90B8
:102C2000BF90AF909F908F900C943117DF91CF9110
:102C30001F910F91FF90EF90DF90CF90BF90AF90DA
:102C40009F908F900895CF93DF93EC018D819E81AB
:102C50000E9414128D819E810E943713488164E482
:102C60008D819E810E94B1128A81882341F040E0CB
:102C700050E06981CE01DF91CF910C94C615DF91B0
:102C8000CF910895FA01208148E0249F90011124FA
:102C9000818190E0982F8827990F990F990F282B01
:102CA000392BDB018C918031C1F4678170E0868122
:102CB000AB01481B5109CA019695982F8827979513
:102CC00087950E94B52760517109207F53E0220F3C
:102CD000331F5A95E1F7260F371FC9010895EF9268
:102CE000FF920F931F93CF93DF93CDB7DEB7299752
:102CF0000FB6F894DEBF0FBECDBF8C017B01AE01D5
:102D00004F5F5F4F0E94CA14882341F0AE014F5FAE
:102D10005F4FB701C8010E94421602C080E894EEDE
:102D200029960FB6F894DEBF0FBECDBFDF91CF91CD
:102D30001F910F91FF90EF900895813824EE920734
:102D400074F0BC01882777FD8095982F0E949A2601
:102D500020E030E040E05CE30E944E27089560E010
:102D600070E08EEF92EC08950E946F160C949D1601
:102D70001F920F920FB60F9211242F933F938F93B0
:102D80009F93AF93BF938091330590913405A091A9
:102D90003505B09136053091320523E0230F2D37EC
:102DA00020F40196A11DB11D05C026E8230F02964F
:102DB000A11DB11D209332058093330590933405F6
:102DC000A0933505B093360580913705909138056D
:102DD000A0913905B0913A050196A11DB11D8093CE
:102DE000370590933805A0933905B0933A05BF9104
:102DF000AF919F918F913F912F910F900FBE0F90A8
:102E00001F9018952FB7F894609133057091340591
:102E100080913505909136052FBF08953FB7F894FE
:102E20008091370590913805A0913905B0913A0508
:102E300026B5A89B05C02F3F19F00196A11DB11D15
:102E40003FBF6627782F892F9A2F620F711D811D32
:102E5000911D42E0660F771F881F991F4A95D1F791
:102E60000895CF92DF92EF92FF92CF93DF936B01A1
:102E70007C010E940E17EB01C114D104E104F1049E
:102E800089F00E9478230E940E176C1B7D0B683E10
:102E9000734090F381E0C81AD108E108F108C851E5
:102EA000DC4FEACFDF91CF91FF90EF90DF90CF9092
:102EB00008958230910538F0880F991F880F991F67
:102EC00005970197F1F70895789484B5826084BDE1
:102ED00084B5816084BD85B5826085BD85B581601E
:102EE00085BDEEE6F0E0808181608083E1E8F0E07E
:102EF0001082808182608083808181608083E0E8AD
:102F0000F0E0808181608083E1E9F0E0808182608F
:102F10008083808181608083E0E9F0E0808181604E
:102F20008083E1ECF0E08081846080838081826036
:102F30008083808181608083E3ECF0E08081816028
:102F40008083E0ECF0E0808182608083E2ECF0E05E
:102F5000808181608083EAE7F0E080818460808303
:102F600080818260808380818160808380818068AD
:102F700080830895823108F08251E82FF0E0E45117
:102F8000FE4FE49180917B00E3FB222720F930E0A3
:102F900095E0220F331F9A95E1F78F7D822B809366
:102FA0007B00E7708091060120E4829FC00111241C
:102FB000E82BE0937C0080917A00806480937A0013
:102FC00080917A0086FDFCCF809178002091790075
:102FD00090E0922B089590E0FC013197EF30F105DD
:102FE000B0F5EA5AFF4F0C94EB27809180008F7761
:102FF00003C0809180008F7D809380000895809130
:103000008000877FF9CF84B58F7702C084B58F7D2C
:1030100084BD0895809190008F7707C080919000C3
:103020008F7D03C080919000877F809390000895EA
:103030008091C0008F7703C08091C0008F7D809306
:10304000C00008958091C200877F8093C2000895D8
:10305000CF93DF9390E0FC01EA5EFD4F2491FC01E9
:10306000EC5CFD4F8491882349F190E0880F991F13
:10307000FC01E259FD4FA591B491805A9D4FFC018E
:10308000C591D4919FB7611108C0F8948C91209597
:1030900082238C93888182230AC0623051F4F89491
:1030A0008C91322F309583238C938881822B888357
:1030B00004C0F8948C91822B8C939FBFDF91CF91A9
:1030C00008950F931F93CF93DF931F92CDB7DEB771
:1030D000282F30E0F901E850FE4F8491F901EA5EB3
:1030E000FD4F1491F901EC5CFD4F04910023C9F0F0
:1030F000882321F069830E94EB176981E02FF0E0BB
:10310000EE0FFF1FE05AFD4FA591B4919FB7F894C1
:103110008C91611103C01095812301C0812B8C9388
:103120009FBF0F90DF91CF911F910F910895CF9383
:10313000DF93282F30E0F901E850FE4F8491F90128
:10314000EA5EFD4FD491F901EC5CFD4FC491CC23B4
:1031500091F081110E94EB17EC2FF0E0EE0FFF1FB2
:10316000EE5AFD4FA591B4912C912D2381E090E072
:1031700021F480E002C080E090E0DF91CF910895DB
:10318000FC01818D228D90E0805C9F4F821B910914
:103190008F7399270895FC01918D828D981731F0D6
:1031A000828DE80FF11D858D90E008958FEF9FEFE0
:1031B0000895FC01918D828D981761F0828DDF0159
:1031C000A80FB11D5D968C91928D9F5F9F73928F1A
:1031D00090E008958FEF9FEF08958DE59AE1892B98
:1031E00049F080E090E0892B29F00E945D1A81115E
:1031F0000C9400000895FC01848DDF01A80FB11D1F
:10320000A35ABF4F2C91848D90E001968F7399271C
:10321000848FA689B7892C93A089B1898C91806409
:103220008C93938D848D981306C00288F389E02DCA
:1032300080818F7D80830895CF93DF93EC01888D0B
:103240008823C9F0EA89FB89808185FD05C0A889AA
:10325000B9898C9186FD0FC00FB607FCF5CF808130
:1032600085FFF2CFA889B9898C9185FFEDCFCE017A
:103270000E94FB18E7CFDF91CF910895CF92DF92A4
:10328000FF920F931F93CF93DF931F92CDB7DEB7BB
:103290006C0181E0D60158968C9358975B969C916F
:1032A0005B975C968C915C97981307C05096ED9154
:1032B000FC915197808185FD2EC0F601038D10E0B1
:1032C0000F5F1F4F0F731127F02EF601848DF81238
:1032D00011C00FB607FCF9CFD6015096ED91FC91C5
:1032E0005197808185FFF1CFC60169830E94FB1849
:1032F0006981EBCF838DE80FF11DE35AFF4F6083A7
:10330000D6015B960C935B975296ED91FC91539787
:10331000808180620CC0D6015696ED91FC91579742
:1033200060835096ED91FC915197808180648083F9
:1033300081E090E00F90DF91CF911F910F91FF906E
:10334000DF90CF900895BF92CF92DF92EF92FF92DD
:10335000CF93DF93EC016A017B01B22EE889F989F2
:1033600082E08083411581EE580761057105A1F067
:1033700060E079E08DE390E0A70196010E94C92703
:10338000215031094109510956954795379527959F
:10339000211580E1380798F0E889F989108260E802
:1033A00074E88EE190E0A70196010E94C9272150A0
:1033B0003109410951095695479537952795EC856F
:1033C000FD853083EE85FF852083188EEC89FD898D
:1033D000B082EA89FB89808180618083EA89FB89E8
:1033E000808188608083EA89FB898081806880830E
:1033F000EA89FB8980818F7D8083DF91CF91FF9067
:10340000EF90DF90CF90BF9008951F920F920FB66C
:103410000F9211242F938F939F93EF93FF93E0913B
:103420004B05F0914C058081E0915105F0915205DA
:1034300082FD12C09081809154058F5F8F7320911F
:103440005505821751F0E0915405F0E0E55CFA4F24
:10345000958F8093540501C08081FF91EF919F91DA
:103460008F912F910F900FBE0F901F9018951F9264
:103470000F920FB60F9211242F933F934F935F93A8
:103480006F937F938F939F93AF93BF93EF93FF932C
:103490008BE395E00E94FB18FF91EF91BF91AF91F4
:1034A0009F918F917F916F915F914F913F912F915C
:1034B0000F900FBE0F901F9018958BE395E00E9420
:1034C000C01821E0892B09F420E0822F0895109282
:1034D0003E0510923D0588EE93E0A0E0B0E08093B9
:1034E0003F0590934005A0934105B09342058CE2BF
:1034F00093E090933C0580933B058DEC90E0909396
:103500004805809347058CEC90E090934A058093A2
:10351000490588EC90E090934C0580934B0589EC2D
:1035200090E090934E0580934D058AEC90E0909347
:10353000500580934F058EEC90E090935205809358
:10354000510510925405109255051092560510928F
:1035500057050895AF92BF92CF92DF92EF92FF92FC
:103560000F931F93CF93DF936C017B01C0E0D0E0FA
:1035700000E010E0F601EC0FFD1F4AE050E0628130
:10358000C7010E94511C5C016EE2C7010E947C1BB6
:103590008A0D9B1D080F191F2196C330D10551F7C5
:1035A0004AE050E0F6016581C7010E94511C800F7E
:1035B000911FDF91CF911F910F91FF90EF90DF90BE
:1035C000CF90BF90AF9008950F93FC018CE393E0F0
:1035D0009183808362834383248305830F910895BD
:1035E0008CE393E09093D9058093D8051092DA0587
:1035F0001092DB051092DC051092DD050895089508
:103600000E9464170E94FF1A8EED95E00E940D2122
:103610000E948905CDEED8E10E94D2052097E1F302
:103620000E94ED18F9CF0C9405280C949D28CF9298
:10363000DF92EF92FF920F931F93CF93DF936C0172
:103640007A01EB01E60EF71E00E010E0CE15DF0573
:1036500061F06991D601ED91FC910190F081E02D2E
:10366000C6010995080F191FF1CFC801DF91CF914D
:103670001F910F91FF90EF90DF90CF90089561150B
:10368000710581F0DB010D900020E9F7AD0141509B
:103690005109461B570BDC01ED91FC910280F3812F
:1036A000E02D099480E090E00895EF92FF920F934F
:1036B0001F93CF93DF938C01FB01C0E0D0E06491B6
:1036C0007F018FEFE81AF80A662361F0D801ED91C7
:1036D000FC910190F081E02DC8010995C80FD91F18
:1036E000F701EDCFCE01DF91CF911F910F91FF90A8
:1036F000EF9008950C943F1BDC01ED91FC9101903B
:10370000F081E02D09946EE373E00C943F1B0F935E
:103710001F93CF93DF93EC010E943F1B8C01CE01DE
:103720000E94831B800F911FDF91CF911F910F91FA
:1037300008958F929F92AF92BF92CF92DF92EF92B5
:10374000FF920F931F93CF93DF93CDB7DEB7A1976F
:103750000FB6F894DEBF0FBECDBF7C01C42EE52F9F
:10376000CB01D22E19A221E02D1510F02AE0D22E85
:103770008E010F5D1F4F8D2C912CA12CB12C6C2D27
:103780007E2FA50194010E94C9278C2DD29E8019FD
:103790001124015011098A3014F4805D01C0895C44
:1037A000F8018083211531054105510521F0C22E14
:1037B000E32FCA01E4CFB801C7010E943F1BA196C5
:1037C0000FB6F894DEBF0FBECDBFDF91CF911F9132
:1037D0000F91FF90EF90DF90CF90BF90AF909F90B0
:1037E0008F900895CF92DF92EF92FF920F931F93E5
:1037F000CF93DF93EC016A017B012115310579F448
:10380000E881F9810190F081E02D642FDF91CF9163
:103810001F910F91FF90EF90DF90CF9009942A3085
:103820003105E9F477FF1AC06DE20E947C1B8C0120
:1038300044275527BA014C195D096E097F092AE012
:10384000CE010E94991B800F911FDF91CF911F9194
:103850000F91FF90EF90DF90CF9008952AE0B7018D
:10386000A601CE01DF91CF911F910F91FF90EF90B4
:10387000DF90CF900C94991B9A01AB01662757FDFE
:103880006095762F0C94F21B2115310541F4DC0173
:10389000ED91FC910190F081E02D642F09940C943E
:1038A000991B9A01462F50E060E070E00C94441C94
:1038B0004F925F926F927F928F929F92AF92BF9240
:1038C000CF92DF92EF92FF920F931F93CF93DF93EC
:1038D000EC016A017B01B22E9A01AB01C701B6016E
:1038E0000E94B127882319F061E473E027C0260104
:1038F0003701E89477F82FEF3FEF4FE75FE7C30119
:10390000B2010E94B12781110DC02FEF3FEF4FE7A9
:103910005FE7C301B2010E94FB2518161CF465E4A1
:1039200073E00CC02FEF3FEF4FE75FE4C701B60134
:103930000E944A271816ACF469E473E0CE01DF91C7
:10394000CF911F910F91FF90EF90DF90CF90BF909C
:10395000AF909F908F907F906F905F904F900C945E
:103960003F1B2FEF3FEF4FE75FECC701B6010E940F
:10397000FB2587FDE1CF20E030E0A901C701B601BA
:103980000E94FB2587FF0AC06DE2CE010E947C1BCE
:103990008C01F7FAF094F7F8F09402C000E010E020
:1039A000A12C60E070E080E09FE3AB1441F020E0E8
:1039B00030E040E251E40E94FF25A394F6CF9B0142
:1039C000AC01C701B6010E9497256B017C010E94E2
:1039D0006C262B013C010E9498269B01AC01C7017B
:1039E000B6010E9496256B017C012AE0B301A20179
:1039F000CE010E94991B080F191FBB2039F06DE4FE
:103A000073E0CE010E943F1B080F191F7B2C77200B
:103A100041F120E030E040E251E4C701B6010E94EC
:103A20004E276B017C010E9467264B01AA2497FC5C
:103A3000A094BA2C2AE030E0B501A401CE010E9486
:103A4000F21B080F191FC501B4010E949A269B01A1
:103A5000AC01C701B6010E9496256B017C017A94E6
:103A6000D6CFC801DF91CF911F910F91FF90EF90BA
:103A7000DF90CF90BF90AF909F908F907F906F908E
:103A80005F904F9008950C94581C0F931F93CF9301
:103A9000DF93EC010E940217688779878A879B87EA
:103AA000E881F9810680F781E02DCE01099597FF25
:103AB00015C00E940217088519852A853B85601B61
:103AC000710B820B930B0C811D812E813F8160173E
:103AD00071078207930720F38FEF9FEFDF91CF915C
:103AE0001F910F910895EF92FF920F931F93CF9321
:103AF000DF93EC018B01E42E60E473E00E949921D6
:103B0000C8010E94451DFF24E7FCF09497FD0BC0FF
:103B10008E159F0541F0682FCE010E945522C801E5
:103B20000E94451DF3CFCE01DF91CF911F910F91E0
:103B3000FF90EF9008954091E2055091E3052091A8
:103B4000E0053091E10542175307B4F49091E80085
:103B50009570E1F39091E80092FD19C08093F10017
:103B60008091E2059091E30501968F739927892B47
:103B700019F48EEF8093E8008091E2059091E305BF
:103B800001969093E3058093E20581E0089580E03B
:103B90000895FF920F931F93CF93DF938C0188E1D9
:103BA0000E949B1D83E00E949B1DC0E0D0E0F801B5
:103BB000EC0FFD1F84910E949B1DF82E80E00E9457
:103BC0009B1D8F2121F02196CB30D10581F7DF910C
:103BD000CF911F910F91FF900895615030F0209187
:103BE000F100FC0120830196F8CF289884E68093A9
:103BF000E50508952FB7FC012083F8946770609362
:103C0000E9000895CF93DF931F92CDB7DEB7682FF9
:103C1000CE0101960E94FA1D8091F20099819FBF0A
:103C20000F90DF91CF910895FF920F931F93CF9341
:103C3000DF9300D0CDB7DEB7F62E8A019091E40570
:103C4000992311F057FF03C08FEF9FEF2BC0682F10
:103C5000CE0101967A830E94FA1D8091F20090E0D5
:103C6000A8017A81801791070CF4AC01EF2DF72F92
:103C7000F40E84E6FE1639F028988093E5059091BD
:103C8000F1009193F7CF4115510521F08091F20099
:103C9000882321F089818FBFCA0104C08BE68093FD
:103CA000E800F8CF0F900F90DF91CF911F910F9107
:103CB000FF900895CF93DF931F92CDB7DEB741E019
:103CC00050E0BE016F5F7F4F0E94141E019719F4F0
:103CD000898190E002C08FEF9FEF0F90DF91CF912D
:103CE0000895CF93DF931F92CDB7DEB7682FCE0133
:103CF00001960E94FA1D9091E800892F807295FF2D
:103D000004C09091F20080E4891B99819FBF0F90BD
:103D1000DF91CF9108956F927F928F929F92AF9291
:103D2000BF92CF92DF92EF92FF920F931F93CF93A8
:103D3000DF931F92CDB7DEB7782E7B01C42EB52E50
:103D40008091E405882369F0042F152F8AEFD82E7F
:103D5000872D8072982E9AE3A92E872D8074882E45
:103D600011C08FEF9FEF57C0872D0E94711E682EE4
:103D700081110CC0DA94A9F361E070E080E090E07A
:103D80000E9431170115110579F73BC0282F30E04B
:103D9000021713070CF4602E672DCE0101960E94C6
:103DA000FA1D8091E80085FF29C0262D30E0021B16
:103DB000130B992039F06A948FEF6816B1F01092C6
:103DC000F100F9CFF701862D77FE07C0815058F03A
:103DD00094919093F1003196F9CF815020F0919118
:103DE0009093F100FACFE20EF31E8091E80085FF78
:103DF0000FC00115110511F481100AC089818FBF10
:103E0000C1CF5D9884E68093E6058C2D9B2D03C081
:103E1000A092E800F3CF0F90DF91CF911F910F9107
:103E2000FF90EF90DF90CF90BF90AF909F908F90DA
:103E30007F906F9008951092E9001092E305109220
:103E4000E2059093E1058093E0050895CF92DF921B
:103E5000FF920F931F93CF93DF9300D0CDB7DEB7C0
:103E6000F82E8A016B0101151105B1F0F601F7FE7C
:103E700002C0849101C0808149835A830E949B1DA6
:103E800001501109FFEFCF1ADF0A49815A818111D0
:103E9000EACF8FEF9FEF01C0CA010F900F90DF9123
:103EA000CF911F910F91FF90DF90CF9008951F93B6
:103EB000CF93DF931F92CDB7DEB7162F2091E80086
:103EC00022FFFCCF612F79830E94ED1D8BEF809341
:103ED000E800812F7981972F0F90DF91CF911F916B
:103EE0000895CF93DF931F92CDB7DEB71982CE012D
:103EF00001960E94D623CE0101960E9471248981E9
:103F000090E00F90DF91CF9108951F920F920FB61E
:103F10000F921124EF92FF920F931F932F933F93D1
:103F20004F935F936F937F938F939F93AF93BF93C1
:103F3000EF93FF93CF93DF93CDB7DEB76297DEBFEA
:103F4000CDBF1092E9008091E80083FFE9C068E0EE
:103F5000CE010A960E94ED1D82EF8093E8009A85BB
:103F600097FF05C08091E80080FFFCCF03C08EEF73
:103F70008093E800892F807609F0B7C08B85811186
:103F800005C01092F1001092F100C3C0282F2D7FC0
:103F9000213009F4BEC0853049F48091E80080FFEB
:103FA000FCCF8C8580688093E300B3C0863009F035
:103FB00074C02D85E888F988223071F580E090E0A2
:103FC0002A8B0E941B1F0E94711F99E08E010F5FB8
:103FD0001F4FF801392F11923A95E9F799832A89F1
:103FE0002A8391E09E8390E898879AEF99872091A1
:103FF000E2053091E305275F3F4F3C832B838D83A0
:10400000C7010E941B1F49E050E0B80180E00E94F8
:10401000261F0E94711F7DC0C7012A8B0E941B1F93
:104020002A89223241F482E290E00E947C24892B8A
:1040300009F06FC072C0213069F4888999890897A6
:1040400011F42093DF058091DF05811116C063E92B
:1040500072E018C0233009F060C08C85882381F09D
:10406000823019F481EB92E005C0813009F055C02F
:1040700085EA92E00E94C91D4AC061E872E002C070
:104080006DEB72E06115710509F447C0FB014491C5
:1040900050E080E80E94261F3CC0873009F43DC0F4
:1040A000883021F481E08093F10033C0893089F5B4
:1040B000937099F5EDE7F2E081E021E096E38093DB
:1040C000E9002093EB0034913093EC009093ED00E5
:1040D0008F5F3196853099F78EE78093EA001092D2
:1040E000EA008C858093E40514C0888999890E9430
:1040F0001B1F8E85811105C0CE010A960E94E12307
:1041000006C0823051F4CE010A960E94A42488236E
:1041100021F08EEF8093E80003C081E28093EB00F2
:1041200062960FB6F894DEBF0FBECDBFDF91CF9180
:10413000FF91EF91BF91AF919F918F917F916F917F
:104140005F914F913F912F911F910F91FF90EF90B1
:104150000F900FBE0F901F9018958093E9008091EB
:10416000F200882319F08AE38093E80008951F92F3
:104170000F920FB60F9211242F933F934F935F939B
:104180006F937F938F939F93AF93BF93EF93FF931F
:104190008091E1001092E10083FF0FC01092E900CE
:1041A00091E09093EB001092EC0092E39093ED007D
:1041B0001092E40598E09093F00082FF1DC083E028
:1041C0000E94AD208091E605882339F08091E605B4
:1041D00081508093E605882369F08091E505882366
:1041E00059F08091E50581508093E505811104C067
:1041F000289A02C05D9AF1CFFF91EF91BF91AF91E4
:104200009F918F917F916F915F914F913F912F91EE
:104210000F900FBE0F901F9018951092E40581E04B
:104220008093D70080EA8093D80082E189BD09B4E9
:1042300000FEFDCF61E070E080E090E00E94311769
:1042400080E98093D8008CE08093E2001092E00037
:10425000559A209A0895FC01808191810C949D28A3
:10426000CF93DF93EC0188819981009711F00E9430
:104270009D28198218821D821C821B821A82DF915E
:10428000CF9108950F931F93CF93DF93EC018B0190
:104290006F5F7F4F888199810E942C29009731F0B0
:1042A000998388831B830A8381E001C080E0DF91CA
:1042B000CF911F910F910895CF93DF93EC018881E7
:1042C0009981892B29F08A819B818617970760F451
:1042D000CE010E944221882341F08C819D81892B4F
:1042E00019F4E881F981108281E0DF91CF9108957E
:1042F000EF92FF920F931F93CF93DF93EC017B011B
:104300008A01BA010E945C21811104C0CE010E9481
:10431000302107C01D830C83B701888199810E94D9
:104320002B2ACE01DF91CF911F910F91FF90EF903B
:104330000895FC0111821082138212821582148268
:104340006115710559F0FB0101900020E9F7AF01FB
:1043500041505109461B570B0C9478210895EF9258
:10436000FF920F931F93CF93DF93EC017B018A01A0
:10437000BA010E945C21811104C0CE010E9430214B
:1043800007C01D830C83B701888199810E94FE2993
:10439000CE01DF91CF911F910F91FF90EF90089583
:1043A000CF93DF93EC01FB018617970761F06081E3
:1043B00071816115710529F0448155810E94782130
:1043C00002C00E943021CE01DF91CF910895CF939A
:1043D000DF93EC016115710561F0FB010190002094
:1043E000E9F7AF0141505109461B570B0E94782154
:1043F00002C00E943021CE01DF91CF9108950F932A
:104400001F93CF93DF9300D0CDB7DEB78C0161153A
:10441000710561F0CB0169837A830E94052AAC01A2
:1044200069817A81C8010E94AF2102C00E943021B7
:10443000C8010F900F90DF91CF911F910F910895B8
:10444000FC011182108213821282158214820C9454
:10445000FF21EF92FF920F931F93CF93DF93EC0115
:104460007B010C811D816115710511F480E016C07E
:104470004115510591F0040F151FB8010E945C21F0
:104480008823A1F3288139818C819D81B701820F16
:10449000931F0E942B2A1D830C8381E0DF91CF9113
:1044A0001F910F91FF90EF900895CF93DF9300D06D
:1044B000CDB7DEB769831A8241E050E0BE016F5F7D
:1044C0007F4F0E9429220F900F90DF91CF91089586
:1044D000EF92FF920F931F93CF93DF9300D000D002
:1044E000CDB7DEB77C01862F4AE050E08E010F5F2A
:1044F0001F4FB80190E00E944C2AF8010190002063
:10450000E9F7AF0141505109401B510BB801C701F8
:104510000E9429220F900F900F900F90DF91CF9162
:104520001F910F91FF90EF900895FC012481358138
:10453000232B31F421E061157105A1F0FB0108C0C6
:10454000FC01808191816115710531F421E0FC014C
:104550008081882339F005C00E94222A21E0892B1E
:1045600009F020E0822F0895CF93DF93FC0184812E
:1045700095814817590778F4C081D181FB0160818A
:104580007181CE01840F951F0E94322A009719F085
:104590008C1B9D0B02C08FEF9FEFDF91CF91089591
:1045A00040E050E00C94B422BF92CF92DF92EF92A1
:1045B000FF920F931F93CF93DF936C017B01EA016E
:1045C00089012417350720F48D2FE901042F182FB6
:1045D00060E473E0C6010E949921D70114968D9181
:1045E0009C911597C817D907C8F48017910708F44C
:1045F0008C01D701ED91FC911197E00FF11FB08074
:1046000010826D917C916C0F7D1FC6010E94E72185
:10461000D701ED91FC91E00FF11FB082C601DF914F
:10462000CF911F910F91FF90EF90DF90CF90BF90AF
:104630000895AF92BF92CF92DF92EF92FF920F93C5
:104640001F93CF93DF937C01DC01CD90DC90119719
:10465000C114D10409F441C01496CD91DC91159791
:104660002097D9F156018501BFEFAB1ABB0AF801BB
:104670008081992787FD90950E94F629892B99F7CB
:104680002197CC0DDD1D8881992787FD90950E948B
:10469000F629892B91F4AE014F5F5F4F401B510B00
:1046A000D70115965C934E931497C016D10650F41B
:1046B000B801C6010E940E2A05C0C017D10758F3E1
:1046C0002197E1CFD701ED91FC91119714968D912F
:1046D0009C911597E80FF91F1082DF91CF911F91E0
:1046E0000F91FF90EF90DF90CF90BF90AF90089523
:1046F0000895CF93DF931F92CDB7DEB76983DC01B6
:10470000ED91FC910280F381E02D41E050E0BE018B
:104710006F5F7F4F09950F90DF91CF910895CF93F1
:10472000DF93EC018C859D8597FF05C082E00E9498
:104730005A1E9D878C878C859D85DF91CF9108952A
:1047400083E00C94AD20FC018485958597FD06C01F
:1047500082E00E94021E90E00196089582E00E948D
:10476000021E90E00895FC018485958597FD05C0A3
:104770002FEF3FEF35872487089582E00C945A1E6F
:10478000CF93DF93EC0180910E01882331F083E019
:104790000E948B1E1816190634F081E090E09B836E
:1047A0008A8380E090E0DF91CF910895FC01208121
:1047B0002E5F208342E450E061EC72E080E80C94CC
:1047C000261FFC0181819081913A59F4813209F0D0
:1047D0003CC047E050E067E071E080E00E94261FA7
:1047E00043C0913291F5803239F467E070E087E0A0
:1047F00091E00E94571F06C0823209F035C08281C5
:1048000080930E018091070190910801A091090108
:10481000B0910A01803B9440A105B105C1F480919B
:104820000E0180FD14C087E797E7909301088093FD
:1048300000082BE088E190E00FB6F894A8958093EB
:1048400060000FBE209360000FC080E0089588E1F3
:104850000FB6F89480936000109260000FBEA89588
:10486000109201081092000881E008951092EA0564
:104870001092E90588EE93E0A0E0B0E08093EB05AC
:104880009093EC05A093ED05B093EE0583E593E0DE
:104890009093E8058093E7058FEF9FEF9093F405E1
:1048A0008093F3050895FF920F931F93CF93DF93A7
:1048B000EC01F62EE881F9810480F581E02D09955F
:1048C0008C01E881F9810680F781E02D6F2DCE0102
:1048D0000995C8019927DF91CF911F910F91FF9002
:1048E0000895FC0120812F5F208349E150E063E8B7
:1048F00073E080E80C94261F45E650E06CE973E015
:1049000080E80C94261FEF92FF920F931F93CF9392
:10491000DF931F92CDB7DEB789838B017A0141E027
:1049200050E0BE016F5F7F4F84E00E948B1EA701A5
:10493000B80184E40E948B1E0F90DF91CF911F91EC
:104940000F91FF90EF900895FC0191818081813A51
:1049500031F481E0913091F0933089F411C08132CB
:1049600071F49B3021F482818093100105C09A304C
:1049700031F4828180930F0181E00895089580E0F1
:10498000089548E050E082E00C948324CF93DF93B5
:10499000DC01683818F0E8E7E60F25C0E62FF0E004
:1049A00067FF11C0E058F10981E090E001C0880F75
:1049B000EA95EAF714969C911497982B14969C9379
:1049C0001497E0E010C0ED5FFC4FE491EE2309F492
:1049D00040C0E7FF08C014968C911497826014962B
:1049E0008C931497EF7716968C9116978E1741F14A
:1049F00017968C9117978E1719F118968C91189716
:104A00008E17F1F019968C9119978E17C9F01A9696
:104A10008C911A978E17A1F01B968C911B978E176D
:104A200079F080E090E0ED01C80FD91F2E812111AF
:104A300002C0EE8305C0019686309105A1F709C03A
:104A4000BD016C5F7F4FCD010E94C12481E090E0E9
:104A500008C081E090E013969C938E93129780E0BB
:104A600090E0DF91CF910895683818F0E8E7E60FFD
:104A700025C0E62FF0E067FF12C0E058F10921E001
:104A800030E001C0220FEA95EAF72095DC01149688
:104A90003C911497322314963C93E0E00FC0ED5FF5
:104AA000FC4FE491EE2329F1E7FF08C0DC011496E6
:104AB0002C9114972D7F14962C93EF7720E030E003
:104AC000EE2351F0DC01A20FB31F16964C911697FE
:104AD0004E1302C016961C922F5F3F4F26303105B1
:104AE00079F7BC016C5F7F4F0E94C12481E090E0A8
:104AF000089580E090E00895FC01168217821086E8
:104B00001186128613861482BC016C5F7F4F0C9451
:104B1000C1241092430610923A061092390683E699
:104B200093E0909338068093370608955058BB273A
:104B3000AA270ED075C166D130F06BD120F031F4C8
:104B40009F3F11F41EF45BC10EF4E095E7FB51C1E9
:104B5000E92F77D180F3BA176207730784079507A7
:104B600018F071F49EF58FC10EF4E0950B2EBA2F5C
:104B7000A02D0B01B90190010C01CA01A001112463
:104B8000FF27591B99F0593F50F4503E68F11A160F
:104B9000F040A22F232F342F4427585FF3CF4695A0
:104BA00037952795A795F0405395C9F77EF41F16C2
:104BB000BA0B620B730B840BBAF09150A1F0FF0F8C
:104BC000BB1F661F771F881FC2F70EC0BA0F621F78
:104BD000731F841F48F4879577956795B795F79568
:104BE0009E3F08F0B3CF9395880F08F09927EE0FFA
:104BF000979587950895D9D008F481E008950CD051
:104C00000FC107D140F0FED030F021F45F3F19F022
:104C1000F0C0511139C1F3C014D198F39923C9F3ED
:104C20005523B1F3951B550BBB27AA2762177307B2
:104C3000840738F09F5F5F4F220F331F441FAA1F66
:104C4000A9F333D00E2E3AF0E0E830D09150504026
:104C5000E695001CCAF729D0FE2F27D0660F771FD4
:104C6000881FBB1F261737074807AB07B0E809F0B6
:104C7000BB0B802DBF01FF2793585F4F2AF09E3F4B
:104C8000510568F0B6C000C15F3FECF3983EDCF31D
:104C9000869577956795B795F7959F5FC9F7880FC4
:104CA000911D9695879597F90895E1E0660F771F16
:104CB000881FBB1F621773078407BA0720F0621BA7
:104CC000730B840BBA0BEE1F88F7E095089504D0A0
:104CD0006894B111D9C00895BCD088F09F5790F066
:104CE000B92F9927B751A0F0D1F0660F771F881F11
:104CF000991F1AF0BA95C9F712C0B13081F0C3D02C
:104D0000B1E00895C0C0672F782F8827B85F39F0C9
:104D1000B93FCCF3869577956795B395D9F73EF46F
:104D200090958095709561957F4F8F4F9F4F089517
:104D3000E89409C097FB3EF4909580957095619535
:104D40007F4F8F4F9F4F9923A9F0F92F96E9BB27EB
:104D50009395F695879577956795B795F111F8CF67
:104D6000FAF4BB0F11F460FF1BC06F5F7F4F8F4FD2
:104D70009F4F16C0882311F096E911C0772321F0C8
:104D80009EE8872F762F05C0662371F096E8862F60
:104D900070E060E02AF09A95660F771F881FDAF7B7
:104DA000880F9695879597F90895990F0008550FE4
:104DB000AA0BE0E8FEEF16161706E807F907C0F0A1
:104DC00012161306E407F50798F0621B730B840BA9
:104DD000950B39F40A2661F0232B242B252B21F483
:104DE00008950A2609F4A140A6958FEF811D811D23
:104DF000089597F99F6780E870E060E008959FEF5D
:104E000080EC089500240A94161617061806090661
:104E1000089500240A941216130614060506089530
:104E2000092E0394000C11F4882352F0BB0F40F4B8
:104E3000BF2B11F460FF04C06F5F7F4F8F4F9F4FF8
:104E4000089557FD9058440F551F59F05F3F71F07A
:104E50004795880F97FB991F61F09F3F79F08795E1
:104E60000895121613061406551FF2CF4695F1DF6A
:104E700008C0161617061806991FF1CF86957105FA
:104E8000610508940895E894BB2766277727CB012E
:104E900097F908958ADF08F48FEF08950BD0C0CFFB
:104EA000B1DF28F0B6DF18F0952309F0A2CFA7CF25
:104EB0001124EACFC6DFA0F3959FD1F3950F50E000
:104EC000551F629FF001729FBB27F00DB11D639FBC
:104ED000AA27F00DB11DAA1F649F6627B00DA11D62
:104EE000661F829F2227B00DA11D621F739FB00D08
:104EF000A11D621F839FA00D611D221F749F332778
:104F0000A00D611D231F849F600D211D822F762F10
:104F10006A2F11249F5750408AF0E1F088234AF00D
:104F2000EE0FFF1FBB1F661F771F881F9150504059
:104F3000A9F79E3F510570F05CCFA6CF5F3FECF321
:104F4000983EDCF3869577956795B795F795E79545
:104F50009F5FC1F7FE2B880F911D9695879597F956
:104F6000089523DF880B990B089597FB072E16F4FD
:104F7000009407D077FD09D00E94F12707FC05D0E7
:104F80003EF4909581959F4F0895709561957F4F60
:104F90000895A1E21A2EAA1BBB1BFD010DC0AA1F7A
:104FA000BB1FEE1FFF1FA217B307E407F50720F092
:104FB000A21BB30BE40BF50B661F771F881F991F0D
:104FC0001A9469F760957095809590959B01AC0156
:104FD000BD01CF010895EE0FFF1F0590F491E02D64
:104FE0000994AA1BBB1B51E107C0AA1FBB1FA61730
:104FF000B70710F0A61BB70B881F991F5A95A9F782
:1050000080959095BC01CD010895CF93DF938230B8
:10501000910510F482E090E0E0914606F091470699
:1050200020E030E0A0E0B0E0309739F140815181DC
:1050300048175907B8F04817590771F482819381CE
:10504000109729F013969C938E9312972CC09093EF
:1050500047068093460627C02115310531F04217D7
:10506000530718F0A901DB0101C0EF019A01BD014E
:10507000DF010280F381E02DD7CF21153105F9F052
:10508000281B390B2430310580F48A819B816115FE
:10509000710521F0FB019383828304C0909347063E
:1050A00080934606FE01329644C0FE01E20FF31FD4
:1050B0008193919322503109398328833AC02091FA
:1050C000440630914506232B41F420910201309192
:1050D000030130934506209344062091000130914E
:1050E00001012115310541F42DB73EB7409104016E
:1050F00050910501241B350BE0914406F0914506C3
:10510000E217F307A0F42E1B3F0B2817390778F09E
:10511000AC014E5F5F4F2417350748F04E0F5F1FFD
:1051200050934506409344068193919302C0E0E07A
:10513000F0E0CF01DF91CF910895CF93DF930097F7
:1051400009F487C0FC01329713821282C09146068F
:10515000D0914706209781F420813181280F391F93
:1051600080914406909145068217930779F5F09354
:105170004506E09344066DC0DE0120E030E0AE1746
:10518000BF0750F412964D915C9113979D01411504
:10519000510509F1DA01F3CFB383A2834081518134
:1051A000840F951F8A179B0771F48D919C9111971D
:1051B000840F951F02969183808312968D919C9106
:1051C0001397938382832115310529F4F0934706C1
:1051D000E09346063EC0D9011396FC93EE931297D6
:1051E0004D915D91A40FB51FEA17FB0779F48081FB
:1051F0009181840F951F0296D90111969C938E93ED
:105200008281938113969C938E931297E0E0F0E055
:105210008A819B81009719F0FE01EC01F9CFCE0144
:10522000029628813981820F931F20914406309184
:1052300045062817390769F4309729F41092470674
:105240001092460602C013821282D0934506C09384
:105250004406DF91CF910895A0E0B0E0E2E3F9E2E7
:105260000C94932AEC01CB01209719F40E94052895
:10527000B8C0FE01E60FF71F9E0122503109E21768
:10528000F30708F4ACC0D9010D911C9111970617D2
:105290001707B8F00530110508F49FC0A801445065
:1052A00051094617570708F498C002501109061B08
:1052B000170B019311936D937C93CF010E949D284E
:1052C0008CC05B01A01AB10A4E01800E911EA09104
:1052D0004606B0914706612C712C60E070E0109793
:1052E00009F449C0A815B905C9F5ED90FC901197CE
:1052F000670142E0C40ED11CCA14DB0478F14701F7
:105300008A189B08640142E0C40ED11C1296BC901E
:1053100012971396AC91B5E0CB16D10440F0B2824F
:10532000A38391828082D9018D939C9309C00E5FE3
:105330001F4F0E0D1F1DF90111830083EB2DFA2F56
:105340006115710531F0DB011396FC93EE93129712
:1053500044C0F0934706E09346063FC06D917C91B0
:1053600011976616770608F43B01BD0112960D9061
:10537000BC91A02DB4CF609144067091450668158C
:105380007905E9F468167906D0F44091000150914E
:1053900001014115510541F44DB75EB7609104011B
:1053A00070910501461B570BE417F507C0F4F09305
:1053B0004506E0934406F901918380830EC00E9464
:1053C00005287C01009759F0A801BE010E940E2A11
:1053D000CE010E949D28C70104C0CE0102C080E01A
:1053E00090E0CDB7DEB7EEE00C94AF2A911184C007
:1053F000803219F089508550D0F70895FB01DC0107
:1054000005900D920020E1F70895FC010590002021
:10541000E9F7809590958E0F9F1F0895FB01DC01A1
:1054200002C001900D9241505040D8F70895FB0101
:10543000DC010D900020E9F7119701900D920020FA
:10544000E1F70895FB01DC018D91019080190110B5
:10545000D9F3990B0895FB01DC0101900D92002016
:10546000E1F70895FB0151915523A9F0BF01DC013B
:105470004D9145174111E1F759F4CD0101900020FC
:1054800049F04D9140154111C9F3FB014111EFCF96
:1054900081E090E0019708954532510520F44230B3
:1054A00010F00C94572AFB011082CB010895BB2702
:1054B0004A3031F4992322F4BDE2909581959F4FB3
:1054C0000C94632ABB27FB015527AA27880F991F35
:1054D000AA1FA41710F0A41B83955051B9F7A05D23
:1054E000AA3308F0A95DA193009779F7B111B193A0
:1054F0001192CB010C947F2A992788270895DC010B
:10550000FC01672F71917723E1F7329704C07C91FA
:105510006D9370836291AE17BF07C8F308952F9201
:105520003F924F925F926F927F928F929F92AF9233
:10553000BF92CF92DF92EF92FF920F931F93CF9380
:10554000DF93CDB7DEB7CA1BDB0B0FB6F894DEBF17
:105550000FBECDBF09942A88398848885F846E843D
:105560007D848C849B84AA84B984C884DF80EE8087
:10557000FD800C811B81AA81B981CE0FD11D0FB690
:10558000F894DEBF0FBECDBFED01089514E0C8E171
:10559000D4E004C0FE010E94ED272296CC31D10751
:0655A000C9F7F894FFCFEB
:1055A6000000480680000100E10000000000000144
:1055B60001585858585858583130307B20224C6979
:1055C600676874223A002C20224164647265737302
:1055D600223A2022416E616C6F673022007B226581
:1055E60072726F72223A224661696C656420746F2A
:1055F60020726561642066726F6D20444854207382
:10560600656E736F7221227D007B202248756D695D
:105616006469747950657263656E74223A002C2051
:105626002254656D7043223A002C202254656D7019
:1056360046223A00202C202248656174496E646532
:105646007846223A002C20224164647265737322E4
:105656003A20224469676974616C313022007B20EC
:10566600226572726F7222203A2022007B202272FB
:105676006573756C7422203A2022737563636573B3
:105686007322207D005374617475733A2032303072
:1056960000436F6E74656E742D747970653A20617F
:1056A60070706C69636174696F6E2F6A736F6E00D8
:1056B60047455400204854545000202F004453318D
:1056C60038423230206E6F7420666F756E643A20F1
:1056D600005B007B202241646472657373223A206A
:1056E600220022202C002254656D7043223A2000AD
:1056F6002D393939002C20005D007B20224C69674A
:105706006874223A20002C2022444854223A200071
:105716002C202254656D70657261747572657322F2
:105726003A200074656D700074656D7073006C6965
:1057360067687400657272007665676769656C698B
:105746006768746F6666007665676769656C696722
:1057560068746F6E00626F6F740064617461007BC1
:10576600226572726F72223A22496E76616C6964A2
:1057760020636F6D6D616E6422207D000000000065
:10578600C709070AD90AE30AFD0A700A00000000E1
:10579600400B171B950B9F0BB70B3F0B0000000030
:1057A6008F0D650C2D0E370E840EFE0BFF0BFC0CB9
:1057B6004F0EA70CD10CFB0B00000000080F171BA7
:1057C600A20E5E00BC007701000000003E19171B08
:1057D600C018D918CB181C1900000000AA1A0D0A07
:1057E600006E616E00696E66006F7666002E0000C0
:1057F6000000007923C023A323B3238F23A0230013
:0E5806000000005324171BC62434257C250007
:00000001FF
