:100000000C940E020C9436020C9436020C943602B8
:100010000C9436020C9436020C9436020C94360280
:100020000C9436020C9436020C946E200C943C1FF7
:100030000C9436020C9436020C9436020C94360260
:100040000C9436020C9436020C9436020C94360250
:100050000C9436020C9436020C9436020C94601602
:100060000C9436020C94AC190C94DE190C943602E4
:100070000C9436020C9436020C9436020C94360220
:100080000C9436020C9436020C9436020C94360210
:100090000C9436020C9436020C9436020C94360200
:1000A0000C9436020C9436020C943602AA17AD1743
:1000B0009C17A017A617CE17CE17CE17B117B517D6
:1000C000B917BF17C317CE17C91772756E2D627295
:1000D000696467650A000A000A00302E302E302E4F
:1000E00030003132372E302E302E3100005EBCE22F
:1000F000613FDD83C29C7E20A3FD1F419DC3217F04
:10010000FCA2401E5F01E3BD3E6082DC237D9FC1F7
:10011000421CFEA0E1BF5D0380DE3C62BEE0025CEB
:10012000DF81633D7C22C09E1D43A1FF4618FAA4D7
:1001300027799BC584DA3866E5BB5907DB856739C3
:10014000BAE406581947A5FB7826C49A653BD987B7
:10015000045AB8E6A7F91B45C6987A24F8A6441AAB
:1001600099C7257B3A6486D85B05E7B98CD2306E97
:10017000EDB3510F4E10F2AC2F7193CD114FADF383
:10018000702ECC92D38D6F31B2EC0E50AFF1134D77
:10019000CE90722C6D33D18F0C52B0EE326C8ED06B
:1001A000530DEFB1F0AE4C1291CF2D73CA94762857
:1001B000ABF517490856B4EA6937D58B5709EBB543
:1001C00036688AD495CB2977F4AA4816E9B7550B37
:1001D00088D6346A2B7597C94A14F6A8742AC8962B
:1001E000154BA9F7B6E80A54D7896B3507060504FD
:1001F0000100080A0B0C0D090000000200090F00A5
:1002000000030401000C00000000000000000000DA
:10021000000000000000040802011040804010208F
:1002200040804080080204018040201002011080BC
:1002300010204040040404040403040502020202E6
:10024000040302020202060606060606040402026F
:100250000204000000002300260029002C002F00CB
:1002600000000000250028002B002E0031000000B7
:100270000000240027002A002D00300000C18081EA
:10028000C11201000202000040412341800001012F
:1002900002000112010002000000404123418000E1
:1002A000010102000141726475696E6F204C4C437C
:1002B0000041726475696E6F2059756E0004030900
:1002C00004080B00020202010009040000010202FE
:1002D0000000052400100105240101010424020688
:1002E00005240600010705810310004009040100F0
:1002F000020A000000070502024000000705830211
:1003000040000000000000000000002A2B28000030
:1003100000000000000000000000000000000000DD
:100320000000002C9EB4A0A1A2A434A6A7A5AE36BE
:100330002D3738271E1F20212223242526B333B62C
:100340002EB7B89F8485868788898A8B8C8D8E8FFF
:10035000909192939495969798999A9B9C9D2F3102
:1003600030A3AD350405060708090A0B0C0D0E0F66
:10037000101112131415161718191A1B1C1DAFB1E2
:10038000B0B50009040200010300000009210101C9
:1003900000012265000705840340000105010902F0
:1003A000A1010901A1008501050919012903150011
:1003B00025019503750181029501750581030501EC
:1003C0000930093109381581257F750895038106A3
:1003D000C0C005010906A1018502050719E029E74A
:1003E00015002501750195088102950175088103A5
:1003F0009506750815002565050719002965810012
:10040000C0000F053209D10AD90AE00A3F0E440F95
:100410000E1A971AED2340256105D50A11241FBE37
:10042000CFEFDAE0DEBFCDBF13E0A0E0B1E0E4E162
:10043000F5E502C005900D92A433B107D9F726E087
:10044000A4E3B3E001C01D92AE30B207E1F714E0BF
:10045000C8E1D4E004C02297FE010E94A427C23064
:10046000D107C9F70E94A71A0C947D2A0C940000AA
:100470006BE171E083E694E00E94211B82E10E941F
:1004800061174AE050E0BC0183E694E00E94F31B50
:1004900066E271E083E694E00E94211B63EA72E069
:1004A00083E694E00C94211B8F929F92AF92BF92AF
:1004B000CF92DF92EF92FF920F931F9385E594E026
:1004C0000E9477116093C8037093C9038093CA0395
:1004D0009093CB0360E085E594E00E940311609364
:1004E000CC037093CD038093CE039093CF0361E050
:1004F00085E594E00E9403116B017C016093D003B9
:100500007093D1038093D2039093D3038090C80358
:100510009090C903A090CA03B090CB03A5019401A9
:10052000C501B4010E946827811116C06091CC03F7
:100530007091CD038091CE039091CF039B01AC01CC
:100540000E946827811108C0A7019601C701B60162
:100550000E946827882319F06DE371E068C0950157
:100560008401B701A60185E594E00E94680F6093BD
:10057000D4037093D5038093D6039093D70369E691
:1005800071E083E694E00E94211B4091C8035091E2
:10059000C9036091CA037091CB0322E030E083E687
:1005A00094E00E94FA1C6EE771E083E694E00E94FA
:1005B000211B4091CC035091CD036091CE037091EB
:1005C000CF0322E030E083E694E00E94FA1C69E861
:1005D00071E083E694E00E94211B4091D00350918A
:1005E000D1036091D2037091D30322E030E083E61F
:1005F00094E00E94FA1C64E971E083E694E00E94B2
:10060000211B4091D4035091D5036091D603709182
:10061000D70322E030E083E694E00E94FA1C65EA0A
:1006200071E083E694E00E94211B64EA72E083E6B5
:1006300094E01F910F91FF90EF90DF90CF90BF90CB
:10064000AF909F908F900C94211B6EEB71E083E62E
:1006500094E00E94211B64E973E083E694E00E9429
:10066000211B66E671E083E694E00C94211B60E0B8
:1006700087E00C9408186CEC71E083E694E00E942B
:100680003E1B68ED71E083E694E00E943E1B83E62A
:1006900094E00C942A1BFF920F931F93CF93DF9348
:1006A000CDB7DEB762970FB6F894DEBF0FBECDBFF1
:1006B00000E010E067EF71E0CE0101960E9450214A
:1006C000BE016F5F7F4F84E393E00E94872297FD16
:1006D00007C081E0053111050CF480E0F82E02C05E
:1006E000FF24F394CE0101960E94E220FF20A9F09E
:1006F0004DE063E674E0CE0101960E942A1DBE0122
:100700006F5F7F4F84E393E00E948721CE010196C3
:100710000E94E2200F5F1F4FCDCF84E393E00E9441
:10072000D0226BEF71E0CE0107960E945021BE01EE
:10073000695F7F4F84E393E00E9487228C0161E030
:1007400072E0CE010D960E945021BE01635F7F4F83
:1007500084E393E00E948722AC014E5F5F4F9801D3
:1007600064E373E0CE0101960E948B22BE016F5FAD
:100770007F4F84E393E00E948721CE0101960E947F
:10078000E220CE010D960E94E220CE0107960E9443
:10079000E22062960FB6F894DEBF0FBECDBFDF91A8
:1007A000CF911F910F91FF9008951F93CF93DF93E7
:1007B00084E394E00E94CC1390E090933304809300
:1007C00032041092C7031092C60311E0C091C60311
:1007D000D091C7038091320490913304C817D90790
:1007E000DCF564E072E084E993E00E94E229BE0156
:1007F00083E0660F771F8A95E1F76E517C4F4C2F8F
:1008000084E394E00E94DE132091C6033091C70375
:10081000F901E852FC4F811114C010824AE06FE8E0
:1008200073E0C90101960E940E2ABC0184E993E09D
:100830000E94CE296DE372E084E993E00E94CE2904
:1008400001C010838091C6039091C70301969093D5
:10085000C7038093C603BACFDF91CF911F9108954C
:100860000F931F93CF93DF938C01C0E0D0E0F8018A
:1008700061918F0140E150E083E694E00E94081C02
:10088000C730D10531F06DE372E083E694E00E9459
:10089000211B2196C830D10551F7DF91CF911F91CF
:1008A0000F910895CF92DF92EF92FF9284E394E04C
:1008B0000E94CB1568E172E083E694E00E94211B60
:1008C0001092C7031092C6032091C6033091C7034C
:1008D0008091320490913304281739070CF077C0C7
:1008E0006AE172E083E694E00E94211B8091C603D6
:1008F0009091C70323E0880F991F2A95E1F78E5145
:100900009C4F0E94300469E272E083E694E00E940A
:10091000211B6DE272E083E694E00E94211B60914E
:10092000C6037091C703FB01E852FC4F8081882306
:10093000E9F093E0660F771F9A95E1F76E517C4FCF
:1009400084E394E00E945C166B017C016093C80311
:100950007093C9038093CA039093CB0320E030E0E7
:1009600048EC52EC0E94B22587FF07C067E372E0B3
:1009700083E694E00E94211B08C022E030E0B7012A
:10098000A60183E694E00E94FA1C64EA72E083E622
:1009900094E00E94211B80913204909133040197CE
:1009A0002091C6033091C7032817390731F06CE353
:1009B00072E083E694E00E94211B8091C60390912F
:1009C000C70301969093C7038093C6037DCF6FE35F
:1009D00072E083E694E0FF90EF90DF90CF900C946C
:1009E000211B61E472E083E694E00E94211B0E94D7
:1009F00038026DE472E083E694E00E94211B0E94BD
:100A0000540267E572E083E694E00E94211B0E9495
:100A1000520464EA72E083E694E00C94211B0F9385
:100A200000E020E040E060E080EC94E00E948B1A5F
:100A300046EC54E063EB75E186EB94E00E94E90E2E
:100A400066EC74E083E694E00E947D0D26E046E1CA
:100A50006AE085E594E00E944F0F62E087E494E04D
:100A60000E94F51267E474E084E394E00E94BD13F1
:100A700010923D0310923C0388EE93E0A0E0B0E0BA
:100A800080933E0390933F03A0934003B0934103B0
:100A90008AEB92E090933B0380933A0386EC94E0D8
:100AA000909347038093460310924C0310924D039A
:100AB00010924E036EE372E084E393E00F910C9486
:100AC000502184E393E00E94E2208AE393E00E94B5
:100AD0009C0B83E694E00C94940D60E177E280E057
:100AE00090E00E94D91661E087E00E94CF1761E094
:100AF00087E00E94081861E08DE00E94CF1760E057
:100B00008DE00E94081826E040E950ED63E070E0B7
:100B10008091CF049091D0040E944A1986EC94E011
:100B20000E942B0885E594E00E94560F84E394E030
:100B30000E94E9140E94D5031092BD0486EB94E054
:100B40000E944A0E61E08DE00C940818CF93DF9369
:100B5000CDB7DEB7C355D1090FB6F894DEBF0FBECF
:100B6000CDBF66EB74E0CE0101960E94F70EBE0188
:100B70006F5F7F4F83E694E00E949A0DCE0101964D
:100B80000E94940D80917304882309F450C00E9440
:100B90004B030E943B036AE672E084E393E00E9409
:100BA0004C22882319F00E9454023DC06FE672E087
:100BB00084E393E00E944C22882319F00E9452049F
:100BC00032C065E772E084E393E00E944C22882300
:100BD00019F00E94380227C06BE772E084E393E0CB
:100BE0000E944C22882319F00E9425031CC06FE745
:100BF00072E084E393E00E944C22882319F00E9463
:100C0000370311C064E872E084E393E00E944C2251
:100C1000882319F00E94F10406C069E872E083E6B7
:100C200094E00E943E1B83E694E00E944F0C61E03A
:100C30008DE00E94081862E370E080E090E00E947E
:100C4000D916CD5ADF4F0FB6F894DEBF0FBECDBF19
:100C5000DF91CF910895FC01238134812627022E54
:100C60002295207F2025032E322F22952F700226D9
:100C7000269532272327220F220F220F2025FC0141
:100C8000348323830895CF93DF93EC018D819E817C
:100C9000DC01ED91FC916C810190F081E02D0995D2
:100CA0008D819E81DC01ED91FC910190F081E02D20
:100CB0006B81DF91CF9109948F929F92AF92BF92F7
:100CC000CF92DF92EF92FF92CF93DF93EC016B0113
:100CD0000E94AA164B015C01E12CF12C8D819E81B2
:100CE000DC01ED91FC910680F781E02D099597FFDD
:100CF0000DC00E94AA16681979098A099B096C150A
:100D00007D058E059F0550F38FEF9FEFDF91CF910B
:100D1000FF90EF90DF90CF90BF90AF909F908F901B
:100D20000895CF93DF93EC018D819E81DC01ED91DD
:100D3000FC910480F581E02D09951816190654F4EC
:100D40008D819E81DC01ED91FC910680F781E02D83
:100D50000995EACFDF91CF9108952F923F924F925C
:100D60005F926F927F928F929F92AF92BF92CF923B
:100D7000DF92EF92FF920F931F93CF93DF93CDB744
:100D8000DEB72D970FB6F894DEBF0FBECDBF3C0186
:100D90001B013C832B83BF82AE825801AC0CBD1C6F
:100DA000A40EB51EBD824B2C512CCA01860F971F75
:100DB00099878887D901A00FB11FBB87AA87F60141
:100DC000EE0DFF1DFD87EC87D30118968C91581608
:100DD00008F026C1EFEFFFEFD3011496FC93EE93DA
:100DE000139715968D919C911697DC01ED91FC91CE
:100DF0000190F081E02D6FEF09956FEFC3010E9424
:100E00002B06F30185819681DC01ED91FC91019027
:100E1000F081E02DD3016C910995F3016081C3014C
:100E20000E942B06D30115968D919C911697DC019B
:100E3000ED91FC910190F081E02D6D810995642D7B
:100E4000C3010E942B06F30185819681DC01ED919F
:100E5000FC910190F081E02D6A2D09956A2DC30166
:100E60000E942B06610188859985C816D906A1F0D4
:100E7000F301858196818601DC01ED91FC91019061
:100E8000F081E02DD6016D916D010995F801608129
:100E9000C3010E942B06E7CFCB80DC808A859B852F
:100EA000C816D906B1F0D30115968D919C9116976D
:100EB0008601DC01ED91FC910190F081E02DD601DD
:100EC0006D916D010995F8016081C3010E942B06A7
:100ED000E5CF87018C859D8508171907B1F0D301EF
:100EE00015968D919C9116976801DC01ED91FC910E
:100EF0000190F081E02DD8016D918D010995F601E9
:100F00006081C3010E942B06E5CFC3010E94430606
:100F100064E670E0C3010E945C068F3F910509F012
:100F200074C0EFEFFFEFD3011496FC93EE93139789
:100F30006FEFC3010E942B0665E070E0C3010E94C1
:100F40005C06D3016C91262F30E08217930709F0DD
:100F50005CC0C3010E942B066AE070E0C3010E94DE
:100F60005C068C0197FD51C0682FC3010E942B06BF
:100F70006AE070E0C3010E945C066C0197FD45C009
:100F8000682FC3010E942B060A83198209811A81E6
:100F90000C0D1D1DC12CD12C65E070E0C301C016E5
:100FA000D106A1F0C814D90489F00E945C0697FD0F
:100FB00009C0EE81FF81EC0DFD1D8083682FC30108
:100FC0000E942B06BFEFCB1ADB0AE6CF0E945C061D
:100FD0006C0197FD1AC065E070E0C3010E945C06D9
:100FE00097FD13C0DC2CCC24C80ED91EF3018381DD
:100FF00094818C159D0549F480818F5F8083C801A1
:101000008016910678F4C4010DC0539464E670E034
:1010100080E090E00E94D916C3010E949106D4CED0
:101020008FEF9FEF2D960FB6F894DEBF0FBECDBFAA
:10103000DF91CF911F910F91FF90EF90DF90CF90B4
:10104000BF90AF909F908F907F906F905F904F90E8
:101050003F902F9008953F924F925F926F927F92B0
:101060008F929F92AF92BF92CF92DF92EF92FF92B8
:101070000F931F93CF93DF93CDB7DEB72E970FB6A5
:10108000F894DEBF0FBECDBF3C01DC0117968C91FA
:1010900017978111CFC081E017968C93C3010E94EE
:1010A000910668EE73E080E090E00E94D916F301AB
:1010B00085819681DC01ED91FC910480F581E02D24
:1010C00009951816190654F355E0552E44244394F7
:1010D00062E3362EE1E1F1E0DE011696852D019006
:1010E0000D928A95E1F7F3014086812C912CA12C79
:1010F000B12CC12CD12CE12CF12C00E010E020E02F
:1011000030E045E050E0BE016A5F7F4FC3010E94BE
:10111000AD0663E0D30115968D919C9116970E94C0
:10112000231B6AEF70E080E090E00E94D91668ED22
:1011300070E0F301858196810E94FC1A6AEF70E0ED
:1011400080E090E00E94D91666ED70E0D30115961C
:101150008D919C9116970E94FC1A64EF71E080E0DB
:1011600090E00E94D9166AEC70E0F30185819681C7
:101170000E94FC1A64EF71E080E090E00E94D916B2
:10118000C3010E949106E6E1F1E0DE011196852D92
:1011900001900D928A95E1F7D30118963C9244E0B4
:1011A000842E912CFE013B965F0120E030E045E06B
:1011B00050E0BE016F5F7F4FC3010E94AD068F3FBD
:1011C000FFEF9F0739F468EE73E080E090E00E9443
:1011D000D91680CF2B852111FFCF049711F52C85CF
:1011E00030E02053310944E6429FC001439F900DF7
:1011F00011242D8530E0205331096AE0629FA0015F
:10120000639F500D1124840F951F2E8530E02053CD
:101210003109820F931FD30112969C938E931197DD
:1012200005C084E690E0F3019283818382E3D301D9
:1012300018968C932E960FB6F894DEBF0FBECDBFD6
:10124000DF91CF911F910F91FF90EF90DF90CF90A2
:10125000BF90AF909F908F907F906F905F904F90D6
:101260003F9008951092C60481E095E09093CC04DD
:101270008093CB041092CD041092CE049093D004AE
:101280008093CF0408958F929F92AF92BF92CF9296
:10129000DF92EF92FF920F931F9348015901C12CE7
:1012A000D12CE12CF12C00E010E020E030E00E9495
:1012B000AD061F910F91FF90EF90DF90CF90BF9000
:1012C000AF909F908F9008950F931F9300E010E0D0
:1012D00020E030E00E9443091F910F910895CF93C1
:1012E000DF9300D0CDB7DEB7DC0152968C915297D8
:1012F000882389F080E589836A8342E050E0BE015B
:101300006F5F7F4F1C968D919C911D970E94640981
:1013100081E090E01FC05596ED91FC915697539651
:101320008C91539791E0980F53969C935397E80FA5
:10133000F11D608353969C91539754968C915497CA
:10134000981308C0ED91FC9111970284F385E02D6C
:10135000CD0109950F900F90DF91CF910895AF9235
:10136000BF92CF92DF92EF92FF920F931F93CF9392
:10137000DF9300D0CDB7DEB75C017A01DC01529675
:101380008C91811104C08B01E60EF71E41C06A01E9
:10139000BFEFCB1ADB0AC60169837A830E94BA1AAF
:1013A0008C01FC0180E58193A70169817A81CF01DD
:1013B0000E94C529A601B801F501848595850E9482
:1013C00064090115110519F0C8010E94BC1AC70172
:1013D00022C0D5015596ED91FC91569753968C916C
:1013E000539791E0980F53969C93D8019D918D014E
:1013F000E80FF11D9083F50193898489981308C043
:101400000190F081E02D0284F385E02DC50109955E
:101410000E151F05F1F60F900F90DF91CF911F91E0
:101420000F91FF90EF90DF90CF90BF90AF90089515
:10143000CF93DF93EC018A8981110AC04B8950E078
:101440006D897E898C859D850E94640981E08B8BE6
:10145000DF91CF910895FC011382128248EE53E090
:1014600060E070E044835583668377838AEA92E084
:101470009183808386EC94E095878487168617860F
:10148000118A108A81E0828B0895CF93DF93EC015B
:101490008A89811108C08D899E89009711F00E9468
:1014A000BC1A81E08A8BDF91CF910895EF92FF9271
:1014B0000F931F93CF93DF9300D0CDB7DEB77C019E
:1014C000FC018685811114C0178680E7898380E23C
:1014D0008A832089318900E210E042E050E0BE01B9
:1014E0006F5F7F4F848595850E944309F70186874A
:1014F0000F900F90DF91CF911F910F91FF90EF9080
:101500000895CF93DF93EC010E94560A8E8590E0F8
:10151000DF91CF910895CF93DF93EC010E94560A9B
:101520008E85882369F081508E87E889F9898F85B7
:1015300091E0980F9F87E80FF11D808190E002C035
:101540008FEF9FEFDF91CF910895CF93DF93EC0161
:101550000E94560A8E85882341F08F85E889F98993
:10156000E80FF11D808190E002C08FEF9FEFDF91C7
:10157000CF910895CF93DF93EC010E94450A8889AB
:101580009989009721F00E94BC1A198A188ADF9164
:10159000CF9108952AEA32E0FC01318320830C9434
:1015A000BA0A81ED94E00C942B0A81ED94E00C943E
:1015B000CA0A86EC94E09093E9048093E8040895C5
:1015C00086EC94E09093EB048093EA0408950895E8
:1015D0000F931F93CF93DF9300D01F92CDB7DEB749
:1015E00029E42983FC0126852A836B8300E010E02F
:1015F00020E030E043E050E0BE016F5F7F4F848524
:1016000095850E94430981E090E00F900F900F9024
:10161000DF91CF911F910F910895EF92FF920F9359
:101620001F93CF93DF9300D01F92CDB7DEB77C011D
:10163000FC018389811117C0148A8FE48983868510
:101640008A8380E48B8397012B5E3F4F00E410E098
:1016500043E050E0BE016F5F7F4F848595850E9417
:101660004309F701838B0F900F900F90DF91CF917B
:101670001F910F91FF90EF900895CF93DF93EC01AE
:101680000E940D0B8B8990E0DF91CF910895CF934D
:10169000DF93EC010E940D0B8B89882359F0815058
:1016A0008B8B8C8991E0980F9C8BC80FD11D8D89F5
:1016B00090E002C08FEF9FEFDF91CF910895CF931D
:1016C000DF93EC010E940D0B8B89882331F08C890C
:1016D000C80FD11D8D8990E002C08FEF9FEFDF9181
:1016E000CF910895EF92FF920F931F93CF93DF93C3
:1016F00000D0CDB7DEB77C01FC018289882389F058
:1017000087E7898386858A8300E010E020E030E067
:1017100042E050E0BE016F5F7F4F848595850E9457
:101720004309F701128A0F900F90DF91CF911F911B
:101730000F91FF90EF9008952AEB32E0FC01318386
:1017400020830C94720BFC01808908950895EF9218
:10175000FF920F931F93CF93DF93CDB7DEB72897F8
:101760000FB6F894DEBF0FBECDBF7C018B016EE3D8
:1017700072E0CE0101964F8358870E94502162E1AA
:1017800070E0CE0101960E941321D80112966C914F
:10179000CE0101960E941F226EE2CE0101960E94A8
:1017A0000C22F8016381CE0101960E941F226EE295
:1017B000CE0101960E940C22D80114966C91CE01A4
:1017C00001960E941F226EE2CE0101960E940C2219
:1017D000F8016581CE0101960E941F22D701ED918B
:1017E000FC9169817A810684F785E02D4F815885C7
:1017F000C70109958C01CE0101960E94E220C80123
:1018000028960FB6F894DEBF0FBECDBFDF91CF9103
:101810001F910F91FF90EF9008956F927F928F929A
:101820009F92AF92BF92CF92DF92EF92FF920F936F
:101830001F93CF93DF9300D0CDB7DEB7FC019B01A0
:101840003A0180898823C1F08CE6898386858A8362
:10185000812C912CA12CB12CC12CD12CE12CF12C60
:101860008A0142E050E0BE016F5F7F4F848595851D
:101870000E94AD06C30102C080E090E00F900F907F
:10188000DF91CF911F910F91FF90EF90DF90CF905C
:10189000BF90AF909F908F907F906F900895EF9240
:1018A000FF920F931F93CF93DF9300D0CDB7DEB796
:1018B0007C01FC018089882389F08AE689838685FA
:1018C0008A8300E010E020E030E042E050E0BE011A
:1018D0006F5F7F4F848595850E944309F701108AC9
:1018E0000F900F90DF91CF911F910F91FF90EF908C
:1018F00008950F931F93CF93DF9300D01F92CDB71E
:10190000DEB7FC0180898823B1F08CE48983868569
:101910008A8301E010E09E012D5F3F4F42E050E0DE
:10192000BE016F5F7F4F848595850E94430981E0EA
:101930009B81913009F080E00F900F900F90DF9124
:10194000CF911F910F9108956F927F928F929F92E6
:10195000AF92BF92CF92DF92EF92FF920F931F93BD
:10196000CF93DF93CDB7DEB727970FB6F894DEBFDE
:101970000FBECDBF3C019B0183E489835A834B8317
:10198000DB010D900020E9F78D0101501109061BC4
:10199000170B88248394912CFE0137965F01C12C8C
:1019A000D12CE12CF12C43E050E0BE016F5F7F4F62
:1019B000D3011C968D919C911D970E94AD06892B99
:1019C000E1F12F81822F90E0F3019787868783E6EC
:1019D0008C832D8301E010E09E012A5F3F4F42E09F
:1019E00050E0BE016C5F7F4FD3011C968D919C919E
:1019F0001D970E9443098E81882339F061E070E0D1
:101A000080E090E00E94D916E5CF81E0F301808B61
:101A10000190F081E02D0488F589E02DC30109953E
:101A200081110EC0D301ED91FC910288F389E02D64
:101A3000C3010995F3011786168680E090E002C085
:101A400081E090E027960FB6F894DEBF0FBECDBFC1
:101A5000DF91CF911F910F91FF90EF90DF90CF908A
:101A6000BF90AF909F908F907F906F9008950F934D
:101A70001F93CF93DF9300D01F92CDB7DEB7FC0149
:101A800080898823A9F08CE6898386858A836B8385
:101A900000E010E020E030E043E050E0BE016F5F86
:101AA0007F4F848595850E94430981E090E002C0C4
:101AB00080E090E00F900F900F90DF91CF911F91F9
:101AC0000F9108950F931F93FC011382128208EE69
:101AD00013E020E030E004831583268337838AEC0B
:101AE00092E091838083558744877787668781E07A
:101AF000808B118A1F910F910895FC01CB011382F5
:101B0000128248EE53E060E070E0448355836683C0
:101B100077832AEC32E03183208395878487178688
:101B20001686108A118A08952AEC32E0FC0131836E
:101B300020830895FB012089FC01208BFB01268571
:101B40003785FC01378726870895EF92FF920F9320
:101B50001F93CF93DF9300D01F92CDB7DEB77C01E8
:101B6000FC018189811117C0128A8BE489838685E3
:101B70008A8380E48B8397012D5E3F4F00E410E061
:101B800043E050E0BE016F5F7F4F848595850E94E2
:101B90004309F701818B0F900F900F90DF91CF9148
:101BA0001F910F91FF90EF900895CF93DF93EC0179
:101BB0000E94A50D898990E0DF91CF910895CF9380
:101BC000DF93EC010E94A50D8989882359F081508B
:101BD000898B8A8991E0980F9A8BC80FD11D8B89C8
:101BE00090E002C08FEF9FEFDF91CF910895CF92E9
:101BF000DF92EF92FF920F931F93CF93DF93EC014D
:101C00006A018B01E12CF12C89898823A9F08FEFDF
:101C1000E81AF80A8A8991E0980F9A8BFE01E80F7A
:101C2000F11D8389F80181938F0189898150898B06
:101C3000EC14FD0448F306C0CE010E94A50D89896D
:101C40008111E5CFC701DF91CF911F910F91FF90D7
:101C5000EF90DF90CF900895CF93DF93EC010E9437
:101C6000A50D8989882331F08A89C80FD11D8B89F8
:101C700090E002C08FEF9FEFDF91CF9108950F9317
:101C800000E020E040E060E08CEE94E00E948B1ADF
:101C90000F9108956F927F928F929F92AF92BF9211
:101CA000CF92DF92EF92FF920F931F93CF93DF9328
:101CB000CDB7DEB72A970FB6F894DEBF0FBECDBF03
:101CC0003C018EE48F83F301848195819887898715
:101CD00062EE70E0CE0101960E94D721F301878168
:101CE000811106C06AED70E0CE0101960E94B62116
:101CF0000D811E8129813A8188248394912CCE0103
:101D00000A965C01C12CD12CE12CF12C43E050E06F
:101D1000BE01695F7F4FF301808591850E94AD060A
:101D200081E09A85913009F080E0F3018683CE014D
:101D300001960E94E2202A960FB6F894DEBF0FBEED
:101D4000CDBFDF91CF911F910F91FF90EF90DF906A
:101D5000CF90BF90AF909F908F907F906F9008959D
:101D60008F929F92AF92BF92CF92DF92EF92FF92AB
:101D70000F931F93CF93DF9300D0CDB7DEB722E64A
:101D800029836A83812C912CA12CB12CC12CD12CBC
:101D9000E12CF12C00E010E020E030E042E050E0E7
:101DA000BE016F5F7F4FFC01808591850E94AD066B
:101DB00081E090E00F900F90DF91CF911F910F91F4
:101DC000FF90EF90DF90CF90BF90AF909F908F905B
:101DD0000895FC011382128286EE92E09183808343
:101DE00075836483168217825187408708956F92A6
:101DF0007F928F929F92AF92BF92CF92DF92EF929B
:101E0000FF920F931F93CF93DF9300D0CDB7DEB730
:101E10003C01FB018BE68A8388248394912CCE01BC
:101E200001965C01C12CD12CE12CF12C00E010E0DA
:101E300020E030E041E050E0BE016E5F7F4F8085E2
:101E400091850E94AD06892B31F466EC74E0C301E4
:101E50000E947D0D07C0698170E046EC54E0C3012B
:101E60000E94620DC3010F900F90DF91CF911F91DF
:101E70000F91FF90EF90DF90CF90BF90AF909F9029
:101E80008F907F906F9008950F9300E020E040E0E6
:101E900060E082EF94E00E948B1A0F910895FC019C
:101EA00066834783208781E085870895CF93DF93FA
:101EB000EC0160E08E810E94CF1761E08E810E946C
:101EC000081819861A861B861C86DF91CF91089503
:101ED0004F925F926F927F928F929F92AF92BF923A
:101EE000CF92DF92EF92FF920F931F93CF93DF93E6
:101EF000CDB7DEB728970FB6F894DEBF0FBECDBFC3
:101F00006A017B01480159019A01AB01C701B60181
:101F10000E9405272B013C01A5019401C501B401D4
:101F20000E9405276D837E838F83988721E133E2AA
:101F300043E050E4C701B6010E94052729E134E8D7
:101F400049E252E40E944D2569837A838B839C8306
:101F500026E13BE442E251E4C501B4010E940527B9
:101F60009B01AC0169817A818B819C810E944E2505
:101F700069837A838B839C8328E436E246E65EEBB2
:101F8000C701B6010E940527A50194010E940527FB
:101F90009B01AC0169817A818B819C810E944E25D5
:101FA00069837A838B839C8320EE3FE040EE5BEB7A
:101FB000C301B2010E9405279B01AC0169817A81AE
:101FC0008B819C810E944E2569837A838B839C83BD
:101FD00028EF37E840E65DEB6D817E818F81988543
:101FE0000E9405279B01AC0169817A818B819C81CC
:101FF0000E944E2569837A838B839C832CEA3DE083
:1020000041EA5AE3C301B2010E940527A5019401E8
:102010000E9405279B01AC0169817A818B819C819B
:102020000E944E254B015C0128EC3FE84FE55AE346
:10203000C701B6010E9405272D813E814F81588539
:102040000E9405279B01AC01C501B4010E944E25E9
:102050006B017C0121EF3BE845E056EBC301B20187
:102060000E9405272D813E814F8158850E940527BA
:102070009B01AC01C701B6010E944E2528960FB600
:10208000F894DEBF0FBECDBFDF91CF911F910F91AE
:10209000FF90EF90DF90CF90BF90AF909F908F9088
:1020A0007F906F905F904F900895DF92EF92FF9234
:1020B0000F931F93CF93DF93EC010E94AA1609851B
:1020C0001A852B853C85601771078207930720F4DA
:1020D00019861A861B861C862D85211111C009853B
:1020E0001A852B853C85DC01CB01801B910BA20B53
:1020F000B30B803D9740A105B10510F481E07BC092
:102100001D860E94AA1669877A878B879C871C8206
:102110001B821A821982188261E08E810E9408183F
:102120006AEF70E080E090E00E94D91661E08E8155
:102130000E94CF1760E08E810E94081864E170E071
:1021400080E090E00E94D916F89461E08E810E94B0
:10215000081888E290E00E94011760E08E810E94DA
:10216000CF17F12CD12C81E0E12C082F10E08E81CB
:102170000E943E188017910741F4E39481E090E0BB
:102180000E9401178FEFE812F2CF8E810E943E1855
:102190009FEFE916C9F023E02F1590F4F0FC10C072
:1021A0009D2D969596959695FE01E90FF11D9081CE
:1021B000990F908328852E1510F491609083D39405
:1021C000F39495E5F912D0CF789427E22D1590F489
:1021D0002C8130E04881898190E0840F911D4A81F3
:1021E000840F911D4B81840F911D99272817390762
:1021F00009F484CF80E0DF91CF911F910F91FF9080
:10220000EF90DF900895CF92DF92EF92FF920F93BD
:102210001F93CF93DF93EC01162F0E945510882354
:1022200009F450C08F818B3031F008F44BC08551D8
:10223000823078F047C06A8170E080E090E00E94D0
:102240004F26112309F443C020E030E040E151E47F
:102250002AC00A81602F6F7770E080E090E00E94D2
:10226000512620E030E040E853E40E9405276B014E
:102270007C016B8170E080E090E00E9451269B0120
:10228000AC01C701B6010E944E2520E030E040E2DB
:1022900051E40E94B62507FD90581123D9F020E0A3
:1022A00030E040E151E40E94052720E030E040EAC0
:1022B00050E40E94B62520E030E040E052E40E9465
:1022C0004E2508C020E030E040EC5FE705C09B01F0
:1022D000AC0102C09B01AC01B901CA01DF91CF91F1
:1022E0001F910F91FF90EF90DF90CF900895CF92C4
:1022F000DF92EF92FF92CF93DF93EC010E94551093
:10230000882379F18F818B3029F158F18551823002
:1023100040F5688170E080E090E00E944F2620E068
:1023200030E040E853E40E9405276B017C0169819D
:1023300070E080E090E00E9451269B01AC01C70153
:10234000B6010E944E2520E030E040E251E40E94B8
:10235000B6250BC0688170E080E090E00E944F26B7
:1023600004C060E070E080EC9FE7DF91CF91FF90C8
:10237000EF90DF90CF900895FF920F931F93CF932C
:10238000DF93FC010081C181D281F8948981F02E14
:10239000F0948F21898378941DE7115029F182E010
:1023A00090E00E94011788818023B9F3F8948A8114
:1023B0008F218A838981802B8983789480EE91E0B4
:1023C0000E940117F89489818F21898386E490E027
:1023D0000E9401178881802311E009F010E07894B1
:1023E0008AE991E00E940117812FDF91CF911F911F
:1023F0000F91FF9008951F93CF93DF93FC011081FD
:10240000C181D281912F909560FF12C0F8948A818A
:1024100089238A838981812B89838AE090E00E94C5
:1024200001178A81812B8A83789487E390E011C019
:10243000F8948A8189238A838981812B898381E425
:1024400090E00E9401178A81812B8A83789485E02D
:1024500090E0DF91CF911F910C9401170F931F9380
:10246000CF93DF93FC011081C181D281F8948981DF
:10247000812B89838A81012F009580238A8383E0C1
:1024800090E00E9401178981802389838AE090E08F
:102490000E940117C881789485E390E00E9401179B
:1024A0001C2381E009F480E0DF91CF911F910F910F
:1024B0000895CF92DF92EF92FF920F931F93CF93E5
:1024C000DF931F92CDB7DEB76C01E62E08E010E077
:1024D000FF24F39461E09F2D9E2109F460E0C60182
:1024E00049830E94FB11FF0C01501109498101151C
:1024F000110581F7411115C0F894D6011196ED919F
:10250000FC91129791818C918095892381831196FA
:10251000ED91FC91129792818C9180958923828311
:1025200078940F90DF91CF911F910F91FF90EF90D2
:10253000DF90CF900895EF92FF920F931F93CF9368
:10254000DF938C01C8E0D0E0F12CEE24E394C801C5
:102550000E942E128111FE28EE0C2197C1F78F2DBB
:10256000DF91CF911F910F91FF90EF900895CF923F
:10257000DF92FF920F931F93CF93DF931F92CDB7FC
:10258000DEB78C01F62E40E065E579830E94591292
:10259000CF2C7981D72E88E0F82EF60161916F015A
:1025A00040E0C8010E945912FA94B9F70F90DF91E8
:1025B000CF911F910F91FF90DF90CF90089540E051
:1025C0006CEC0C945912FC0113861586148627E0D6
:1025D00030E0DF01A20FB31F13961C9221153105C5
:1025E00019F021503109F5CF08951F93CF93DF9350
:1025F000EC01162F60E0812F0E94CF17612F70E051
:10260000FB01EA5EFD4FE491E883FB01EC5CFD4FCA
:10261000E491F0E0EE0FFF1FEE5AFD4F859194918B
:102620009A838983CE01DF91CF911F910C94E3129D
:10263000AF92BF92CF92DF92EF92FF920F931F93D0
:10264000CF93DF931F92CDB7DEB75C01E62ED72E76
:10265000FC01858581115DC0C5010E94BC118111FD
:1026600005C0F5011386158614866EC040E060EF44
:10267000C5010E94591201E0F12CC12C11E0C501E5
:102680000E942E12682FC50169830E942E12698153
:10269000613019F48130B9F433C02F2D30E0681364
:1026A0001BC0F5018385181730F4E20FF31F8381F7
:1026B000802349F402C0181731F060E0193058F453
:1026C000F501148708C0F501EF0DF11D8381802B02
:1026D000838361E009C0C12EF501E20FF31F8381FE
:1026E000902F909589238383C5010E94FB111F5F62
:1026F000000F11F4F39401E0F7E0FF1508F0BFCFED
:10270000113438F0F501C386C11018C081E0858707
:1027100015C0F50113861586148680E0EE2DFD2D7B
:1027200020E030E0D501A20FB31F13969C91919346
:102730002F5F3F4F28303105A9F706C0F50183818F
:10274000882339F381E0EACF0F90DF91CF911F9179
:102750000F91FF90EF90DF90CF90BF90AF900895D2
:10276000DC0180E0615038F0ED91E827F0E0E451C1
:10277000FF4F8491F7CF08950895FC018CEB93E10E
:10278000928B818B768365831482108289E08183AA
:1027900081E0828383830895FC0184810895CF932F
:1027A000DF93EB0167E0CE010E94B01391E02F812F
:1027B000821390E0892FDF91CF910895EF92FF92DD
:1027C0000F931F93CF93DF93EC018B01E42E8D8148
:1027D0009E810E94E312F12CB8018D819E810E949E
:1027E0001813882359F0FE1006C0B801CE010E94CC
:1027F000CF13811104C0F394EF1470F780E0DF91E0
:10280000CF911F910F91FF90EF900895EF92FF925B
:102810000F931F93CF93DF9300D0CDB7DEB77C012A
:102820008A01FC018581968169837A830E94BC11AB
:1028300069817A81F701858196810E94B71240E013
:102840006EEBF701858196810E945912F70185810F
:1028500096810E949B12F8018083F7018581968101
:102860000E949B12F8018183F701858196810E9465
:102870009B12F8018283F701858196810E949B1249
:10288000F8018383F701858196810E949B12F801EC
:102890008483F701858196810E949B12F8018583CC
:1028A000F701858196810E949B12F8018683F701CA
:1028B000858196810E949B12F8018783F7018581AB
:1028C00096810E949B12F8018087F701858196818D
:1028D0000F900F90DF91CF911F910F91FF90EF908C
:1028E0000C94BC11CF93DF93EA010E94061468E0B8
:1028F000CE010E94B01391E02885821390E0892FC9
:10290000DF91CF910895EF92FF921F93CF93DF93C2
:1029100000D0CDB7DEB77C01FC018581968169834B
:102920007A830E94BC1169817A81F7018581968141
:102930000E94B71240E064EBF701858196810E9406
:102940005912F701858196810E942E12182FF701E6
:10295000858196810E94BC1181E0111180E00F9069
:102960000F90DF91CF911F91FF90EF900895CF933B
:10297000DF93CDB7DEB729970FB6F894DEBF0FBE51
:10298000CDBFFB0120812031D1F0AE014F5F5F4F01
:102990000E947214882379F08D818F3351F020F4D6
:1029A0008F3149F489E00CC08F3539F08F3739F019
:1029B00002C08AE005C080E003C08BE001C08CE06B
:1029C00029960FB6F894DEBF0FBECDBFDF91CF9131
:1029D0000895EF92FF920F931F93CF93DF93CDB79C
:1029E000DEB761970FB6F894DEBF0FBECDBF8C0186
:1029F000FC01858196810E94E312F8011482FF2474
:102A0000F394BE01665F7F4FF801858196810E9435
:102A100018138823C9F1BE01665F7F4FC8010E9469
:102A2000CF13882371F3F8018081811108C0BE01A2
:102A3000665F7F4FC8010E948314811122C0AE01DE
:102A40004F5F5F4FBE01665F7F4FC8010E94061453
:102A5000F801E180BE01665F7F4FC8010E94B71494
:102A60008E1518F4F801818106C0BE01665F7F4FA4
:102A7000C8010E94B714F801818384818F5F848329
:102A8000C0CFF801F082DBCF61960FB6F894DEBFBD
:102A90000FBECDBFDF91CF911F910F91FF90EF90AF
:102AA0000895CF93DF93CDB7DEB729970FB6F8948B
:102AB000DEBF0FBECDBFAE014F5F5F4F0E94061459
:102AC00081E09981911101C080E029960FB6F894B8
:102AD000DEBF0FBECDBFDF91CF9108958F929F9241
:102AE000AF92BF92CF92DF92EF92FF920F931F931C
:102AF000CF93DF93EC018A016950633048F4E62FED
:102B0000F0E0EE0FFF1FE451FD4F8081918102C084
:102B10008EEE92E04C01AA2497FCA094BA2C0115E9
:102B20001105E1F08B818823C9F08881811116C0DD
:102B30000E94AA166B017C01C80CD91CEA1CFB1C64
:102B4000B801CE010E945115811118C00E94AA1629
:102B50006C157D058E059F0588F4F2CFC501B40183
:102B6000DF91CF911F910F91FF90EF90DF90CF9069
:102B7000BF90AF909F908F900C94D916DF91CF911A
:102B80001F910F91FF90EF90DF90CF90BF90AF908B
:102B90009F908F900895CF93DF93EC018D819E815C
:102BA0000E94BC118D819E810E94DF12488164E4E5
:102BB0008D819E810E9459128A81882341F040E0D4
:102BC00050E06981CE01DF91CF910C946E15DF91B9
:102BD000CF910895FA01208148E0249F90011124AB
:102BE000818190E0982F8827990F990F990F282BB2
:102BF000392BDB018C918031C1F4678170E08681D3
:102C0000AB01481B5109CA019695982F88279795C3
:102C100087950E946C2760517109207F53E0220F35
:102C2000331F5A95E1F7260F371FC9010895EF9218
:102C3000FF920F931F93CF93DF93CDB7DEB7299702
:102C40000FB6F894DEBF0FBECDBF8C017B01AE0185
:102C50004F5F5F4F0E947214882341F0AE014F5FB7
:102C60005F4FB701C8010E94EA1502C080E894EEE8
:102C700029960FB6F894DEBF0FBECDBFDF91CF917E
:102C80001F910F91FF90EF900895813824EE9207E5
:102C900074F0BC01882777FD8095982F0E945126FB
:102CA00020E030E040E05CE30E940527089560E00A
:102CB00070E08EEF92EC08950E9417160C94451662
:102CC0001F920F920FB60F9211242F933F938F9361
:102CD0009F93AF93BF938091F9049091FA04A091D0
:102CE000FB04B091FC043091F80423E0230F2D374E
:102CF00020F40196A11DB11D05C026E8230F029600
:102D0000A11DB11D2093F8048093F9049093FA0457
:102D1000A093FB04B093FC048091FD049091FE0409
:102D2000A091FF04B09100050196A11DB11D8093F3
:102D3000FD049093FE04A093FF04B0930005BF919F
:102D4000AF919F918F913F912F910F900FBE0F9058
:102D50001F9018952FB7F8946091F9047091FA04B8
:102D60008091FB049091FC042FBF08953FB7F89425
:102D70008091FD049091FE04A091FF04B0910005A4
:102D800026B5A89B05C02F3F19F00196A11DB11DC6
:102D90003FBF6627782F892F9A2F620F711D811DE3
:102DA000911D42E0660F771F881F991F4A95D1F742
:102DB0000895CF92DF92EF92FF92CF93DF936B0152
:102DC0007C010E94B616EB01C114D104E104F104A8
:102DD00089F00E942F230E94B6166C1B7D0B683E63
:102DE000734090F381E0C81AD108E108F108C85196
:102DF000DC4FEACFDF91CF91FF90EF90DF90CF9043
:102E00000895019739F0880F991F880F991F02972D
:102E10000197F1F70895789484B5826084BD84B5F4
:102E2000816084BD85B5826085BD85B5816085BDC5
:102E3000EEE6F0E0808181608083E1E8F0E01082DE
:102E4000808182608083808181608083E0E8F0E01F
:102E5000808181608083E1E9F0E08081826080830D
:102E6000808181608083E0E9F0E0808181608083FF
:102E7000E1ECF0E0808184608083808182608083E7
:102E8000808181608083E3ECF0E0808181608083D9
:102E9000E0ECF0E0808182608083E2ECF0E0808111
:102EA00081608083EAE7F0E08081846080838081B4
:102EB000826080838081816080838081806880835C
:102EC0000895823108F08251E82FF0E0E451FE4F7E
:102ED000E49180917B00E3FB222720F930E095E02C
:102EE000220F331F9A95E1F78F7D822B80937B0011
:102EF000E7708091060120E4829FC0011124E82B35
:102F0000E0937C0080917A00806480937A008091C5
:102F10007A0086FDFCCF809178002091790090E0C6
:102F2000922B089590E0FC013197EF30F105B0F558
:102F3000EA5AFF4F0C94A227809180008F7703C03C
:102F4000809180008F7D8093800008958091800023
:102F5000877FF9CF84B58F7702C084B58F7D84BD1C
:102F60000895809190008F7707C0809190008F7DA9
:102F700003C080919000877F809390000895809196
:102F8000C0008F7703C08091C0008F7D8093C00008
:102F900008958091C200877F8093C2000895CF93E7
:102FA000DF9390E0FC01EA5EFD4F2491FC01EC5CB4
:102FB000FD4F8491882349F190E0880F991FFC010F
:102FC000E259FD4FA591B491805A9D4FFC01C591E6
:102FD000D4919FB7611108C0F8948C9120958223F9
:102FE0008C93888182230AC0623051F4F8948C91CA
:102FF000322F309583238C938881822B888304C061
:10300000F8948C91822B8C939FBFDF91CF91089580
:103010000F931F93CF93DF931F92CDB7DEB7282F67
:1030200030E0F901E850FE4F8491F901EA5EFD4F6E
:103030001491F901EC5CFD4F04910023C9F0882341
:1030400021F069830E9492176981E02FF0E0EE0F72
:10305000FF1FE05AFD4FA591B4919FB7F8948C9152
:10306000611103C01095812301C0812B8C939FBFF8
:103070000F90DF91CF911F910F910895CF93DF9320
:10308000282F30E0F901E850FE4F8491F901EA5E03
:10309000FD4FD491F901EC5CFD4FC491CC2391F02C
:1030A00081110E949217EC2FF0E0EE0FFF1FEE5AF5
:1030B000FD4FA591B4912C912D2381E090E021F456
:1030C00080E002C080E090E0DF91CF910895FC01A4
:1030D000818D228D90E0805C9F4F821B91098F73C0
:1030E00099270895FC01918D828D981731F0828D7A
:1030F000E80FF11D858D90E008958FEF9FEF089503
:10310000FC01918D828D981761F0828DDF01A80FEF
:10311000B11D5D968C91928D9F5F9F73928F90E011
:1031200008958FEF9FEF089584E09AE1892B49F08D
:1031300080E090E0892B29F00E94041A81110C9400
:1031400000000895FC01848DDF01A80FB11DA35A72
:10315000BF4F2C91848D90E001968F739927848FB7
:10316000A689B7892C93A089B1898C9180648C93AE
:10317000938D848D981306C00288F389E02D808199
:103180008F7D80830895CF93DF93EC01888D882312
:10319000C9F0EA89FB89808185FD05C0A889B989C4
:1031A0008C9186FD0FC00FB607FCF5CF808185FF9F
:1031B000F2CFA889B9898C9185FFEDCFCE010E940D
:1031C000A218E7CFDF91CF910895CF92DF92FF92BF
:1031D0000F931F93CF93DF931F92CDB7DEB76C0190
:1031E000DC015B969C915B975C968C915C97981345
:1031F00007C05096ED91FC915197808185FD32C0BA
:10320000F601038D10E00F5F1F4F0F731127F02E93
:10321000F601848DF81211C00FB607FCF9CFD60164
:103220005096ED91FC915197808185FFF1CFC601B9
:1032300069830E94A2186981EBCF838DE80FF11D8D
:10324000E35AFF4F6083D6015B960C935B975296CF
:10325000ED91FC91539780818062808381E0589644
:103260008C930DC0D6015696ED91FC9157976083D3
:103270005096ED91FC91519780818064808381E02C
:1032800090E00F90DF91CF911F910F91FF90DF9011
:10329000CF900895BF92CF92DF92EF92FF92CF939B
:1032A000DF93EC016A017B01B22EE889F98982E0A3
:1032B0008083411581EE580761057105A1F060E03A
:1032C00079E08DE390E0A70196010E9480272150CC
:1032D000310941095109569547953795279521158B
:1032E00080E1380798F0E889F989108260E874E88D
:1032F0008EE190E0A70196010E94802721503109BC
:10330000410951095695479537952795EC85FD85D7
:103310003083EE85FF852083188EEC89FD89B0828D
:10332000EA89FB89808180618083EA89FB898081C9
:1033300088608083EA89FB89808180688083EA894C
:10334000FB8980818F7D8083DF91CF91FF90EF900B
:10335000DF90CF90BF9008951F920F920FB60F92FB
:1033600011242F938F939F93EF93FF93E091110577
:10337000F09112058081E0911705F091180582FD0A
:1033800012C0908180911A058F5F8F7320911B0569
:10339000821751F0E0911A05F0E0EF5FFA4F958F38
:1033A00080931A0501C08081FF91EF919F918F91C9
:1033B0002F910F900FBE0F901F9018951F920F9294
:1033C0000FB60F9211242F933F934F935F936F93F8
:1033D0007F938F939F93AF93BF93EF93FF9381E07E
:1033E00095E00E94A218FF91EF91BF91AF919F913C
:1033F0008F917F916F915F914F913F912F910F909E
:103400000FBE0F901F90189581E095E00E946718FD
:1034100021E0892B09F420E0822F08951092040501
:103420001092030588EE93E0A0E0B0E080930505DC
:1034300090930605A0930705B093080586EF92E0E8
:1034400090930205809301058DEC90E090930E051A
:1034500080930D058CEC90E09093100580930F0500
:1034600088EC90E0909312058093110589EC90E030
:1034700090931405809313058AEC90E090931605C1
:10348000809315058EEC90E09093180580931705B6
:1034900010921A0510921B0510921C0510921D0522
:1034A0000895AF92BF92CF92DF92EF92FF920F9367
:1034B0001F93CF93DF936C017B01C0E0D0E000E06D
:1034C00010E0F601EC0FFD1F4AE050E06281C701F9
:1034D0000E94081C5C016EE2C7010E94231B8A0D3A
:1034E0009B1D080F191F2196C330D10551F74AE0E3
:1034F00050E0F6016581C7010E94081C800F911FF2
:10350000DF91CF911F910F91FF90EF90DF90CF90BF
:10351000BF90AF9008950F93FC0186E093E09183F4
:10352000808362834383248305830F91089586E01B
:1035300093E090939F0580939E051092A0051092B2
:10354000A1051092A2051092A305089508950E9466
:103550000B170E94A61A84EA95E00E94C4200E94DC
:103560006D05C4E9D8E10E94A6052097E1F30E9409
:103570009418F9CF0C94BC270C945428CF92DF9266
:10358000EF92FF920F931F93CF93DF936C017A0119
:10359000EB01E60EF71E00E010E0CE15DF0561F04E
:1035A0006991D601ED91FC910190F081E02DC60169
:1035B0000995080F191FF1CFC801DF91CF911F9115
:1035C0000F91FF90EF90DF90CF90089561157105F6
:1035D00081F0DB010D900020E9F7AD014150510968
:1035E000461B570BDC01ED91FC910280F381E02D2D
:1035F000099480E090E00895EF92FF920F931F935B
:10360000CF93DF938C01FB01C0E0D0E064917F0198
:103610008FEFE81AF80A662361F0D801ED91FC916A
:103620000190F081E02DC8010995C80FD91FF7015D
:10363000EDCFCE01DF91CF911F910F91FF90EF90D1
:1036400008950C94E61ADC01ED91FC910190F08153
:10365000E02D09940F931F93CF93DF93EC016DE05E
:103660000E94231B8C016AE0CE010E94231B800F65
:10367000911FDF91CF911F910F9108950F931F9389
:10368000CF93DF93EC010E94E61A8C01CE010E94D9
:103690002A1B800F911FDF91CF911F910F910895E9
:1036A0008F929F92AF92BF92CF92DF92EF92FF9252
:1036B0000F931F93CF93DF93CDB7DEB7A1970FB6CC
:1036C000F894DEBF0FBECDBF7C01C42EE52FCB0129
:1036D000D22E19A221E02D1510F02AE0D22E8E0153
:1036E0000F5D1F4F8D2C912CA12CB12C6C2D7E2F9A
:1036F000A50194010E9480278C2DD29E801911244F
:10370000015011098A3014F4805D01C0895CF80110
:103710008083211531054105510521F0C22EE32F8B
:10372000CA01E4CFB801C7010E94E61AA1960FB6FC
:10373000F894DEBF0FBECDBFDF91CF911F910F91E7
:10374000FF90EF90DF90CF90BF90AF909F908F90C1
:103750000895CF92DF92EF92FF920F931F93CF9332
:10376000DF93EC016A017B012115310579F4E881D1
:10377000F9810190F081E02D642FDF91CF911F91AD
:103780000F91FF90EF90DF90CF9009942A30310590
:10379000E9F477FF1AC06DE20E94231B8C014427D5
:1037A0005527BA014C195D096E097F092AE0CE013F
:1037B0000E94501B800F911FDF91CF911F910F919D
:1037C000FF90EF90DF90CF9008952AE0B701A60117
:1037D000CE01DF91CF911F910F91FF90EF90DF907D
:1037E000CF900C94501B9A01AB01662757FD609552
:1037F000762F0C94A91B2115310541F4DC01ED91C4
:10380000FC910190F081E02D642F09940C94501BE1
:103810009A01462F50E060E070E00C94FB1B4F9241
:103820005F926F927F928F929F92AF92BF92CF9250
:10383000DF92EF92FF920F931F93CF93DF93EC01F0
:103840006A017B01B22E9A01AB01C701B6010E9449
:103850006827882319F068E073E027C02601370144
:10386000E89477F82FEF3FEF4FE75FE7C301B2012E
:103870000E94682781110DC02FEF3FEF4FE75FE7F0
:10388000C301B2010E94B22518161CF46CE073E06B
:103890000CC02FEF3FEF4FE75FE4C701B6010E9476
:1038A00001271816ACF460E173E0CE01DF91CF91EF
:1038B0001F910F91FF90EF90DF90CF90BF90AF904E
:1038C0009F908F907F906F905F904F900C94E61A2E
:1038D0002FEF3FEF4FE75FECC701B6010E94B22523
:1038E00087FDE1CF20E030E0A901C701B6010E94C9
:1038F000B22587FF0AC06DE2CE010E94231B8C0116
:10390000F7FAF094F7F8F09402C000E010E0A12C70
:1039100060E070E080E09FE3AB1441F020E030E035
:1039200040E251E40E94B625A394F6CF9B01AC017E
:10393000C701B6010E944E256B017C010E9423261F
:103940002B013C010E944F269B01AC01C701B6012F
:103950000E944D256B017C012AE0B301A201CE013A
:103960000E94501B080F191FBB2039F064E173E05F
:10397000CE010E94E61A080F191F7B2C772041F117
:1039800020E030E040E251E4C701B6010E94052783
:103990006B017C010E941E264B01AA2497FCA09477
:1039A000BA2C2AE030E0B501A401CE010E94A91B87
:1039B000080F191FC501B4010E9451269B01AC01DB
:1039C000C701B6010E944D256B017C017A94D6CFC8
:1039D000C801DF91CF911F910F91FF90EF90DF9081
:1039E000CF90BF90AF909F908F907F906F905F909F
:1039F0004F9008950C940F1C0F931F93CF93DF9358
:103A0000EC010E94AA16688779878A879B87E881DC
:103A1000F9810680F781E02DCE01099597FF15C049
:103A20000E94AA16088519852A853B85601B710BA3
:103A3000820B930B0C811D812E813F8160177107D2
:103A40008207930720F38FEF9FEFDF91CF911F91B4
:103A50000F910895EF92FF920F931F93CF93DF93EF
:103A6000EC018B01E42E6EE372E00E945021C8014C
:103A70000E94FC1CFF24E7FCF09497FD0BC08E1500
:103A80009F0541F0682FCE010E940C22C8010E94C0
:103A9000FC1CF3CFCE01DF91CF911F910F91FF90CE
:103AA000EF9008954091A8055091A9052091A60591
:103AB0003091A70542175307B4F49091E800957030
:103AC000E1F39091E80092FD19C08093F10080919C
:103AD000A8059091A90501968F739927892B19F450
:103AE0008EEF8093E8008091A8059091A90501963A
:103AF0009093A9058093A80581E0089580E008953A
:103B0000FF920F931F93CF93DF938C0188E10E9464
:103B1000521D83E00E94521DC0E0D0E0F801EC0F7E
:103B2000FD1F84910E94521DF82E80E00E94521DBC
:103B30008F2121F02196CB30D10581F7DF91CF91F4
:103B40001F910F91FF900895615030F02091F10086
:103B5000FC0120830196F8CF289884E68093AB057A
:103B600008952FB7FC012083F89467706093E900F3
:103B70000895CF93DF931F92CDB7DEB7682FCE01A4
:103B800001960E94B11D8091F20099819FBF0F9014
:103B9000DF91CF910895FF920F931F93CF93DF93FF
:103BA00000D0CDB7DEB7F62E8A019091AA059923F1
:103BB00011F057FF03C08FEF9FEF2BC0682FCE018E
:103BC00001967A830E94B11D8091F20090E0A801D5
:103BD0007A81801791070CF4AC01EF2DF72FF40ECA
:103BE00084E6FE1639F028988093AB059091F10099
:103BF0009193F7CF4115510521F08091F200882370
:103C000021F089818FBFCA0104C08BE68093E80050
:103C1000F8CF0F900F90DF91CF911F910F91FF90F0
:103C20000895CF93DF931F92CDB7DEB741E050E008
:103C3000BE016F5F7F4F0E94CB1D019719F48981F0
:103C400090E002C08FEF9FEF0F90DF91CF9108952A
:103C5000CF93DF931F92CDB7DEB7682FCE010196C9
:103C60000E94B11D9091E800892F807295FF04C0D9
:103C70009091F20080E4891B99819FBF0F90DF91A2
:103C8000CF9108956F927F928F929F92AF92BF9241
:103C9000CF92DF92EF92FF920F931F93CF93DF9318
:103CA0001F92CDB7DEB7782E7B01C42EB52E809142
:103CB000AA05882369F0042F152F8AEFD82E872DA7
:103CC0008072982E9AE3A92E872D8074882E11C0B9
:103CD0008FEF9FEF57C0872D0E94281E682E8111FD
:103CE0000CC0DA94A9F361E070E080E090E00E94FB
:103CF000D9160115110579F73BC0282F30E00217BE
:103D000013070CF4602E672DCE0101960E94B11DA1
:103D10008091E80085FF29C0262D30E0021B130B9F
:103D2000992039F06A948FEF6816B1F01092F10083
:103D3000F9CFF701862D77FE07C0815058F0949196
:103D40009093F1003196F9CF815020F091919093AA
:103D5000F100FACFE20EF31E8091E80085FF0FC05C
:103D60000115110511F481100AC089818FBFC1CFDF
:103D70005D9884E68093AC058C2D9B2D03C0A092AA
:103D8000E800F3CF0F90DF91CF911F910F91FF903B
:103D9000EF90DF90CF90BF90AF909F908F907F90EB
:103DA0006F9008951092E9001092A9051092A8054D
:103DB0009093A7058093A6050895CF92DF92FF9276
:103DC0000F931F93CF93DF9300D0CDB7DEB7F82EBC
:103DD0008A016B0101151105B1F0F601F7FE02C071
:103DE000849101C0808149835A830E94521D0150F1
:103DF0001109FFEFCF1ADF0A49815A818111EACFF9
:103E00008FEF9FEF01C0CA010F900F90DF91CF910C
:103E10001F910F91FF90DF90CF9008951F93CF9344
:103E2000DF931F92CDB7DEB7162F2091E80022FF57
:103E3000FCCF612F79830E94A41D8BEF8093E80053
:103E4000812F7981972F0F90DF91CF911F91089546
:103E5000CF93DF931F92CDB7DEB71982CE010196C3
:103E60000E948D23CE0101960E942824898190E032
:103E70000F90DF91CF9108951F920F920FB60F927E
:103E80001124EF92FF920F931F932F933F934F9321
:103E90005F936F937F938F939F93AF93BF93EF93B2
:103EA000FF93CF93DF93CDB7DEB76297DEBFCDBF71
:103EB0001092E9008091E80083FFE9C068E0CE013C
:103EC0000A960E94A41D82EF8093E8009A8597FFCE
:103ED00005C08091E80080FFFCCF03C08EEF809387
:103EE000E800892F807609F0B7C08B85811105C065
:103EF0001092F1001092F100C3C0282F2D7F2130C5
:103F000009F4BEC0853049F48091E80080FFFCCF01
:103F10008C8580688093E300B3C0863009F074C05C
:103F20002D85E888F988223071F580E090E02A8BB1
:103F30000E94D21E0E94281F99E08E010F5F1F4F22
:103F4000F801392F11923A95E9F799832A892A8342
:103F500091E09E8390E898879AEF99872091A80531
:103F60003091A905275F3F4F3C832B838D83C70189
:103F70000E94D21E49E050E0B80180E00E94DD1EA0
:103F80000E94281F7DC0C7012A8B0E94D21E2A8949
:103F9000223241F482E290E00E943324892B09F01E
:103FA0006FC072C0213069F488899989089711F42B
:103FB0002093A5058091A505811116C063E972E0E3
:103FC00018C0233009F060C08C85882381F08230CE
:103FD00019F481EB92E005C0813009F055C085EA03
:103FE00092E00E94801D4AC061E872E002C06DEB61
:103FF00072E06115710509F447C0FB01449150E07E
:1040000080E80E94DD1E3CC0873009F43DC0883046
:1040100021F481E08093F10033C0893089F59370F9
:1040200099F5EDE7F2E081E021E096E38093E90085
:104030002093EB0034913093EC009093ED008F5F70
:104040003196853099F78EE78093EA001092EA0066
:104050008C858093AA0514C0888999890E94D21EF4
:104060008E85811105C0CE010A960E94982306C054
:10407000823051F4CE010A960E945B24882321F0FD
:104080008EEF8093E80003C081E28093EB0062969C
:104090000FB6F894DEBF0FBECDBFDF91CF91FF9179
:1040A000EF91BF91AF919F918F917F916F915F91B0
:1040B0004F913F912F911F910F91FF90EF900F9093
:1040C0000FBE0F901F9018958093E9008091F20029
:1040D000882319F08AE38093E80008951F920F92D5
:1040E0000FB60F9211242F933F934F935F936F93CB
:1040F0007F938F939F93AF93BF93EF93FF938091A1
:10410000E1001092E10083FF0FC01092E90091E0FE
:104110009093EB001092EC0092E39093ED001092DC
:10412000AA0598E09093F00082FF1DC083E00E94F2
:1041300064208091AC05882339F08091AC058150D2
:104140008093AC05882369F08091AB05882359F0F2
:104150008091AB0581508093AB05811104C0289AF2
:1041600002C05D9AF1CFFF91EF91BF91AF919F9106
:104170008F917F916F915F914F913F912F910F9010
:104180000FBE0F901F9018951092AA0581E08093A2
:10419000D70080EA8093D80082E189BD09B400FE8F
:1041A000FDCF61E070E080E090E00E94D91680E9E8
:1041B0008093D8008CE08093E2001092E000559A42
:1041C000209A0895FC01808191810C945428CF930A
:1041D000DF93EC0188819981009711F00E945428A7
:1041E000198218821D821C821B821A82DF91CF9154
:1041F00008950F931F93CF93DF93EC018B016F5FB3
:104200007F4F888199810E94E328009731F099833C
:1042100088831B830A8381E001C080E0DF91CF9116
:104220001F910F910895CF93DF93EC0188819981BD
:10423000892B29F08A819B818617970760F4CE012C
:104240000E94F920882341F08C819D81892B19F4EB
:10425000E881F981108281E0DF91CF910895EF929A
:10426000FF920F931F93CF93DF93EC017B018A01A1
:10427000BA010E941321811104C0CE010E94E720DF
:1042800007C01D830C83B701888199810E94E229B0
:10429000CE01DF91CF911F910F91FF90EF90089584
:1042A000FC01118210821382128215821482611520
:1042B000710559F0FB0101900020E9F7AF01415071
:1042C0005109461B570B0C942F210895EF92FF9232
:1042D0000F931F93CF93DF93EC017B018A01BA0107
:1042E0000E941321811104C0CE010E94E72007C063
:1042F0001D830C83B701888199810E94B529CE0165
:10430000DF91CF911F910F91FF90EF900895CF9380
:10431000DF93EC01FB018617970761F060817181E3
:104320006115710529F0448155810E942F2102C039
:104330000E94E720CE01DF91CF910895CF93DF93C4
:10434000EC016115710561F0FB0101900020E9F7B6
:10435000AF0141505109461B570B0E942F2102C04B
:104360000E94E720CE01DF91CF9108950F931F9314
:10437000CF93DF9300D0CDB7DEB78C016115710507
:1043800061F0CB0169837A830E94BC29AC01698109
:104390007A81C8010E94662102C00E94E720C801FC
:1043A0000F900F90DF91CF911F910F910895FC0115
:1043B0001182108213821282158214820C94B6210B
:1043C000EF92FF920F931F93CF93DF93EC017B014A
:1043D0000C811D816115710511F480E016C0411535
:1043E000510591F0040F151FB8010E941321882375
:1043F000A1F3288139818C819D81B701820F931FA0
:104400000E94E2291D830C8381E0DF91CF911F91EF
:104410000F91FF90EF900895CF93DF9300D0CDB729
:10442000DEB769831A8241E050E0BE016F5F7F4FC3
:104430000E94E0210F900F90DF91CF910895EF92AD
:10444000FF920F931F93CF93DF9300D000D0CDB78F
:10445000DEB77C01862F4AE050E08E010F5F1F4FD0
:10446000B80190E00E94032AF80101900020E9F7CA
:10447000AF0141505109401B510BB801C7010E94C7
:10448000E0210F900F900F900F90DF91CF911F912F
:104490000F91FF90EF900895FC0124813581232B2B
:1044A00031F421E061157105A1F0FB0108C0FC01A8
:1044B000808191816115710531F421E0FC018081D9
:1044C000882339F005C00E94D92921E0892B09F001
:1044D00020E0822F0895CF93DF93FC0184819581A2
:1044E0004817590778F4C081D181FB01608171813F
:1044F000CE01840F951F0E94E929009719F08C1BAB
:104500009D0B02C08FEF9FEFDF91CF91089540E0A8
:1045100050E00C946B22BF92CF92DF92EF92FF9209
:104520000F931F93CF93DF936C017B01EA01890105
:104530002417350720F48D2FE901042F182F6EE37F
:1045400072E0C6010E945021D70114968D919C9172
:104550001597C817D907C8F48017910708F48C017C
:10456000D701ED91FC911197E00FF11FB0801082FF
:104570006D917C916C0F7D1FC6010E949E21D70119
:10458000ED91FC91E00FF11FB082C601DF91CF9158
:104590001F910F91FF90EF90DF90CF90BF90089503
:1045A000AF92BF92CF92DF92EF92FF920F931F9341
:1045B000CF93DF937C01DC01CD90DC901197C11487
:1045C000D10409F441C01496CD91DC911597209740
:1045D000D9F156018501BFEFAB1ABB0AF801808102
:1045E000992787FD90950E94AD29892B99F72197EE
:1045F000CC0DDD1D8881992787FD90950E94AD29FE
:10460000892B91F4AE014F5F5F4F401B510BD701D7
:1046100015965C934E931497C016D10650F4B801CA
:10462000C6010E94C52905C0C017D10758F32197BC
:10463000E1CFD701ED91FC91119714968D919C914A
:104640001597E80FF91F1082DF91CF911F910F91FD
:10465000FF90EF90DF90CF90BF90AF9008950895B6
:10466000CF93DF931F92CDB7DEB76983DC01ED9165
:10467000FC910280F381E02D41E050E0BE016F5FCC
:104680007F4F09950F90DF91CF910895CF93DF93DE
:10469000EC018C859D8597FF05C082E00E94111E6C
:1046A0009D878C878C859D85DF91CF91089583E0D0
:1046B0000C946420FC018485958597FD06C082E0FA
:1046C0000E94B91D90E00196089582E00E94B91DF4
:1046D00090E00895FC018485958597FD05C02FEF36
:1046E0003FEF35872487089582E00C94111ECF9305
:1046F000DF93EC0180910E01882331F083E00E946A
:10470000421E1816190634F081E090E09B838A83DC
:1047100080E090E0DF91CF910895FC0120812E5F31
:10472000208342E450E061EC72E080E80C94DD1EEE
:10473000FC0181819081913A59F4813209F03CC0A9
:1047400047E050E067E071E080E00E94DD1E43C07A
:10475000913291F5803239F467E070E087E091E0C2
:104760000E940E1F06C0823209F035C082818093FC
:104770000E018091070190910801A0910901B0916B
:104780000A01803B9440A105B105C1F480910E015E
:1047900080FD14C087E797E7909301088093000895
:1047A0002BE088E190E00FB6F894A8958093600024
:1047B0000FBE209360000FC080E0089588E10FB61F
:1047C000F89480936000109260000FBEA89510923C
:1047D00001081092000881E008951092B00510922F
:1047E000AF0588EE93E0A0E0B0E08093B105909330
:1047F000B205A093B305B093B4058AE193E090931A
:10480000AE058093AD058FEF9FEF9093BA0580932F
:10481000B9050895FF920F931F93CF93DF93EC0197
:10482000F62EE881F9810480F581E02D09958C014F
:10483000E881F9810680F781E02D6F2DCE01099581
:10484000C8019927DF91CF911F910F91FF90089593
:10485000FC0120812F5F208349E150E063E873E091
:1048600080E80C94DD1E45E650E06CE973E080E8DA
:104870000C94DD1EEF92FF920F931F93CF93DF9363
:104880001F92CDB7DEB789838B017A0141E050E0FA
:10489000BE016F5F7F4F84E00E94421EA701B801F6
:1048A00084E40E94421E0F90DF91CF911F910F91DF
:1048B000FF90EF900895FC0191818081813A31F45D
:1048C00081E0913091F0933089F411C0813271F41C
:1048D0009B3021F482818093100105C09A3031F41D
:1048E000828180930F0181E00895089580E008950A
:1048F00048E050E082E00C943A24CF93DF93DC014F
:10490000683818F0E8E7E60F25C0E62FF0E067FF0B
:1049100011C0E058F10981E090E001C0880FEA95EC
:10492000EAF714969C911497982B14969C931497DD
:10493000E0E010C0ED5FFC4FE491EE2309F440C0CD
:10494000E7FF08C014968C911497826014968C939C
:104950001497EF7716968C9116978E1741F117964C
:104960008C9117978E1719F118968C9118978E17AE
:10497000F1F019968C9119978E17C9F01A968C91AF
:104980001A978E17A1F01B968C911B978E1779F0B2
:1049900080E090E0ED01C80FD91F2E81211102C0E7
:1049A000EE8305C0019686309105A1F709C0BD01CF
:1049B0006C5F7F4FCD010E94782481E090E008C0B9
:1049C00081E090E013969C938E93129780E090E0A4
:1049D000DF91CF910895683818F0E8E7E60F25C019
:1049E000E62FF0E067FF12C0E058F10921E030E067
:1049F00001C0220FEA95EAF72095DC0114963C915C
:104A00001497322314963C93E0E00FC0ED5FFC4F07
:104A1000E491EE2329F1E7FF08C0DC0114962C9104
:104A200014972D7F14962C93EF7720E030E0EE233F
:104A300051F0DC01A20FB31F16964C9116974E133E
:104A400002C016961C922F5F3F4F2630310579F732
:104A5000BC016C5F7F4F0E94782481E090E0089554
:104A600080E090E00895FC0116821782108611867E
:104A7000128613861482BC016C5F7F4F0C947824DD
:104A800010920906109200061092FF058AE293E048
:104A90009093FE058093FD0508955058BB27AA27E3
:104AA0000ED075C166D130F06BD120F031F49F3F4C
:104AB00011F41EF45BC10EF4E095E7FB51C1E92F40
:104AC00077D180F3BA17620773078407950718F048
:104AD00071F49EF58FC10EF4E0950B2EBA2FA02D28
:104AE0000B01B90190010C01CA01A0011124FF279B
:104AF000591B99F0593F50F4503E68F11A16F04096
:104B0000A22F232F342F4427585FF3CF4695379594
:104B10002795A795F0405395C9F77EF41F16BA0B59
:104B2000620B730B840BBAF09150A1F0FF0FBB1F07
:104B3000661F771F881FC2F70EC0BA0F621F731F50
:104B4000841F48F4879577956795B795F7959E3FAD
:104B500008F0B3CF9395880F08F09927EE0F97953B
:104B600087950895D9D008F481E008950CD00FC13D
:104B700007D140F0FED030F021F45F3F19F0F0C0D3
:104B8000511139C1F3C014D198F39923C9F35523B6
:104B9000B1F3951B550BBB27AA2762177307840730
:104BA00038F09F5F5F4F220F331F441FAA1FA9F3E6
:104BB00033D00E2E3AF0E0E830D091505040E695D8
:104BC000001CCAF729D0FE2F27D0660F771F881F39
:104BD000BB1F261737074807AB07B0E809F0BB0B28
:104BE000802DBF01FF2793585F4F2AF09E3F51054C
:104BF00068F0B6C000C15F3FECF3983EDCF38695E9
:104C000077956795B795F7959F5FC9F7880F911DC1
:104C10009695879597F90895E1E0660F771F881FAD
:104C2000BB1F621773078407BA0720F0621B730B60
:104C3000840BBA0BEE1F88F7E095089504D06894B2
:104C4000B111D9C00895BCD088F09F5790F0B92F0A
:104C50009927B751A0F0D1F0660F771F881F991FD1
:104C60001AF0BA95C9F712C0B13081F0C3D0B1E0E3
:104C70000895C0C0672F782F8827B85F39F0B93FF3
:104C8000CCF3869577956795B395D9F73EF49095D3
:104C90008095709561957F4F8F4F9F4F0895E89451
:104CA00009C097FB3EF490958095709561957F4F74
:104CB0008F4F9F4F9923A9F0F92F96E9BB27939522
:104CC000F695879577956795B795F111F8CFFAF432
:104CD000BB0F11F460FF1BC06F5F7F4F8F4F9F4F63
:104CE00016C0882311F096E911C0772321F09EE8C1
:104CF000872F762F05C0662371F096E8862F70E027
:104D000060E02AF09A95660F771F881FDAF7880F00
:104D10009695879597F90895990F0008550FAA0B56
:104D2000E0E8FEEF16161706E807F907C0F01216BE
:104D30001306E407F50798F0621B730B840B950BC1
:104D400039F40A2661F0232B242B252B21F4089516
:104D50000A2609F4A140A6958FEF811D811D0895B3
:104D600097F99F6780E870E060E008959FEF80EC1E
:104D7000089500240A9416161706180609060895C1
:104D800000240A9412161306140605060895092E27
:104D90000394000C11F4882352F0BB0F40F4BF2B96
:104DA00011F460FF04C06F5F7F4F8F4F9F4F0895D6
:104DB00057FD9058440F551F59F05F3F71F04795CC
:104DC000880F97FB991F61F09F3F79F087950895B1
:104DD000121613061406551FF2CF4695F1DF08C0D0
:104DE000161617061806991FF1CF869571056105ED
:104DF00008940895E894BB2766277727CB0197F995
:104E000008958ADF08F48FEF08950BD0C0CFB1DF8B
:104E100028F0B6DF18F0952309F0A2CFA7CF112410
:104E2000EACFC6DFA0F3959FD1F3950F50E0551F51
:104E3000629FF001729FBB27F00DB11D639FAA27EF
:104E4000F00DB11DAA1F649F6627B00DA11D661F3E
:104E5000829F2227B00DA11D621F739FB00DA11D5F
:104E6000621F839FA00D611D221F749F3327A00D19
:104E7000611D231F849F600D211D822F762F6A2FB5
:104E800011249F5750408AF0E1F088234AF0EE0F3A
:104E9000FF1FBB1F661F771F881F91505040A9F747
:104EA0009E3F510570F05CCFA6CF5F3FECF3983E7C
:104EB000DCF3869577956795B795F795E7959F5FAE
:104EC000C1F7FE2B880F911D9695879597F9089548
:104ED00023DF880B990B089597FB072E16F4009497
:104EE00007D077FD09D00E94A82707FC05D03EF423
:104EF000909581959F4F0895709561957F4F089586
:104F0000A1E21A2EAA1BBB1BFD010DC0AA1FBB1FCD
:104F1000EE1FFF1FA217B307E407F50720F0A21B3F
:104F2000B30BE40BF50B661F771F881F991F1A94AC
:104F300069F760957095809590959B01AC01BD01D6
:104F4000CF010895EE0FFF1F0590F491E02D099415
:104F5000AA1BBB1B51E107C0AA1FBB1FA617B7079F
:104F600010F0A61BB70B881F991F5A95A9F78095BB
:104F70009095BC01CD010895CF93DF9382309105C8
:104F800010F482E090E0E0910C06F0910D0620E034
:104F900030E0A0E0B0E0309739F14081518148170E
:104FA0005907B8F04817590771F482819381109717
:104FB00029F013969C938E9312972CC090930D0614
:104FC00080930C0627C02115310531F04217530795
:104FD00018F0A901DB0101C0EF019A01BD01DF0159
:104FE0000280F381E02DD7CF21153105F9F0281B80
:104FF000390B2430310580F48A819B81611571055C
:1050000021F0FB019383828304C090930D0680936B
:105010000C06FE01329644C0FE01E20FF31F81939D
:10502000919322503109398328833AC020910A068E
:1050300030910B06232B41F42091020130910301A2
:1050400030930B0620930A06209100013091010154
:105050002115310541F42DB73EB74091040150911F
:105060000501241B350BE0910A06F0910B06E217AF
:10507000F307A0F42E1B3F0B2817390778F0AC017B
:105080004E5F5F4F2417350748F04E0F5F1F509358
:105090000B0640930A068193919302C0E0E0F0E092
:1050A000CF01DF91CF910895CF93DF93009709F45B
:1050B00087C0FC01329713821282C0910C06D091F6
:1050C0000D06209781F420813181280F391F8091AE
:1050D0000A0690910B068217930779F5F0930B0659
:1050E000E0930A066DC0DE0120E030E0AE17BF0796
:1050F00050F412964D915C9113979D014115510505
:1051000009F1DA01F3CFB383A28340815181840F87
:10511000951F8A179B0771F48D919C911197840FAD
:10512000951F02969183808312968D919C9113977F
:10513000938382832115310529F4F0930D06E093C2
:105140000C063EC0D9011396FC93EE9312974D9135
:105150005D91A40FB51FEA17FB0779F48081918157
:10516000840F951F0296D90111969C938E9382818C
:10517000938113969C938E931297E0E0F0E08A81DE
:105180009B81009719F0FE01EC01F9CFCE01029648
:1051900028813981820F931F20910A0630910B06D6
:1051A0002817390769F4309729F410920D061092E8
:1051B0000C0602C013821282D0930B06C0930A061B
:1051C000DF91CF910895A0E0B0E0E9EEF8E20C9411
:1051D0004A2AEC01CB01209719F40E94BC27B8C0E1
:1051E000FE01E60FF71F9E0122503109E217F30777
:1051F00008F4ACC0D9010D911C911197061717073F
:10520000B8F00530110508F49FC0A80144505109B9
:105210004617570708F498C002501109061B170BD0
:10522000019311936D937C93CF010E9454288CC0FD
:105230005B01A01AB10A4E01800E911EA0910C06CE
:10524000B0910D06612C712C60E070E0109709F4AC
:1052500049C0A815B905C9F5ED90FC9011976701F3
:1052600042E0C40ED11CCA14DB0478F147018A184D
:105270009B08640142E0C40ED11C1296BC901297A8
:105280001396AC91B5E0CB16D10440F0B282A38363
:1052900091828082D9018D939C9309C00E5F1F4F2C
:1052A0000E0D1F1DF90111830083EB2DFA2F6115DF
:1052B000710531F0DB011396FC93EE93129744C015
:1052C000F0930D06E0930C063FC06D917C91119711
:1052D0006616770608F43B01BD0112960D90BC914D
:1052E000A02DB4CF60910A0670910B066815790560
:1052F000E9F468167906D0F440910001509101015B
:105300004115510541F44DB75EB7609104017091AC
:105310000501461B570BE417F507C0F4F0930B0685
:10532000E0930A06F901918380830EC00E94BC2796
:105330007C01009759F0A801BE010E94C529CE0149
:105340000E945428C70104C0CE0102C080E090E052
:10535000CDB7DEB7EEE00C94662A911184C080329E
:1053600019F089508550D0F70895FB01DC010590B4
:105370000D920020E1F70895FC0105900020E9F767
:10538000809590958E0F9F1F0895FB01DC0102C050
:1053900001900D9241505040D8F70895FB01DC0177
:1053A0000D900020E9F7119701900D920020E1F790
:1053B0000895FB01DC018D91019080190110D9F352
:1053C000990B0895FB01DC0101900D920020E1F79B
:1053D0000895FB0151915523A9F0BF01DC014D91C6
:1053E00045174111E1F759F4CD010190002049F032
:1053F0004D9140154111C9F3FB014111EFCF81E0FF
:1054000090E0019708954532510520F4423010F0A4
:105410000C940E2AFB011082CB010895BB274A3061
:1054200031F4992322F4BDE2909581959F4F0C941D
:105430001A2ABB27FB015527AA27880F991FAA1FE5
:10544000A41710F0A41B83955051B9F7A05DAA339F
:1054500008F0A95DA193009779F7B111B19311926A
:10546000CB010C94362A992788270895DC01FC018A
:10547000672F71917723E1F7329704C07C916D9388
:1054800070836291AE17BF07C8F308952F923F92C1
:105490004F925F926F927F928F929F92AF92BF9244
:1054A000CF92DF92EF92FF920F931F93CF93DF93F0
:1054B000CDB7DEB7CA1BDB0B0FB6F894DEBF0FBE4D
:1054C000CDBF09942A88398848885F846E847D849A
:1054D0008C849B84AA84B984C884DF80EE80FD809C
:1054E0000C811B81AA81B981CE0FD11D0FB6F89412
:1054F000DEBF0FBECDBFED01089514E0C8E1D4E0DA
:1055000004C0FE010E94A4272296CC31D107C9F71E
:04551000F894FFCF3D
:1055140000000E0680000100E10000000000000110
:1055240001585858585858583130307B20224C690B
:10553400676874223A002C20224164647265737394
:10554400223A2022416E616C6F673022007B226513
:1055540072726F72223A224661696C656420746FBC
:1055640020726561642066726F6D20444854207314
:10557400656E736F7221227D007B202248756D69F0
:105584006469747950657263656E74223A002C20E4
:105594002254656D7043223A002C202254656D70AC
:1055A40046223A00202C202248656174496E6465C5
:1055B4007846223A002C2022416464726573732277
:1055C4003A20224469676974616C313022007B207F
:1055D400226572726F7222203A2022005374617421
:1055E40075733A2032303000436F6E74656E742DDB
:1055F400747970653A206170706C69636174696F65
:105604006E2F6A736F6E00474554002048545450FF
:1056140000202F0044533138423230206E6F742002
:10562400666F756E643A20005B007B2022416464DF
:1056340072657373223A20220022202C00225465C2
:105644006D7043223A20002D393939002C20005D39
:10565400007B20224C69676874223A20002C2022A7
:10566400444854223A20002C202254656D706572FF
:10567400617475726573223A200074656D700074EC
:10568400656D7073006C696768740065727200629E
:105694006F6F740064617461007B226572726F7253
:1056A400223A22496E76616C696420636F6D6D6184
:1056B4006E6422207D00000000006F09AF09810A9A
:1056C4008B0AA50A180A00000000E80ABE1A3D0B5E
:1056D400470B5F0BE70A00000000370D0D0CD50DDA
:1056E400DF0D2C0EA60BA70BA40CF70D4F0C790C99
:1056F400A30B00000000B00EBE1A4A0E5E00BC00F0
:10570400770100000000E518BE1A671880187218A7
:10571400C31800000000511A6E616E00696E6600C5
:105724006F7666002E0000000000302377235A2392
:105734006A2346235723000000000A24BE1A7D244E
:04574400EB243325FA
:00000001FF
